{
  "contractName": "Jobs",
  "abi": [
    {
      "inputs": [
        {
          "internalType": "address",
          "name": "_contractAddressDatasets",
          "type": "address"
        },
        {
          "internalType": "address",
          "name": "_contractAddressModels",
          "type": "address"
        }
      ],
      "payable": false,
      "stateMutability": "nonpayable",
      "type": "constructor"
    },
    {
      "constant": true,
      "inputs": [
        {
          "internalType": "uint256",
          "name": "",
          "type": "uint256"
        }
      ],
      "name": "jobs",
      "outputs": [
        {
          "internalType": "address payable",
          "name": "owner",
          "type": "address"
        },
        {
          "internalType": "string",
          "name": "modelIpfsHash",
          "type": "string"
        },
        {
          "internalType": "string",
          "name": "strategyHash",
          "type": "string"
        },
        {
          "internalType": "uint256",
          "name": "minClients",
          "type": "uint256"
        },
        {
          "internalType": "uint256",
          "name": "initTime",
          "type": "uint256"
        },
        {
          "internalType": "uint256",
          "name": "daysUntilStart",
          "type": "uint256"
        },
        {
          "internalType": "bool",
          "name": "active",
          "type": "bool"
        },
        {
          "internalType": "bool",
          "name": "registered",
          "type": "bool"
        },
        {
          "internalType": "bool",
          "name": "trainingStarted",
          "type": "bool"
        },
        {
          "internalType": "uint256",
          "name": "holdingFee",
          "type": "uint256"
        },
        {
          "internalType": "uint256",
          "name": "numAllow",
          "type": "uint256"
        },
        {
          "internalType": "uint256",
          "name": "bounty",
          "type": "uint256"
        },
        {
          "internalType": "uint256",
          "name": "feeSum",
          "type": "uint256"
        }
      ],
      "payable": false,
      "stateMutability": "view",
      "type": "function"
    },
    {
      "constant": true,
      "inputs": [],
      "name": "jobsCreated",
      "outputs": [
        {
          "internalType": "uint256",
          "name": "",
          "type": "uint256"
        }
      ],
      "payable": false,
      "stateMutability": "view",
      "type": "function"
    },
    {
      "constant": true,
      "inputs": [
        {
          "internalType": "string",
          "name": "_modelIpfsHash",
          "type": "string"
        }
      ],
      "name": "isSenderModelOwner",
      "outputs": [
        {
          "internalType": "bool",
          "name": "",
          "type": "bool"
        }
      ],
      "payable": false,
      "stateMutability": "view",
      "type": "function"
    },
    {
      "constant": true,
      "inputs": [
        {
          "internalType": "string",
          "name": "_datasetIpfsHash",
          "type": "string"
        }
      ],
      "name": "isSenderDatasetOwner",
      "outputs": [
        {
          "internalType": "bool",
          "name": "",
          "type": "bool"
        }
      ],
      "payable": false,
      "stateMutability": "view",
      "type": "function"
    },
    {
      "constant": true,
      "inputs": [
        {
          "internalType": "uint256",
          "name": "_id",
          "type": "uint256"
        }
      ],
      "name": "getJobStartTime",
      "outputs": [
        {
          "internalType": "uint256",
          "name": "",
          "type": "uint256"
        }
      ],
      "payable": false,
      "stateMutability": "view",
      "type": "function"
    },
    {
      "constant": true,
      "inputs": [
        {
          "internalType": "uint256",
          "name": "_id",
          "type": "uint256"
        }
      ],
      "name": "registrationPeriodOver",
      "outputs": [
        {
          "internalType": "bool",
          "name": "",
          "type": "bool"
        }
      ],
      "payable": false,
      "stateMutability": "view",
      "type": "function"
    },
    {
      "constant": false,
      "inputs": [
        {
          "internalType": "string",
          "name": "_modelIpfsHash",
          "type": "string"
        },
        {
          "internalType": "string",
          "name": "_strategyHash",
          "type": "string"
        },
        {
          "internalType": "uint256",
          "name": "_minClients",
          "type": "uint256"
        },
        {
          "internalType": "uint256",
          "name": "_daysUntilStart",
          "type": "uint256"
        },
        {
          "internalType": "uint256",
          "name": "_bounty",
          "type": "uint256"
        },
        {
          "internalType": "uint256",
          "name": "_holdingFee",
          "type": "uint256"
        }
      ],
      "name": "createJob",
      "outputs": [],
      "payable": true,
      "stateMutability": "payable",
      "type": "function"
    },
    {
      "constant": false,
      "inputs": [
        {
          "internalType": "uint256",
          "name": "_id",
          "type": "uint256"
        },
        {
          "internalType": "string",
          "name": "_datasetIpfsHash",
          "type": "string"
        }
      ],
      "name": "registerDatasetOwner",
      "outputs": [],
      "payable": true,
      "stateMutability": "payable",
      "type": "function"
    },
    {
      "constant": false,
      "inputs": [
        {
          "internalType": "uint256",
          "name": "_id",
          "type": "uint256"
        },
        {
          "internalType": "address payable",
          "name": "_datasetOwner",
          "type": "address"
        }
      ],
      "name": "addToAllowList",
      "outputs": [],
      "payable": false,
      "stateMutability": "nonpayable",
      "type": "function"
    },
    {
      "constant": true,
      "inputs": [
        {
          "internalType": "uint256",
          "name": "_id",
          "type": "uint256"
        }
      ],
      "name": "getNumRegistered",
      "outputs": [
        {
          "internalType": "uint256",
          "name": "",
          "type": "uint256"
        }
      ],
      "payable": false,
      "stateMutability": "view",
      "type": "function"
    },
    {
      "constant": true,
      "inputs": [
        {
          "internalType": "uint256",
          "name": "_id",
          "type": "uint256"
        }
      ],
      "name": "getNumAllow",
      "outputs": [
        {
          "internalType": "uint256",
          "name": "",
          "type": "uint256"
        }
      ],
      "payable": false,
      "stateMutability": "view",
      "type": "function"
    },
    {
      "constant": true,
      "inputs": [
        {
          "internalType": "uint256",
          "name": "_id",
          "type": "uint256"
        }
      ],
      "name": "getJobRegistered",
      "outputs": [
        {
          "internalType": "address payable[]",
          "name": "",
          "type": "address[]"
        }
      ],
      "payable": false,
      "stateMutability": "view",
      "type": "function"
    },
    {
      "constant": true,
      "inputs": [
        {
          "internalType": "uint256",
          "name": "_id",
          "type": "uint256"
        }
      ],
      "name": "getJobAllowed",
      "outputs": [
        {
          "internalType": "address payable[]",
          "name": "",
          "type": "address[]"
        }
      ],
      "payable": false,
      "stateMutability": "view",
      "type": "function"
    },
    {
      "constant": true,
      "inputs": [
        {
          "internalType": "uint256",
          "name": "_id",
          "type": "uint256"
        }
      ],
      "name": "getJobDetails",
      "outputs": [
        {
          "internalType": "address",
          "name": "",
          "type": "address"
        },
        {
          "internalType": "uint256",
          "name": "",
          "type": "uint256"
        },
        {
          "internalType": "uint256",
          "name": "",
          "type": "uint256"
        },
        {
          "internalType": "uint256",
          "name": "",
          "type": "uint256"
        }
      ],
      "payable": false,
      "stateMutability": "view",
      "type": "function"
    },
    {
      "constant": true,
      "inputs": [
        {
          "internalType": "uint256",
          "name": "_id",
          "type": "uint256"
        }
      ],
      "name": "getJobStatus",
      "outputs": [
        {
          "internalType": "uint256",
          "name": "",
          "type": "uint256"
        },
        {
          "internalType": "uint256",
          "name": "",
          "type": "uint256"
        },
        {
          "internalType": "bool",
          "name": "",
          "type": "bool"
        },
        {
          "internalType": "bool",
          "name": "",
          "type": "bool"
        }
      ],
      "payable": false,
      "stateMutability": "view",
      "type": "function"
    },
    {
      "constant": false,
      "inputs": [
        {
          "internalType": "uint256",
          "name": "_id",
          "type": "uint256"
        }
      ],
      "name": "start_job",
      "outputs": [],
      "payable": false,
      "stateMutability": "nonpayable",
      "type": "function"
    },
    {
      "constant": false,
      "inputs": [
        {
          "internalType": "uint256",
          "name": "_id",
          "type": "uint256"
        }
      ],
      "name": "withdrawFee",
      "outputs": [],
      "payable": false,
      "stateMutability": "nonpayable",
      "type": "function"
    },
    {
      "constant": false,
      "inputs": [
        {
          "internalType": "uint256",
          "name": "jobId",
          "type": "uint256"
        }
      ],
      "name": "deactivateJob",
      "outputs": [],
      "payable": false,
      "stateMutability": "nonpayable",
      "type": "function"
    }
  ],
  "bytecode": "0x60806040526000805562015180600355620f424060045534801561002257600080fd5b50604051612b96380380612b968339818101604052604081101561004557600080fd5b81019080805190602001909291908051906020019092919050505081600160006101000a81548173ffffffffffffffffffffffffffffffffffffffff021916908373ffffffffffffffffffffffffffffffffffffffff16021790555080600260006101000a81548173ffffffffffffffffffffffffffffffffffffffff021916908373ffffffffffffffffffffffffffffffffffffffff1602179055505050612aa3806100f36000396000f3fe6080604052600436106101095760003560e01c80635df1999811610095578063a335e7d511610064578063a335e7d5146108aa578063a6c58b631461096f578063be357616146109db578063d9d3074014610a16578063ffd5832b14610a6557610109565b80635df19998146106c05780637e1255c5146106eb578063808e0e231461077b57806387386b74146107ca57610109565b8063366d2a4b116100dc578063366d2a4b146103f15780634be3c83e1461042c5780634cac35c6146105a65780634d2660731461063657806357c217291461068557610109565b806309e1e9111461010e5780630d11204914610161578063180aedf3146101bc5780632215bf2214610361575b600080fd5b34801561011a57600080fd5b506101476004803603602081101561013157600080fd5b8101908080359060200190929190505050610b45565b604051808215151515815260200191505060405180910390f35b34801561016d57600080fd5b506101ba6004803603604081101561018457600080fd5b8101908080359060200190929190803573ffffffffffffffffffffffffffffffffffffffff169060200190929190505050610b5a565b005b3480156101c857600080fd5b506101f5600480360360208110156101df57600080fd5b8101908080359060200190929190505050610ed8565b604051808e73ffffffffffffffffffffffffffffffffffffffff1673ffffffffffffffffffffffffffffffffffffffff16815260200180602001806020018d81526020018c81526020018b81526020018a151515158152602001891515151581526020018815151515815260200187815260200186815260200185815260200184815260200183810383528f818151815260200191508051906020019080838360005b838110156102b3578082015181840152602081019050610298565b50505050905090810190601f1680156102e05780820380516001836020036101000a031916815260200191505b5083810382528e818151815260200191508051906020019080838360005b838110156103195780820151818401526020810190506102fe565b50505050905090810190601f1680156103465780820380516001836020036101000a031916815260200191505b509f5050505050505050505050505050505060405180910390f35b34801561036d57600080fd5b5061039a6004803603602081101561038457600080fd5b81019080803590602001909291905050506110b5565b6040518080602001828103825283818151815260200191508051906020019060200280838360005b838110156103dd5780820151818401526020810190506103c2565b505050509050019250505060405180910390f35b3480156103fd57600080fd5b5061042a6004803603602081101561041457600080fd5b8101908080359060200190929190505050611159565b005b6105a4600480360360c081101561044257600080fd5b810190808035906020019064010000000081111561045f57600080fd5b82018360208201111561047157600080fd5b8035906020019184600183028401116401000000008311171561049357600080fd5b91908080601f016020809104026020016040519081016040528093929190818152602001838380828437600081840152601f19601f820116905080830192505050505050509192919290803590602001906401000000008111156104f657600080fd5b82018360208201111561050857600080fd5b8035906020019184600183028401116401000000008311171561052a57600080fd5b91908080601f016020809104026020016040519081016040528093929190818152602001838380828437600081840152601f19601f82011690508083019250505050505050919291929080359060200190929190803590602001909291908035906020019092919080359060200190929190505050611295565b005b3480156105b257600080fd5b506105df600480360360208110156105c957600080fd5b810190808035906020019092919050505061156a565b604051808573ffffffffffffffffffffffffffffffffffffffff1673ffffffffffffffffffffffffffffffffffffffff16815260200184815260200183815260200182815260200194505050505060405180910390f35b34801561064257600080fd5b5061066f6004803603602081101561065957600080fd5b81019080803590602001909291905050506115fe565b6040518082815260200191505060405180910390f35b34801561069157600080fd5b506106be600480360360208110156106a857600080fd5b8101908080359060200190929190505050611621565b005b3480156106cc57600080fd5b506106d5611a9a565b6040518082815260200191505060405180910390f35b3480156106f757600080fd5b506107246004803603602081101561070e57600080fd5b8101908080359060200190929190505050611aa0565b6040518080602001828103825283818151815260200191508051906020019060200280838360005b8381101561076757808201518184015260208101905061074c565b505050509050019250505060405180910390f35b34801561078757600080fd5b506107b46004803603602081101561079e57600080fd5b8101908080359060200190929190505050611b44565b6040518082815260200191505060405180910390f35b3480156107d657600080fd5b50610890600480360360208110156107ed57600080fd5b810190808035906020019064010000000081111561080a57600080fd5b82018360208201111561081c57600080fd5b8035906020019184600183028401116401000000008311171561083e57600080fd5b91908080601f016020809104026020016040519081016040528093929190818152602001838380828437600081840152601f19601f820116905080830192505050505050509192919290505050611b67565b604051808215151515815260200191505060405180910390f35b61096d600480360360408110156108c057600080fd5b8101908080359060200190929190803590602001906401000000008111156108e757600080fd5b8201836020820111156108f957600080fd5b8035906020019184600183028401116401000000008311171561091b57600080fd5b91908080601f016020809104026020016040519081016040528093929190818152602001838380828437600081840152601f19601f820116905080830192505050505050509192919290505050611cb6565b005b34801561097b57600080fd5b506109a86004803603602081101561099257600080fd5b81019080803590602001909291905050506121af565b60405180858152602001848152602001831515151581526020018215151515815260200194505050505060405180910390f35b3480156109e757600080fd5b50610a14600480360360208110156109fe57600080fd5b810190808035906020019092919050505061223a565b005b348015610a2257600080fd5b50610a4f60048036036020811015610a3957600080fd5b81019080803590602001909291905050506124a5565b6040518082815260200191505060405180910390f35b348015610a7157600080fd5b50610b2b60048036036020811015610a8857600080fd5b8101908080359060200190640100000000811115610aa557600080fd5b820183602082011115610ab757600080fd5b80359060200191846001830284011164010000000083111715610ad957600080fd5b91908080601f016020809104026020016040519081016040528093929190818152602001838380828437600081840152601f19601f8201169050808301925050505050505091929192905050506124e2565b604051808215151515815260200191505060405180910390f35b6000610b50826124a5565b4210159050919050565b3373ffffffffffffffffffffffffffffffffffffffff166005600084815260200190815260200160002060000160009054906101000a900473ffffffffffffffffffffffffffffffffffffffff1673ffffffffffffffffffffffffffffffffffffffff1614610c14576040517f08c379a00000000000000000000000000000000000000000000000000000000081526004018080602001828103825260268152602001806129a06026913960400191505060405180910390fd5b6001151560056000848152602001908152602001600020600b0160008373ffffffffffffffffffffffffffffffffffffffff1673ffffffffffffffffffffffffffffffffffffffff16815260200190815260200160002060009054906101000a900460ff16151514610cd1576040517f08c379a00000000000000000000000000000000000000000000000000000000081526004018080602001828103825260338152602001806129086033913960400191505060405180910390fd5b610cda82610b45565b15610d30576040517f08c379a000000000000000000000000000000000000000000000000000000000815260040180806020018281038252602a815260200180612a45602a913960400191505060405180910390fd5b6001151560056000848152602001908152602001600020600c0160008373ffffffffffffffffffffffffffffffffffffffff1673ffffffffffffffffffffffffffffffffffffffff16815260200190815260200160002060009054906101000a900460ff1615151415610dee576040517f08c379a00000000000000000000000000000000000000000000000000000000081526004018080602001828103825260298152602001806128896029913960400191505060405180910390fd5b600160056000848152602001908152602001600020600c0160008373ffffffffffffffffffffffffffffffffffffffff1673ffffffffffffffffffffffffffffffffffffffff16815260200190815260200160002060006101000a81548160ff02191690831515021790555060056000838152602001908152602001600020600f018190806001815401808255809150509060018203906000526020600020016000909192909190916101000a81548173ffffffffffffffffffffffffffffffffffffffff021916908373ffffffffffffffffffffffffffffffffffffffff160217905550505050565b60056020528060005260406000206000915090508060000160009054906101000a900473ffffffffffffffffffffffffffffffffffffffff1690806001018054600181600116156101000203166002900480601f016020809104026020016040519081016040528092919081815260200182805460018160011615610100020316600290048015610faa5780601f10610f7f57610100808354040283529160200191610faa565b820191906000526020600020905b815481529060010190602001808311610f8d57829003601f168201915b505050505090806002018054600181600116156101000203166002900480601f0160208091040260200160405190810160405280929190818152602001828054600181600116156101000203166002900480156110485780601f1061101d57610100808354040283529160200191611048565b820191906000526020600020905b81548152906001019060200180831161102b57829003601f168201915b5050505050908060030154908060040154908060050154908060060160009054906101000a900460ff16908060060160019054906101000a900460ff16908060060160029054906101000a900460ff169080600701549080600801549080600901549080600a015490508d565b606060056000838152602001908152602001600020600f0180548060200260200160405190810160405280929190818152602001828054801561114d57602002820191906000526020600020905b8160009054906101000a900473ffffffffffffffffffffffffffffffffffffffff1673ffffffffffffffffffffffffffffffffffffffff1681526020019060010190808311611103575b50505050509050919050565b3373ffffffffffffffffffffffffffffffffffffffff166005600083815260200190815260200160002060000160009054906101000a900473ffffffffffffffffffffffffffffffffffffffff1673ffffffffffffffffffffffffffffffffffffffff16146111c757600080fd5b6005600082815260200190815260200160002060060160019054906101000a900460ff16156112245760006005600083815260200190815260200160002060060160006101000a81548160ff021916908315150217905550611292565b6040517f08c379a000000000000000000000000000000000000000000000000000000000815260040180806020018281038252601b8152602001807f54686973206a6f62206973206e6f7420726567697374657265642e000000000081525060200191505060405180910390fd5b50565b61129e86611b67565b6112f3576040517f08c379a00000000000000000000000000000000000000000000000000000000081526004018080602001828103825260308152602001806128246030913960400191505060405180910390fd5b8160045401341461134f576040517f08c379a000000000000000000000000000000000000000000000000000000000815260040180806020018281038252603481526020018061293b6034913960400191505060405180910390fd5b6060604051806101e001604052803373ffffffffffffffffffffffffffffffffffffffff168152602001888152602001878152602001868152602001428152602001858152602001600115158152602001600115158152602001600015158152602001838152602001600081526020018481526020016000815260200182815260200182815250600560008054815260200190815260200160002060008201518160000160006101000a81548173ffffffffffffffffffffffffffffffffffffffff021916908373ffffffffffffffffffffffffffffffffffffffff160217905550602082015181600101908051906020019061144d929190612631565b50604082015181600201908051906020019061146a929190612631565b50606082015181600301556080820151816004015560a0820151816005015560c08201518160060160006101000a81548160ff02191690831515021790555060e08201518160060160016101000a81548160ff0219169083151502179055506101008201518160060160026101000a81548160ff02191690831515021790555061012082015181600701556101408201518160080155610160820151816009015561018082015181600a01556101a082015181600e0190805190602001906115339291906126b1565b506101c082015181600f0190805190602001906115519291906126b1565b5090505060016000540160008190555050505050505050565b6000806000806005600086815260200190815260200160002060000160009054906101000a900473ffffffffffffffffffffffffffffffffffffffff1660056000878152602001908152602001600020600301546005600088815260200190815260200160002060080154600560008981526020019081526020016000206009015483935093509350935093509193509193565b600060056000838152602001908152602001600020600f01805490509050919050565b3373ffffffffffffffffffffffffffffffffffffffff166005600083815260200190815260200160002060000160009054906101000a900473ffffffffffffffffffffffffffffffffffffffff1673ffffffffffffffffffffffffffffffffffffffff16146116f8576040517f08c379a00000000000000000000000000000000000000000000000000000000081526004018080602001828103825260208152602001807f4a6f622063616e206f6e6c792062652073746172746564206279206f776e657281525060200191505060405180910390fd5b61170181610b45565b611756576040517f08c379a00000000000000000000000000000000000000000000000000000000081526004018080602001828103825260328152602001806128d66032913960400191505060405180910390fd5b6000611761826124a5565b9050600060035482019050804211156117e2576040517f08c379a00000000000000000000000000000000000000000000000000000000081526004018080602001828103825260208152602001807f546f6f206c61746520746f20737461727420747261696e696e67206d6f64656c81525060200191505060405180910390fd5b600560008481526020019081526020016000206003015460056000858152602001908152602001600020600f0180549050101561186a576040517f08c379a00000000000000000000000000000000000000000000000000000000081526004018080602001828103825260258152602001806129c66025913960400191505060405180910390fd5b60016005600085815260200190815260200160002060060160026101000a81548160ff021916908315150217905550606060056000858152602001908152602001600020600e0180548060200260200160405190810160405280929190818152602001828054801561193157602002820191906000526020600020905b8160009054906101000a900473ffffffffffffffffffffffffffffffffffffffff1673ffffffffffffffffffffffffffffffffffffffff16815260200190600101908083116118e7575b5050505050905060008090505b8151811015611a4a576001151560056000878152602001908152602001600020600c01600084848151811061196f57fe5b602002602001015173ffffffffffffffffffffffffffffffffffffffff1673ffffffffffffffffffffffffffffffffffffffff16815260200190815260200160002060009054906101000a900460ff16151514611a3d5760008282815181106119d457fe5b602002602001015190508073ffffffffffffffffffffffffffffffffffffffff166108fc60056000898152602001908152602001600020600701549081150290604051600060405180830381858888f19350505050158015611a3a573d6000803e3d6000fd5b50505b808060010191505061193e565b503373ffffffffffffffffffffffffffffffffffffffff166108fc6004549081150290604051600060405180830381858888f19350505050158015611a93573d6000803e3d6000fd5b5050505050565b60005481565b606060056000838152602001908152602001600020600e01805480602002602001604051908101604052809291908181526020018280548015611b3857602002820191906000526020600020905b8160009054906101000a900473ffffffffffffffffffffffffffffffffffffffff1673ffffffffffffffffffffffffffffffffffffffff1681526020019060010190808311611aee575b50505050509050919050565b600060056000838152602001908152602001600020600e01805490509050919050565b600080600260009054906101000a900473ffffffffffffffffffffffffffffffffffffffff1673ffffffffffffffffffffffffffffffffffffffff166368ebd4e8846040518263ffffffff1660e01b81526004018080602001828103825283818151815260200191508051906020019080838360005b83811015611bf8578082015181840152602081019050611bdd565b50505050905090810190601f168015611c255780820380516001836020036101000a031916815260200191505b509250505060206040518083038186803b158015611c4257600080fd5b505afa158015611c56573d6000803e3d6000fd5b505050506040513d6020811015611c6c57600080fd5b810190808051906020019092919050505090503373ffffffffffffffffffffffffffffffffffffffff168173ffffffffffffffffffffffffffffffffffffffff1614915050919050565b6005600083815260200190815260200160002060000160009054906101000a900473ffffffffffffffffffffffffffffffffffffffff1673ffffffffffffffffffffffffffffffffffffffff163373ffffffffffffffffffffffffffffffffffffffff161415611d71576040517f08c379a00000000000000000000000000000000000000000000000000000000081526004018080602001828103825260248152602001806129eb6024913960400191505060405180910390fd5b611d7a816124e2565b611dec576040517f08c379a00000000000000000000000000000000000000000000000000000000081526004018080602001828103825260208152602001807f4e65656420746f206265206f776e6572206f662074686973206461746173657481525060200191505060405180910390fd5b611df582610b45565b15611e4b576040517f08c379a000000000000000000000000000000000000000000000000000000000815260040180806020018281038252602a815260200180612a45602a913960400191505060405180910390fd5b60056000838152602001908152602001600020600701543414611eb9576040517f08c379a00000000000000000000000000000000000000000000000000000000081526004018080602001828103825260248152602001806128b26024913960400191505060405180910390fd5b6005600083815260200190815260200160002060060160009054906101000a900460ff16611f4f576040517f08c379a00000000000000000000000000000000000000000000000000000000081526004018080602001828103825260208152602001807f54686973206a6f62206973206e6f742063757272656e746c792061637469766581525060200191505060405180910390fd5b6001151560056000848152602001908152602001600020600b0160003373ffffffffffffffffffffffffffffffffffffffff1673ffffffffffffffffffffffffffffffffffffffff16815260200190815260200160002060009054906101000a900460ff161515141561202a576040517f08c379a000000000000000000000000000000000000000000000000000000000815260040180806020018281038252601f8152602001807f20416c72656164792072656769737465726564206f6e2074686973206a6f620081525060200191505060405180910390fd5b600160056000848152602001908152602001600020600b0160003373ffffffffffffffffffffffffffffffffffffffff1673ffffffffffffffffffffffffffffffffffffffff16815260200190815260200160002060006101000a81548160ff0219169083151502179055508060056000848152602001908152602001600020600d0160003373ffffffffffffffffffffffffffffffffffffffff1673ffffffffffffffffffffffffffffffffffffffff16815260200190815260200160002090805190602001906120fd92919061273b565b5060056000838152602001908152602001600020600e013390806001815401808255809150509060018203906000526020600020016000909192909190916101000a81548173ffffffffffffffffffffffffffffffffffffffff021916908373ffffffffffffffffffffffffffffffffffffffff160217905550503460056000848152602001908152602001600020600a01540160056000848152602001908152602001600020600a01819055505050565b600080600080600560008681526020019081526020016000206004015460056000878152602001908152602001600020600501546005600088815260200190815260200160002060060160009054906101000a900460ff166005600089815260200190815260200160002060060160029054906101000a900460ff1693509350935093509193509193565b6000612245826124a5565b9050600060035482019050804210156122a9576040517f08c379a00000000000000000000000000000000000000000000000000000000081526004018080602001828103825260358152602001806128546035913960400191505060405180910390fd5b6005600084815260200190815260200160002060060160029054906101000a900460ff1615612323576040517f08c379a000000000000000000000000000000000000000000000000000000000815260040180806020018281038252603181526020018061296f6031913960400191505060405180910390fd5b6001151560056000858152602001908152602001600020600b0160003373ffffffffffffffffffffffffffffffffffffffff1673ffffffffffffffffffffffffffffffffffffffff16815260200190815260200160002060009054906101000a900460ff161515146123e0576040517f08c379a0000000000000000000000000000000000000000000000000000000008152600401808060200182810382526036815260200180612a0f6036913960400191505060405180910390fd5b3373ffffffffffffffffffffffffffffffffffffffff166108fc60056000868152602001908152602001600020600701549081150290604051600060405180830381858888f1935050505015801561243c573d6000803e3d6000fd5b5060056000848152602001908152602001600020600b0160003373ffffffffffffffffffffffffffffffffffffffff1673ffffffffffffffffffffffffffffffffffffffff16815260200190815260200160002060006101000a81549060ff0219169055505050565b6000620151806005600084815260200190815260200160002060050154026005600084815260200190815260200160002060040154019050919050565b600080600160009054906101000a900473ffffffffffffffffffffffffffffffffffffffff1673ffffffffffffffffffffffffffffffffffffffff16635c06c902846040518263ffffffff1660e01b81526004018080602001828103825283818151815260200191508051906020019080838360005b83811015612573578082015181840152602081019050612558565b50505050905090810190601f1680156125a05780820380516001836020036101000a031916815260200191505b509250505060206040518083038186803b1580156125bd57600080fd5b505afa1580156125d1573d6000803e3d6000fd5b505050506040513d60208110156125e757600080fd5b810190808051906020019092919050505090503373ffffffffffffffffffffffffffffffffffffffff168173ffffffffffffffffffffffffffffffffffffffff1614915050919050565b828054600181600116156101000203166002900490600052602060002090601f016020900481019282601f1061267257805160ff19168380011785556126a0565b828001600101855582156126a0579182015b8281111561269f578251825591602001919060010190612684565b5b5090506126ad91906127bb565b5090565b82805482825590600052602060002090810192821561272a579160200282015b828111156127295782518260006101000a81548173ffffffffffffffffffffffffffffffffffffffff021916908373ffffffffffffffffffffffffffffffffffffffff160217905550916020019190600101906126d1565b5b50905061273791906127e0565b5090565b828054600181600116156101000203166002900490600052602060002090601f016020900481019282601f1061277c57805160ff19168380011785556127aa565b828001600101855582156127aa579182015b828111156127a957825182559160200191906001019061278e565b5b5090506127b791906127bb565b5090565b6127dd91905b808211156127d95760008160009055506001016127c1565b5090565b90565b61282091905b8082111561281c57600081816101000a81549073ffffffffffffffffffffffffffffffffffffffff0219169055506001016127e6565b5090565b9056fe4f6e6c79206d6f64656c206f776e65722063616e206372656174652061206a6f6220666f722074686973206d6f64656c43616e206f6e6c792077697468647261772066756e647320616674657220747261696e696e6720737461727420646561646c696e6544617461736574206f776e657220616c726561647920616464656420746f20616c6c6f77206c6973744e65656420746f2073656e642074686520636f727265637420686f6c64696e6720666565526567697374726174696f6e20706572696f6420666f722074686973206a6f6220686173206e6f742079657420656e64656443616e206f6e6c792061646420616e20696e74657265737465642064617461206f776e657220746f20616c6c6f77206c6973744e65656420746f2073656e642074686520636f7272656374206a6f62206372656174696f6e2066656520616e6420626f756e747943616e206f6e6c792077697468647261772066756e647320696620747261696e696e67206e6576657220737461727465644e65656420746f20626520726567697374657265642061732064617461736574206f776e65724d696e696d756d206e756d626572206f6620636c69656e7473206e6f7420726561636865644a6f62206f776e65722063616e6e6f74207369676e207570206173206120636c69656e744f6e6c7920616e20616c726561647920726567697374657265642064617461206f776e65722063616e20776974686472617720666565526567697374726174696f6e20706572696f6420666f722074686973206a6f622068617320656e646564a265627a7a723158209e2bc1dce521485af212d7bd7c8cc1b1baf65aba124a07ac2b06ca9be65b2b3c64736f6c63430005100032",
  "source": "pragma solidity >=0.5.16;\n\ncontract ModelDatabase {\n    function getModelOwner(string memory _ipfsHash) public view returns(address) {}\n}\n\ncontract DatasetDatabase {\n    function getDatasetOwner(string memory _ipfsHash) public view returns(address) {}\n}\n\ncontract Jobs {\n    \n    uint public jobsCreated = 0;\n\n    DatasetDatabase datasetDatabase;\n    ModelDatabase modelDatabase;\n\n    uint gracePeriod = 1 days;\n\n    uint jobCreationFee = 1e6 wei;\n\n    struct Job {\n        address payable owner;\n        string modelIpfsHash;\n        string strategyHash;\n        uint minClients;\n        uint initTime;\n        uint daysUntilStart;\n        bool active;\n        bool registered;\n        bool trainingStarted;\n        uint holdingFee;\n        uint numAllow;\n        uint bounty;\n        uint feeSum;\n        mapping(address => bool) datasetOwners;\n        mapping(address => bool)  allowList;\n        mapping(address => string) datasetHash;\n        address payable[] arrDatasetOwners;\n        address payable[] arrAllowList;\n    }\n\n    mapping(uint => Job) public jobs;\n\n    constructor(address _contractAddressDatasets, address _contractAddressModels) public {\n        datasetDatabase = DatasetDatabase(_contractAddressDatasets);\n        modelDatabase = ModelDatabase(_contractAddressModels);\n    }\n\n    function isSenderModelOwner(string memory _modelIpfsHash) public view returns(bool) {\n        address owner = modelDatabase.getModelOwner(_modelIpfsHash);\n        return (owner == msg.sender);\n    }\n\n    function isSenderDatasetOwner(string memory _datasetIpfsHash) public view returns(bool) {\n        address owner = datasetDatabase.getDatasetOwner(_datasetIpfsHash);\n        return (owner == msg.sender);\n    }\n\n    function getJobStartTime(uint _id) public view returns(uint) {\n        return jobs[_id].initTime + jobs[_id].daysUntilStart * 1 days;\n    }\n\n    function registrationPeriodOver(uint _id) public view returns(bool) {\n        return (block.timestamp >= getJobStartTime(_id));\n    }\n\n    function createJob(string memory _modelIpfsHash, string memory _strategyHash, uint _minClients, uint _daysUntilStart,\n        uint _bounty, uint _holdingFee) public payable {\n\n        // Check the Job creator is model owner\n        require(isSenderModelOwner(_modelIpfsHash),\"Only model owner can create a job for this model\");\n\n        // Check user has paid the correct bounty and job Creation Fee\n        require(msg.value == jobCreationFee + _bounty,\"Need to send the correct job creation fee and bounty\");\n\n        address payable[] memory init;\n\n        jobs[jobsCreated] = Job({owner: msg.sender,\n                                modelIpfsHash: _modelIpfsHash,\n                                strategyHash: _strategyHash,\n                                minClients: _minClients,\n                                initTime: block.timestamp,\n                                daysUntilStart: _daysUntilStart,\n                                bounty: _bounty,\n                                holdingFee: _holdingFee,\n                                feeSum: 0,\n                                numAllow: 0,\n                                active: true,\n                                registered: true,\n                                trainingStarted: false,\n                                arrDatasetOwners: init,\n                                arrAllowList: init}\n                                );\n\n        jobsCreated = jobsCreated + 1;\n    }\n\n\n    // Called by dataset owners to register their willingness to join a jobs\n    // Owners registers a particular dataset and\n    function registerDatasetOwner(uint _id, string memory _datasetIpfsHash) public payable {\n        // Check user is not model owner\n        require(msg.sender != jobs[_id].owner, \"Job owner cannot sign up as a client\");\n\n        // Check if user is dataset owner\n        require(isSenderDatasetOwner(_datasetIpfsHash), \"Need to be owner of this dataset\");\n\n\n        // Check job is still in registration period\n        if (registrationPeriodOver(_id)){\n            revert(\"Registration period for this job has ended\");\n        }\n\n        // Check user has paid the correct holding fee\n        require(msg.value == jobs[_id].holdingFee,\"Need to send the correct holding fee\");\n\n        // Check job is active\n        if (!jobs[_id].active){\n            revert(\"This job is not currently active\");\n        }\n\n        // Check if already registered\n        if(jobs[_id].datasetOwners[msg.sender] == true){\n            revert(\" Already registered on this job\");\n        }\n\n        // Add dataset owner's address to list of owner addresses comitted to job\n        jobs[_id].datasetOwners[msg.sender] = true;\n        jobs[_id].datasetHash[msg.sender] = _datasetIpfsHash;\n        jobs[_id].arrDatasetOwners.push(msg.sender);\n\n        // Sum up amount paid by committed dataowners\n        jobs[_id].feeSum = jobs[_id].feeSum + msg.value;\n\n    }\n    \n    // Called by Job owner to allow registered Clients to partake in job i.e. download model\n    function addToAllowList(uint _id, address payable _datasetOwner) public {\n        // Check user is job owner\n        require(jobs[_id].owner == msg.sender, \"Need to be registered as dataset owner\");\n\n        // Check address is in registry of interested owners\n        require(jobs[_id].datasetOwners[_datasetOwner] == true, \"Can only add an interested data owner to allow list\");\n\n        // Check job is still in registration period\n        if (registrationPeriodOver(_id)){\n            revert(\"Registration period for this job has ended\");\n        }\n\n        // Check if dataset owner already registered on allowList\n        if (jobs[_id].allowList[_datasetOwner] == true){\n            revert(\"Dataset owner already added to allow list\");\n        }\n\n        jobs[_id].allowList[_datasetOwner] = true;\n        jobs[_id].arrAllowList.push(_datasetOwner);\n    }\n\n    function getNumRegistered(uint _id) public view returns(uint){\n        return jobs[_id].arrDatasetOwners.length;\n    }\n\n    function getNumAllow(uint _id) public view returns(uint){\n        return jobs[_id].arrAllowList.length;\n    }\n\n    function getJobRegistered(uint _id) public view returns(address payable [] memory){\n      return jobs[_id].arrDatasetOwners;\n    }\n\n    function getJobAllowed(uint _id) public view returns(address payable [] memory){\n      return jobs[_id].arrAllowList;\n    }\n\n    function getJobDetails(uint _id) public view returns(address, uint, uint, uint){\n        return (jobs[_id].owner, jobs[_id].minClients, jobs[_id].numAllow, jobs[_id].bounty);\n    }\n\n    function getJobStatus(uint _id) public view returns(uint, uint, bool, bool){\n        return (jobs[_id].initTime, jobs[_id].daysUntilStart, jobs[_id].active, jobs[_id].trainingStarted);\n    }\n\n    function start_job(uint _id) public{\n        // Can only be started by owner of job\n        if (jobs[_id].owner != msg.sender){\n            revert(\"Job can only be started by owner\");\n        }\n\n        // Check registration period has ended\n        if (!registrationPeriodOver(_id)){\n            revert(\"Registration period for this job has not yet ended\");\n        }\n\n        // Check grace period not over\n        uint jobStartTime = getJobStartTime(_id);\n        uint deadline = jobStartTime + gracePeriod;\n        if (block.timestamp > deadline){\n            revert(\"Too late to start training model\");\n        }\n\n        if (jobs[_id].arrAllowList.length < jobs[_id].minClients) {\n            revert(\"Minimum number of clients not reached\");\n        }\n\n        // Set training started status as true\n        jobs[_id].trainingStarted = true;\n\n        // List of owners registered for this job\n        address payable[] memory registeredDatasetOwners = jobs[_id].arrDatasetOwners;\n\n        // Check every register data owner, if they are not on allow list, they get their fee back when training starts\n        for (uint i=0; i<registeredDatasetOwners.length; i++) {\n            if (jobs[_id].allowList[registeredDatasetOwners[i]] != true) {\n                address payable payee = registeredDatasetOwners[i];\n                payee.transfer(jobs[_id].holdingFee);\n            }\n        }\n\n        // return job fee to client\n        msg.sender.transfer(jobCreationFee);\n\n    }\n\n    function withdrawFee(uint _id) public{\n        // Check grace period over\n        uint jobStartTime = getJobStartTime(_id);\n        uint deadline = jobStartTime + gracePeriod;\n        if (block.timestamp < deadline){\n            revert(\"Can only withdraw funds after training start deadline\");\n        }\n\n        // To withdraw funds, need training not to have started\n        require(!jobs[_id].trainingStarted, \"Can only withdraw funds if training never started\");\n\n        // Only a data owner registered to job can withdraw funds\n        require(jobs[_id].datasetOwners[msg.sender] == true, \"Only an already registered data owner can withdraw fee\");\n\n        // Send holding fee to job registered user\n        msg.sender.transfer(jobs[_id].holdingFee);\n\n        // remove Client from datasetOwners list to prevent withdrawing fee again\n        delete(jobs[_id].datasetOwners[msg.sender]);\n    }\n    \n    function deactivateJob(uint jobId) public {\n        require(jobs[jobId].owner == msg.sender);\n        // if registerDatasetOwner != []\n        // functionality that registered hospitals\n        // get their money back\n        // if they were not payed for training yet\n        if (jobs[jobId].registered) {\n            jobs[jobId].active = false;\n        }\n        else {\n            revert(\"This job is not registered.\");\n        }\n    }\n\n}\n",
  "sourcePath": "/Users/marwanmousa/University/MSc_AI/Group_Project/group-project/reactapp/BlockchainBackend/contracts/Jobs.sol",
  "compiler": {
    "name": "solc",
    "version": "0.5.16+commit.9c3226ce.Emscripten.clang"
  },
  "schemaVersion": "3.3.3",
  "updatedAt": "2021-04-17T04:03:58.765Z",
  "networkType": "ethereum",
  "devdoc": {
    "methods": {}
  },
  "userdoc": {
    "methods": {}
  }
}