{
  "contractName": "Jobs",
  "abi": [
    {
      "inputs": [
        {
          "internalType": "address",
          "name": "_contractAddressDatasets",
          "type": "address"
        },
        {
          "internalType": "address",
          "name": "_contractAddressModels",
          "type": "address"
        }
      ],
      "payable": false,
      "stateMutability": "nonpayable",
      "type": "constructor"
    },
    {
      "constant": true,
      "inputs": [
        {
          "internalType": "uint256",
          "name": "",
          "type": "uint256"
        }
      ],
      "name": "jobs",
      "outputs": [
        {
          "internalType": "address payable",
          "name": "owner",
          "type": "address"
        },
        {
          "internalType": "string",
          "name": "modelIpfsHash",
          "type": "string"
        },
        {
          "internalType": "string",
          "name": "strategyHash",
          "type": "string"
        },
        {
          "internalType": "uint256",
          "name": "minClients",
          "type": "uint256"
        },
        {
          "internalType": "uint256",
          "name": "initTime",
          "type": "uint256"
        },
        {
          "internalType": "uint256",
          "name": "hoursUntilStart",
          "type": "uint256"
        },
        {
          "internalType": "bool",
          "name": "active",
          "type": "bool"
        },
        {
          "internalType": "bool",
          "name": "registered",
          "type": "bool"
        },
        {
          "internalType": "bool",
          "name": "trainingStarted",
          "type": "bool"
        },
        {
          "internalType": "uint256",
          "name": "holdingFee",
          "type": "uint256"
        },
        {
          "internalType": "uint256",
          "name": "bounty",
          "type": "uint256"
        },
        {
          "internalType": "uint256",
          "name": "feeSum",
          "type": "uint256"
        }
      ],
      "payable": false,
      "stateMutability": "view",
      "type": "function"
    },
    {
      "constant": true,
      "inputs": [],
      "name": "jobsCreated",
      "outputs": [
        {
          "internalType": "uint256",
          "name": "",
          "type": "uint256"
        }
      ],
      "payable": false,
      "stateMutability": "view",
      "type": "function"
    },
    {
      "constant": true,
      "inputs": [
        {
          "internalType": "string",
          "name": "_modelIpfsHash",
          "type": "string"
        }
      ],
      "name": "isSenderModelOwner",
      "outputs": [
        {
          "internalType": "bool",
          "name": "",
          "type": "bool"
        }
      ],
      "payable": false,
      "stateMutability": "view",
      "type": "function"
    },
    {
      "constant": true,
      "inputs": [
        {
          "internalType": "string",
          "name": "_datasetIpfsHash",
          "type": "string"
        }
      ],
      "name": "isSenderDatasetOwner",
      "outputs": [
        {
          "internalType": "bool",
          "name": "",
          "type": "bool"
        }
      ],
      "payable": false,
      "stateMutability": "view",
      "type": "function"
    },
    {
      "constant": true,
      "inputs": [
        {
          "internalType": "uint256",
          "name": "_id",
          "type": "uint256"
        }
      ],
      "name": "getJobStartTime",
      "outputs": [
        {
          "internalType": "uint256",
          "name": "",
          "type": "uint256"
        }
      ],
      "payable": false,
      "stateMutability": "view",
      "type": "function"
    },
    {
      "constant": true,
      "inputs": [
        {
          "internalType": "uint256",
          "name": "_id",
          "type": "uint256"
        }
      ],
      "name": "registrationPeriodOver",
      "outputs": [
        {
          "internalType": "bool",
          "name": "",
          "type": "bool"
        }
      ],
      "payable": false,
      "stateMutability": "view",
      "type": "function"
    },
    {
      "constant": false,
      "inputs": [
        {
          "internalType": "string",
          "name": "_modelIpfsHash",
          "type": "string"
        },
        {
          "internalType": "string",
          "name": "_strategyHash",
          "type": "string"
        },
        {
          "internalType": "uint256",
          "name": "_minClients",
          "type": "uint256"
        },
        {
          "internalType": "uint256",
          "name": "_hoursUntilStart",
          "type": "uint256"
        },
        {
          "internalType": "uint256",
          "name": "_bounty",
          "type": "uint256"
        },
        {
          "internalType": "uint256",
          "name": "_holdingFee",
          "type": "uint256"
        }
      ],
      "name": "createJob",
      "outputs": [],
      "payable": true,
      "stateMutability": "payable",
      "type": "function"
    },
    {
      "constant": false,
      "inputs": [
        {
          "internalType": "uint256",
          "name": "_id",
          "type": "uint256"
        },
        {
          "internalType": "string",
          "name": "_datasetIpfsHash",
          "type": "string"
        }
      ],
      "name": "registerDatasetOwner",
      "outputs": [],
      "payable": true,
      "stateMutability": "payable",
      "type": "function"
    },
    {
      "constant": false,
      "inputs": [
        {
          "internalType": "uint256",
          "name": "_id",
          "type": "uint256"
        },
        {
          "internalType": "address payable",
          "name": "_datasetOwner",
          "type": "address"
        }
      ],
      "name": "addToAllowList",
      "outputs": [],
      "payable": false,
      "stateMutability": "nonpayable",
      "type": "function"
    },
    {
      "constant": true,
      "inputs": [
        {
          "internalType": "uint256",
          "name": "_id",
          "type": "uint256"
        }
      ],
      "name": "getNumRegistered",
      "outputs": [
        {
          "internalType": "uint256",
          "name": "",
          "type": "uint256"
        }
      ],
      "payable": false,
      "stateMutability": "view",
      "type": "function"
    },
    {
      "constant": true,
      "inputs": [
        {
          "internalType": "uint256",
          "name": "_id",
          "type": "uint256"
        }
      ],
      "name": "getNumAllow",
      "outputs": [
        {
          "internalType": "uint256",
          "name": "",
          "type": "uint256"
        }
      ],
      "payable": false,
      "stateMutability": "view",
      "type": "function"
    },
    {
      "constant": true,
      "inputs": [
        {
          "internalType": "uint256",
          "name": "_id",
          "type": "uint256"
        }
      ],
      "name": "getJobRegistered",
      "outputs": [
        {
          "internalType": "address payable[]",
          "name": "",
          "type": "address[]"
        }
      ],
      "payable": false,
      "stateMutability": "view",
      "type": "function"
    },
    {
      "constant": true,
      "inputs": [
        {
          "internalType": "uint256",
          "name": "_id",
          "type": "uint256"
        }
      ],
      "name": "getJobAllowed",
      "outputs": [
        {
          "internalType": "address payable[]",
          "name": "",
          "type": "address[]"
        }
      ],
      "payable": false,
      "stateMutability": "view",
      "type": "function"
    },
    {
      "constant": true,
      "inputs": [
        {
          "internalType": "uint256",
          "name": "_id",
          "type": "uint256"
        }
      ],
      "name": "getJobDetails",
      "outputs": [
        {
          "internalType": "address",
          "name": "",
          "type": "address"
        },
        {
          "internalType": "uint256",
          "name": "",
          "type": "uint256"
        },
        {
          "internalType": "uint256",
          "name": "",
          "type": "uint256"
        }
      ],
      "payable": false,
      "stateMutability": "view",
      "type": "function"
    },
    {
      "constant": true,
      "inputs": [
        {
          "internalType": "uint256",
          "name": "_id",
          "type": "uint256"
        }
      ],
      "name": "getJobStatus",
      "outputs": [
        {
          "internalType": "uint256",
          "name": "",
          "type": "uint256"
        },
        {
          "internalType": "uint256",
          "name": "",
          "type": "uint256"
        },
        {
          "internalType": "bool",
          "name": "",
          "type": "bool"
        },
        {
          "internalType": "bool",
          "name": "",
          "type": "bool"
        }
      ],
      "payable": false,
      "stateMutability": "view",
      "type": "function"
    },
    {
      "constant": false,
      "inputs": [
        {
          "internalType": "uint256",
          "name": "_id",
          "type": "uint256"
        }
      ],
      "name": "startJob",
      "outputs": [],
      "payable": false,
      "stateMutability": "nonpayable",
      "type": "function"
    },
    {
      "constant": false,
      "inputs": [
        {
          "internalType": "uint256",
          "name": "_id",
          "type": "uint256"
        }
      ],
      "name": "withdrawFee",
      "outputs": [],
      "payable": false,
      "stateMutability": "nonpayable",
      "type": "function"
    },
    {
      "constant": true,
      "inputs": [
        {
          "internalType": "uint256",
          "name": "_id",
          "type": "uint256"
        }
      ],
      "name": "isRegistered",
      "outputs": [
        {
          "internalType": "bool",
          "name": "",
          "type": "bool"
        }
      ],
      "payable": false,
      "stateMutability": "view",
      "type": "function"
    },
    {
      "constant": false,
      "inputs": [
        {
          "internalType": "uint256",
          "name": "jobId",
          "type": "uint256"
        }
      ],
      "name": "deactivateJob",
      "outputs": [],
      "payable": false,
      "stateMutability": "nonpayable",
      "type": "function"
    }
  ],
  "bytecode": "0x60806040526000805562015180600355620f424060045534801561002257600080fd5b50604051612c1d380380612c1d8339818101604052604081101561004557600080fd5b81019080805190602001909291908051906020019092919050505081600160006101000a81548173ffffffffffffffffffffffffffffffffffffffff021916908373ffffffffffffffffffffffffffffffffffffffff16021790555080600260006101000a81548173ffffffffffffffffffffffffffffffffffffffff021916908373ffffffffffffffffffffffffffffffffffffffff1602179055505050612b2a806100f36000396000f3fe6080604052600436106101145760003560e01c80635df19998116100a0578063a6c58b6311610064578063a6c58b6314610984578063be357616146109f0578063d9d3074014610a2b578063e125529414610a7a578063ffd5832b14610ab557610114565b80635df19998146106d55780637e1255c514610700578063808e0e231461079057806387386b74146107df578063a335e7d5146108bf57610114565b8063366d2a4b116100e7578063366d2a4b146103f55780634be3c83e146104305780634cac35c6146105aa5780634d26607314610633578063579a69881461068257610114565b806309e1e911146101195780630d1120491461016c578063180aedf3146101c75780632215bf2214610365575b600080fd5b34801561012557600080fd5b506101526004803603602081101561013c57600080fd5b8101908080359060200190929190505050610b95565b604051808215151515815260200191505060405180910390f35b34801561017857600080fd5b506101c56004803603604081101561018f57600080fd5b8101908080359060200190929190803573ffffffffffffffffffffffffffffffffffffffff169060200190929190505050610baa565b005b3480156101d357600080fd5b50610200600480360360208110156101ea57600080fd5b8101908080359060200190929190505050610f28565b604051808d73ffffffffffffffffffffffffffffffffffffffff1673ffffffffffffffffffffffffffffffffffffffff16815260200180602001806020018c81526020018b81526020018a815260200189151515158152602001881515151581526020018715151515815260200186815260200185815260200184815260200183810383528e818151815260200191508051906020019080838360005b838110156102b857808201518184015260208101905061029d565b50505050905090810190601f1680156102e55780820380516001836020036101000a031916815260200191505b5083810382528d818151815260200191508051906020019080838360005b8381101561031e578082015181840152602081019050610303565b50505050905090810190601f16801561034b5780820380516001836020036101000a031916815260200191505b509e50505050505050505050505050505060405180910390f35b34801561037157600080fd5b5061039e6004803603602081101561038857600080fd5b81019080803590602001909291905050506110ff565b6040518080602001828103825283818151815260200191508051906020019060200280838360005b838110156103e15780820151818401526020810190506103c6565b505050509050019250505060405180910390f35b34801561040157600080fd5b5061042e6004803603602081101561041857600080fd5b81019080803590602001909291905050506111a3565b005b6105a8600480360360c081101561044657600080fd5b810190808035906020019064010000000081111561046357600080fd5b82018360208201111561047557600080fd5b8035906020019184600183028401116401000000008311171561049757600080fd5b91908080601f016020809104026020016040519081016040528093929190818152602001838380828437600081840152601f19601f820116905080830192505050505050509192919290803590602001906401000000008111156104fa57600080fd5b82018360208201111561050c57600080fd5b8035906020019184600183028401116401000000008311171561052e57600080fd5b91908080601f016020809104026020016040519081016040528093929190818152602001838380828437600081840152601f19601f820116905080830192505050505050509192919290803590602001909291908035906020019092919080359060200190929190803590602001909291905050506112df565b005b3480156105b657600080fd5b506105e3600480360360208110156105cd57600080fd5b81019080803590602001909291905050506115a2565b604051808473ffffffffffffffffffffffffffffffffffffffff1673ffffffffffffffffffffffffffffffffffffffff168152602001838152602001828152602001935050505060405180910390f35b34801561063f57600080fd5b5061066c6004803603602081101561065657600080fd5b810190808035906020019092919050505061161c565b6040518082815260200191505060405180910390f35b34801561068e57600080fd5b506106bb600480360360208110156106a557600080fd5b810190808035906020019092919050505061163f565b604051808215151515815260200191505060405180910390f35b3480156106e157600080fd5b506106ea6116a9565b6040518082815260200191505060405180910390f35b34801561070c57600080fd5b506107396004803603602081101561072357600080fd5b81019080803590602001909291905050506116af565b6040518080602001828103825283818151815260200191508051906020019060200280838360005b8381101561077c578082015181840152602081019050610761565b505050509050019250505060405180910390f35b34801561079c57600080fd5b506107c9600480360360208110156107b357600080fd5b8101908080359060200190929190505050611753565b6040518082815260200191505060405180910390f35b3480156107eb57600080fd5b506108a56004803603602081101561080257600080fd5b810190808035906020019064010000000081111561081f57600080fd5b82018360208201111561083157600080fd5b8035906020019184600183028401116401000000008311171561085357600080fd5b91908080601f016020809104026020016040519081016040528093929190818152602001838380828437600081840152601f19601f820116905080830192505050505050509192919290505050611776565b604051808215151515815260200191505060405180910390f35b610982600480360360408110156108d557600080fd5b8101908080359060200190929190803590602001906401000000008111156108fc57600080fd5b82018360208201111561090e57600080fd5b8035906020019184600183028401116401000000008311171561093057600080fd5b91908080601f016020809104026020016040519081016040528093929190818152602001838380828437600081840152601f19601f8201169050808301925050505050505091929192905050506118c5565b005b34801561099057600080fd5b506109bd600480360360208110156109a757600080fd5b8101908080359060200190929190505050611dbe565b60405180858152602001848152602001831515151581526020018215151515815260200194505050505060405180910390f35b3480156109fc57600080fd5b50610a2960048036036020811015610a1357600080fd5b8101908080359060200190929190505050611e49565b005b348015610a3757600080fd5b50610a6460048036036020811015610a4e57600080fd5b81019080803590602001909291905050506120b4565b6040518082815260200191505060405180910390f35b348015610a8657600080fd5b50610ab360048036036020811015610a9d57600080fd5b81019080803590602001909291905050506120f0565b005b348015610ac157600080fd5b50610b7b60048036036020811015610ad857600080fd5b8101908080359060200190640100000000811115610af557600080fd5b820183602082011115610b0757600080fd5b80359060200191846001830284011164010000000083111715610b2957600080fd5b91908080601f016020809104026020016040519081016040528093929190818152602001838380828437600081840152601f19601f820116905080830192505050505050509192919290505050612569565b604051808215151515815260200191505060405180910390f35b6000610ba0826120b4565b4210159050919050565b3373ffffffffffffffffffffffffffffffffffffffff166005600084815260200190815260200160002060000160009054906101000a900473ffffffffffffffffffffffffffffffffffffffff1673ffffffffffffffffffffffffffffffffffffffff1614610c64576040517f08c379a0000000000000000000000000000000000000000000000000000000008152600401808060200182810382526026815260200180612a276026913960400191505060405180910390fd5b6001151560056000848152602001908152602001600020600a0160008373ffffffffffffffffffffffffffffffffffffffff1673ffffffffffffffffffffffffffffffffffffffff16815260200190815260200160002060009054906101000a900460ff16151514610d21576040517f08c379a000000000000000000000000000000000000000000000000000000000815260040180806020018281038252603381526020018061298f6033913960400191505060405180910390fd5b610d2a82610b95565b15610d80576040517f08c379a000000000000000000000000000000000000000000000000000000000815260040180806020018281038252602a815260200180612acc602a913960400191505060405180910390fd5b6001151560056000848152602001908152602001600020600b0160008373ffffffffffffffffffffffffffffffffffffffff1673ffffffffffffffffffffffffffffffffffffffff16815260200190815260200160002060009054906101000a900460ff1615151415610e3e576040517f08c379a00000000000000000000000000000000000000000000000000000000081526004018080602001828103825260298152602001806129106029913960400191505060405180910390fd5b600160056000848152602001908152602001600020600b0160008373ffffffffffffffffffffffffffffffffffffffff1673ffffffffffffffffffffffffffffffffffffffff16815260200190815260200160002060006101000a81548160ff02191690831515021790555060056000838152602001908152602001600020600e018190806001815401808255809150509060018203906000526020600020016000909192909190916101000a81548173ffffffffffffffffffffffffffffffffffffffff021916908373ffffffffffffffffffffffffffffffffffffffff160217905550505050565b60056020528060005260406000206000915090508060000160009054906101000a900473ffffffffffffffffffffffffffffffffffffffff1690806001018054600181600116156101000203166002900480601f016020809104026020016040519081016040528092919081815260200182805460018160011615610100020316600290048015610ffa5780601f10610fcf57610100808354040283529160200191610ffa565b820191906000526020600020905b815481529060010190602001808311610fdd57829003601f168201915b505050505090806002018054600181600116156101000203166002900480601f0160208091040260200160405190810160405280929190818152602001828054600181600116156101000203166002900480156110985780601f1061106d57610100808354040283529160200191611098565b820191906000526020600020905b81548152906001019060200180831161107b57829003601f168201915b5050505050908060030154908060040154908060050154908060060160009054906101000a900460ff16908060060160019054906101000a900460ff16908060060160029054906101000a900460ff1690806007015490806008015490806009015490508c565b606060056000838152602001908152602001600020600e0180548060200260200160405190810160405280929190818152602001828054801561119757602002820191906000526020600020905b8160009054906101000a900473ffffffffffffffffffffffffffffffffffffffff1673ffffffffffffffffffffffffffffffffffffffff168152602001906001019080831161114d575b50505050509050919050565b3373ffffffffffffffffffffffffffffffffffffffff166005600083815260200190815260200160002060000160009054906101000a900473ffffffffffffffffffffffffffffffffffffffff1673ffffffffffffffffffffffffffffffffffffffff161461121157600080fd5b6005600082815260200190815260200160002060060160019054906101000a900460ff161561126e5760006005600083815260200190815260200160002060060160006101000a81548160ff0219169083151502179055506112dc565b6040517f08c379a000000000000000000000000000000000000000000000000000000000815260040180806020018281038252601b8152602001807f54686973206a6f62206973206e6f7420726567697374657265642e000000000081525060200191505060405180910390fd5b50565b6112e886611776565b61133d576040517f08c379a00000000000000000000000000000000000000000000000000000000081526004018080602001828103825260308152602001806128ab6030913960400191505060405180910390fd5b81600454013414611399576040517f08c379a00000000000000000000000000000000000000000000000000000000081526004018080602001828103825260348152602001806129c26034913960400191505060405180910390fd5b6060604051806101c001604052803373ffffffffffffffffffffffffffffffffffffffff1681526020018881526020018781526020018681526020014281526020018581526020016001151581526020016001151581526020016000151581526020018381526020018481526020016000815260200182815260200182815250600560008054815260200190815260200160002060008201518160000160006101000a81548173ffffffffffffffffffffffffffffffffffffffff021916908373ffffffffffffffffffffffffffffffffffffffff16021790555060208201518160010190805190602001906114909291906126b8565b5060408201518160020190805190602001906114ad9291906126b8565b50606082015181600301556080820151816004015560a0820151816005015560c08201518160060160006101000a81548160ff02191690831515021790555060e08201518160060160016101000a81548160ff0219169083151502179055506101008201518160060160026101000a81548160ff02191690831515021790555061012082015181600701556101408201518160080155610160820151816009015561018082015181600d01908051906020019061156b929190612738565b506101a082015181600e019080519060200190611589929190612738565b5090505060016000540160008190555050505050505050565b60008060006005600085815260200190815260200160002060000160009054906101000a900473ffffffffffffffffffffffffffffffffffffffff16600560008681526020019081526020016000206003015460056000878152602001908152602001600020600801548292509250925092509193909250565b600060056000838152602001908152602001600020600e01805490509050919050565b600060056000838152602001908152602001600020600a0160003373ffffffffffffffffffffffffffffffffffffffff1673ffffffffffffffffffffffffffffffffffffffff16815260200190815260200160002060009054906101000a900460ff169050919050565b60005481565b606060056000838152602001908152602001600020600d0180548060200260200160405190810160405280929190818152602001828054801561174757602002820191906000526020600020905b8160009054906101000a900473ffffffffffffffffffffffffffffffffffffffff1673ffffffffffffffffffffffffffffffffffffffff16815260200190600101908083116116fd575b50505050509050919050565b600060056000838152602001908152602001600020600d01805490509050919050565b600080600260009054906101000a900473ffffffffffffffffffffffffffffffffffffffff1673ffffffffffffffffffffffffffffffffffffffff166368ebd4e8846040518263ffffffff1660e01b81526004018080602001828103825283818151815260200191508051906020019080838360005b838110156118075780820151818401526020810190506117ec565b50505050905090810190601f1680156118345780820380516001836020036101000a031916815260200191505b509250505060206040518083038186803b15801561185157600080fd5b505afa158015611865573d6000803e3d6000fd5b505050506040513d602081101561187b57600080fd5b810190808051906020019092919050505090503373ffffffffffffffffffffffffffffffffffffffff168173ffffffffffffffffffffffffffffffffffffffff1614915050919050565b6005600083815260200190815260200160002060000160009054906101000a900473ffffffffffffffffffffffffffffffffffffffff1673ffffffffffffffffffffffffffffffffffffffff163373ffffffffffffffffffffffffffffffffffffffff161415611980576040517f08c379a0000000000000000000000000000000000000000000000000000000008152600401808060200182810382526024815260200180612a726024913960400191505060405180910390fd5b61198981612569565b6119fb576040517f08c379a00000000000000000000000000000000000000000000000000000000081526004018080602001828103825260208152602001807f4e65656420746f206265206f776e6572206f662074686973206461746173657481525060200191505060405180910390fd5b611a0482610b95565b15611a5a576040517f08c379a000000000000000000000000000000000000000000000000000000000815260040180806020018281038252602a815260200180612acc602a913960400191505060405180910390fd5b60056000838152602001908152602001600020600701543414611ac8576040517f08c379a00000000000000000000000000000000000000000000000000000000081526004018080602001828103825260248152602001806129396024913960400191505060405180910390fd5b6005600083815260200190815260200160002060060160009054906101000a900460ff16611b5e576040517f08c379a00000000000000000000000000000000000000000000000000000000081526004018080602001828103825260208152602001807f54686973206a6f62206973206e6f742063757272656e746c792061637469766581525060200191505060405180910390fd5b6001151560056000848152602001908152602001600020600a0160003373ffffffffffffffffffffffffffffffffffffffff1673ffffffffffffffffffffffffffffffffffffffff16815260200190815260200160002060009054906101000a900460ff1615151415611c39576040517f08c379a000000000000000000000000000000000000000000000000000000000815260040180806020018281038252601f8152602001807f20416c72656164792072656769737465726564206f6e2074686973206a6f620081525060200191505060405180910390fd5b600160056000848152602001908152602001600020600a0160003373ffffffffffffffffffffffffffffffffffffffff1673ffffffffffffffffffffffffffffffffffffffff16815260200190815260200160002060006101000a81548160ff0219169083151502179055508060056000848152602001908152602001600020600c0160003373ffffffffffffffffffffffffffffffffffffffff1673ffffffffffffffffffffffffffffffffffffffff1681526020019081526020016000209080519060200190611d0c9291906127c2565b5060056000838152602001908152602001600020600d013390806001815401808255809150509060018203906000526020600020016000909192909190916101000a81548173ffffffffffffffffffffffffffffffffffffffff021916908373ffffffffffffffffffffffffffffffffffffffff160217905550503460056000848152602001908152602001600020600901540160056000848152602001908152602001600020600901819055505050565b600080600080600560008681526020019081526020016000206004015460056000878152602001908152602001600020600501546005600088815260200190815260200160002060060160009054906101000a900460ff166005600089815260200190815260200160002060060160029054906101000a900460ff1693509350935093509193509193565b6000611e54826120b4565b905060006003548201905080421015611eb8576040517f08c379a00000000000000000000000000000000000000000000000000000000081526004018080602001828103825260358152602001806128db6035913960400191505060405180910390fd5b6005600084815260200190815260200160002060060160029054906101000a900460ff1615611f32576040517f08c379a00000000000000000000000000000000000000000000000000000000081526004018080602001828103825260318152602001806129f66031913960400191505060405180910390fd5b6001151560056000858152602001908152602001600020600a0160003373ffffffffffffffffffffffffffffffffffffffff1673ffffffffffffffffffffffffffffffffffffffff16815260200190815260200160002060009054906101000a900460ff16151514611fef576040517f08c379a0000000000000000000000000000000000000000000000000000000008152600401808060200182810382526036815260200180612a966036913960400191505060405180910390fd5b3373ffffffffffffffffffffffffffffffffffffffff166108fc60056000868152602001908152602001600020600701549081150290604051600060405180830381858888f1935050505015801561204b573d6000803e3d6000fd5b5060056000848152602001908152602001600020600a0160003373ffffffffffffffffffffffffffffffffffffffff1673ffffffffffffffffffffffffffffffffffffffff16815260200190815260200160002060006101000a81549060ff0219169055505050565b6000610e106005600084815260200190815260200160002060050154026005600084815260200190815260200160002060040154019050919050565b3373ffffffffffffffffffffffffffffffffffffffff166005600083815260200190815260200160002060000160009054906101000a900473ffffffffffffffffffffffffffffffffffffffff1673ffffffffffffffffffffffffffffffffffffffff16146121c7576040517f08c379a00000000000000000000000000000000000000000000000000000000081526004018080602001828103825260208152602001807f4a6f622063616e206f6e6c792062652073746172746564206279206f776e657281525060200191505060405180910390fd5b6121d081610b95565b612225576040517f08c379a000000000000000000000000000000000000000000000000000000000815260040180806020018281038252603281526020018061295d6032913960400191505060405180910390fd5b6000612230826120b4565b9050600060035482019050804211156122b1576040517f08c379a00000000000000000000000000000000000000000000000000000000081526004018080602001828103825260208152602001807f546f6f206c61746520746f20737461727420747261696e696e67206d6f64656c81525060200191505060405180910390fd5b600560008481526020019081526020016000206003015460056000858152602001908152602001600020600e01805490501015612339576040517f08c379a0000000000000000000000000000000000000000000000000000000008152600401808060200182810382526025815260200180612a4d6025913960400191505060405180910390fd5b60016005600085815260200190815260200160002060060160026101000a81548160ff021916908315150217905550606060056000858152602001908152602001600020600d0180548060200260200160405190810160405280929190818152602001828054801561240057602002820191906000526020600020905b8160009054906101000a900473ffffffffffffffffffffffffffffffffffffffff1673ffffffffffffffffffffffffffffffffffffffff16815260200190600101908083116123b6575b5050505050905060008090505b8151811015612519576001151560056000878152602001908152602001600020600b01600084848151811061243e57fe5b602002602001015173ffffffffffffffffffffffffffffffffffffffff1673ffffffffffffffffffffffffffffffffffffffff16815260200190815260200160002060009054906101000a900460ff1615151461250c5760008282815181106124a357fe5b602002602001015190508073ffffffffffffffffffffffffffffffffffffffff166108fc60056000898152602001908152602001600020600701549081150290604051600060405180830381858888f19350505050158015612509573d6000803e3d6000fd5b50505b808060010191505061240d565b503373ffffffffffffffffffffffffffffffffffffffff166108fc6004549081150290604051600060405180830381858888f19350505050158015612562573d6000803e3d6000fd5b5050505050565b600080600160009054906101000a900473ffffffffffffffffffffffffffffffffffffffff1673ffffffffffffffffffffffffffffffffffffffff16635c06c902846040518263ffffffff1660e01b81526004018080602001828103825283818151815260200191508051906020019080838360005b838110156125fa5780820151818401526020810190506125df565b50505050905090810190601f1680156126275780820380516001836020036101000a031916815260200191505b509250505060206040518083038186803b15801561264457600080fd5b505afa158015612658573d6000803e3d6000fd5b505050506040513d602081101561266e57600080fd5b810190808051906020019092919050505090503373ffffffffffffffffffffffffffffffffffffffff168173ffffffffffffffffffffffffffffffffffffffff1614915050919050565b828054600181600116156101000203166002900490600052602060002090601f016020900481019282601f106126f957805160ff1916838001178555612727565b82800160010185558215612727579182015b8281111561272657825182559160200191906001019061270b565b5b5090506127349190612842565b5090565b8280548282559060005260206000209081019282156127b1579160200282015b828111156127b05782518260006101000a81548173ffffffffffffffffffffffffffffffffffffffff021916908373ffffffffffffffffffffffffffffffffffffffff16021790555091602001919060010190612758565b5b5090506127be9190612867565b5090565b828054600181600116156101000203166002900490600052602060002090601f016020900481019282601f1061280357805160ff1916838001178555612831565b82800160010185558215612831579182015b82811115612830578251825591602001919060010190612815565b5b50905061283e9190612842565b5090565b61286491905b80821115612860576000816000905550600101612848565b5090565b90565b6128a791905b808211156128a357600081816101000a81549073ffffffffffffffffffffffffffffffffffffffff02191690555060010161286d565b5090565b9056fe4f6e6c79206d6f64656c206f776e65722063616e206372656174652061206a6f6220666f722074686973206d6f64656c43616e206f6e6c792077697468647261772066756e647320616674657220747261696e696e6720737461727420646561646c696e6544617461736574206f776e657220616c726561647920616464656420746f20616c6c6f77206c6973744e65656420746f2073656e642074686520636f727265637420686f6c64696e6720666565526567697374726174696f6e20706572696f6420666f722074686973206a6f6220686173206e6f742079657420656e64656443616e206f6e6c792061646420616e20696e74657265737465642064617461206f776e657220746f20616c6c6f77206c6973744e65656420746f2073656e642074686520636f7272656374206a6f62206372656174696f6e2066656520616e6420626f756e747943616e206f6e6c792077697468647261772066756e647320696620747261696e696e67206e6576657220737461727465644e65656420746f20626520726567697374657265642061732064617461736574206f776e65724d696e696d756d206e756d626572206f6620636c69656e7473206e6f7420726561636865644a6f62206f776e65722063616e6e6f74207369676e207570206173206120636c69656e744f6e6c7920616e20616c726561647920726567697374657265642064617461206f776e65722063616e20776974686472617720666565526567697374726174696f6e20706572696f6420666f722074686973206a6f622068617320656e646564a265627a7a723158207733043d2117e86ca0529354d01568e6f1fe18934bb0823463657e588fa18a7f64736f6c63430005100032",
  "source": "pragma solidity >=0.5.16;\r\n\r\ncontract ModelDatabase {\r\n    function getModelOwner(string memory _ipfsHash) public view returns(address) {}\r\n}\r\n\r\ncontract DatasetDatabase {\r\n    function getDatasetOwner(string memory _ipfsHash) public view returns(address) {}\r\n}\r\n\r\ncontract Jobs {\r\n\r\n    uint public jobsCreated = 0;\r\n\r\n    DatasetDatabase datasetDatabase;\r\n    ModelDatabase modelDatabase;\r\n\r\n    uint gracePeriod = 1 days;\r\n\r\n    uint jobCreationFee = 1e6 wei;\r\n\r\n    struct Job {\r\n        address payable owner;\r\n        string modelIpfsHash;\r\n        string strategyHash;\r\n        uint minClients;\r\n        uint initTime;\r\n        uint hoursUntilStart;\r\n        bool active;\r\n        bool registered;\r\n        bool trainingStarted;\r\n        uint holdingFee;\r\n        uint bounty;\r\n        uint feeSum;\r\n        mapping(address => bool) datasetOwners;\r\n        mapping(address => bool)  allowList;\r\n        mapping(address => string) datasetHash;\r\n        address payable[] arrDatasetOwners;\r\n        address payable[] arrAllowList;\r\n    }\r\n\r\n    mapping(uint => Job) public jobs;\r\n\r\n    constructor(address _contractAddressDatasets, address _contractAddressModels) public {\r\n        datasetDatabase = DatasetDatabase(_contractAddressDatasets);\r\n        modelDatabase = ModelDatabase(_contractAddressModels);\r\n    }\r\n\r\n    function isSenderModelOwner(string memory _modelIpfsHash) public view returns(bool) {\r\n        address owner = modelDatabase.getModelOwner(_modelIpfsHash);\r\n        return (owner == msg.sender);\r\n    }\r\n\r\n    function isSenderDatasetOwner(string memory _datasetIpfsHash) public view returns(bool) {\r\n        address owner = datasetDatabase.getDatasetOwner(_datasetIpfsHash);\r\n        return (owner == msg.sender);\r\n    }\r\n\r\n    function getJobStartTime(uint _id) public view returns(uint) {\r\n        return jobs[_id].initTime + jobs[_id].hoursUntilStart * 1 hours;\r\n    }\r\n\r\n    function registrationPeriodOver(uint _id) public view returns(bool) {\r\n        return (block.timestamp >= getJobStartTime(_id));\r\n    }\r\n\r\n    function createJob(string memory _modelIpfsHash, string memory _strategyHash, uint _minClients, uint _hoursUntilStart,\r\n        uint _bounty, uint _holdingFee) public payable {\r\n\r\n        // Check the Job creator is model owner\r\n        require(isSenderModelOwner(_modelIpfsHash),\"Only model owner can create a job for this model\");\r\n\r\n        // Check user has paid the correct bounty and job Creation Fee\r\n        require(msg.value == jobCreationFee + _bounty,\"Need to send the correct job creation fee and bounty\");\r\n\r\n        address payable[] memory init;\r\n\r\n        jobs[jobsCreated] = Job({owner: msg.sender,\r\n                                modelIpfsHash: _modelIpfsHash,\r\n                                strategyHash: _strategyHash,\r\n                                minClients: _minClients,\r\n                                initTime: block.timestamp,\r\n                                hoursUntilStart: _hoursUntilStart,\r\n                                bounty: _bounty,\r\n                                holdingFee: _holdingFee,\r\n                                feeSum: 0,\r\n                                active: true,\r\n                                registered: true,\r\n                                trainingStarted: false,\r\n                                arrDatasetOwners: init,\r\n                                arrAllowList: init}\r\n                                );\r\n\r\n        jobsCreated = jobsCreated + 1;\r\n    }\r\n\r\n\r\n    // Called by dataset owners to register their willingness to join a jobs\r\n    // Owners registers a particular dataset and\r\n    function registerDatasetOwner(uint _id, string memory _datasetIpfsHash) public payable {\r\n        // Check user is not model owner\r\n        require(msg.sender != jobs[_id].owner, \"Job owner cannot sign up as a client\");\r\n\r\n        // Check if user is dataset owner\r\n        require(isSenderDatasetOwner(_datasetIpfsHash), \"Need to be owner of this dataset\");\r\n\r\n\r\n        // Check job is still in registration period\r\n        if (registrationPeriodOver(_id)){\r\n            revert(\"Registration period for this job has ended\");\r\n        }\r\n\r\n        // Check user has paid the correct holding fee\r\n        require(msg.value == jobs[_id].holdingFee,\"Need to send the correct holding fee\");\r\n\r\n        // Check job is active\r\n        if (!jobs[_id].active){\r\n            revert(\"This job is not currently active\");\r\n        }\r\n\r\n        // Check if already registered\r\n        if(jobs[_id].datasetOwners[msg.sender] == true){\r\n            revert(\" Already registered on this job\");\r\n        }\r\n\r\n        // Add dataset owner's address to list of owner addresses comitted to job\r\n        jobs[_id].datasetOwners[msg.sender] = true;\r\n        jobs[_id].datasetHash[msg.sender] = _datasetIpfsHash;\r\n        jobs[_id].arrDatasetOwners.push(msg.sender);\r\n\r\n        // Sum up amount paid by committed dataowners\r\n        jobs[_id].feeSum = jobs[_id].feeSum + msg.value;\r\n\r\n    }\r\n\r\n    // Called by Job owner to allow registered Clients to partake in job i.e. download model\r\n    function addToAllowList(uint _id, address payable _datasetOwner) public {\r\n        // Check user is job owner\r\n        require(jobs[_id].owner == msg.sender, \"Need to be registered as dataset owner\");\r\n\r\n        // Check address is in registry of interested owners\r\n        require(jobs[_id].datasetOwners[_datasetOwner] == true, \"Can only add an interested data owner to allow list\");\r\n\r\n        // Check job is still in registration period\r\n        if (registrationPeriodOver(_id)){\r\n            revert(\"Registration period for this job has ended\");\r\n        }\r\n\r\n        // Check if dataset owner already registered on allowList\r\n        if (jobs[_id].allowList[_datasetOwner] == true){\r\n            revert(\"Dataset owner already added to allow list\");\r\n        }\r\n\r\n        jobs[_id].allowList[_datasetOwner] = true;\r\n        jobs[_id].arrAllowList.push(_datasetOwner);\r\n    }\r\n\r\n    function getNumRegistered(uint _id) public view returns(uint){\r\n        return jobs[_id].arrDatasetOwners.length;\r\n    }\r\n\r\n    function getNumAllow(uint _id) public view returns(uint){\r\n        return jobs[_id].arrAllowList.length;\r\n    }\r\n\r\n    function getJobRegistered(uint _id) public view returns(address payable [] memory){\r\n      return jobs[_id].arrDatasetOwners;\r\n    }\r\n\r\n    function getJobAllowed(uint _id) public view returns(address payable [] memory){\r\n      return jobs[_id].arrAllowList;\r\n    }\r\n\r\n    function getJobDetails(uint _id) public view returns(address, uint, uint){\r\n        return (jobs[_id].owner, jobs[_id].minClients, jobs[_id].bounty);\r\n    }\r\n\r\n    function getJobStatus(uint _id) public view returns(uint, uint, bool, bool){\r\n        return (jobs[_id].initTime, jobs[_id].hoursUntilStart, jobs[_id].active, jobs[_id].trainingStarted);\r\n    }\r\n\r\n    function startJob(uint _id) public{\r\n        // Can only be started by owner of job\r\n        if (jobs[_id].owner != msg.sender){\r\n            revert(\"Job can only be started by owner\");\r\n        }\r\n\r\n        // Check registration period has ended\r\n        if (!registrationPeriodOver(_id)){\r\n            revert(\"Registration period for this job has not yet ended\");\r\n        }\r\n\r\n        // Check grace period not over\r\n        uint jobStartTime = getJobStartTime(_id);\r\n        uint deadline = jobStartTime + gracePeriod;\r\n        if (block.timestamp > deadline){\r\n            revert(\"Too late to start training model\");\r\n        }\r\n\r\n        if (jobs[_id].arrAllowList.length < jobs[_id].minClients) {\r\n            revert(\"Minimum number of clients not reached\");\r\n        }\r\n\r\n        // Set training started status as true\r\n        jobs[_id].trainingStarted = true;\r\n\r\n        // List of owners registered for this job\r\n        address payable[] memory registeredDatasetOwners = jobs[_id].arrDatasetOwners;\r\n\r\n        // Check every register data owner, if they are not on allow list, they get their fee back when training starts\r\n        for (uint i=0; i<registeredDatasetOwners.length; i++) {\r\n            if (jobs[_id].allowList[registeredDatasetOwners[i]] != true) {\r\n                address payable payee = registeredDatasetOwners[i];\r\n                payee.transfer(jobs[_id].holdingFee);\r\n            }\r\n        }\r\n\r\n        // return job fee to client\r\n        msg.sender.transfer(jobCreationFee);\r\n\r\n    }\r\n\r\n    function withdrawFee(uint _id) public{\r\n        // Check grace period over\r\n        uint jobStartTime = getJobStartTime(_id);\r\n        uint deadline = jobStartTime + gracePeriod;\r\n        if (block.timestamp < deadline){\r\n            revert(\"Can only withdraw funds after training start deadline\");\r\n        }\r\n\r\n        // To withdraw funds, need training not to have started\r\n        require(!jobs[_id].trainingStarted, \"Can only withdraw funds if training never started\");\r\n\r\n        // Only a data owner registered to job can withdraw funds\r\n        require(jobs[_id].datasetOwners[msg.sender] == true, \"Only an already registered data owner can withdraw fee\");\r\n\r\n        // Send holding fee to job registered user\r\n        msg.sender.transfer(jobs[_id].holdingFee);\r\n\r\n        // remove Client from datasetOwners list to prevent withdrawing fee again\r\n        delete(jobs[_id].datasetOwners[msg.sender]);\r\n    }\r\n\r\n    function isRegistered(uint _id) public view returns(bool){\r\n        return jobs[_id].datasetOwners[msg.sender];\r\n    }\r\n\r\n    function deactivateJob(uint jobId) public {\r\n        require(jobs[jobId].owner == msg.sender);\r\n        if (jobs[jobId].registered) {\r\n            jobs[jobId].active = false;\r\n        }\r\n        else {\r\n            revert(\"This job is not registered.\");\r\n        }\r\n    }\r\n\r\n}",
  "sourcePath": "C:/Users/PC/Dapp/group-project/reactapp/BlockchainBackend/contracts/Jobs.sol",
  "compiler": {
    "name": "solc",
    "version": "0.5.16+commit.9c3226ce.Emscripten.clang"
  },
  "schemaVersion": "3.3.4",
  "updatedAt": "2021-04-19T19:01:53.788Z",
  "networkType": "ethereum",
  "devdoc": {
    "methods": {}
  },
  "userdoc": {
    "methods": {}
  }
}