{
  "contractName": "Jobs",
  "abi": [
    {
      "inputs": [
        {
          "internalType": "address",
          "name": "_contractAddressDatasets",
          "type": "address"
        },
        {
          "internalType": "address",
          "name": "_contractAddressModels",
          "type": "address"
        }
      ],
      "payable": false,
      "stateMutability": "nonpayable",
      "type": "constructor"
    },
    {
      "constant": true,
      "inputs": [],
      "name": "gracePeriod",
      "outputs": [
        {
          "internalType": "uint256",
          "name": "",
          "type": "uint256"
        }
      ],
      "payable": false,
      "stateMutability": "view",
      "type": "function"
    },
    {
      "constant": true,
      "inputs": [],
      "name": "holdingFee",
      "outputs": [
        {
          "internalType": "uint256",
          "name": "",
          "type": "uint256"
        }
      ],
      "payable": false,
      "stateMutability": "view",
      "type": "function"
    },
    {
      "constant": true,
      "inputs": [],
      "name": "jobCreationFee",
      "outputs": [
        {
          "internalType": "uint256",
          "name": "",
          "type": "uint256"
        }
      ],
      "payable": false,
      "stateMutability": "view",
      "type": "function"
    },
    {
      "constant": true,
      "inputs": [
        {
          "internalType": "uint256",
          "name": "",
          "type": "uint256"
        }
      ],
      "name": "jobResults",
      "outputs": [
        {
          "internalType": "string",
          "name": "resultsHash",
          "type": "string"
        },
        {
          "internalType": "string",
          "name": "weightsHash",
          "type": "string"
        }
      ],
      "payable": false,
      "stateMutability": "view",
      "type": "function"
    },
    {
      "constant": true,
      "inputs": [
        {
          "internalType": "uint256",
          "name": "",
          "type": "uint256"
        }
      ],
      "name": "jobs",
      "outputs": [
        {
          "internalType": "address payable",
          "name": "owner",
          "type": "address"
        },
        {
          "internalType": "string",
          "name": "modelIpfsHash",
          "type": "string"
        },
        {
          "internalType": "string",
          "name": "strategyHash",
          "type": "string"
        },
        {
          "internalType": "string",
          "name": "testDatasetHash",
          "type": "string"
        },
        {
          "internalType": "uint256",
          "name": "minClients",
          "type": "uint256"
        },
        {
          "internalType": "uint256",
          "name": "initTime",
          "type": "uint256"
        },
        {
          "internalType": "uint256",
          "name": "hoursUntilStart",
          "type": "uint256"
        },
        {
          "internalType": "bool",
          "name": "active",
          "type": "bool"
        },
        {
          "internalType": "bool",
          "name": "trainingStarted",
          "type": "bool"
        },
        {
          "internalType": "bool",
          "name": "trainingEnded",
          "type": "bool"
        },
        {
          "internalType": "uint256",
          "name": "bounty",
          "type": "uint256"
        }
      ],
      "payable": false,
      "stateMutability": "view",
      "type": "function"
    },
    {
      "constant": true,
      "inputs": [],
      "name": "jobsCreated",
      "outputs": [
        {
          "internalType": "uint256",
          "name": "",
          "type": "uint256"
        }
      ],
      "payable": false,
      "stateMutability": "view",
      "type": "function"
    },
    {
      "constant": true,
      "inputs": [
        {
          "internalType": "string",
          "name": "_modelIpfsHash",
          "type": "string"
        }
      ],
      "name": "isSenderModelOwner",
      "outputs": [
        {
          "internalType": "bool",
          "name": "",
          "type": "bool"
        }
      ],
      "payable": false,
      "stateMutability": "view",
      "type": "function"
    },
    {
      "constant": true,
      "inputs": [
        {
          "internalType": "string",
          "name": "_datasetIpfsHash",
          "type": "string"
        }
      ],
      "name": "isSenderDatasetOwner",
      "outputs": [
        {
          "internalType": "bool",
          "name": "",
          "type": "bool"
        }
      ],
      "payable": false,
      "stateMutability": "view",
      "type": "function"
    },
    {
      "constant": true,
      "inputs": [
        {
          "internalType": "uint256",
          "name": "_id",
          "type": "uint256"
        }
      ],
      "name": "getJobStartTime",
      "outputs": [
        {
          "internalType": "uint256",
          "name": "",
          "type": "uint256"
        }
      ],
      "payable": false,
      "stateMutability": "view",
      "type": "function"
    },
    {
      "constant": true,
      "inputs": [
        {
          "internalType": "uint256",
          "name": "_id",
          "type": "uint256"
        }
      ],
      "name": "getGraceDeadline",
      "outputs": [
        {
          "internalType": "uint256",
          "name": "",
          "type": "uint256"
        }
      ],
      "payable": false,
      "stateMutability": "view",
      "type": "function"
    },
    {
      "constant": true,
      "inputs": [
        {
          "internalType": "uint256",
          "name": "_id",
          "type": "uint256"
        }
      ],
      "name": "registrationPeriodOver",
      "outputs": [
        {
          "internalType": "bool",
          "name": "",
          "type": "bool"
        }
      ],
      "payable": false,
      "stateMutability": "view",
      "type": "function"
    },
    {
      "constant": false,
      "inputs": [
        {
          "internalType": "string",
          "name": "_modelIpfsHash",
          "type": "string"
        },
        {
          "internalType": "string",
          "name": "_strategyHash",
          "type": "string"
        },
        {
          "internalType": "string",
          "name": "_testDatasetHash",
          "type": "string"
        },
        {
          "internalType": "uint256",
          "name": "_minClients",
          "type": "uint256"
        },
        {
          "internalType": "uint256",
          "name": "_hoursUntilStart",
          "type": "uint256"
        },
        {
          "internalType": "uint256",
          "name": "_bounty",
          "type": "uint256"
        }
      ],
      "name": "createJob",
      "outputs": [],
      "payable": true,
      "stateMutability": "payable",
      "type": "function"
    },
    {
      "constant": false,
      "inputs": [
        {
          "internalType": "uint256",
          "name": "_id",
          "type": "uint256"
        },
        {
          "internalType": "string",
          "name": "_datasetIpfsHash",
          "type": "string"
        }
      ],
      "name": "registerDatasetOwner",
      "outputs": [],
      "payable": true,
      "stateMutability": "payable",
      "type": "function"
    },
    {
      "constant": false,
      "inputs": [
        {
          "internalType": "uint256",
          "name": "_id",
          "type": "uint256"
        },
        {
          "internalType": "address payable",
          "name": "_datasetOwner",
          "type": "address"
        }
      ],
      "name": "addToAllowList",
      "outputs": [],
      "payable": false,
      "stateMutability": "nonpayable",
      "type": "function"
    },
    {
      "constant": true,
      "inputs": [
        {
          "internalType": "uint256",
          "name": "_id",
          "type": "uint256"
        }
      ],
      "name": "getNumRegistered",
      "outputs": [
        {
          "internalType": "uint256",
          "name": "",
          "type": "uint256"
        }
      ],
      "payable": false,
      "stateMutability": "view",
      "type": "function"
    },
    {
      "constant": true,
      "inputs": [
        {
          "internalType": "uint256",
          "name": "_id",
          "type": "uint256"
        }
      ],
      "name": "getNumAllow",
      "outputs": [
        {
          "internalType": "uint256",
          "name": "",
          "type": "uint256"
        }
      ],
      "payable": false,
      "stateMutability": "view",
      "type": "function"
    },
    {
      "constant": true,
      "inputs": [
        {
          "internalType": "uint256",
          "name": "_id",
          "type": "uint256"
        }
      ],
      "name": "getJobRegistered",
      "outputs": [
        {
          "internalType": "address payable[]",
          "name": "",
          "type": "address[]"
        }
      ],
      "payable": false,
      "stateMutability": "view",
      "type": "function"
    },
    {
      "constant": true,
      "inputs": [
        {
          "internalType": "uint256",
          "name": "_id",
          "type": "uint256"
        }
      ],
      "name": "getJobAllowed",
      "outputs": [
        {
          "internalType": "address payable[]",
          "name": "",
          "type": "address[]"
        }
      ],
      "payable": false,
      "stateMutability": "view",
      "type": "function"
    },
    {
      "constant": true,
      "inputs": [
        {
          "internalType": "uint256",
          "name": "_id",
          "type": "uint256"
        }
      ],
      "name": "getJobDetails",
      "outputs": [
        {
          "internalType": "address",
          "name": "",
          "type": "address"
        },
        {
          "internalType": "uint256",
          "name": "",
          "type": "uint256"
        },
        {
          "internalType": "uint256",
          "name": "",
          "type": "uint256"
        }
      ],
      "payable": false,
      "stateMutability": "view",
      "type": "function"
    },
    {
      "constant": true,
      "inputs": [
        {
          "internalType": "uint256",
          "name": "_id",
          "type": "uint256"
        }
      ],
      "name": "getJobStatus",
      "outputs": [
        {
          "internalType": "uint256",
          "name": "",
          "type": "uint256"
        },
        {
          "internalType": "uint256",
          "name": "",
          "type": "uint256"
        },
        {
          "internalType": "bool",
          "name": "",
          "type": "bool"
        },
        {
          "internalType": "bool",
          "name": "",
          "type": "bool"
        }
      ],
      "payable": false,
      "stateMutability": "view",
      "type": "function"
    },
    {
      "constant": true,
      "inputs": [
        {
          "internalType": "uint256",
          "name": "_id",
          "type": "uint256"
        }
      ],
      "name": "getMinClients",
      "outputs": [
        {
          "internalType": "uint256",
          "name": "",
          "type": "uint256"
        }
      ],
      "payable": false,
      "stateMutability": "view",
      "type": "function"
    },
    {
      "constant": false,
      "inputs": [
        {
          "internalType": "uint256",
          "name": "_id",
          "type": "uint256"
        }
      ],
      "name": "startJob",
      "outputs": [],
      "payable": false,
      "stateMutability": "nonpayable",
      "type": "function"
    },
    {
      "constant": false,
      "inputs": [
        {
          "internalType": "uint256",
          "name": "_id",
          "type": "uint256"
        }
      ],
      "name": "withdrawFee",
      "outputs": [],
      "payable": false,
      "stateMutability": "nonpayable",
      "type": "function"
    },
    {
      "constant": false,
      "inputs": [
        {
          "internalType": "uint256",
          "name": "_id",
          "type": "uint256"
        }
      ],
      "name": "endFailedJob",
      "outputs": [],
      "payable": false,
      "stateMutability": "nonpayable",
      "type": "function"
    },
    {
      "constant": true,
      "inputs": [
        {
          "internalType": "uint256",
          "name": "_id",
          "type": "uint256"
        }
      ],
      "name": "isRegistered",
      "outputs": [
        {
          "internalType": "bool",
          "name": "",
          "type": "bool"
        }
      ],
      "payable": false,
      "stateMutability": "view",
      "type": "function"
    },
    {
      "constant": false,
      "inputs": [
        {
          "internalType": "uint256",
          "name": "_id",
          "type": "uint256"
        },
        {
          "internalType": "uint256[]",
          "name": "_compensation",
          "type": "uint256[]"
        },
        {
          "internalType": "address payable[]",
          "name": "_clients",
          "type": "address[]"
        },
        {
          "internalType": "string",
          "name": "_resultsHash",
          "type": "string"
        },
        {
          "internalType": "string",
          "name": "_weightsHash",
          "type": "string"
        }
      ],
      "name": "compensate",
      "outputs": [],
      "payable": false,
      "stateMutability": "nonpayable",
      "type": "function"
    },
    {
      "constant": false,
      "inputs": [
        {
          "internalType": "uint256",
          "name": "_id",
          "type": "uint256"
        }
      ],
      "name": "getCompensation",
      "outputs": [],
      "payable": false,
      "stateMutability": "nonpayable",
      "type": "function"
    },
    {
      "constant": true,
      "inputs": [
        {
          "internalType": "uint256",
          "name": "_id",
          "type": "uint256"
        }
      ],
      "name": "getWeights",
      "outputs": [
        {
          "internalType": "string",
          "name": "",
          "type": "string"
        }
      ],
      "payable": false,
      "stateMutability": "view",
      "type": "function"
    },
    {
      "constant": true,
      "inputs": [
        {
          "internalType": "uint256",
          "name": "_id",
          "type": "uint256"
        }
      ],
      "name": "getCompensationResults",
      "outputs": [
        {
          "internalType": "string",
          "name": "",
          "type": "string"
        }
      ],
      "payable": false,
      "stateMutability": "view",
      "type": "function"
    },
    {
      "constant": true,
      "inputs": [
        {
          "internalType": "uint256",
          "name": "_id",
          "type": "uint256"
        }
      ],
      "name": "isCompensated",
      "outputs": [
        {
          "internalType": "bool",
          "name": "",
          "type": "bool"
        }
      ],
      "payable": false,
      "stateMutability": "view",
      "type": "function"
    }
  ],
  "bytecode": "0x608060405260008055610e10600355620f4240600455620f42406005557312f0f455d3e769b247518747dd731e9c61366e97600660006101000a81548173ffffffffffffffffffffffffffffffffffffffff021916908373ffffffffffffffffffffffffffffffffffffffff16021790555034801561007d57600080fd5b50604051620046c2380380620046c2833981810160405260408110156100a257600080fd5b81019080805190602001909291908051906020019092919050505081600160006101000a81548173ffffffffffffffffffffffffffffffffffffffff021916908373ffffffffffffffffffffffffffffffffffffffff16021790555080600260006101000a81548173ffffffffffffffffffffffffffffffffffffffff021916908373ffffffffffffffffffffffffffffffffffffffff160217905550505061457180620001516000396000f3fe6080604052600436106101cd5760003560e01c8063816b2534116100f7578063a6c58b6311610095578063e125529411610064578063e125529414611028578063f208a11414611063578063f65aaf18146112f4578063ffd5832b1461131f576101cd565b8063a6c58b6314610e7e578063be35761614610eea578063d5785b7614610f25578063d9d3074014610fd9576101cd565b80638a425c8a116100d15780638a425c8a14610c1f578063a06db7dc14610c6e578063a335e7d514610c99578063a3d6064514610d5e576101cd565b8063816b2534146108e5578063848cb2ae1461093857806387386b7414610b3f576101cd565b80634cac35c61161016f57806370743fc01161013e57806370743fc01461077c5780637413715c146107cb5780637e1255c514610806578063808e0e2314610896576101cd565b80634cac35c6146106265780634d266073146106af578063579a6988146106fe5780635df1999814610751576101cd565b80630e671a02116101ab5780630e671a02146102ab578063180aedf31461035f5780632215bf221461055b578063434d382d146105eb576101cd565b806309e1e911146101d25780630c63429e146102255780630d11204914610250575b600080fd5b3480156101de57600080fd5b5061020b600480360360208110156101f557600080fd5b81019080803590602001909291905050506113ff565b604051808215151515815260200191505060405180910390f35b34801561023157600080fd5b5061023a611414565b6040518082815260200191505060405180910390f35b34801561025c57600080fd5b506102a96004803603604081101561027357600080fd5b8101908080359060200190929190803573ffffffffffffffffffffffffffffffffffffffff16906020019092919050505061141a565b005b3480156102b757600080fd5b506102e4600480360360208110156102ce57600080fd5b8101908080359060200190929190505050611798565b6040518080602001828103825283818151815260200191508051906020019080838360005b83811015610324578082015181840152602081019050610309565b50505050905090810190601f1680156103515780820380516001836020036101000a031916815260200191505b509250505060405180910390f35b34801561036b57600080fd5b506103986004803603602081101561038257600080fd5b8101908080359060200190929190505050611979565b604051808c73ffffffffffffffffffffffffffffffffffffffff1673ffffffffffffffffffffffffffffffffffffffff1681526020018060200180602001806020018b81526020018a815260200189815260200188151515158152602001871515151581526020018615151515815260200185815260200184810384528e818151815260200191508051906020019080838360005b8381101561044857808201518184015260208101905061042d565b50505050905090810190601f1680156104755780820380516001836020036101000a031916815260200191505b5084810383528d818151815260200191508051906020019080838360005b838110156104ae578082015181840152602081019050610493565b50505050905090810190601f1680156104db5780820380516001836020036101000a031916815260200191505b5084810382528c818151815260200191508051906020019080838360005b838110156105145780820151818401526020810190506104f9565b50505050905090810190601f1680156105415780820380516001836020036101000a031916815260200191505b509e50505050505050505050505050505060405180910390f35b34801561056757600080fd5b506105946004803603602081101561057e57600080fd5b8101908080359060200190929190505050611be2565b6040518080602001828103825283818151815260200191508051906020019060200280838360005b838110156105d75780820151818401526020810190506105bc565b505050509050019250505060405180910390f35b3480156105f757600080fd5b506106246004803603602081101561060e57600080fd5b8101908080359060200190929190505050611c86565b005b34801561063257600080fd5b5061065f6004803603602081101561064957600080fd5b8101908080359060200190929190505050611fd3565b604051808473ffffffffffffffffffffffffffffffffffffffff1673ffffffffffffffffffffffffffffffffffffffff168152602001838152602001828152602001935050505060405180910390f35b3480156106bb57600080fd5b506106e8600480360360208110156106d257600080fd5b810190808035906020019092919050505061204d565b6040518082815260200191505060405180910390f35b34801561070a57600080fd5b506107376004803603602081101561072157600080fd5b8101908080359060200190929190505050612070565b604051808215151515815260200191505060405180910390f35b34801561075d57600080fd5b506107666120da565b6040518082815260200191505060405180910390f35b34801561078857600080fd5b506107b56004803603602081101561079f57600080fd5b81019080803590602001909291905050506120e0565b6040518082815260200191505060405180910390f35b3480156107d757600080fd5b50610804600480360360208110156107ee57600080fd5b8101908080359060200190929190505050612100565b005b34801561081257600080fd5b5061083f6004803603602081101561082957600080fd5b810190808035906020019092919050505061242c565b6040518080602001828103825283818151815260200191508051906020019060200280838360005b83811015610882578082015181840152602081019050610867565b505050509050019250505060405180910390f35b3480156108a257600080fd5b506108cf600480360360208110156108b957600080fd5b81019080803590602001909291905050506124d0565b6040518082815260200191505060405180910390f35b3480156108f157600080fd5b5061091e6004803603602081101561090857600080fd5b81019080803590602001909291905050506124f3565b604051808215151515815260200191505060405180910390f35b610b3d600480360360c081101561094e57600080fd5b810190808035906020019064010000000081111561096b57600080fd5b82018360208201111561097d57600080fd5b8035906020019184600183028401116401000000008311171561099f57600080fd5b91908080601f016020809104026020016040519081016040528093929190818152602001838380828437600081840152601f19601f82011690508083019250505050505050919291929080359060200190640100000000811115610a0257600080fd5b820183602082011115610a1457600080fd5b80359060200191846001830284011164010000000083111715610a3657600080fd5b91908080601f016020809104026020016040519081016040528093929190818152602001838380828437600081840152601f19601f82011690508083019250505050505050919291929080359060200190640100000000811115610a9957600080fd5b820183602082011115610aab57600080fd5b80359060200191846001830284011164010000000083111715610acd57600080fd5b91908080601f016020809104026020016040519081016040528093929190818152602001838380828437600081840152601f19601f82011690508083019250505050505050919291929080359060200190929190803590602001909291908035906020019092919050505061261a565b005b348015610b4b57600080fd5b50610c0560048036036020811015610b6257600080fd5b8101908080359060200190640100000000811115610b7f57600080fd5b820183602082011115610b9157600080fd5b80359060200191846001830284011164010000000083111715610bb357600080fd5b91908080601f016020809104026020016040519081016040528093929190818152602001838380828437600081840152601f19601f8201169050808301925050505050505091929192905050506128de565b604051808215151515815260200191505060405180910390f35b348015610c2b57600080fd5b50610c5860048036036020811015610c4257600080fd5b8101908080359060200190929190505050612a2d565b6040518082815260200191505060405180910390f35b348015610c7a57600080fd5b50610c83612a43565b6040518082815260200191505060405180910390f35b610d5c60048036036040811015610caf57600080fd5b810190808035906020019092919080359060200190640100000000811115610cd657600080fd5b820183602082011115610ce857600080fd5b80359060200191846001830284011164010000000083111715610d0a57600080fd5b91908080601f016020809104026020016040519081016040528093929190818152602001838380828437600081840152601f19601f820116905080830192505050505050509192919290505050612a49565b005b348015610d6a57600080fd5b50610d9760048036036020811015610d8157600080fd5b8101908080359060200190929190505050612e65565b604051808060200180602001838103835285818151815260200191508051906020019080838360005b83811015610ddb578082015181840152602081019050610dc0565b50505050905090810190601f168015610e085780820380516001836020036101000a031916815260200191505b50838103825284818151815260200191508051906020019080838360005b83811015610e41578082015181840152602081019050610e26565b50505050905090810190601f168015610e6e5780820380516001836020036101000a031916815260200191505b5094505050505060405180910390f35b348015610e8a57600080fd5b50610eb760048036036020811015610ea157600080fd5b8101908080359060200190929190505050612fb9565b60405180858152602001848152602001831515151581526020018215151515815260200194505050505060405180910390f35b348015610ef657600080fd5b50610f2360048036036020811015610f0d57600080fd5b8101908080359060200190929190505050613044565b005b348015610f3157600080fd5b50610f5e60048036036020811015610f4857600080fd5b8101908080359060200190929190505050613333565b6040518080602001828103825283818151815260200191508051906020019080838360005b83811015610f9e578082015181840152602081019050610f83565b50505050905090810190601f168015610fcb5780820380516001836020036101000a031916815260200191505b509250505060405180910390f35b348015610fe557600080fd5b5061101260048036036020811015610ffc57600080fd5b81019080803590602001909291905050506134c2565b6040518082815260200191505060405180910390f35b34801561103457600080fd5b506110616004803603602081101561104b57600080fd5b81019080803590602001909291905050506134fe565b005b34801561106f57600080fd5b506112f2600480360360a081101561108657600080fd5b8101908080359060200190929190803590602001906401000000008111156110ad57600080fd5b8201836020820111156110bf57600080fd5b803590602001918460208302840111640100000000831117156110e157600080fd5b919080806020026020016040519081016040528093929190818152602001838360200280828437600081840152601f19601f8201169050808301925050505050505091929192908035906020019064010000000081111561114157600080fd5b82018360208201111561115357600080fd5b8035906020019184602083028401116401000000008311171561117557600080fd5b919080806020026020016040519081016040528093929190818152602001838360200280828437600081840152601f19601f820116905080830192505050505050509192919290803590602001906401000000008111156111d557600080fd5b8201836020820111156111e757600080fd5b8035906020019184600183028401116401000000008311171561120957600080fd5b91908080601f016020809104026020016040519081016040528093929190818152602001838380828437600081840152601f19601f8201169050808301925050505050505091929192908035906020019064010000000081111561126c57600080fd5b82018360208201111561127e57600080fd5b803590602001918460018302840111640100000000831117156112a057600080fd5b91908080601f016020809104026020016040519081016040528093929190818152602001838380828437600081840152601f19601f820116905080830192505050505050509192919290505050613910565b005b34801561130057600080fd5b50611309613d09565b6040518082815260200191505060405180910390f35b34801561132b57600080fd5b506113e56004803603602081101561134257600080fd5b810190808035906020019064010000000081111561135f57600080fd5b82018360208201111561137157600080fd5b8035906020019184600183028401116401000000008311171561139357600080fd5b91908080601f016020809104026020016040519081016040528093929190818152602001838380828437600081840152601f19601f820116905080830192505050505050509192919290505050613d0f565b604051808215151515815260200191505060405180910390f35b600061140a826134c2565b4210159050919050565b60055481565b3373ffffffffffffffffffffffffffffffffffffffff166007600084815260200190815260200160002060000160009054906101000a900473ffffffffffffffffffffffffffffffffffffffff1673ffffffffffffffffffffffffffffffffffffffff16146114d4576040517f08c379a00000000000000000000000000000000000000000000000000000000081526004018080602001828103825260268152602001806142996026913960400191505060405180910390fd5b600115156007600084815260200190815260200160002060090160008373ffffffffffffffffffffffffffffffffffffffff1673ffffffffffffffffffffffffffffffffffffffff16815260200190815260200160002060009054906101000a900460ff16151514611591576040517f08c379a00000000000000000000000000000000000000000000000000000000081526004018080602001828103825260338152602001806141c56033913960400191505060405180910390fd5b61159a826113ff565b156115f0576040517f08c379a000000000000000000000000000000000000000000000000000000000815260040180806020018281038252602a8152602001806144de602a913960400191505060405180910390fd5b6001151560076000848152602001908152602001600020600a0160008373ffffffffffffffffffffffffffffffffffffffff1673ffffffffffffffffffffffffffffffffffffffff16815260200190815260200160002060009054906101000a900460ff16151514156116ae576040517f08c379a00000000000000000000000000000000000000000000000000000000081526004018080602001828103825260298152602001806140b66029913960400191505060405180910390fd5b600160076000848152602001908152602001600020600a0160008373ffffffffffffffffffffffffffffffffffffffff1673ffffffffffffffffffffffffffffffffffffffff16815260200190815260200160002060006101000a81548160ff02191690831515021790555060076000838152602001908152602001600020600d018190806001815401808255809150509060018203906000526020600020016000909192909190916101000a81548173ffffffffffffffffffffffffffffffffffffffff021916908373ffffffffffffffffffffffffffffffffffffffff160217905550505050565b60606007600083815260200190815260200160002060000160009054906101000a900473ffffffffffffffffffffffffffffffffffffffff1673ffffffffffffffffffffffffffffffffffffffff163373ffffffffffffffffffffffffffffffffffffffff16148061186e57506001151560076000848152602001908152602001600020600a0160003373ffffffffffffffffffffffffffffffffffffffff1673ffffffffffffffffffffffffffffffffffffffff16815260200190815260200160002060009054906101000a900460ff161515145b6118c3576040517f08c379a00000000000000000000000000000000000000000000000000000000081526004018080602001828103825260298152602001806141686029913960400191505060405180910390fd5b600860008381526020019081526020016000206000018054600181600116156101000203166002900480601f01602080910402602001604051908101604052809291908181526020018280546001816001161561010002031660029004801561196d5780601f106119425761010080835404028352916020019161196d565b820191906000526020600020905b81548152906001019060200180831161195057829003601f168201915b50505050509050919050565b60076020528060005260406000206000915090508060000160009054906101000a900473ffffffffffffffffffffffffffffffffffffffff1690806001018054600181600116156101000203166002900480601f016020809104026020016040519081016040528092919081815260200182805460018160011615610100020316600290048015611a4b5780601f10611a2057610100808354040283529160200191611a4b565b820191906000526020600020905b815481529060010190602001808311611a2e57829003601f168201915b505050505090806002018054600181600116156101000203166002900480601f016020809104026020016040519081016040528092919081815260200182805460018160011615610100020316600290048015611ae95780601f10611abe57610100808354040283529160200191611ae9565b820191906000526020600020905b815481529060010190602001808311611acc57829003601f168201915b505050505090806003018054600181600116156101000203166002900480601f016020809104026020016040519081016040528092919081815260200182805460018160011615610100020316600290048015611b875780601f10611b5c57610100808354040283529160200191611b87565b820191906000526020600020905b815481529060010190602001808311611b6a57829003601f168201915b5050505050908060040154908060050154908060060154908060070160009054906101000a900460ff16908060070160019054906101000a900460ff16908060070160029054906101000a900460ff1690806008015490508b565b606060076000838152602001908152602001600020600d01805480602002602001604051908101604052809291908181526020018280548015611c7a57602002820191906000526020600020905b8160009054906101000a900473ffffffffffffffffffffffffffffffffffffffff1673ffffffffffffffffffffffffffffffffffffffff1681526020019060010190808311611c30575b50505050509050919050565b600115156007600083815260200190815260200160002060070160029054906101000a900460ff16151514611d06576040517f08c379a00000000000000000000000000000000000000000000000000000000081526004018080602001828103825260348152602001806142e46034913960400191505060405180910390fd5b6001151560076000838152602001908152602001600020600a0160003373ffffffffffffffffffffffffffffffffffffffff1673ffffffffffffffffffffffffffffffffffffffff16815260200190815260200160002060009054906101000a900460ff16151514611dc3576040517f08c379a00000000000000000000000000000000000000000000000000000000081526004018080602001828103825260338152602001806141036033913960400191505060405180910390fd5b600115156008600083815260200190815260200160002060030160003373ffffffffffffffffffffffffffffffffffffffff1673ffffffffffffffffffffffffffffffffffffffff16815260200190815260200160002060009054906101000a900460ff1615151415611e81576040517f08c379a000000000000000000000000000000000000000000000000000000000815260040180806020018281038252602a815260200180614318602a913960400191505060405180910390fd5b3373ffffffffffffffffffffffffffffffffffffffff166108fc6008600084815260200190815260200160002060020160003373ffffffffffffffffffffffffffffffffffffffff1673ffffffffffffffffffffffffffffffffffffffff168152602001908152602001600020549081150290604051600060405180830381858888f19350505050158015611f1a573d6000803e3d6000fd5b503373ffffffffffffffffffffffffffffffffffffffff166108fc6005549081150290604051600060405180830381858888f19350505050158015611f63573d6000803e3d6000fd5b5060016008600083815260200190815260200160002060030160003373ffffffffffffffffffffffffffffffffffffffff1673ffffffffffffffffffffffffffffffffffffffff16815260200190815260200160002060006101000a81548160ff02191690831515021790555050565b60008060006007600085815260200190815260200160002060000160009054906101000a900473ffffffffffffffffffffffffffffffffffffffff16600760008681526020019081526020016000206004015460076000878152602001908152602001600020600801548292509250925092509193909250565b600060076000838152602001908152602001600020600d01805490509050919050565b60006007600083815260200190815260200160002060090160003373ffffffffffffffffffffffffffffffffffffffff1673ffffffffffffffffffffffffffffffffffffffff16815260200190815260200160002060009054906101000a900460ff169050919050565b60005481565b600060076000838152602001908152602001600020600401549050919050565b3373ffffffffffffffffffffffffffffffffffffffff166007600083815260200190815260200160002060000160009054906101000a900473ffffffffffffffffffffffffffffffffffffffff1673ffffffffffffffffffffffffffffffffffffffff16146121d7576040517f08c379a000000000000000000000000000000000000000000000000000000000815260040180806020018281038252601a8152602001807f4f6e6c79206a6f62206f776e65722063616e20656e64206a6f6200000000000081525060200191505060405180910390fd5b60006121e2826134c2565b90508042101561223d576040517f08c379a00000000000000000000000000000000000000000000000000000000081526004018080602001828103825260398152602001806143f26039913960400191505060405180910390fd5b6007600083815260200190815260200160002060070160019054906101000a900460ff16156122b7576040517f08c379a000000000000000000000000000000000000000000000000000000000815260040180806020018281038252603181526020018061422c6031913960400191505060405180910390fd5b6122c0826120e0565b6122c98361204d565b1061231f576040517f08c379a000000000000000000000000000000000000000000000000000000000815260040180806020018281038252603c81526020018061425d603c913960400191505060405180910390fd5b600115156007600084815260200190815260200160002060070160009054906101000a900460ff1615151461235357600080fd5b3373ffffffffffffffffffffffffffffffffffffffff166108fc60076000858152602001908152602001600020600801549081150290604051600060405180830381858888f193505050501580156123af573d6000803e3d6000fd5b503373ffffffffffffffffffffffffffffffffffffffff166108fc6004549081150290604051600060405180830381858888f193505050501580156123f8573d6000803e3d6000fd5b5060006007600084815260200190815260200160002060070160006101000a81548160ff0219169083151502179055505050565b606060076000838152602001908152602001600020600c018054806020026020016040519081016040528092919081815260200182805480156124c457602002820191906000526020600020905b8160009054906101000a900473ffffffffffffffffffffffffffffffffffffffff1673ffffffffffffffffffffffffffffffffffffffff168152602001906001019080831161247a575b50505050509050919050565b600060076000838152602001908152602001600020600c01805490509050919050565b60006001151560076000848152602001908152602001600020600a0160003373ffffffffffffffffffffffffffffffffffffffff1673ffffffffffffffffffffffffffffffffffffffff16815260200190815260200160002060009054906101000a900460ff161515146125b2576040517f08c379a000000000000000000000000000000000000000000000000000000000815260040180806020018281038252602f8152602001806144af602f913960400191505060405180910390fd5b6008600083815260200190815260200160002060030160003373ffffffffffffffffffffffffffffffffffffffff1673ffffffffffffffffffffffffffffffffffffffff16815260200190815260200160002060009054906101000a900460ff169050919050565b612623866128de565b612678576040517f08c379a00000000000000000000000000000000000000000000000000000000081526004018080602001828103825260308152602001806140516030913960400191505060405180910390fd5b806004540134146126d4576040517f08c379a00000000000000000000000000000000000000000000000000000000081526004018080602001828103825260348152602001806141f86034913960400191505060405180910390fd5b6060604051806101a001604052803373ffffffffffffffffffffffffffffffffffffffff16815260200188815260200187815260200186815260200185815260200142815260200184815260200160011515815260200160001515815260200160001515815260200183815260200182815260200182815250600760008054815260200190815260200160002060008201518160000160006101000a81548173ffffffffffffffffffffffffffffffffffffffff021916908373ffffffffffffffffffffffffffffffffffffffff16021790555060208201518160010190805190602001906127c4929190613e5e565b5060408201518160020190805190602001906127e1929190613e5e565b5060608201518160030190805190602001906127fe929190613e5e565b506080820151816004015560a0820151816005015560c0820151816006015560e08201518160070160006101000a81548160ff0219169083151502179055506101008201518160070160016101000a81548160ff0219169083151502179055506101208201518160070160026101000a81548160ff021916908315150217905550610140820151816008015561016082015181600c0190805190602001906128a7929190613ede565b5061018082015181600d0190805190602001906128c5929190613ede565b5090505060016000540160008190555050505050505050565b600080600260009054906101000a900473ffffffffffffffffffffffffffffffffffffffff1673ffffffffffffffffffffffffffffffffffffffff166368ebd4e8846040518263ffffffff1660e01b81526004018080602001828103825283818151815260200191508051906020019080838360005b8381101561296f578082015181840152602081019050612954565b50505050905090810190601f16801561299c5780820380516001836020036101000a031916815260200191505b509250505060206040518083038186803b1580156129b957600080fd5b505afa1580156129cd573d6000803e3d6000fd5b505050506040513d60208110156129e357600080fd5b810190808051906020019092919050505090503373ffffffffffffffffffffffffffffffffffffffff168173ffffffffffffffffffffffffffffffffffffffff1614915050919050565b6000600354612a3b836134c2565b019050919050565b60035481565b6007600083815260200190815260200160002060000160009054906101000a900473ffffffffffffffffffffffffffffffffffffffff1673ffffffffffffffffffffffffffffffffffffffff163373ffffffffffffffffffffffffffffffffffffffff161415612b04576040517f08c379a00000000000000000000000000000000000000000000000000000000081526004018080602001828103825260248152602001806143426024913960400191505060405180910390fd5b612b0d81613d0f565b612b7f576040517f08c379a00000000000000000000000000000000000000000000000000000000081526004018080602001828103825260208152602001807f4e65656420746f206265206f776e6572206f662074686973206461746173657481525060200191505060405180910390fd5b612b88826113ff565b15612bde576040517f08c379a000000000000000000000000000000000000000000000000000000000815260040180806020018281038252602a8152602001806144de602a913960400191505060405180910390fd5b6005543414612c38576040517f08c379a00000000000000000000000000000000000000000000000000000000081526004018080602001828103825260248152602001806140df6024913960400191505060405180910390fd5b600115156007600084815260200190815260200160002060090160003373ffffffffffffffffffffffffffffffffffffffff1673ffffffffffffffffffffffffffffffffffffffff16815260200190815260200160002060009054906101000a900460ff1615151415612d13576040517f08c379a000000000000000000000000000000000000000000000000000000000815260040180806020018281038252601f8152602001807f20416c72656164792072656769737465726564206f6e2074686973206a6f620081525060200191505060405180910390fd5b60016007600084815260200190815260200160002060090160003373ffffffffffffffffffffffffffffffffffffffff1673ffffffffffffffffffffffffffffffffffffffff16815260200190815260200160002060006101000a81548160ff0219169083151502179055508060076000848152602001908152602001600020600b0160003373ffffffffffffffffffffffffffffffffffffffff1673ffffffffffffffffffffffffffffffffffffffff1681526020019081526020016000209080519060200190612de6929190613f68565b5060076000838152602001908152602001600020600c013390806001815401808255809150509060018203906000526020600020016000909192909190916101000a81548173ffffffffffffffffffffffffffffffffffffffff021916908373ffffffffffffffffffffffffffffffffffffffff160217905550505050565b6008602052806000526040600020600091509050806000018054600181600116156101000203166002900480601f016020809104026020016040519081016040528092919081815260200182805460018160011615610100020316600290048015612f115780601f10612ee657610100808354040283529160200191612f11565b820191906000526020600020905b815481529060010190602001808311612ef457829003601f168201915b505050505090806001018054600181600116156101000203166002900480601f016020809104026020016040519081016040528092919081815260200182805460018160011615610100020316600290048015612faf5780601f10612f8457610100808354040283529160200191612faf565b820191906000526020600020905b815481529060010190602001808311612f9257829003601f168201915b5050505050905082565b600080600080600760008681526020019081526020016000206005015460076000878152602001908152602001600020600601546007600088815260200190815260200160002060070160019054906101000a900460ff166007600089815260200190815260200160002060070160029054906101000a900460ff1693509350935093509193509193565b600061304f826134c2565b9050600061305c83612a2d565b9050814210156130b7576040517f08c379a00000000000000000000000000000000000000000000000000000000081526004018080602001828103825260358152602001806145086035913960400191505060405180910390fd5b80421080156130f55750600760008481526020019081526020016000206004015460076000858152602001908152602001600020600d018054905010155b1561314b576040517f08c379a00000000000000000000000000000000000000000000000000000000081526004018080602001828103825260358152602001806140816035913960400191505060405180910390fd5b6007600084815260200190815260200160002060070160019054906101000a900460ff16156131c5576040517f08c379a000000000000000000000000000000000000000000000000000000000815260040180806020018281038252603181526020018061422c6031913960400191505060405180910390fd5b600115156007600085815260200190815260200160002060090160003373ffffffffffffffffffffffffffffffffffffffff1673ffffffffffffffffffffffffffffffffffffffff16815260200190815260200160002060009054906101000a900460ff16151514613282576040517f08c379a000000000000000000000000000000000000000000000000000000000815260040180806020018281038252603681526020018061438b6036913960400191505060405180910390fd5b3373ffffffffffffffffffffffffffffffffffffffff166108fc6005549081150290604051600060405180830381858888f193505050501580156132ca573d6000803e3d6000fd5b506007600084815260200190815260200160002060090160003373ffffffffffffffffffffffffffffffffffffffff1673ffffffffffffffffffffffffffffffffffffffff16815260200190815260200160002060006101000a81549060ff0219169055505050565b60606007600083815260200190815260200160002060000160009054906101000a900473ffffffffffffffffffffffffffffffffffffffff1673ffffffffffffffffffffffffffffffffffffffff163373ffffffffffffffffffffffffffffffffffffffff161461340c576040517f08c379a000000000000000000000000000000000000000000000000000000000815260040180806020018281038252601d8152602001807f4f6e6c79206f776e65722063616e20616363657373207765696768747300000081525060200191505060405180910390fd5b600860008381526020019081526020016000206001018054600181600116156101000203166002900480601f0160208091040260200160405190810160405280929190818152602001828054600181600116156101000203166002900480156134b65780601f1061348b576101008083540402835291602001916134b6565b820191906000526020600020905b81548152906001019060200180831161349957829003601f168201915b50505050509050919050565b6000610e106007600084815260200190815260200160002060060154026007600084815260200190815260200160002060050154019050919050565b3373ffffffffffffffffffffffffffffffffffffffff166007600083815260200190815260200160002060000160009054906101000a900473ffffffffffffffffffffffffffffffffffffffff1673ffffffffffffffffffffffffffffffffffffffff16146135d5576040517f08c379a00000000000000000000000000000000000000000000000000000000081526004018080602001828103825260208152602001807f4a6f622063616e206f6e6c792062652073746172746564206279206f776e657281525060200191505060405180910390fd5b6135de816113ff565b613633576040517f08c379a00000000000000000000000000000000000000000000000000000000081526004018080602001828103825260328152602001806141366032913960400191505060405180910390fd5b600061363e82612a2d565b9050804211156136b6576040517f08c379a00000000000000000000000000000000000000000000000000000000081526004018080602001828103825260208152602001807f546f6f206c61746520746f20737461727420747261696e696e67206d6f64656c81525060200191505060405180910390fd5b600760008381526020019081526020016000206004015460076000848152602001908152602001600020600d0180549050101561373e576040517f08c379a00000000000000000000000000000000000000000000000000000000081526004018080602001828103825260258152602001806142bf6025913960400191505060405180910390fd5b60016007600084815260200190815260200160002060070160016101000a81548160ff021916908315150217905550606060076000848152602001908152602001600020600c0180548060200260200160405190810160405280929190818152602001828054801561380557602002820191906000526020600020905b8160009054906101000a900473ffffffffffffffffffffffffffffffffffffffff1673ffffffffffffffffffffffffffffffffffffffff16815260200190600101908083116137bb575b5050505050905060008090505b815181101561390a576001151560076000868152602001908152602001600020600a01600084848151811061384357fe5b602002602001015173ffffffffffffffffffffffffffffffffffffffff1673ffffffffffffffffffffffffffffffffffffffff16815260200190815260200160002060009054906101000a900460ff161515146138fd5760008282815181106138a857fe5b602002602001015190508073ffffffffffffffffffffffffffffffffffffffff166108fc6005549081150290604051600060405180830381858888f193505050501580156138fa573d6000803e3d6000fd5b50505b8080600101915050613812565b50505050565b600660009054906101000a900473ffffffffffffffffffffffffffffffffffffffff1673ffffffffffffffffffffffffffffffffffffffff163373ffffffffffffffffffffffffffffffffffffffff16146139b6576040517f08c379a000000000000000000000000000000000000000000000000000000000815260040180806020018281038252603681526020018061442b6036913960400191505060405180910390fd5b8251845114613a10576040517f08c379a00000000000000000000000000000000000000000000000000000000081526004018080602001828103825260318152602001806143c16031913960400191505060405180910390fd5b60076000868152602001908152602001600020600d0180549050835114613a82576040517f08c379a00000000000000000000000000000000000000000000000000000000081526004018080602001828103825260348152602001806141916034913960400191505060405180910390fd5b600115156007600087815260200190815260200160002060070160029054906101000a900460ff1615151415613b03576040517f08c379a000000000000000000000000000000000000000000000000000000000815260040180806020018281038252604e815260200180614461604e913960600191505060405180910390fd5b600080905060008090505b8551811015613b3c57858181518110613b2357fe5b6020026020010151820191508080600101915050613b0e565b506007600087815260200190815260200160002060080154811115613bac576040517f08c379a00000000000000000000000000000000000000000000000000000000081526004018080602001828103825260258152602001806143666025913960400191505060405180910390fd5b60008090505b8451811015613c4c576000858281518110613bc957fe5b60200260200101519050868281518110613bdf57fe5b6020026020010151600860008a815260200190815260200160002060020160008373ffffffffffffffffffffffffffffffffffffffff1673ffffffffffffffffffffffffffffffffffffffff16815260200190815260200160002081905550508080600101915050613bb2565b5060016007600088815260200190815260200160002060070160026101000a81548160ff02191690831515021790555060006007600088815260200190815260200160002060070160006101000a81548160ff02191690831515021790555082600860008881526020019081526020016000206000019080519060200190613cd5929190613f68565b5081600860008881526020019081526020016000206001019080519060200190613d00929190613f68565b50505050505050565b60045481565b600080600160009054906101000a900473ffffffffffffffffffffffffffffffffffffffff1673ffffffffffffffffffffffffffffffffffffffff16635c06c902846040518263ffffffff1660e01b81526004018080602001828103825283818151815260200191508051906020019080838360005b83811015613da0578082015181840152602081019050613d85565b50505050905090810190601f168015613dcd5780820380516001836020036101000a031916815260200191505b509250505060206040518083038186803b158015613dea57600080fd5b505afa158015613dfe573d6000803e3d6000fd5b505050506040513d6020811015613e1457600080fd5b810190808051906020019092919050505090503373ffffffffffffffffffffffffffffffffffffffff168173ffffffffffffffffffffffffffffffffffffffff1614915050919050565b828054600181600116156101000203166002900490600052602060002090601f016020900481019282601f10613e9f57805160ff1916838001178555613ecd565b82800160010185558215613ecd579182015b82811115613ecc578251825591602001919060010190613eb1565b5b509050613eda9190613fe8565b5090565b828054828255906000526020600020908101928215613f57579160200282015b82811115613f565782518260006101000a81548173ffffffffffffffffffffffffffffffffffffffff021916908373ffffffffffffffffffffffffffffffffffffffff16021790555091602001919060010190613efe565b5b509050613f64919061400d565b5090565b828054600181600116156101000203166002900490600052602060002090601f016020900481019282601f10613fa957805160ff1916838001178555613fd7565b82800160010185558215613fd7579182015b82811115613fd6578251825591602001919060010190613fbb565b5b509050613fe49190613fe8565b5090565b61400a91905b80821115614006576000816000905550600101613fee565b5090565b90565b61404d91905b8082111561404957600081816101000a81549073ffffffffffffffffffffffffffffffffffffffff021916905550600101614013565b5090565b9056fe4f6e6c79206d6f64656c206f776e65722063616e206372656174652061206a6f6220666f722074686973206d6f64656c43616e206f6e6c792077697468647261772066756e647320616674657220747261696e696e6720737461727420646561646c696e6544617461736574206f776e657220616c726561647920616464656420746f20616c6c6f77206c6973744e65656420746f2073656e642074686520636f727265637420686f6c64696e672066656543616e2774207265636569766520636f6d70656e736174696f6e206966206e6f742061206a6f62207061727469636970616e74526567697374726174696f6e20706572696f6420666f722074686973206a6f6220686173206e6f742079657420656e6465644f6e6c792061206a6f62207061727469636970616e742063616e2061636365737320726573756c74734e756d626572206f6620636c69656e7473206d757374206d61746368206e756d626572206f6620616c6c6f77656420757365727343616e206f6e6c792061646420616e20696e74657265737465642064617461206f776e657220746f20616c6c6f77206c6973744e65656420746f2073656e642074686520636f7272656374206a6f62206372656174696f6e2066656520616e6420626f756e747943616e206f6e6c792077697468647261772066756e647320696620747261696e696e67206e65766572207374617274656453756666696369656e74206e756d626572206f6620636c69656e7473206f6e20616c6c6f77206c69737420746f20737461727420747261696e696e674e65656420746f20626520726567697374657265642061732064617461736574206f776e65724d696e696d756d206e756d626572206f6620636c69656e7473206e6f74207265616368656443616e2774207265636569766520636f6d70656e736174696f6e20756e74696c207375636365737366756c20747261696e696e67416c726561647920726563656976656420636f6d70656e736174696f6e20666f722074686973206a6f624a6f62206f776e65722063616e6e6f74207369676e207570206173206120636c69656e7443616e277420706179206f7574206d6f7265207468616e20626f756e747920616d6f756e744f6e6c7920616e20616c726561647920726567697374657265642064617461206f776e65722063616e207769746864726177206665654e756d626572206f6620636c69656e7473206d757374206d6174636820636f6d70656e736174696f6e20616d6f756e74734a6f622063616e206f6e6c7920656e6420776974686f757420747261696e696e6720616674657220726567697374726174696f6e20656e64734f6e6c79207365727665722063616e20656e6420747261696e696e6720616e6420696e69746961746520636f6d70656e736174696f6e547261696e696e672068617320656e64656420616e6420636f6d70656e736174696f6e2068617320616c7265616479206265656e207370656e74206f757420746f207061727469636970616e747355736572206e6f7420656c696769626c6520666f7220636f6d70656e736174696f6e20666f722074686973206a6f62526567697374726174696f6e20706572696f6420666f722074686973206a6f622068617320656e64656443616e206f6e6c792077697468647261772066756e647320616674657220726567697374726174696f6e20706572696f6420656e64a265627a7a72315820c9649ced17ceb2bd075378e0631e19711527bce535fb48e0e98b4c610724d1a264736f6c63430005100032",
  "source": "pragma solidity >=0.5.16;\r\n\r\ncontract ModelDatabase {\r\n    function getModelOwner(string memory _ipfsHash) public view returns(address) {}\r\n}\r\n\r\ncontract DatasetDatabase {\r\n    function getDatasetOwner(string memory _ipfsHash) public view returns(address) {}\r\n}\r\n\r\ncontract Jobs {\r\n\r\n    uint public jobsCreated = 0;\r\n\r\n    DatasetDatabase datasetDatabase;\r\n    ModelDatabase modelDatabase;\r\n\r\n    uint public gracePeriod = 1 hours;\r\n\r\n    uint public jobCreationFee = 1e6 wei;\r\n\r\n    uint public holdingFee = 1e6 wei;\r\n\r\n    address payable private serverAddress = 0x12F0F455D3e769b247518747dd731E9c61366E97;\r\n\r\n    struct Job {\r\n        address payable owner;\r\n        string modelIpfsHash;\r\n        string strategyHash;\r\n        string testDatasetHash;\r\n        uint minClients;\r\n        uint initTime;\r\n        uint hoursUntilStart;\r\n        bool active;\r\n        bool trainingStarted;\r\n        bool trainingEnded;\r\n        uint bounty;\r\n        mapping(address => bool) datasetOwners;\r\n        mapping(address => bool)  allowList;\r\n        mapping(address => string) datasetHash;\r\n        address payable[] arrDatasetOwners;\r\n        address payable[] arrAllowList;\r\n    }\r\n\r\n    struct JobResults {\r\n        string resultsHash;\r\n        string weightsHash;\r\n        mapping(address => uint) compensation;\r\n        mapping(address => bool) isCompensated;\r\n    }\r\n\r\n    mapping(uint => Job) public jobs;\r\n    mapping(uint => JobResults) public jobResults;\r\n\r\n    constructor(address _contractAddressDatasets, address _contractAddressModels) public {\r\n        datasetDatabase = DatasetDatabase(_contractAddressDatasets);\r\n        modelDatabase = ModelDatabase(_contractAddressModels);\r\n    }\r\n\r\n    function isSenderModelOwner(string memory _modelIpfsHash) public view returns(bool) {\r\n        address owner = modelDatabase.getModelOwner(_modelIpfsHash);\r\n        return (owner == msg.sender);\r\n    }\r\n\r\n    function isSenderDatasetOwner(string memory _datasetIpfsHash) public view returns(bool) {\r\n        address owner = datasetDatabase.getDatasetOwner(_datasetIpfsHash);\r\n        return (owner == msg.sender);\r\n    }\r\n\r\n    function getJobStartTime(uint _id) public view returns(uint) {\r\n        return jobs[_id].initTime + jobs[_id].hoursUntilStart * 1 hours;\r\n    }\r\n\r\n    function getGraceDeadline(uint _id) public view returns(uint){\r\n        return getJobStartTime(_id) + gracePeriod;\r\n    }\r\n\r\n    function registrationPeriodOver(uint _id) public view returns(bool) {\r\n        return (block.timestamp >= getJobStartTime(_id));\r\n    }\r\n\r\n    function createJob(string memory _modelIpfsHash, string memory _strategyHash, string memory _testDatasetHash, uint _minClients, uint _hoursUntilStart,\r\n        uint _bounty) public payable {\r\n\r\n        // Check the Job creator is model owner\r\n        require(isSenderModelOwner(_modelIpfsHash),\"Only model owner can create a job for this model\");\r\n\r\n        // Check user has paid the correct bounty and job Creation Fee\r\n        require(msg.value == jobCreationFee + _bounty,\"Need to send the correct job creation fee and bounty\");\r\n\r\n        address payable[] memory init;\r\n\r\n        jobs[jobsCreated] = Job({owner: msg.sender,\r\n                                modelIpfsHash: _modelIpfsHash,\r\n                                strategyHash: _strategyHash,\r\n                                testDatasetHash: _testDatasetHash,\r\n                                minClients: _minClients,\r\n                                initTime: block.timestamp,\r\n                                hoursUntilStart: _hoursUntilStart,\r\n                                bounty: _bounty,\r\n                                active: true,\r\n                                trainingStarted: false,\r\n                                trainingEnded: false,\r\n                                arrDatasetOwners: init,\r\n                                arrAllowList: init}\r\n                                );\r\n\r\n        jobsCreated = jobsCreated + 1;\r\n    }\r\n\r\n\r\n    // Called by dataset owners to register their willingness to join a jobs\r\n    // Owners registers a particular dataset and\r\n    function registerDatasetOwner(uint _id, string memory _datasetIpfsHash) public payable {\r\n        // Check user is not model owner\r\n        require(msg.sender != jobs[_id].owner, \"Job owner cannot sign up as a client\");\r\n\r\n        // Check if user is dataset owner\r\n        require(isSenderDatasetOwner(_datasetIpfsHash), \"Need to be owner of this dataset\");\r\n\r\n\r\n        // Check job is still in registration period\r\n        if (registrationPeriodOver(_id)){\r\n            revert(\"Registration period for this job has ended\");\r\n        }\r\n\r\n        // Check user has paid the correct holding fee\r\n        require(msg.value == holdingFee,\"Need to send the correct holding fee\");\r\n\r\n\r\n        // Check if already registered\r\n        if(jobs[_id].datasetOwners[msg.sender] == true){\r\n            revert(\" Already registered on this job\");\r\n        }\r\n\r\n        // Add dataset owner's address to list of owner addresses comitted to job\r\n        jobs[_id].datasetOwners[msg.sender] = true;\r\n        jobs[_id].datasetHash[msg.sender] = _datasetIpfsHash;\r\n        jobs[_id].arrDatasetOwners.push(msg.sender);\r\n\r\n    }\r\n\r\n    // Called by Job owner to allow registered Clients to partake in job i.e. download model\r\n    function addToAllowList(uint _id, address payable _datasetOwner) public {\r\n        // Check user is job owner\r\n        require(jobs[_id].owner == msg.sender, \"Need to be registered as dataset owner\");\r\n\r\n        // Check address is in registry of interested owners\r\n        require(jobs[_id].datasetOwners[_datasetOwner] == true, \"Can only add an interested data owner to allow list\");\r\n\r\n        // Check job is still in registration period\r\n        if (registrationPeriodOver(_id)){\r\n            revert(\"Registration period for this job has ended\");\r\n        }\r\n\r\n        // Check if dataset owner already registered on allowList\r\n        if (jobs[_id].allowList[_datasetOwner] == true){\r\n            revert(\"Dataset owner already added to allow list\");\r\n        }\r\n\r\n        jobs[_id].allowList[_datasetOwner] = true;\r\n        jobs[_id].arrAllowList.push(_datasetOwner);\r\n    }\r\n\r\n    function getNumRegistered(uint _id) public view returns(uint){\r\n        return jobs[_id].arrDatasetOwners.length;\r\n    }\r\n\r\n    function getNumAllow(uint _id) public view returns(uint){\r\n        return jobs[_id].arrAllowList.length;\r\n    }\r\n\r\n    function getJobRegistered(uint _id) public view returns(address payable [] memory){\r\n      return jobs[_id].arrDatasetOwners;\r\n    }\r\n\r\n    function getJobAllowed(uint _id) public view returns(address payable [] memory){\r\n      return jobs[_id].arrAllowList;\r\n    }\r\n\r\n    function getJobDetails(uint _id) public view returns(address, uint, uint){\r\n        return (jobs[_id].owner, jobs[_id].minClients, jobs[_id].bounty);\r\n    }\r\n\r\n    function getJobStatus(uint _id) public view returns(uint, uint, bool, bool){\r\n        return (jobs[_id].initTime, jobs[_id].hoursUntilStart, jobs[_id].trainingStarted, jobs[_id].trainingEnded);\r\n    }\r\n\r\n    function getMinClients(uint _id) public view returns(uint) {\r\n        return jobs[_id].minClients;\r\n    }\r\n\r\n    function startJob(uint _id) public{\r\n        // Can only be started by owner of job\r\n        if (jobs[_id].owner != msg.sender){\r\n            revert(\"Job can only be started by owner\");\r\n        }\r\n\r\n        // Check registration period has ended\r\n        if (!registrationPeriodOver(_id)){\r\n            revert(\"Registration period for this job has not yet ended\");\r\n        }\r\n\r\n        // Check grace period not over\r\n        //uint jobStartTime = getJobStartTime(_id);\r\n        uint deadline = getGraceDeadline(_id);\r\n        if (block.timestamp > deadline){\r\n            revert(\"Too late to start training model\");\r\n        }\r\n\r\n        if (jobs[_id].arrAllowList.length < jobs[_id].minClients) {\r\n            revert(\"Minimum number of clients not reached\");\r\n        }\r\n\r\n        // Set training started status as true\r\n        jobs[_id].trainingStarted = true;\r\n\r\n        // List of owners registered for this job\r\n        address payable[] memory registeredDatasetOwners = jobs[_id].arrDatasetOwners;\r\n\r\n        // Check every register data owner, if they are not on allow list, they get their fee back when training starts\r\n        for (uint i=0; i<registeredDatasetOwners.length; i++) {\r\n            if (jobs[_id].allowList[registeredDatasetOwners[i]] != true) {\r\n                address payable payee = registeredDatasetOwners[i];\r\n                payee.transfer(holdingFee);\r\n            }\r\n        }\r\n\r\n        // return job fee to client\r\n        //msg.sender.transfer(jobCreationFee);\r\n        //serverAddress.transfer(jobCreationFee);\r\n\r\n    }\r\n\r\n\r\n\r\n    function withdrawFee(uint _id) public{\r\n        // Check grace period over\r\n        uint jobStartTime = getJobStartTime(_id);\r\n        uint deadline = getGraceDeadline(_id);\r\n        if (block.timestamp < jobStartTime ){\r\n            revert(\"Can only withdraw funds after registration period end\");\r\n        }\r\n\r\n        if ((block.timestamp < deadline) && (jobs[_id].arrAllowList.length >= jobs[_id].minClients)){\r\n            revert(\"Can only withdraw funds after training start deadline\");\r\n        }\r\n\r\n        // To withdraw funds, need training not to have started\r\n        require(!jobs[_id].trainingStarted, \"Can only withdraw funds if training never started\");\r\n\r\n        // Only a data owner registered to job can withdraw funds\r\n        require(jobs[_id].datasetOwners[msg.sender] == true, \"Only an already registered data owner can withdraw fee\");\r\n\r\n        // Send holding fee to job registered user\r\n        msg.sender.transfer(holdingFee);\r\n\r\n        // remove Client from datasetOwners list to prevent withdrawing fee again\r\n        delete(jobs[_id].datasetOwners[msg.sender]);\r\n    }\r\n\r\n    function endFailedJob(uint _id) public {\r\n        // Only the owner of the job can end it\r\n        require(jobs[_id].owner == msg.sender, \"Only job owner can end job\");\r\n\r\n        // Check grace period over\r\n        uint jobStartTime = getJobStartTime(_id);\r\n        if (block.timestamp < jobStartTime){\r\n            revert(\"Job can only end without training after registration ends\");\r\n        }\r\n        \r\n        // To end job, training should not have started\r\n        require(!jobs[_id].trainingStarted, \"Can only withdraw funds if training never started\");\r\n        \r\n        // To end job, length of the allow list must be smaller than minClients\r\n        require(getNumAllow(_id) < getMinClients(_id), \"Sufficient number of clients on allow list to start training\");\r\n\r\n        // Can only end an active job, to prevent spamming function\r\n        require(jobs[_id].active == true);\r\n\r\n        // withdraw bounty to data scientist\r\n        msg.sender.transfer(jobs[_id].bounty);\r\n        msg.sender.transfer(jobCreationFee);\r\n\r\n        jobs[_id].active = false;\r\n    }\r\n\r\n    function isRegistered(uint _id) public view returns(bool){\r\n        return jobs[_id].datasetOwners[msg.sender];\r\n    }\r\n\r\n    function compensate(uint _id, uint [] memory _compensation, address payable [] memory _clients,\r\n                        string memory _resultsHash, string memory _weightsHash) public{\r\n\r\n        require(msg.sender == serverAddress,\"Only server can end training and initiate compensation\");\r\n\r\n        require(_compensation.length == _clients.length,\"Number of clients must match compensation amounts\");\r\n\r\n        require(_clients.length == jobs[_id].arrAllowList.length, \"Number of clients must match number of allowed users\");\r\n\r\n        if(jobs[_id].trainingEnded == true){\r\n            revert(\"Training has ended and compensation has already been spent out to participants\");\r\n        }\r\n\r\n        uint compensationSum = 0;\r\n        for (uint j=0; j<_compensation.length; j++) {\r\n            compensationSum = compensationSum + _compensation[j];\r\n        }\r\n\r\n        // Check sum of compensation array is less than job bounty\r\n        require(compensationSum <= jobs[_id].bounty, \"Can't pay out more than bounty amount\");\r\n\r\n        // Assign compensation amount to each client\r\n        for (uint i=0; i<_clients.length; i++) {\r\n            address payable payee = _clients[i];\r\n            jobResults[_id].compensation[payee] = _compensation[i];\r\n        }\r\n\r\n        // Set status of job as ended\r\n        jobs[_id].trainingEnded = true;\r\n        jobs[_id].active = false;\r\n        // Log results of job\r\n        jobResults[_id].resultsHash = _resultsHash;\r\n        jobResults[_id].weightsHash = _weightsHash;\r\n    }\r\n\r\n    function getCompensation(uint _id) public{\r\n\r\n        // Check if training for this job has successfully ended\r\n        require(jobs[_id].trainingEnded == true, \"Can't receive compensation until successful training\");\r\n\r\n        // Check if user was on the Allow list of the job\r\n        require(jobs[_id].allowList[msg.sender] == true, \"Can't receive compensation if not a job participant\");\r\n\r\n        // Ensure user is not compensated twice, can only receive compensation for job if not compensated before\r\n        if (jobResults[_id].isCompensated[msg.sender] == true){\r\n            revert(\"Already received compensation for this job\");\r\n        }\r\n\r\n        // Transfer to user their compensation amount\r\n        msg.sender.transfer(jobResults[_id].compensation[msg.sender]);\r\n        msg.sender.transfer(holdingFee);\r\n\r\n        // Log that user has been compensated\r\n        jobResults[_id].isCompensated[msg.sender] = true;\r\n    }\r\n\r\n    function getWeights(uint _id) public view returns(string memory){\r\n        // Check user is job owner\r\n        require(msg.sender == jobs[_id].owner,\"Only owner can access weights\");\r\n\r\n        return(jobResults[_id].weightsHash);\r\n    }\r\n\r\n    function getCompensationResults(uint _id) public view returns(string memory){\r\n        // Check user is a job participant\r\n        require((msg.sender == jobs[_id].owner) || (jobs[_id].allowList[msg.sender] == true) ,\"Only a job participant can access results\");\r\n\r\n        return(jobResults[_id].resultsHash);\r\n    }\r\n\r\n    function isCompensated(uint _id) public view returns(bool){\r\n        // Check if user is a job participant first\r\n        require(jobs[_id].allowList[msg.sender]==true,\"User not eligible for compensation for this job\");\r\n\r\n        //Check if user has been isCompensated\r\n        return(jobResults[_id].isCompensated[msg.sender]);\r\n    }\r\n\r\n}",
  "sourcePath": "C:/Users/PC/Dapp/group-project/reactapp/BlockchainBackend/contracts/Jobs.sol",
  "compiler": {
    "name": "solc",
    "version": "0.5.16+commit.9c3226ce.Emscripten.clang"
  },
  "schemaVersion": "3.3.4",
  "updatedAt": "2021-04-22T16:04:25.751Z",
  "networkType": "ethereum",
  "devdoc": {
    "methods": {}
  },
  "userdoc": {
    "methods": {}
  }
}