{
  "contractName": "Jobs",
  "abi": [
    {
      "inputs": [
        {
          "internalType": "address",
          "name": "_contractAddressDatasets",
          "type": "address"
        },
        {
          "internalType": "address",
          "name": "_contractAddressModels",
          "type": "address"
        }
      ],
      "payable": false,
      "stateMutability": "nonpayable",
      "type": "constructor"
    },
    {
      "constant": true,
      "inputs": [],
      "name": "gracePeriod",
      "outputs": [
        {
          "internalType": "uint256",
          "name": "",
          "type": "uint256"
        }
      ],
      "payable": false,
      "stateMutability": "view",
      "type": "function"
    },
    {
      "constant": true,
      "inputs": [],
      "name": "holdingFee",
      "outputs": [
        {
          "internalType": "uint256",
          "name": "",
          "type": "uint256"
        }
      ],
      "payable": false,
      "stateMutability": "view",
      "type": "function"
    },
    {
      "constant": true,
      "inputs": [],
      "name": "jobCreationFee",
      "outputs": [
        {
          "internalType": "uint256",
          "name": "",
          "type": "uint256"
        }
      ],
      "payable": false,
      "stateMutability": "view",
      "type": "function"
    },
    {
      "constant": true,
      "inputs": [
        {
          "internalType": "uint256",
          "name": "",
          "type": "uint256"
        }
      ],
      "name": "jobs",
      "outputs": [
        {
          "internalType": "address payable",
          "name": "owner",
          "type": "address"
        },
        {
          "internalType": "string",
          "name": "modelIpfsHash",
          "type": "string"
        },
        {
          "internalType": "string",
          "name": "strategyHash",
          "type": "string"
        },
        {
          "internalType": "string",
          "name": "testDatasetHash",
          "type": "string"
        },
        {
          "internalType": "string",
          "name": "resultsHash",
          "type": "string"
        },
        {
          "internalType": "uint256",
          "name": "minClients",
          "type": "uint256"
        },
        {
          "internalType": "uint256",
          "name": "initTime",
          "type": "uint256"
        },
        {
          "internalType": "uint256",
          "name": "hoursUntilStart",
          "type": "uint256"
        },
        {
          "internalType": "bool",
          "name": "trainingStarted",
          "type": "bool"
        },
        {
          "internalType": "bool",
          "name": "trainingEnded",
          "type": "bool"
        },
        {
          "internalType": "uint256",
          "name": "bounty",
          "type": "uint256"
        }
      ],
      "payable": false,
      "stateMutability": "view",
      "type": "function"
    },
    {
      "constant": true,
      "inputs": [],
      "name": "jobsCreated",
      "outputs": [
        {
          "internalType": "uint256",
          "name": "",
          "type": "uint256"
        }
      ],
      "payable": false,
      "stateMutability": "view",
      "type": "function"
    },
    {
      "constant": true,
      "inputs": [
        {
          "internalType": "string",
          "name": "_modelIpfsHash",
          "type": "string"
        }
      ],
      "name": "isSenderModelOwner",
      "outputs": [
        {
          "internalType": "bool",
          "name": "",
          "type": "bool"
        }
      ],
      "payable": false,
      "stateMutability": "view",
      "type": "function"
    },
    {
      "constant": true,
      "inputs": [
        {
          "internalType": "string",
          "name": "_datasetIpfsHash",
          "type": "string"
        }
      ],
      "name": "isSenderDatasetOwner",
      "outputs": [
        {
          "internalType": "bool",
          "name": "",
          "type": "bool"
        }
      ],
      "payable": false,
      "stateMutability": "view",
      "type": "function"
    },
    {
      "constant": true,
      "inputs": [
        {
          "internalType": "uint256",
          "name": "_id",
          "type": "uint256"
        }
      ],
      "name": "getJobStartTime",
      "outputs": [
        {
          "internalType": "uint256",
          "name": "",
          "type": "uint256"
        }
      ],
      "payable": false,
      "stateMutability": "view",
      "type": "function"
    },
    {
      "constant": true,
      "inputs": [
        {
          "internalType": "uint256",
          "name": "_id",
          "type": "uint256"
        }
      ],
      "name": "registrationPeriodOver",
      "outputs": [
        {
          "internalType": "bool",
          "name": "",
          "type": "bool"
        }
      ],
      "payable": false,
      "stateMutability": "view",
      "type": "function"
    },
    {
      "constant": false,
      "inputs": [
        {
          "internalType": "string",
          "name": "_modelIpfsHash",
          "type": "string"
        },
        {
          "internalType": "string",
          "name": "_strategyHash",
          "type": "string"
        },
        {
          "internalType": "string",
          "name": "_testDatasetHash",
          "type": "string"
        },
        {
          "internalType": "uint256",
          "name": "_minClients",
          "type": "uint256"
        },
        {
          "internalType": "uint256",
          "name": "_hoursUntilStart",
          "type": "uint256"
        },
        {
          "internalType": "uint256",
          "name": "_bounty",
          "type": "uint256"
        }
      ],
      "name": "createJob",
      "outputs": [],
      "payable": true,
      "stateMutability": "payable",
      "type": "function"
    },
    {
      "constant": false,
      "inputs": [
        {
          "internalType": "uint256",
          "name": "_id",
          "type": "uint256"
        },
        {
          "internalType": "string",
          "name": "_datasetIpfsHash",
          "type": "string"
        }
      ],
      "name": "registerDatasetOwner",
      "outputs": [],
      "payable": true,
      "stateMutability": "payable",
      "type": "function"
    },
    {
      "constant": false,
      "inputs": [
        {
          "internalType": "uint256",
          "name": "_id",
          "type": "uint256"
        },
        {
          "internalType": "address payable",
          "name": "_datasetOwner",
          "type": "address"
        }
      ],
      "name": "addToAllowList",
      "outputs": [],
      "payable": false,
      "stateMutability": "nonpayable",
      "type": "function"
    },
    {
      "constant": true,
      "inputs": [
        {
          "internalType": "uint256",
          "name": "_id",
          "type": "uint256"
        }
      ],
      "name": "getNumRegistered",
      "outputs": [
        {
          "internalType": "uint256",
          "name": "",
          "type": "uint256"
        }
      ],
      "payable": false,
      "stateMutability": "view",
      "type": "function"
    },
    {
      "constant": true,
      "inputs": [
        {
          "internalType": "uint256",
          "name": "_id",
          "type": "uint256"
        }
      ],
      "name": "getNumAllow",
      "outputs": [
        {
          "internalType": "uint256",
          "name": "",
          "type": "uint256"
        }
      ],
      "payable": false,
      "stateMutability": "view",
      "type": "function"
    },
    {
      "constant": true,
      "inputs": [
        {
          "internalType": "uint256",
          "name": "_id",
          "type": "uint256"
        }
      ],
      "name": "getJobRegistered",
      "outputs": [
        {
          "internalType": "address payable[]",
          "name": "",
          "type": "address[]"
        }
      ],
      "payable": false,
      "stateMutability": "view",
      "type": "function"
    },
    {
      "constant": true,
      "inputs": [
        {
          "internalType": "uint256",
          "name": "_id",
          "type": "uint256"
        }
      ],
      "name": "getJobAllowed",
      "outputs": [
        {
          "internalType": "address payable[]",
          "name": "",
          "type": "address[]"
        }
      ],
      "payable": false,
      "stateMutability": "view",
      "type": "function"
    },
    {
      "constant": true,
      "inputs": [
        {
          "internalType": "uint256",
          "name": "_id",
          "type": "uint256"
        }
      ],
      "name": "getJobDetails",
      "outputs": [
        {
          "internalType": "address",
          "name": "",
          "type": "address"
        },
        {
          "internalType": "uint256",
          "name": "",
          "type": "uint256"
        },
        {
          "internalType": "uint256",
          "name": "",
          "type": "uint256"
        }
      ],
      "payable": false,
      "stateMutability": "view",
      "type": "function"
    },
    {
      "constant": true,
      "inputs": [
        {
          "internalType": "uint256",
          "name": "_id",
          "type": "uint256"
        }
      ],
      "name": "getJobStatus",
      "outputs": [
        {
          "internalType": "uint256",
          "name": "",
          "type": "uint256"
        },
        {
          "internalType": "uint256",
          "name": "",
          "type": "uint256"
        },
        {
          "internalType": "bool",
          "name": "",
          "type": "bool"
        },
        {
          "internalType": "bool",
          "name": "",
          "type": "bool"
        }
      ],
      "payable": false,
      "stateMutability": "view",
      "type": "function"
    },
    {
      "constant": false,
      "inputs": [
        {
          "internalType": "uint256",
          "name": "_id",
          "type": "uint256"
        }
      ],
      "name": "startJob",
      "outputs": [],
      "payable": false,
      "stateMutability": "nonpayable",
      "type": "function"
    },
    {
      "constant": false,
      "inputs": [
        {
          "internalType": "uint256",
          "name": "_id",
          "type": "uint256"
        }
      ],
      "name": "withdrawFee",
      "outputs": [],
      "payable": false,
      "stateMutability": "nonpayable",
      "type": "function"
    },
    {
      "constant": true,
      "inputs": [
        {
          "internalType": "uint256",
          "name": "_id",
          "type": "uint256"
        }
      ],
      "name": "isRegistered",
      "outputs": [
        {
          "internalType": "bool",
          "name": "",
          "type": "bool"
        }
      ],
      "payable": false,
      "stateMutability": "view",
      "type": "function"
    },
    {
      "constant": false,
      "inputs": [
        {
          "internalType": "uint256",
          "name": "_id",
          "type": "uint256"
        },
        {
          "internalType": "uint256[]",
          "name": "_compensation",
          "type": "uint256[]"
        },
        {
          "internalType": "address payable[]",
          "name": "_clients",
          "type": "address[]"
        },
        {
          "internalType": "string",
          "name": "_resultsHash",
          "type": "string"
        }
      ],
      "name": "compensate",
      "outputs": [],
      "payable": false,
      "stateMutability": "nonpayable",
      "type": "function"
    }
  ],
  "bytecode": "0x60806040526000805562015180600355620f4240600455620f424060055534801561002957600080fd5b506040516133213803806133218339818101604052604081101561004c57600080fd5b81019080805190602001909291908051906020019092919050505081600160006101000a81548173ffffffffffffffffffffffffffffffffffffffff021916908373ffffffffffffffffffffffffffffffffffffffff16021790555080600260006101000a81548173ffffffffffffffffffffffffffffffffffffffff021916908373ffffffffffffffffffffffffffffffffffffffff1602179055505050613227806100fa6000396000f3fe6080604052600436106101355760003560e01c8063848cb2ae116100ab578063a6c58b631161006f578063a6c58b6314610d06578063be35761614610d72578063d9d3074014610dad578063e125529414610dfc578063f65aaf1814610e37578063ffd5832b14610e6257610135565b8063848cb2ae1461073557806387386b741461093c578063a06db7dc14610a1c578063a335e7d514610a47578063a6aec96d14610b0c57610135565b80634cac35c6116100fd5780634cac35c6146105005780634d26607314610589578063579a6988146105d85780635df199981461062b5780637e1255c514610656578063808e0e23146106e657610135565b806309e1e9111461013a5780630c63429e1461018d5780630d112049146101b8578063180aedf3146102135780632215bf2214610470575b600080fd5b34801561014657600080fd5b506101736004803603602081101561015d57600080fd5b8101908080359060200190929190505050610f42565b604051808215151515815260200191505060405180910390f35b34801561019957600080fd5b506101a2610f57565b6040518082815260200191505060405180910390f35b3480156101c457600080fd5b50610211600480360360408110156101db57600080fd5b8101908080359060200190929190803573ffffffffffffffffffffffffffffffffffffffff169060200190929190505050610f5d565b005b34801561021f57600080fd5b5061024c6004803603602081101561023657600080fd5b81019080803590602001909291905050506112db565b604051808c73ffffffffffffffffffffffffffffffffffffffff1673ffffffffffffffffffffffffffffffffffffffff168152602001806020018060200180602001806020018b81526020018a8152602001898152602001881515151581526020018715151515815260200186815260200185810385528f818151815260200191508051906020019080838360005b838110156102f65780820151818401526020810190506102db565b50505050905090810190601f1680156103235780820380516001836020036101000a031916815260200191505b5085810384528e818151815260200191508051906020019080838360005b8381101561035c578082015181840152602081019050610341565b50505050905090810190601f1680156103895780820380516001836020036101000a031916815260200191505b5085810383528d818151815260200191508051906020019080838360005b838110156103c25780820151818401526020810190506103a7565b50505050905090810190601f1680156103ef5780820380516001836020036101000a031916815260200191505b5085810382528c818151815260200191508051906020019080838360005b8381101561042857808201518184015260208101905061040d565b50505050905090810190601f1680156104555780820380516001836020036101000a031916815260200191505b509f5050505050505050505050505050505060405180910390f35b34801561047c57600080fd5b506104a96004803603602081101561049357600080fd5b81019080803590602001909291905050506115cf565b6040518080602001828103825283818151815260200191508051906020019060200280838360005b838110156104ec5780820151818401526020810190506104d1565b505050509050019250505060405180910390f35b34801561050c57600080fd5b506105396004803603602081101561052357600080fd5b8101908080359060200190929190505050611673565b604051808473ffffffffffffffffffffffffffffffffffffffff1673ffffffffffffffffffffffffffffffffffffffff168152602001838152602001828152602001935050505060405180910390f35b34801561059557600080fd5b506105c2600480360360208110156105ac57600080fd5b81019080803590602001909291905050506116ed565b6040518082815260200191505060405180910390f35b3480156105e457600080fd5b50610611600480360360208110156105fb57600080fd5b8101908080359060200190929190505050611710565b604051808215151515815260200191505060405180910390f35b34801561063757600080fd5b5061064061177a565b6040518082815260200191505060405180910390f35b34801561066257600080fd5b5061068f6004803603602081101561067957600080fd5b8101908080359060200190929190505050611780565b6040518080602001828103825283818151815260200191508051906020019060200280838360005b838110156106d25780820151818401526020810190506106b7565b505050509050019250505060405180910390f35b3480156106f257600080fd5b5061071f6004803603602081101561070957600080fd5b8101908080359060200190929190505050611824565b6040518082815260200191505060405180910390f35b61093a600480360360c081101561074b57600080fd5b810190808035906020019064010000000081111561076857600080fd5b82018360208201111561077a57600080fd5b8035906020019184600183028401116401000000008311171561079c57600080fd5b91908080601f016020809104026020016040519081016040528093929190818152602001838380828437600081840152601f19601f820116905080830192505050505050509192919290803590602001906401000000008111156107ff57600080fd5b82018360208201111561081157600080fd5b8035906020019184600183028401116401000000008311171561083357600080fd5b91908080601f016020809104026020016040519081016040528093929190818152602001838380828437600081840152601f19601f8201169050808301925050505050505091929192908035906020019064010000000081111561089657600080fd5b8201836020820111156108a857600080fd5b803590602001918460018302840111640100000000831117156108ca57600080fd5b91908080601f016020809104026020016040519081016040528093929190818152602001838380828437600081840152601f19601f820116905080830192505050505050509192919290803590602001909291908035906020019092919080359060200190929190505050611847565b005b34801561094857600080fd5b50610a026004803603602081101561095f57600080fd5b810190808035906020019064010000000081111561097c57600080fd5b82018360208201111561098e57600080fd5b803590602001918460018302840111640100000000831117156109b057600080fd5b91908080601f016020809104026020016040519081016040528093929190818152602001838380828437600081840152601f19601f820116905080830192505050505050509192919290505050611b60565b604051808215151515815260200191505060405180910390f35b348015610a2857600080fd5b50610a31611caf565b6040518082815260200191505060405180910390f35b610b0a60048036036040811015610a5d57600080fd5b810190808035906020019092919080359060200190640100000000811115610a8457600080fd5b820183602082011115610a9657600080fd5b80359060200191846001830284011164010000000083111715610ab857600080fd5b91908080601f016020809104026020016040519081016040528093929190818152602001838380828437600081840152601f19601f820116905080830192505050505050509192919290505050611cb5565b005b348015610b1857600080fd5b50610d0460048036036080811015610b2f57600080fd5b810190808035906020019092919080359060200190640100000000811115610b5657600080fd5b820183602082011115610b6857600080fd5b80359060200191846020830284011164010000000083111715610b8a57600080fd5b919080806020026020016040519081016040528093929190818152602001838360200280828437600081840152601f19601f82011690508083019250505050505050919291929080359060200190640100000000811115610bea57600080fd5b820183602082011115610bfc57600080fd5b80359060200191846020830284011164010000000083111715610c1e57600080fd5b919080806020026020016040519081016040528093929190818152602001838360200280828437600081840152601f19601f82011690508083019250505050505050919291929080359060200190640100000000811115610c7e57600080fd5b820183602082011115610c9057600080fd5b80359060200191846001830284011164010000000083111715610cb257600080fd5b91908080601f016020809104026020016040519081016040528093929190818152602001838380828437600081840152601f19601f8201169050808301925050505050505091929192905050506120d1565b005b348015610d1257600080fd5b50610d3f60048036036020811015610d2957600080fd5b81019080803590602001909291905050506123b8565b60405180858152602001848152602001831515151581526020018215151515815260200194505050505060405180910390f35b348015610d7e57600080fd5b50610dab60048036036020811015610d9557600080fd5b8101908080359060200190929190505050612443565b005b348015610db957600080fd5b50610de660048036036020811015610dd057600080fd5b810190808035906020019092919050505061269a565b6040518082815260200191505060405180910390f35b348015610e0857600080fd5b50610e3560048036036020811015610e1f57600080fd5b81019080803590602001909291905050506126d6565b005b348015610e4357600080fd5b50610e4c612b3b565b6040518082815260200191505060405180910390f35b348015610e6e57600080fd5b50610f2860048036036020811015610e8557600080fd5b8101908080359060200190640100000000811115610ea257600080fd5b820183602082011115610eb457600080fd5b80359060200191846001830284011164010000000083111715610ed657600080fd5b91908080601f016020809104026020016040519081016040528093929190818152602001838380828437600081840152601f19601f820116905080830192505050505050509192919290505050612b41565b604051808215151515815260200191505060405180910390f35b6000610f4d8261269a565b4210159050919050565b60055481565b3373ffffffffffffffffffffffffffffffffffffffff166006600084815260200190815260200160002060000160009054906101000a900473ffffffffffffffffffffffffffffffffffffffff1673ffffffffffffffffffffffffffffffffffffffff1614611017576040517f08c379a00000000000000000000000000000000000000000000000000000000081526004018080602001828103825260268152602001806130806026913960400191505060405180910390fd5b6001151560066000848152602001908152602001600020600a0160008373ffffffffffffffffffffffffffffffffffffffff1673ffffffffffffffffffffffffffffffffffffffff16815260200190815260200160002060009054906101000a900460ff161515146110d4576040517f08c379a0000000000000000000000000000000000000000000000000000000008152600401808060200182810382526033815260200180612fe86033913960400191505060405180910390fd5b6110dd82610f42565b15611133576040517f08c379a000000000000000000000000000000000000000000000000000000000815260040180806020018281038252602a8152602001806131c9602a913960400191505060405180910390fd5b6001151560066000848152602001908152602001600020600b0160008373ffffffffffffffffffffffffffffffffffffffff1673ffffffffffffffffffffffffffffffffffffffff16815260200190815260200160002060009054906101000a900460ff16151514156111f1576040517f08c379a0000000000000000000000000000000000000000000000000000000008152600401808060200182810382526029815260200180612f356029913960400191505060405180910390fd5b600160066000848152602001908152602001600020600b0160008373ffffffffffffffffffffffffffffffffffffffff1673ffffffffffffffffffffffffffffffffffffffff16815260200190815260200160002060006101000a81548160ff02191690831515021790555060066000838152602001908152602001600020600e018190806001815401808255809150509060018203906000526020600020016000909192909190916101000a81548173ffffffffffffffffffffffffffffffffffffffff021916908373ffffffffffffffffffffffffffffffffffffffff160217905550505050565b60066020528060005260406000206000915090508060000160009054906101000a900473ffffffffffffffffffffffffffffffffffffffff1690806001018054600181600116156101000203166002900480601f0160208091040260200160405190810160405280929190818152602001828054600181600116156101000203166002900480156113ad5780601f10611382576101008083540402835291602001916113ad565b820191906000526020600020905b81548152906001019060200180831161139057829003601f168201915b505050505090806002018054600181600116156101000203166002900480601f01602080910402602001604051908101604052809291908181526020018280546001816001161561010002031660029004801561144b5780601f106114205761010080835404028352916020019161144b565b820191906000526020600020905b81548152906001019060200180831161142e57829003601f168201915b505050505090806003018054600181600116156101000203166002900480601f0160208091040260200160405190810160405280929190818152602001828054600181600116156101000203166002900480156114e95780601f106114be576101008083540402835291602001916114e9565b820191906000526020600020905b8154815290600101906020018083116114cc57829003601f168201915b505050505090806004018054600181600116156101000203166002900480601f0160208091040260200160405190810160405280929190818152602001828054600181600116156101000203166002900480156115875780601f1061155c57610100808354040283529160200191611587565b820191906000526020600020905b81548152906001019060200180831161156a57829003601f168201915b5050505050908060050154908060060154908060070154908060080160009054906101000a900460ff16908060080160019054906101000a900460ff1690806009015490508b565b606060066000838152602001908152602001600020600e0180548060200260200160405190810160405280929190818152602001828054801561166757602002820191906000526020600020905b8160009054906101000a900473ffffffffffffffffffffffffffffffffffffffff1673ffffffffffffffffffffffffffffffffffffffff168152602001906001019080831161161d575b50505050509050919050565b60008060006006600085815260200190815260200160002060000160009054906101000a900473ffffffffffffffffffffffffffffffffffffffff16600660008681526020019081526020016000206005015460066000878152602001908152602001600020600901548292509250925092509193909250565b600060066000838152602001908152602001600020600e01805490509050919050565b600060066000838152602001908152602001600020600a0160003373ffffffffffffffffffffffffffffffffffffffff1673ffffffffffffffffffffffffffffffffffffffff16815260200190815260200160002060009054906101000a900460ff169050919050565b60005481565b606060066000838152602001908152602001600020600d0180548060200260200160405190810160405280929190818152602001828054801561181857602002820191906000526020600020905b8160009054906101000a900473ffffffffffffffffffffffffffffffffffffffff1673ffffffffffffffffffffffffffffffffffffffff16815260200190600101908083116117ce575b50505050509050919050565b600060066000838152602001908152602001600020600d01805490509050919050565b61185086611b60565b6118a5576040517f08c379a0000000000000000000000000000000000000000000000000000000008152600401808060200182810382526030815260200180612ed06030913960400191505060405180910390fd5b80600454013414611901576040517f08c379a000000000000000000000000000000000000000000000000000000000815260040180806020018281038252603481526020018061301b6034913960400191505060405180910390fd5b606080604051806101c001604052803373ffffffffffffffffffffffffffffffffffffffff1681526020018981526020018881526020018781526020016040518060400160405280600181526020017f2000000000000000000000000000000000000000000000000000000000000000815250815260200186815260200142815260200185815260200160001515815260200160001515815260200184815260200183815260200183815260200182815250600660008054815260200190815260200160002060008201518160000160006101000a81548173ffffffffffffffffffffffffffffffffffffffff021916908373ffffffffffffffffffffffffffffffffffffffff1602179055506020820151816001019080519060200190611a2a929190612c90565b506040820151816002019080519060200190611a47929190612c90565b506060820151816003019080519060200190611a64929190612c90565b506080820151816004019080519060200190611a81929190612c90565b5060a0820151816005015560c0820151816006015560e082015181600701556101008201518160080160006101000a81548160ff0219169083151502179055506101208201518160080160016101000a81548160ff021916908315150217905550610140820151816009015561016082015181600d019080519060200190611b0a929190612d10565b5061018082015181600e019080519060200190611b28929190612d10565b506101a082015181600f019080519060200190611b46929190612d9a565b509050506001600054016000819055505050505050505050565b600080600260009054906101000a900473ffffffffffffffffffffffffffffffffffffffff1673ffffffffffffffffffffffffffffffffffffffff166368ebd4e8846040518263ffffffff1660e01b81526004018080602001828103825283818151815260200191508051906020019080838360005b83811015611bf1578082015181840152602081019050611bd6565b50505050905090810190601f168015611c1e5780820380516001836020036101000a031916815260200191505b509250505060206040518083038186803b158015611c3b57600080fd5b505afa158015611c4f573d6000803e3d6000fd5b505050506040513d6020811015611c6557600080fd5b810190808051906020019092919050505090503373ffffffffffffffffffffffffffffffffffffffff168173ffffffffffffffffffffffffffffffffffffffff1614915050919050565b60035481565b6006600083815260200190815260200160002060000160009054906101000a900473ffffffffffffffffffffffffffffffffffffffff1673ffffffffffffffffffffffffffffffffffffffff163373ffffffffffffffffffffffffffffffffffffffff161415611d70576040517f08c379a00000000000000000000000000000000000000000000000000000000081526004018080602001828103825260248152602001806130cb6024913960400191505060405180910390fd5b611d7981612b41565b611deb576040517f08c379a00000000000000000000000000000000000000000000000000000000081526004018080602001828103825260208152602001807f4e65656420746f206265206f776e6572206f662074686973206461746173657481525060200191505060405180910390fd5b611df482610f42565b15611e4a576040517f08c379a000000000000000000000000000000000000000000000000000000000815260040180806020018281038252602a8152602001806131c9602a913960400191505060405180910390fd5b6005543414611ea4576040517f08c379a0000000000000000000000000000000000000000000000000000000008152600401808060200182810382526024815260200180612f5e6024913960400191505060405180910390fd5b6001151560066000848152602001908152602001600020600a0160003373ffffffffffffffffffffffffffffffffffffffff1673ffffffffffffffffffffffffffffffffffffffff16815260200190815260200160002060009054906101000a900460ff1615151415611f7f576040517f08c379a000000000000000000000000000000000000000000000000000000000815260040180806020018281038252601f8152602001807f20416c72656164792072656769737465726564206f6e2074686973206a6f620081525060200191505060405180910390fd5b600160066000848152602001908152602001600020600a0160003373ffffffffffffffffffffffffffffffffffffffff1673ffffffffffffffffffffffffffffffffffffffff16815260200190815260200160002060006101000a81548160ff0219169083151502179055508060066000848152602001908152602001600020600c0160003373ffffffffffffffffffffffffffffffffffffffff1673ffffffffffffffffffffffffffffffffffffffff1681526020019081526020016000209080519060200190612052929190612de7565b5060066000838152602001908152602001600020600d013390806001815401808255809150509060018203906000526020600020016000909192909190916101000a81548173ffffffffffffffffffffffffffffffffffffffff021916908373ffffffffffffffffffffffffffffffffffffffff160217905550505050565b815183511461212b576040517f08c379a000000000000000000000000000000000000000000000000000000000815260040180806020018281038252603181526020018061314a6031913960400191505060405180910390fd5b60066000858152602001908152602001600020600e018054905082511461219d576040517f08c379a0000000000000000000000000000000000000000000000000000000008152600401808060200182810382526034815260200180612fb46034913960400191505060405180910390fd5b600115156006600086815260200190815260200160002060080160019054906101000a900460ff161515141561221e576040517f08c379a000000000000000000000000000000000000000000000000000000000815260040180806020018281038252604e81526020018061317b604e913960600191505060405180910390fd5b600080905060008090505b84518110156122575784818151811061223e57fe5b6020026020010151820191508080600101915050612229565b5060066000868152602001908152602001600020600901548111156122c7576040517f08c379a00000000000000000000000000000000000000000000000000000000081526004018080602001828103825260258152602001806130ef6025913960400191505060405180910390fd5b60008090505b83518110156123565760008482815181106122e457fe5b602002602001015190508073ffffffffffffffffffffffffffffffffffffffff166108fc87848151811061231457fe5b60200260200101519081150290604051600060405180830381858888f19350505050158015612347573d6000803e3d6000fd5b505080806001019150506122cd565b5060016006600087815260200190815260200160002060080160016101000a81548160ff021916908315150217905550816006600087815260200190815260200160002060040190805190602001906123b0929190612de7565b505050505050565b600080600080600660008681526020019081526020016000206006015460066000878152602001908152602001600020600701546006600088815260200190815260200160002060080160009054906101000a900460ff166006600089815260200190815260200160002060080160019054906101000a900460ff1693509350935093509193509193565b600061244e8261269a565b9050600060035482019050804210156124b2576040517f08c379a0000000000000000000000000000000000000000000000000000000008152600401808060200182810382526035815260200180612f006035913960400191505060405180910390fd5b6006600084815260200190815260200160002060080160009054906101000a900460ff161561252c576040517f08c379a000000000000000000000000000000000000000000000000000000000815260040180806020018281038252603181526020018061304f6031913960400191505060405180910390fd5b6001151560066000858152602001908152602001600020600a0160003373ffffffffffffffffffffffffffffffffffffffff1673ffffffffffffffffffffffffffffffffffffffff16815260200190815260200160002060009054906101000a900460ff161515146125e9576040517f08c379a00000000000000000000000000000000000000000000000000000000081526004018080602001828103825260368152602001806131146036913960400191505060405180910390fd5b3373ffffffffffffffffffffffffffffffffffffffff166108fc6005549081150290604051600060405180830381858888f19350505050158015612631573d6000803e3d6000fd5b5060066000848152602001908152602001600020600a0160003373ffffffffffffffffffffffffffffffffffffffff1673ffffffffffffffffffffffffffffffffffffffff16815260200190815260200160002060006101000a81549060ff0219169055505050565b6000610e106006600084815260200190815260200160002060070154026006600084815260200190815260200160002060060154019050919050565b3373ffffffffffffffffffffffffffffffffffffffff166006600083815260200190815260200160002060000160009054906101000a900473ffffffffffffffffffffffffffffffffffffffff1673ffffffffffffffffffffffffffffffffffffffff16146127ad576040517f08c379a00000000000000000000000000000000000000000000000000000000081526004018080602001828103825260208152602001807f4a6f622063616e206f6e6c792062652073746172746564206279206f776e657281525060200191505060405180910390fd5b6127b681610f42565b61280b576040517f08c379a0000000000000000000000000000000000000000000000000000000008152600401808060200182810382526032815260200180612f826032913960400191505060405180910390fd5b60006128168261269a565b905060006003548201905080421115612897576040517f08c379a00000000000000000000000000000000000000000000000000000000081526004018080602001828103825260208152602001807f546f6f206c61746520746f20737461727420747261696e696e67206d6f64656c81525060200191505060405180910390fd5b600660008481526020019081526020016000206005015460066000858152602001908152602001600020600e0180549050101561291f576040517f08c379a00000000000000000000000000000000000000000000000000000000081526004018080602001828103825260258152602001806130a66025913960400191505060405180910390fd5b60016006600085815260200190815260200160002060080160006101000a81548160ff021916908315150217905550606060066000858152602001908152602001600020600d018054806020026020016040519081016040528092919081815260200182805480156129e657602002820191906000526020600020905b8160009054906101000a900473ffffffffffffffffffffffffffffffffffffffff1673ffffffffffffffffffffffffffffffffffffffff168152602001906001019080831161299c575b5050505050905060008090505b8151811015612aeb576001151560066000878152602001908152602001600020600b016000848481518110612a2457fe5b602002602001015173ffffffffffffffffffffffffffffffffffffffff1673ffffffffffffffffffffffffffffffffffffffff16815260200190815260200160002060009054906101000a900460ff16151514612ade576000828281518110612a8957fe5b602002602001015190508073ffffffffffffffffffffffffffffffffffffffff166108fc6005549081150290604051600060405180830381858888f19350505050158015612adb573d6000803e3d6000fd5b50505b80806001019150506129f3565b503373ffffffffffffffffffffffffffffffffffffffff166108fc6004549081150290604051600060405180830381858888f19350505050158015612b34573d6000803e3d6000fd5b5050505050565b60045481565b600080600160009054906101000a900473ffffffffffffffffffffffffffffffffffffffff1673ffffffffffffffffffffffffffffffffffffffff16635c06c902846040518263ffffffff1660e01b81526004018080602001828103825283818151815260200191508051906020019080838360005b83811015612bd2578082015181840152602081019050612bb7565b50505050905090810190601f168015612bff5780820380516001836020036101000a031916815260200191505b509250505060206040518083038186803b158015612c1c57600080fd5b505afa158015612c30573d6000803e3d6000fd5b505050506040513d6020811015612c4657600080fd5b810190808051906020019092919050505090503373ffffffffffffffffffffffffffffffffffffffff168173ffffffffffffffffffffffffffffffffffffffff1614915050919050565b828054600181600116156101000203166002900490600052602060002090601f016020900481019282601f10612cd157805160ff1916838001178555612cff565b82800160010185558215612cff579182015b82811115612cfe578251825591602001919060010190612ce3565b5b509050612d0c9190612e67565b5090565b828054828255906000526020600020908101928215612d89579160200282015b82811115612d885782518260006101000a81548173ffffffffffffffffffffffffffffffffffffffff021916908373ffffffffffffffffffffffffffffffffffffffff16021790555091602001919060010190612d30565b5b509050612d969190612e8c565b5090565b828054828255906000526020600020908101928215612dd6579160200282015b82811115612dd5578251825591602001919060010190612dba565b5b509050612de39190612e67565b5090565b828054600181600116156101000203166002900490600052602060002090601f016020900481019282601f10612e2857805160ff1916838001178555612e56565b82800160010185558215612e56579182015b82811115612e55578251825591602001919060010190612e3a565b5b509050612e639190612e67565b5090565b612e8991905b80821115612e85576000816000905550600101612e6d565b5090565b90565b612ecc91905b80821115612ec857600081816101000a81549073ffffffffffffffffffffffffffffffffffffffff021916905550600101612e92565b5090565b9056fe4f6e6c79206d6f64656c206f776e65722063616e206372656174652061206a6f6220666f722074686973206d6f64656c43616e206f6e6c792077697468647261772066756e647320616674657220747261696e696e6720737461727420646561646c696e6544617461736574206f776e657220616c726561647920616464656420746f20616c6c6f77206c6973744e65656420746f2073656e642074686520636f727265637420686f6c64696e6720666565526567697374726174696f6e20706572696f6420666f722074686973206a6f6220686173206e6f742079657420656e6465644e756d626572206f6620636c69656e7473206d757374206d61746368206e756d626572206f6620616c6c6f77656420757365727343616e206f6e6c792061646420616e20696e74657265737465642064617461206f776e657220746f20616c6c6f77206c6973744e65656420746f2073656e642074686520636f7272656374206a6f62206372656174696f6e2066656520616e6420626f756e747943616e206f6e6c792077697468647261772066756e647320696620747261696e696e67206e6576657220737461727465644e65656420746f20626520726567697374657265642061732064617461736574206f776e65724d696e696d756d206e756d626572206f6620636c69656e7473206e6f7420726561636865644a6f62206f776e65722063616e6e6f74207369676e207570206173206120636c69656e7443616e277420706179206f7574206d6f7265207468616e20626f756e747920616d6f756e744f6e6c7920616e20616c726561647920726567697374657265642064617461206f776e65722063616e207769746864726177206665654e756d626572206f6620636c69656e7473206d757374206d6174636820636f6d70656e736174696f6e20616d6f756e7473547261696e696e672068617320656e64656420616e6420636f6d70656e736174696f6e2068617320616c7265616479206265656e207370656e74206f757420746f207061727469636970616e7473526567697374726174696f6e20706572696f6420666f722074686973206a6f622068617320656e646564a265627a7a723158201661ff09214fdb506949f13269ed85ddd3d8cfd4de03632c94a6286b9c5dcec964736f6c63430005100032",
  "source": "pragma solidity >=0.5.16;\n\ncontract ModelDatabase {\n    function getModelOwner(string memory _ipfsHash) public view returns(address) {}\n}\n\ncontract DatasetDatabase {\n    function getDatasetOwner(string memory _ipfsHash) public view returns(address) {}\n}\n\ncontract Jobs {\n\n    uint public jobsCreated = 0;\n\n    DatasetDatabase datasetDatabase;\n    ModelDatabase modelDatabase;\n\n    uint public gracePeriod = 1 days;\n\n    uint public jobCreationFee = 1e6 wei;\n\n    uint public holdingFee = 1e6 wei;\n\n    struct Job {\n        address payable owner;\n        string modelIpfsHash;\n        string strategyHash;\n        string testDatasetHash;\n        string resultsHash;\n        uint minClients;\n        uint initTime;\n        uint hoursUntilStart;\n        bool trainingStarted;\n        bool trainingEnded;\n        //uint holdingFee;\n        uint bounty;\n        mapping(address => bool) datasetOwners;\n        mapping(address => bool)  allowList;\n        mapping(address => string) datasetHash;\n        address payable[] arrDatasetOwners;\n        address payable[] arrAllowList;\n        uint [] compensation;\n    }\n\n    mapping(uint => Job) public jobs;\n\n    constructor(address _contractAddressDatasets, address _contractAddressModels) public {\n        datasetDatabase = DatasetDatabase(_contractAddressDatasets);\n        modelDatabase = ModelDatabase(_contractAddressModels);\n    }\n\n    function isSenderModelOwner(string memory _modelIpfsHash) public view returns(bool) {\n        address owner = modelDatabase.getModelOwner(_modelIpfsHash);\n        return (owner == msg.sender);\n    }\n\n    function isSenderDatasetOwner(string memory _datasetIpfsHash) public view returns(bool) {\n        address owner = datasetDatabase.getDatasetOwner(_datasetIpfsHash);\n        return (owner == msg.sender);\n    }\n\n    function getJobStartTime(uint _id) public view returns(uint) {\n        return jobs[_id].initTime + jobs[_id].hoursUntilStart * 1 hours;\n    }\n\n    function registrationPeriodOver(uint _id) public view returns(bool) {\n        return (block.timestamp >= getJobStartTime(_id));\n    }\n\n    function createJob(string memory _modelIpfsHash, string memory _strategyHash, string memory _testDatasetHash, uint _minClients, uint _hoursUntilStart,\n        uint _bounty) public payable {\n\n        // Check the Job creator is model owner\n        require(isSenderModelOwner(_modelIpfsHash),\"Only model owner can create a job for this model\");\n\n        // Check user has paid the correct bounty and job Creation Fee\n        require(msg.value == jobCreationFee + _bounty,\"Need to send the correct job creation fee and bounty\");\n\n        address payable[] memory init;\n        uint [] memory init2;\n\n        jobs[jobsCreated] = Job({owner: msg.sender,\n                                modelIpfsHash: _modelIpfsHash,\n                                strategyHash: _strategyHash,\n                                resultsHash: \" \",\n                                testDatasetHash: _testDatasetHash,\n                                minClients: _minClients,\n                                initTime: block.timestamp,\n                                hoursUntilStart: _hoursUntilStart,\n                                bounty: _bounty,\n                                //holdingFee: _holdingFee,\n                                trainingStarted: false,\n                                trainingEnded: false,\n                                arrDatasetOwners: init,\n                                arrAllowList: init,\n                                compensation: init2}\n                                );\n\n        jobsCreated = jobsCreated + 1;\n    }\n\n\n    // Called by dataset owners to register their willingness to join a jobs\n    // Owners registers a particular dataset and\n    function registerDatasetOwner(uint _id, string memory _datasetIpfsHash) public payable {\n        // Check user is not model owner\n        require(msg.sender != jobs[_id].owner, \"Job owner cannot sign up as a client\");\n\n        // Check if user is dataset owner\n        require(isSenderDatasetOwner(_datasetIpfsHash), \"Need to be owner of this dataset\");\n\n\n        // Check job is still in registration period\n        if (registrationPeriodOver(_id)){\n            revert(\"Registration period for this job has ended\");\n        }\n\n        // Check user has paid the correct holding fee\n        require(msg.value == holdingFee,\"Need to send the correct holding fee\");\n\n\n        // Check if already registered\n        if(jobs[_id].datasetOwners[msg.sender] == true){\n            revert(\" Already registered on this job\");\n        }\n\n        // Add dataset owner's address to list of owner addresses comitted to job\n        jobs[_id].datasetOwners[msg.sender] = true;\n        jobs[_id].datasetHash[msg.sender] = _datasetIpfsHash;\n        jobs[_id].arrDatasetOwners.push(msg.sender);\n\n    }\n\n    // Called by Job owner to allow registered Clients to partake in job i.e. download model\n    function addToAllowList(uint _id, address payable _datasetOwner) public {\n        // Check user is job owner\n        require(jobs[_id].owner == msg.sender, \"Need to be registered as dataset owner\");\n\n        // Check address is in registry of interested owners\n        require(jobs[_id].datasetOwners[_datasetOwner] == true, \"Can only add an interested data owner to allow list\");\n\n        // Check job is still in registration period\n        if (registrationPeriodOver(_id)){\n            revert(\"Registration period for this job has ended\");\n        }\n\n        // Check if dataset owner already registered on allowList\n        if (jobs[_id].allowList[_datasetOwner] == true){\n            revert(\"Dataset owner already added to allow list\");\n        }\n\n        jobs[_id].allowList[_datasetOwner] = true;\n        jobs[_id].arrAllowList.push(_datasetOwner);\n    }\n\n    function getNumRegistered(uint _id) public view returns(uint){\n        return jobs[_id].arrDatasetOwners.length;\n    }\n\n    function getNumAllow(uint _id) public view returns(uint){\n        return jobs[_id].arrAllowList.length;\n    }\n\n    function getJobRegistered(uint _id) public view returns(address payable [] memory){\n      return jobs[_id].arrDatasetOwners;\n    }\n\n    function getJobAllowed(uint _id) public view returns(address payable [] memory){\n      return jobs[_id].arrAllowList;\n    }\n\n    function getJobDetails(uint _id) public view returns(address, uint, uint){\n        return (jobs[_id].owner, jobs[_id].minClients, jobs[_id].bounty);\n    }\n\n    function getJobStatus(uint _id) public view returns(uint, uint, bool, bool){\n        return (jobs[_id].initTime, jobs[_id].hoursUntilStart, jobs[_id].trainingStarted, jobs[_id].trainingEnded);\n    }\n\n    function startJob(uint _id) public{\n        // Can only be started by owner of job\n        if (jobs[_id].owner != msg.sender){\n            revert(\"Job can only be started by owner\");\n        }\n\n        // Check registration period has ended\n        if (!registrationPeriodOver(_id)){\n            revert(\"Registration period for this job has not yet ended\");\n        }\n\n        // Check grace period not over\n        uint jobStartTime = getJobStartTime(_id);\n        uint deadline = jobStartTime + gracePeriod;\n        if (block.timestamp > deadline){\n            revert(\"Too late to start training model\");\n        }\n\n        if (jobs[_id].arrAllowList.length < jobs[_id].minClients) {\n            revert(\"Minimum number of clients not reached\");\n        }\n\n        // Set training started status as true\n        jobs[_id].trainingStarted = true;\n\n        // List of owners registered for this job\n        address payable[] memory registeredDatasetOwners = jobs[_id].arrDatasetOwners;\n\n        // Check every register data owner, if they are not on allow list, they get their fee back when training starts\n        for (uint i=0; i<registeredDatasetOwners.length; i++) {\n            if (jobs[_id].allowList[registeredDatasetOwners[i]] != true) {\n                address payable payee = registeredDatasetOwners[i];\n                payee.transfer(holdingFee);\n            }\n        }\n\n        // return job fee to client\n        msg.sender.transfer(jobCreationFee);\n\n    }\n\n    function withdrawFee(uint _id) public{\n        // Check grace period over\n        uint jobStartTime = getJobStartTime(_id);\n        uint deadline = jobStartTime + gracePeriod;\n        if (block.timestamp < deadline){\n            revert(\"Can only withdraw funds after training start deadline\");\n        }\n\n        // To withdraw funds, need training not to have started\n        require(!jobs[_id].trainingStarted, \"Can only withdraw funds if training never started\");\n\n        // Only a data owner registered to job can withdraw funds\n        require(jobs[_id].datasetOwners[msg.sender] == true, \"Only an already registered data owner can withdraw fee\");\n\n        // Send holding fee to job registered user\n        msg.sender.transfer(holdingFee);\n\n        // remove Client from datasetOwners list to prevent withdrawing fee again\n        delete(jobs[_id].datasetOwners[msg.sender]);\n    }\n\n    function isRegistered(uint _id) public view returns(bool){\n        return jobs[_id].datasetOwners[msg.sender];\n    }\n\n    function compensate(uint _id, uint [] memory _compensation, address payable [] memory _clients, string memory _resultsHash) public{\n        require(_compensation.length == _clients.length,\"Number of clients must match compensation amounts\");\n\n        require(_clients.length == jobs[_id].arrAllowList.length, \"Number of clients must match number of allowed users\");\n\n        if(jobs[_id].trainingEnded == true){\n            revert(\"Training has ended and compensation has already been spent out to participants\");\n        }\n\n        uint compensationSum = 0;\n        for (uint j=0; j<_compensation.length; j++) {\n            compensationSum = compensationSum + _compensation[j];\n        }\n\n        // Check sum of compensation array is less than job bounty\n        require(compensationSum <= jobs[_id].bounty, \"Can't pay out more than bounty amount\");\n\n        for (uint i=0; i<_clients.length; i++) {\n            address payable payee = _clients[i];\n            payee.transfer(_compensation[i]);\n        }\n\n        jobs[_id].trainingEnded = true;\n        jobs[_id].resultsHash = _resultsHash;\n    }\n}",
  "sourcePath": "/Users/marwanmousa/University/MSc_AI/Group_Project/group-project/reactapp/BlockchainBackend/contracts/Jobs.sol",
  "compiler": {
    "name": "solc",
    "version": "0.5.16+commit.9c3226ce.Emscripten.clang"
  },
  "schemaVersion": "3.3.3",
  "updatedAt": "2021-04-19T19:21:02.135Z",
  "networkType": "ethereum",
  "devdoc": {
    "methods": {}
  },
  "userdoc": {
    "methods": {}
  }
}