{
  "contractName": "Jobs",
  "abi": [
    {
      "inputs": [
        {
          "internalType": "address",
          "name": "_contractAddressDatasets",
          "type": "address"
        },
        {
          "internalType": "address",
          "name": "_contractAddressModels",
          "type": "address"
        }
      ],
      "payable": false,
      "stateMutability": "nonpayable",
      "type": "constructor"
    },
    {
      "constant": true,
      "inputs": [],
      "name": "gracePeriod",
      "outputs": [
        {
          "internalType": "uint256",
          "name": "",
          "type": "uint256"
        }
      ],
      "payable": false,
      "stateMutability": "view",
      "type": "function"
    },
    {
      "constant": true,
      "inputs": [],
      "name": "holdingFee",
      "outputs": [
        {
          "internalType": "uint256",
          "name": "",
          "type": "uint256"
        }
      ],
      "payable": false,
      "stateMutability": "view",
      "type": "function"
    },
    {
      "constant": true,
      "inputs": [],
      "name": "jobCreationFee",
      "outputs": [
        {
          "internalType": "uint256",
          "name": "",
          "type": "uint256"
        }
      ],
      "payable": false,
      "stateMutability": "view",
      "type": "function"
    },
    {
      "constant": true,
      "inputs": [
        {
          "internalType": "uint256",
          "name": "",
          "type": "uint256"
        }
      ],
      "name": "jobs",
      "outputs": [
        {
          "internalType": "address payable",
          "name": "owner",
          "type": "address"
        },
        {
          "internalType": "string",
          "name": "modelIpfsHash",
          "type": "string"
        },
        {
          "internalType": "string",
          "name": "strategyHash",
          "type": "string"
        },
        {
          "internalType": "string",
          "name": "testDatasetHash",
          "type": "string"
        },
        {
          "internalType": "string",
          "name": "resultsHash",
          "type": "string"
        },
        {
          "internalType": "uint256",
          "name": "minClients",
          "type": "uint256"
        },
        {
          "internalType": "uint256",
          "name": "initTime",
          "type": "uint256"
        },
        {
          "internalType": "uint256",
          "name": "hoursUntilStart",
          "type": "uint256"
        },
        {
          "internalType": "bool",
          "name": "trainingStarted",
          "type": "bool"
        },
        {
          "internalType": "bool",
          "name": "trainingEnded",
          "type": "bool"
        },
        {
          "internalType": "uint256",
          "name": "bounty",
          "type": "uint256"
        }
      ],
      "payable": false,
      "stateMutability": "view",
      "type": "function"
    },
    {
      "constant": true,
      "inputs": [],
      "name": "jobsCreated",
      "outputs": [
        {
          "internalType": "uint256",
          "name": "",
          "type": "uint256"
        }
      ],
      "payable": false,
      "stateMutability": "view",
      "type": "function"
    },
    {
      "constant": true,
      "inputs": [
        {
          "internalType": "uint256",
          "name": "",
          "type": "uint256"
        }
      ],
      "name": "weightsHashes",
      "outputs": [
        {
          "internalType": "string",
          "name": "",
          "type": "string"
        }
      ],
      "payable": false,
      "stateMutability": "view",
      "type": "function"
    },
    {
      "constant": true,
      "inputs": [
        {
          "internalType": "string",
          "name": "_modelIpfsHash",
          "type": "string"
        }
      ],
      "name": "isSenderModelOwner",
      "outputs": [
        {
          "internalType": "bool",
          "name": "",
          "type": "bool"
        }
      ],
      "payable": false,
      "stateMutability": "view",
      "type": "function"
    },
    {
      "constant": true,
      "inputs": [
        {
          "internalType": "string",
          "name": "_datasetIpfsHash",
          "type": "string"
        }
      ],
      "name": "isSenderDatasetOwner",
      "outputs": [
        {
          "internalType": "bool",
          "name": "",
          "type": "bool"
        }
      ],
      "payable": false,
      "stateMutability": "view",
      "type": "function"
    },
    {
      "constant": true,
      "inputs": [
        {
          "internalType": "uint256",
          "name": "_id",
          "type": "uint256"
        }
      ],
      "name": "getJobStartTime",
      "outputs": [
        {
          "internalType": "uint256",
          "name": "",
          "type": "uint256"
        }
      ],
      "payable": false,
      "stateMutability": "view",
      "type": "function"
    },
    {
      "constant": true,
      "inputs": [
        {
          "internalType": "uint256",
          "name": "_id",
          "type": "uint256"
        }
      ],
      "name": "registrationPeriodOver",
      "outputs": [
        {
          "internalType": "bool",
          "name": "",
          "type": "bool"
        }
      ],
      "payable": false,
      "stateMutability": "view",
      "type": "function"
    },
    {
      "constant": false,
      "inputs": [
        {
          "internalType": "string",
          "name": "_modelIpfsHash",
          "type": "string"
        },
        {
          "internalType": "string",
          "name": "_strategyHash",
          "type": "string"
        },
        {
          "internalType": "string",
          "name": "_testDatasetHash",
          "type": "string"
        },
        {
          "internalType": "uint256",
          "name": "_minClients",
          "type": "uint256"
        },
        {
          "internalType": "uint256",
          "name": "_hoursUntilStart",
          "type": "uint256"
        },
        {
          "internalType": "uint256",
          "name": "_bounty",
          "type": "uint256"
        }
      ],
      "name": "createJob",
      "outputs": [],
      "payable": true,
      "stateMutability": "payable",
      "type": "function"
    },
    {
      "constant": false,
      "inputs": [
        {
          "internalType": "uint256",
          "name": "_id",
          "type": "uint256"
        },
        {
          "internalType": "string",
          "name": "_datasetIpfsHash",
          "type": "string"
        }
      ],
      "name": "registerDatasetOwner",
      "outputs": [],
      "payable": true,
      "stateMutability": "payable",
      "type": "function"
    },
    {
      "constant": false,
      "inputs": [
        {
          "internalType": "uint256",
          "name": "_id",
          "type": "uint256"
        },
        {
          "internalType": "address payable",
          "name": "_datasetOwner",
          "type": "address"
        }
      ],
      "name": "addToAllowList",
      "outputs": [],
      "payable": false,
      "stateMutability": "nonpayable",
      "type": "function"
    },
    {
      "constant": true,
      "inputs": [
        {
          "internalType": "uint256",
          "name": "_id",
          "type": "uint256"
        }
      ],
      "name": "getNumRegistered",
      "outputs": [
        {
          "internalType": "uint256",
          "name": "",
          "type": "uint256"
        }
      ],
      "payable": false,
      "stateMutability": "view",
      "type": "function"
    },
    {
      "constant": true,
      "inputs": [
        {
          "internalType": "uint256",
          "name": "_id",
          "type": "uint256"
        }
      ],
      "name": "getNumAllow",
      "outputs": [
        {
          "internalType": "uint256",
          "name": "",
          "type": "uint256"
        }
      ],
      "payable": false,
      "stateMutability": "view",
      "type": "function"
    },
    {
      "constant": true,
      "inputs": [
        {
          "internalType": "uint256",
          "name": "_id",
          "type": "uint256"
        }
      ],
      "name": "getJobRegistered",
      "outputs": [
        {
          "internalType": "address payable[]",
          "name": "",
          "type": "address[]"
        }
      ],
      "payable": false,
      "stateMutability": "view",
      "type": "function"
    },
    {
      "constant": true,
      "inputs": [
        {
          "internalType": "uint256",
          "name": "_id",
          "type": "uint256"
        }
      ],
      "name": "getJobAllowed",
      "outputs": [
        {
          "internalType": "address payable[]",
          "name": "",
          "type": "address[]"
        }
      ],
      "payable": false,
      "stateMutability": "view",
      "type": "function"
    },
    {
      "constant": true,
      "inputs": [
        {
          "internalType": "uint256",
          "name": "_id",
          "type": "uint256"
        }
      ],
      "name": "getJobDetails",
      "outputs": [
        {
          "internalType": "address",
          "name": "",
          "type": "address"
        },
        {
          "internalType": "uint256",
          "name": "",
          "type": "uint256"
        },
        {
          "internalType": "uint256",
          "name": "",
          "type": "uint256"
        }
      ],
      "payable": false,
      "stateMutability": "view",
      "type": "function"
    },
    {
      "constant": true,
      "inputs": [
        {
          "internalType": "uint256",
          "name": "_id",
          "type": "uint256"
        }
      ],
      "name": "getJobStatus",
      "outputs": [
        {
          "internalType": "uint256",
          "name": "",
          "type": "uint256"
        },
        {
          "internalType": "uint256",
          "name": "",
          "type": "uint256"
        },
        {
          "internalType": "bool",
          "name": "",
          "type": "bool"
        },
        {
          "internalType": "bool",
          "name": "",
          "type": "bool"
        }
      ],
      "payable": false,
      "stateMutability": "view",
      "type": "function"
    },
    {
      "constant": true,
      "inputs": [
        {
          "internalType": "uint256",
          "name": "_id",
          "type": "uint256"
        }
      ],
      "name": "getMinClients",
      "outputs": [
        {
          "internalType": "uint256",
          "name": "",
          "type": "uint256"
        }
      ],
      "payable": false,
      "stateMutability": "view",
      "type": "function"
    },
    {
      "constant": false,
      "inputs": [
        {
          "internalType": "uint256",
          "name": "_id",
          "type": "uint256"
        }
      ],
      "name": "startJob",
      "outputs": [],
      "payable": false,
      "stateMutability": "nonpayable",
      "type": "function"
    },
    {
      "constant": false,
      "inputs": [
        {
          "internalType": "uint256",
          "name": "_id",
          "type": "uint256"
        }
      ],
      "name": "withdrawFee",
      "outputs": [],
      "payable": false,
      "stateMutability": "nonpayable",
      "type": "function"
    },
    {
      "constant": false,
      "inputs": [
        {
          "internalType": "uint256",
          "name": "_id",
          "type": "uint256"
        }
      ],
      "name": "endFailedJob",
      "outputs": [],
      "payable": false,
      "stateMutability": "nonpayable",
      "type": "function"
    },
    {
      "constant": true,
      "inputs": [
        {
          "internalType": "uint256",
          "name": "_id",
          "type": "uint256"
        }
      ],
      "name": "isRegistered",
      "outputs": [
        {
          "internalType": "bool",
          "name": "",
          "type": "bool"
        }
      ],
      "payable": false,
      "stateMutability": "view",
      "type": "function"
    },
    {
      "constant": false,
      "inputs": [
        {
          "internalType": "uint256",
          "name": "_id",
          "type": "uint256"
        },
        {
          "internalType": "uint256[]",
          "name": "_compensation",
          "type": "uint256[]"
        },
        {
          "internalType": "address payable[]",
          "name": "_clients",
          "type": "address[]"
        },
        {
          "internalType": "string",
          "name": "_resultsHash",
          "type": "string"
        },
        {
          "internalType": "string",
          "name": "_weightsHash",
          "type": "string"
        }
      ],
      "name": "compensate",
      "outputs": [],
      "payable": false,
      "stateMutability": "nonpayable",
      "type": "function"
    },
    {
      "constant": true,
      "inputs": [
        {
          "internalType": "uint256",
          "name": "_id",
          "type": "uint256"
        }
      ],
      "name": "getWeights",
      "outputs": [
        {
          "internalType": "string",
          "name": "",
          "type": "string"
        }
      ],
      "payable": false,
      "stateMutability": "view",
      "type": "function"
    }
  ],
  "bytecode": "0x608060405260008055610e10600355620f4240600455620f42406005557312f0f455d3e769b247518747dd731e9c61366e97600660006101000a81548173ffffffffffffffffffffffffffffffffffffffff021916908373ffffffffffffffffffffffffffffffffffffffff16021790555034801561007d57600080fd5b50604051613e2e380380613e2e833981810160405260408110156100a057600080fd5b81019080805190602001909291908051906020019092919050505081600160006101000a81548173ffffffffffffffffffffffffffffffffffffffff021916908373ffffffffffffffffffffffffffffffffffffffff16021790555080600260006101000a81548173ffffffffffffffffffffffffffffffffffffffff021916908373ffffffffffffffffffffffffffffffffffffffff1602179055505050613ce08061014e6000396000f3fe6080604052600436106101815760003560e01c8063808e0e23116100d1578063be3576161161008a578063e125529411610064578063e125529414610e40578063f208a11414610e7b578063f65aaf181461110c578063ffd5832b1461113757610181565b8063be35761614610d02578063d5785b7614610d3d578063d9d3074014610df157610181565b8063808e0e2314610870578063848cb2ae146108bf57806387386b7414610ac6578063a06db7dc14610ba6578063a335e7d514610bd1578063a6c58b6314610c9657610181565b80634d2660731161013e57806366d5b5771161011857806366d5b577146106a257806370743fc0146107565780637413715c146107a55780637e1255c5146107e057610181565b80634d266073146105d5578063579a6988146106245780635df199981461067757610181565b806309e1e911146101865780630c63429e146101d95780630d11204914610204578063180aedf31461025f5780632215bf22146104bc5780634cac35c61461054c575b600080fd5b34801561019257600080fd5b506101bf600480360360208110156101a957600080fd5b8101908080359060200190929190505050611217565b604051808215151515815260200191505060405180910390f35b3480156101e557600080fd5b506101ee61122c565b6040518082815260200191505060405180910390f35b34801561021057600080fd5b5061025d6004803603604081101561022757600080fd5b8101908080359060200190929190803573ffffffffffffffffffffffffffffffffffffffff169060200190929190505050611232565b005b34801561026b57600080fd5b506102986004803603602081101561028257600080fd5b81019080803590602001909291905050506115b0565b604051808c73ffffffffffffffffffffffffffffffffffffffff1673ffffffffffffffffffffffffffffffffffffffff168152602001806020018060200180602001806020018b81526020018a8152602001898152602001881515151581526020018715151515815260200186815260200185810385528f818151815260200191508051906020019080838360005b83811015610342578082015181840152602081019050610327565b50505050905090810190601f16801561036f5780820380516001836020036101000a031916815260200191505b5085810384528e818151815260200191508051906020019080838360005b838110156103a857808201518184015260208101905061038d565b50505050905090810190601f1680156103d55780820380516001836020036101000a031916815260200191505b5085810383528d818151815260200191508051906020019080838360005b8381101561040e5780820151818401526020810190506103f3565b50505050905090810190601f16801561043b5780820380516001836020036101000a031916815260200191505b5085810382528c818151815260200191508051906020019080838360005b83811015610474578082015181840152602081019050610459565b50505050905090810190601f1680156104a15780820380516001836020036101000a031916815260200191505b509f5050505050505050505050505050505060405180910390f35b3480156104c857600080fd5b506104f5600480360360208110156104df57600080fd5b81019080803590602001909291905050506118a4565b6040518080602001828103825283818151815260200191508051906020019060200280838360005b8381101561053857808201518184015260208101905061051d565b505050509050019250505060405180910390f35b34801561055857600080fd5b506105856004803603602081101561056f57600080fd5b8101908080359060200190929190505050611948565b604051808473ffffffffffffffffffffffffffffffffffffffff1673ffffffffffffffffffffffffffffffffffffffff168152602001838152602001828152602001935050505060405180910390f35b3480156105e157600080fd5b5061060e600480360360208110156105f857600080fd5b81019080803590602001909291905050506119c2565b6040518082815260200191505060405180910390f35b34801561063057600080fd5b5061065d6004803603602081101561064757600080fd5b81019080803590602001909291905050506119e5565b604051808215151515815260200191505060405180910390f35b34801561068357600080fd5b5061068c611a4f565b6040518082815260200191505060405180910390f35b3480156106ae57600080fd5b506106db600480360360208110156106c557600080fd5b8101908080359060200190929190505050611a55565b6040518080602001828103825283818151815260200191508051906020019080838360005b8381101561071b578082015181840152602081019050610700565b50505050905090810190601f1680156107485780820380516001836020036101000a031916815260200191505b509250505060405180910390f35b34801561076257600080fd5b5061078f6004803603602081101561077957600080fd5b8101908080359060200190929190505050611b05565b6040518082815260200191505060405180910390f35b3480156107b157600080fd5b506107de600480360360208110156107c857600080fd5b8101908080359060200190929190505050611b25565b005b3480156107ec57600080fd5b506108196004803603602081101561080357600080fd5b8101908080359060200190929190505050611fde565b6040518080602001828103825283818151815260200191508051906020019060200280838360005b8381101561085c578082015181840152602081019050610841565b505050509050019250505060405180910390f35b34801561087c57600080fd5b506108a96004803603602081101561089357600080fd5b8101908080359060200190929190505050612082565b6040518082815260200191505060405180910390f35b610ac4600480360360c08110156108d557600080fd5b81019080803590602001906401000000008111156108f257600080fd5b82018360208201111561090457600080fd5b8035906020019184600183028401116401000000008311171561092657600080fd5b91908080601f016020809104026020016040519081016040528093929190818152602001838380828437600081840152601f19601f8201169050808301925050505050505091929192908035906020019064010000000081111561098957600080fd5b82018360208201111561099b57600080fd5b803590602001918460018302840111640100000000831117156109bd57600080fd5b91908080601f016020809104026020016040519081016040528093929190818152602001838380828437600081840152601f19601f82011690508083019250505050505050919291929080359060200190640100000000811115610a2057600080fd5b820183602082011115610a3257600080fd5b80359060200191846001830284011164010000000083111715610a5457600080fd5b91908080601f016020809104026020016040519081016040528093929190818152602001838380828437600081840152601f19601f8201169050808301925050505050505091929192908035906020019092919080359060200190929190803590602001909291905050506120a5565b005b348015610ad257600080fd5b50610b8c60048036036020811015610ae957600080fd5b8101908080359060200190640100000000811115610b0657600080fd5b820183602082011115610b1857600080fd5b80359060200191846001830284011164010000000083111715610b3a57600080fd5b91908080601f016020809104026020016040519081016040528093929190818152602001838380828437600081840152601f19601f8201169050808301925050505050505091929192905050506123be565b604051808215151515815260200191505060405180910390f35b348015610bb257600080fd5b50610bbb61250d565b6040518082815260200191505060405180910390f35b610c9460048036036040811015610be757600080fd5b810190808035906020019092919080359060200190640100000000811115610c0e57600080fd5b820183602082011115610c2057600080fd5b80359060200191846001830284011164010000000083111715610c4257600080fd5b91908080601f016020809104026020016040519081016040528093929190818152602001838380828437600081840152601f19601f820116905080830192505050505050509192919290505050612513565b005b348015610ca257600080fd5b50610ccf60048036036020811015610cb957600080fd5b810190808035906020019092919050505061292f565b60405180858152602001848152602001831515151581526020018215151515815260200194505050505060405180910390f35b348015610d0e57600080fd5b50610d3b60048036036020811015610d2557600080fd5b81019080803590602001909291905050506129ba565b005b348015610d4957600080fd5b50610d7660048036036020811015610d6057600080fd5b8101908080359060200190929190505050612c11565b6040518080602001828103825283818151815260200191508051906020019080838360005b83811015610db6578082015181840152602081019050610d9b565b50505050905090810190601f168015610de35780820380516001836020036101000a031916815260200191505b509250505060405180910390f35b348015610dfd57600080fd5b50610e2a60048036036020811015610e1457600080fd5b8101908080359060200190929190505050612cc6565b6040518082815260200191505060405180910390f35b348015610e4c57600080fd5b50610e7960048036036020811015610e6357600080fd5b8101908080359060200190929190505050612d02565b005b348015610e8757600080fd5b5061110a600480360360a0811015610e9e57600080fd5b810190808035906020019092919080359060200190640100000000811115610ec557600080fd5b820183602082011115610ed757600080fd5b80359060200191846020830284011164010000000083111715610ef957600080fd5b919080806020026020016040519081016040528093929190818152602001838360200280828437600081840152601f19601f82011690508083019250505050505050919291929080359060200190640100000000811115610f5957600080fd5b820183602082011115610f6b57600080fd5b80359060200191846020830284011164010000000083111715610f8d57600080fd5b919080806020026020016040519081016040528093929190818152602001838360200280828437600081840152601f19601f82011690508083019250505050505050919291929080359060200190640100000000811115610fed57600080fd5b820183602082011115610fff57600080fd5b8035906020019184600183028401116401000000008311171561102157600080fd5b91908080601f016020809104026020016040519081016040528093929190818152602001838380828437600081840152601f19601f8201169050808301925050505050505091929192908035906020019064010000000081111561108457600080fd5b82018360208201111561109657600080fd5b803590602001918460018302840111640100000000831117156110b857600080fd5b91908080601f016020809104026020016040519081016040528093929190818152602001838380828437600081840152601f19601f820116905080830192505050505050509192919290505050613189565b005b34801561111857600080fd5b5061112161353f565b6040518082815260200191505060405180910390f35b34801561114357600080fd5b506111fd6004803603602081101561115a57600080fd5b810190808035906020019064010000000081111561117757600080fd5b82018360208201111561118957600080fd5b803590602001918460018302840111640100000000831117156111ab57600080fd5b91908080601f016020809104026020016040519081016040528093929190818152602001838380828437600081840152601f19601f820116905080830192505050505050509192919290505050613545565b604051808215151515815260200191505060405180910390f35b600061122282612cc6565b4210159050919050565b60055481565b3373ffffffffffffffffffffffffffffffffffffffff166007600084815260200190815260200160002060000160009054906101000a900473ffffffffffffffffffffffffffffffffffffffff1673ffffffffffffffffffffffffffffffffffffffff16146112ec576040517f08c379a0000000000000000000000000000000000000000000000000000000008152600401808060200182810382526026815260200180613b036026913960400191505060405180910390fd5b6001151560076000848152602001908152602001600020600a0160008373ffffffffffffffffffffffffffffffffffffffff1673ffffffffffffffffffffffffffffffffffffffff16815260200190815260200160002060009054906101000a900460ff161515146113a9576040517f08c379a0000000000000000000000000000000000000000000000000000000008152600401808060200182810382526033815260200180613a2f6033913960400191505060405180910390fd5b6113b282611217565b15611408576040517f08c379a000000000000000000000000000000000000000000000000000000000815260040180806020018281038252602a815260200180613c82602a913960400191505060405180910390fd5b6001151560076000848152602001908152602001600020600b0160008373ffffffffffffffffffffffffffffffffffffffff1673ffffffffffffffffffffffffffffffffffffffff16815260200190815260200160002060009054906101000a900460ff16151514156114c6576040517f08c379a000000000000000000000000000000000000000000000000000000000815260040180806020018281038252602981526020018061397c6029913960400191505060405180910390fd5b600160076000848152602001908152602001600020600b0160008373ffffffffffffffffffffffffffffffffffffffff1673ffffffffffffffffffffffffffffffffffffffff16815260200190815260200160002060006101000a81548160ff02191690831515021790555060076000838152602001908152602001600020600e018190806001815401808255809150509060018203906000526020600020016000909192909190916101000a81548173ffffffffffffffffffffffffffffffffffffffff021916908373ffffffffffffffffffffffffffffffffffffffff160217905550505050565b60076020528060005260406000206000915090508060000160009054906101000a900473ffffffffffffffffffffffffffffffffffffffff1690806001018054600181600116156101000203166002900480601f0160208091040260200160405190810160405280929190818152602001828054600181600116156101000203166002900480156116825780601f1061165757610100808354040283529160200191611682565b820191906000526020600020905b81548152906001019060200180831161166557829003601f168201915b505050505090806002018054600181600116156101000203166002900480601f0160208091040260200160405190810160405280929190818152602001828054600181600116156101000203166002900480156117205780601f106116f557610100808354040283529160200191611720565b820191906000526020600020905b81548152906001019060200180831161170357829003601f168201915b505050505090806003018054600181600116156101000203166002900480601f0160208091040260200160405190810160405280929190818152602001828054600181600116156101000203166002900480156117be5780601f10611793576101008083540402835291602001916117be565b820191906000526020600020905b8154815290600101906020018083116117a157829003601f168201915b505050505090806004018054600181600116156101000203166002900480601f01602080910402602001604051908101604052809291908181526020018280546001816001161561010002031660029004801561185c5780601f106118315761010080835404028352916020019161185c565b820191906000526020600020905b81548152906001019060200180831161183f57829003601f168201915b5050505050908060050154908060060154908060070154908060080160009054906101000a900460ff16908060080160019054906101000a900460ff1690806009015490508b565b606060076000838152602001908152602001600020600e0180548060200260200160405190810160405280929190818152602001828054801561193c57602002820191906000526020600020905b8160009054906101000a900473ffffffffffffffffffffffffffffffffffffffff1673ffffffffffffffffffffffffffffffffffffffff16815260200190600101908083116118f2575b50505050509050919050565b60008060006007600085815260200190815260200160002060000160009054906101000a900473ffffffffffffffffffffffffffffffffffffffff16600760008681526020019081526020016000206005015460076000878152602001908152602001600020600901548292509250925092509193909250565b600060076000838152602001908152602001600020600e01805490509050919050565b600060076000838152602001908152602001600020600a0160003373ffffffffffffffffffffffffffffffffffffffff1673ffffffffffffffffffffffffffffffffffffffff16815260200190815260200160002060009054906101000a900460ff169050919050565b60005481565b60086020528060005260406000206000915090508054600181600116156101000203166002900480601f016020809104026020016040519081016040528092919081815260200182805460018160011615610100020316600290048015611afd5780601f10611ad257610100808354040283529160200191611afd565b820191906000526020600020905b815481529060010190602001808311611ae057829003601f168201915b505050505081565b600060076000838152602001908152602001600020600501549050919050565b3373ffffffffffffffffffffffffffffffffffffffff166007600083815260200190815260200160002060000160009054906101000a900473ffffffffffffffffffffffffffffffffffffffff1673ffffffffffffffffffffffffffffffffffffffff1614611bfc576040517f08c379a000000000000000000000000000000000000000000000000000000000815260040180806020018281038252601a8152602001807f4f6e6c79206a6f62206f776e65722063616e20656e64206a6f6200000000000081525060200191505060405180910390fd5b6000611c0782612cc6565b905080421015611c62576040517f08c379a00000000000000000000000000000000000000000000000000000000081526004018080602001828103825260438152602001806139396043913960600191505060405180910390fd5b6007600083815260200190815260200160002060080160009054906101000a900460ff1615611cdc576040517f08c379a0000000000000000000000000000000000000000000000000000000008152600401808060200182810382526031815260200180613a966031913960400191505060405180910390fd5b611ce582611b05565b611cee836119c2565b10611d44576040517f08c379a000000000000000000000000000000000000000000000000000000000815260040180806020018281038252603c815260200180613ac7603c913960400191505060405180910390fd5b606060076000848152602001908152602001600020600d01805480602002602001604051908101604052809291908181526020018280548015611ddc57602002820191906000526020600020905b8160009054906101000a900473ffffffffffffffffffffffffffffffffffffffff1673ffffffffffffffffffffffffffffffffffffffff1681526020019060010190808311611d92575b5050505050905060008090505b8151811015611f32576000828281518110611e0057fe5b602002602001015190506001151560076000878152602001908152602001600020600a0160008373ffffffffffffffffffffffffffffffffffffffff1673ffffffffffffffffffffffffffffffffffffffff16815260200190815260200160002060009054906101000a900460ff1615151415611f24578073ffffffffffffffffffffffffffffffffffffffff166108fc6005549081150290604051600060405180830381858888f19350505050158015611ebf573d6000803e3d6000fd5b5060076000868152602001908152602001600020600a0160008273ffffffffffffffffffffffffffffffffffffffff1673ffffffffffffffffffffffffffffffffffffffff16815260200190815260200160002060006101000a81549060ff02191690555b508080600101915050611de9565b503373ffffffffffffffffffffffffffffffffffffffff166108fc60076000868152602001908152602001600020600901549081150290604051600060405180830381858888f19350505050158015611f8f573d6000803e3d6000fd5b503373ffffffffffffffffffffffffffffffffffffffff166108fc6004549081150290604051600060405180830381858888f19350505050158015611fd8573d6000803e3d6000fd5b50505050565b606060076000838152602001908152602001600020600d0180548060200260200160405190810160405280929190818152602001828054801561207657602002820191906000526020600020905b8160009054906101000a900473ffffffffffffffffffffffffffffffffffffffff1673ffffffffffffffffffffffffffffffffffffffff168152602001906001019080831161202c575b50505050509050919050565b600060076000838152602001908152602001600020600d01805490509050919050565b6120ae866123be565b612103576040517f08c379a00000000000000000000000000000000000000000000000000000000081526004018080602001828103825260308152602001806138d46030913960400191505060405180910390fd5b8060045401341461215f576040517f08c379a0000000000000000000000000000000000000000000000000000000008152600401808060200182810382526034815260200180613a626034913960400191505060405180910390fd5b606080604051806101c001604052803373ffffffffffffffffffffffffffffffffffffffff1681526020018981526020018881526020018781526020016040518060400160405280600181526020017f2000000000000000000000000000000000000000000000000000000000000000815250815260200186815260200142815260200185815260200160001515815260200160001515815260200184815260200183815260200183815260200182815250600760008054815260200190815260200160002060008201518160000160006101000a81548173ffffffffffffffffffffffffffffffffffffffff021916908373ffffffffffffffffffffffffffffffffffffffff1602179055506020820151816001019080519060200190612288929190613694565b5060408201518160020190805190602001906122a5929190613694565b5060608201518160030190805190602001906122c2929190613694565b5060808201518160040190805190602001906122df929190613694565b5060a0820151816005015560c0820151816006015560e082015181600701556101008201518160080160006101000a81548160ff0219169083151502179055506101208201518160080160016101000a81548160ff021916908315150217905550610140820151816009015561016082015181600d019080519060200190612368929190613714565b5061018082015181600e019080519060200190612386929190613714565b506101a082015181600f0190805190602001906123a492919061379e565b509050506001600054016000819055505050505050505050565b600080600260009054906101000a900473ffffffffffffffffffffffffffffffffffffffff1673ffffffffffffffffffffffffffffffffffffffff166368ebd4e8846040518263ffffffff1660e01b81526004018080602001828103825283818151815260200191508051906020019080838360005b8381101561244f578082015181840152602081019050612434565b50505050905090810190601f16801561247c5780820380516001836020036101000a031916815260200191505b509250505060206040518083038186803b15801561249957600080fd5b505afa1580156124ad573d6000803e3d6000fd5b505050506040513d60208110156124c357600080fd5b810190808051906020019092919050505090503373ffffffffffffffffffffffffffffffffffffffff168173ffffffffffffffffffffffffffffffffffffffff1614915050919050565b60035481565b6007600083815260200190815260200160002060000160009054906101000a900473ffffffffffffffffffffffffffffffffffffffff1673ffffffffffffffffffffffffffffffffffffffff163373ffffffffffffffffffffffffffffffffffffffff1614156125ce576040517f08c379a0000000000000000000000000000000000000000000000000000000008152600401808060200182810382526024815260200180613b4e6024913960400191505060405180910390fd5b6125d781613545565b612649576040517f08c379a00000000000000000000000000000000000000000000000000000000081526004018080602001828103825260208152602001807f4e65656420746f206265206f776e6572206f662074686973206461746173657481525060200191505060405180910390fd5b61265282611217565b156126a8576040517f08c379a000000000000000000000000000000000000000000000000000000000815260040180806020018281038252602a815260200180613c82602a913960400191505060405180910390fd5b6005543414612702576040517f08c379a00000000000000000000000000000000000000000000000000000000081526004018080602001828103825260248152602001806139a56024913960400191505060405180910390fd5b6001151560076000848152602001908152602001600020600a0160003373ffffffffffffffffffffffffffffffffffffffff1673ffffffffffffffffffffffffffffffffffffffff16815260200190815260200160002060009054906101000a900460ff16151514156127dd576040517f08c379a000000000000000000000000000000000000000000000000000000000815260040180806020018281038252601f8152602001807f20416c72656164792072656769737465726564206f6e2074686973206a6f620081525060200191505060405180910390fd5b600160076000848152602001908152602001600020600a0160003373ffffffffffffffffffffffffffffffffffffffff1673ffffffffffffffffffffffffffffffffffffffff16815260200190815260200160002060006101000a81548160ff0219169083151502179055508060076000848152602001908152602001600020600c0160003373ffffffffffffffffffffffffffffffffffffffff1673ffffffffffffffffffffffffffffffffffffffff16815260200190815260200160002090805190602001906128b09291906137eb565b5060076000838152602001908152602001600020600d013390806001815401808255809150509060018203906000526020600020016000909192909190916101000a81548173ffffffffffffffffffffffffffffffffffffffff021916908373ffffffffffffffffffffffffffffffffffffffff160217905550505050565b600080600080600760008681526020019081526020016000206006015460076000878152602001908152602001600020600701546007600088815260200190815260200160002060080160009054906101000a900460ff166007600089815260200190815260200160002060080160019054906101000a900460ff1693509350935093509193509193565b60006129c582612cc6565b905060006003548201905080421015612a29576040517f08c379a00000000000000000000000000000000000000000000000000000000081526004018080602001828103825260358152602001806139046035913960400191505060405180910390fd5b6007600084815260200190815260200160002060080160009054906101000a900460ff1615612aa3576040517f08c379a0000000000000000000000000000000000000000000000000000000008152600401808060200182810382526031815260200180613a966031913960400191505060405180910390fd5b6001151560076000858152602001908152602001600020600a0160003373ffffffffffffffffffffffffffffffffffffffff1673ffffffffffffffffffffffffffffffffffffffff16815260200190815260200160002060009054906101000a900460ff16151514612b60576040517f08c379a0000000000000000000000000000000000000000000000000000000008152600401808060200182810382526036815260200180613b976036913960400191505060405180910390fd5b3373ffffffffffffffffffffffffffffffffffffffff166108fc6005549081150290604051600060405180830381858888f19350505050158015612ba8573d6000803e3d6000fd5b5060076000848152602001908152602001600020600a0160003373ffffffffffffffffffffffffffffffffffffffff1673ffffffffffffffffffffffffffffffffffffffff16815260200190815260200160002060006101000a81549060ff0219169055505050565b6060600860008381526020019081526020016000208054600181600116156101000203166002900480601f016020809104026020016040519081016040528092919081815260200182805460018160011615610100020316600290048015612cba5780601f10612c8f57610100808354040283529160200191612cba565b820191906000526020600020905b815481529060010190602001808311612c9d57829003601f168201915b50505050509050919050565b6000610e106007600084815260200190815260200160002060070154026007600084815260200190815260200160002060060154019050919050565b3373ffffffffffffffffffffffffffffffffffffffff166007600083815260200190815260200160002060000160009054906101000a900473ffffffffffffffffffffffffffffffffffffffff1673ffffffffffffffffffffffffffffffffffffffff1614612dd9576040517f08c379a00000000000000000000000000000000000000000000000000000000081526004018080602001828103825260208152602001807f4a6f622063616e206f6e6c792062652073746172746564206279206f776e657281525060200191505060405180910390fd5b612de281611217565b612e37576040517f08c379a00000000000000000000000000000000000000000000000000000000081526004018080602001828103825260328152602001806139c96032913960400191505060405180910390fd5b6000612e4282612cc6565b905060006003548201905080421115612ec3576040517f08c379a00000000000000000000000000000000000000000000000000000000081526004018080602001828103825260208152602001807f546f6f206c61746520746f20737461727420747261696e696e67206d6f64656c81525060200191505060405180910390fd5b600760008481526020019081526020016000206005015460076000858152602001908152602001600020600e01805490501015612f4b576040517f08c379a0000000000000000000000000000000000000000000000000000000008152600401808060200182810382526025815260200180613b296025913960400191505060405180910390fd5b60016007600085815260200190815260200160002060080160006101000a81548160ff021916908315150217905550606060076000858152602001908152602001600020600d0180548060200260200160405190810160405280929190818152602001828054801561301257602002820191906000526020600020905b8160009054906101000a900473ffffffffffffffffffffffffffffffffffffffff1673ffffffffffffffffffffffffffffffffffffffff1681526020019060010190808311612fc8575b5050505050905060008090505b8151811015613117576001151560076000878152602001908152602001600020600b01600084848151811061305057fe5b602002602001015173ffffffffffffffffffffffffffffffffffffffff1673ffffffffffffffffffffffffffffffffffffffff16815260200190815260200160002060009054906101000a900460ff1615151461310a5760008282815181106130b557fe5b602002602001015190508073ffffffffffffffffffffffffffffffffffffffff166108fc6005549081150290604051600060405180830381858888f19350505050158015613107573d6000803e3d6000fd5b50505b808060010191505061301f565b50600660009054906101000a900473ffffffffffffffffffffffffffffffffffffffff1673ffffffffffffffffffffffffffffffffffffffff166108fc6004549081150290604051600060405180830381858888f19350505050158015613182573d6000803e3d6000fd5b5050505050565b600660009054906101000a900473ffffffffffffffffffffffffffffffffffffffff1673ffffffffffffffffffffffffffffffffffffffff163373ffffffffffffffffffffffffffffffffffffffff161461322f576040517f08c379a0000000000000000000000000000000000000000000000000000000008152600401808060200182810382526036815260200180613bfe6036913960400191505060405180910390fd5b8251845114613289576040517f08c379a0000000000000000000000000000000000000000000000000000000008152600401808060200182810382526031815260200180613bcd6031913960400191505060405180910390fd5b60076000868152602001908152602001600020600e01805490508351146132fb576040517f08c379a00000000000000000000000000000000000000000000000000000000081526004018080602001828103825260348152602001806139fb6034913960400191505060405180910390fd5b600115156007600087815260200190815260200160002060080160019054906101000a900460ff161515141561337c576040517f08c379a000000000000000000000000000000000000000000000000000000000815260040180806020018281038252604e815260200180613c34604e913960600191505060405180910390fd5b600080905060008090505b85518110156133b55785818151811061339c57fe5b6020026020010151820191508080600101915050613387565b506007600087815260200190815260200160002060090154811115613425576040517f08c379a0000000000000000000000000000000000000000000000000000000008152600401808060200182810382526025815260200180613b726025913960400191505060405180910390fd5b60008090505b84518110156134b457600085828151811061344257fe5b602002602001015190508073ffffffffffffffffffffffffffffffffffffffff166108fc88848151811061347257fe5b60200260200101519081150290604051600060405180830381858888f193505050501580156134a5573d6000803e3d6000fd5b5050808060010191505061342b565b5060016007600088815260200190815260200160002060080160016101000a81548160ff0219169083151502179055508260076000888152602001908152602001600020600401908051906020019061350e9291906137eb565b50816008600088815260200190815260200160002090805190602001906135369291906137eb565b50505050505050565b60045481565b600080600160009054906101000a900473ffffffffffffffffffffffffffffffffffffffff1673ffffffffffffffffffffffffffffffffffffffff16635c06c902846040518263ffffffff1660e01b81526004018080602001828103825283818151815260200191508051906020019080838360005b838110156135d65780820151818401526020810190506135bb565b50505050905090810190601f1680156136035780820380516001836020036101000a031916815260200191505b509250505060206040518083038186803b15801561362057600080fd5b505afa158015613634573d6000803e3d6000fd5b505050506040513d602081101561364a57600080fd5b810190808051906020019092919050505090503373ffffffffffffffffffffffffffffffffffffffff168173ffffffffffffffffffffffffffffffffffffffff1614915050919050565b828054600181600116156101000203166002900490600052602060002090601f016020900481019282601f106136d557805160ff1916838001178555613703565b82800160010185558215613703579182015b828111156137025782518255916020019190600101906136e7565b5b509050613710919061386b565b5090565b82805482825590600052602060002090810192821561378d579160200282015b8281111561378c5782518260006101000a81548173ffffffffffffffffffffffffffffffffffffffff021916908373ffffffffffffffffffffffffffffffffffffffff16021790555091602001919060010190613734565b5b50905061379a9190613890565b5090565b8280548282559060005260206000209081019282156137da579160200282015b828111156137d95782518255916020019190600101906137be565b5b5090506137e7919061386b565b5090565b828054600181600116156101000203166002900490600052602060002090601f016020900481019282601f1061382c57805160ff191683800117855561385a565b8280016001018555821561385a579182015b8281111561385957825182559160200191906001019061383e565b5b509050613867919061386b565b5090565b61388d91905b80821115613889576000816000905550600101613871565b5090565b90565b6138d091905b808211156138cc57600081816101000a81549073ffffffffffffffffffffffffffffffffffffffff021916905550600101613896565b5090565b9056fe4f6e6c79206d6f64656c206f776e65722063616e206372656174652061206a6f6220666f722074686973206d6f64656c43616e206f6e6c792077697468647261772066756e647320616674657220747261696e696e6720737461727420646561646c696e654a6f622063616e206f6e6c7920656e6420776974686f757420747261696e696e672061667465722074686520747261696e696e6720737461727420646561646c696e6544617461736574206f776e657220616c726561647920616464656420746f20616c6c6f77206c6973744e65656420746f2073656e642074686520636f727265637420686f6c64696e6720666565526567697374726174696f6e20706572696f6420666f722074686973206a6f6220686173206e6f742079657420656e6465644e756d626572206f6620636c69656e7473206d757374206d61746368206e756d626572206f6620616c6c6f77656420757365727343616e206f6e6c792061646420616e20696e74657265737465642064617461206f776e657220746f20616c6c6f77206c6973744e65656420746f2073656e642074686520636f7272656374206a6f62206372656174696f6e2066656520616e6420626f756e747943616e206f6e6c792077697468647261772066756e647320696620747261696e696e67206e65766572207374617274656453756666696369656e74206e756d626572206f6620636c69656e7473206f6e20616c6c6f77206c69737420746f20737461727420747261696e696e674e65656420746f20626520726567697374657265642061732064617461736574206f776e65724d696e696d756d206e756d626572206f6620636c69656e7473206e6f7420726561636865644a6f62206f776e65722063616e6e6f74207369676e207570206173206120636c69656e7443616e277420706179206f7574206d6f7265207468616e20626f756e747920616d6f756e744f6e6c7920616e20616c726561647920726567697374657265642064617461206f776e65722063616e207769746864726177206665654e756d626572206f6620636c69656e7473206d757374206d6174636820636f6d70656e736174696f6e20616d6f756e74734f6e6c79207365727665722063616e20656e6420747261696e696e6720616e6420696e69746961746520636f6d70656e736174696f6e547261696e696e672068617320656e64656420616e6420636f6d70656e736174696f6e2068617320616c7265616479206265656e207370656e74206f757420746f207061727469636970616e7473526567697374726174696f6e20706572696f6420666f722074686973206a6f622068617320656e646564a265627a7a723158207a46486ed875431874c00fa131b27fe4fb63467867ee37eef01d31109fc2f9e064736f6c63430005100032",
  "source": "pragma solidity >=0.5.16;\n\ncontract ModelDatabase {\n    function getModelOwner(string memory _ipfsHash) public view returns(address) {}\n}\n\ncontract DatasetDatabase {\n    function getDatasetOwner(string memory _ipfsHash) public view returns(address) {}\n}\n\ncontract Jobs {\n\n    uint public jobsCreated = 0;\n\n    DatasetDatabase datasetDatabase;\n    ModelDatabase modelDatabase;\n\n    uint public gracePeriod = 1 hours;\n\n    uint public jobCreationFee = 1e6 wei;\n\n    uint public holdingFee = 1e6 wei;\n\n    address payable private serverAddress = 0x12F0F455D3e769b247518747dd731E9c61366E97;\n\n    struct Job {\n        address payable owner;\n        string modelIpfsHash;\n        string strategyHash;\n        string testDatasetHash;\n        string resultsHash;\n        uint minClients;\n        uint initTime;\n        uint hoursUntilStart;\n        bool trainingStarted;\n        bool trainingEnded;\n        uint bounty;\n        mapping(address => bool) datasetOwners;\n        mapping(address => bool)  allowList;\n        mapping(address => string) datasetHash;\n        address payable[] arrDatasetOwners;\n        address payable[] arrAllowList;\n        uint [] compensation;\n    }\n\n    mapping(uint => Job) public jobs;\n\n    mapping(uint => string) public weightsHashes;\n\n    constructor(address _contractAddressDatasets, address _contractAddressModels) public {\n        datasetDatabase = DatasetDatabase(_contractAddressDatasets);\n        modelDatabase = ModelDatabase(_contractAddressModels);\n    }\n\n    function isSenderModelOwner(string memory _modelIpfsHash) public view returns(bool) {\n        address owner = modelDatabase.getModelOwner(_modelIpfsHash);\n        return (owner == msg.sender);\n    }\n\n    function isSenderDatasetOwner(string memory _datasetIpfsHash) public view returns(bool) {\n        address owner = datasetDatabase.getDatasetOwner(_datasetIpfsHash);\n        return (owner == msg.sender);\n    }\n\n    function getJobStartTime(uint _id) public view returns(uint) {\n        return jobs[_id].initTime + jobs[_id].hoursUntilStart * 1 hours;\n    }\n\n    function registrationPeriodOver(uint _id) public view returns(bool) {\n        return (block.timestamp >= getJobStartTime(_id));\n    }\n\n    function createJob(string memory _modelIpfsHash, string memory _strategyHash, string memory _testDatasetHash, uint _minClients, uint _hoursUntilStart,\n        uint _bounty) public payable {\n\n        // Check the Job creator is model owner\n        require(isSenderModelOwner(_modelIpfsHash),\"Only model owner can create a job for this model\");\n\n        // Check user has paid the correct bounty and job Creation Fee\n        require(msg.value == jobCreationFee + _bounty,\"Need to send the correct job creation fee and bounty\");\n\n        address payable[] memory init;\n        uint [] memory init2;\n\n        jobs[jobsCreated] = Job({owner: msg.sender,\n                                modelIpfsHash: _modelIpfsHash,\n                                strategyHash: _strategyHash,\n                                resultsHash: \" \",\n                                testDatasetHash: _testDatasetHash,\n                                minClients: _minClients,\n                                initTime: block.timestamp,\n                                hoursUntilStart: _hoursUntilStart,\n                                bounty: _bounty,\n                                trainingStarted: false,\n                                trainingEnded: false,\n                                arrDatasetOwners: init,\n                                arrAllowList: init,\n                                compensation: init2}\n                                );\n\n        jobsCreated = jobsCreated + 1;\n    }\n\n\n    // Called by dataset owners to register their willingness to join a jobs\n    // Owners registers a particular dataset and\n    function registerDatasetOwner(uint _id, string memory _datasetIpfsHash) public payable {\n        // Check user is not model owner\n        require(msg.sender != jobs[_id].owner, \"Job owner cannot sign up as a client\");\n\n        // Check if user is dataset owner\n        require(isSenderDatasetOwner(_datasetIpfsHash), \"Need to be owner of this dataset\");\n\n\n        // Check job is still in registration period\n        if (registrationPeriodOver(_id)){\n            revert(\"Registration period for this job has ended\");\n        }\n\n        // Check user has paid the correct holding fee\n        require(msg.value == holdingFee,\"Need to send the correct holding fee\");\n\n\n        // Check if already registered\n        if(jobs[_id].datasetOwners[msg.sender] == true){\n            revert(\" Already registered on this job\");\n        }\n\n        // Add dataset owner's address to list of owner addresses comitted to job\n        jobs[_id].datasetOwners[msg.sender] = true;\n        jobs[_id].datasetHash[msg.sender] = _datasetIpfsHash;\n        jobs[_id].arrDatasetOwners.push(msg.sender);\n\n    }\n\n    // Called by Job owner to allow registered Clients to partake in job i.e. download model\n    function addToAllowList(uint _id, address payable _datasetOwner) public {\n        // Check user is job owner\n        require(jobs[_id].owner == msg.sender, \"Need to be registered as dataset owner\");\n\n        // Check address is in registry of interested owners\n        require(jobs[_id].datasetOwners[_datasetOwner] == true, \"Can only add an interested data owner to allow list\");\n\n        // Check job is still in registration period\n        if (registrationPeriodOver(_id)){\n            revert(\"Registration period for this job has ended\");\n        }\n\n        // Check if dataset owner already registered on allowList\n        if (jobs[_id].allowList[_datasetOwner] == true){\n            revert(\"Dataset owner already added to allow list\");\n        }\n\n        jobs[_id].allowList[_datasetOwner] = true;\n        jobs[_id].arrAllowList.push(_datasetOwner);\n    }\n\n    function getNumRegistered(uint _id) public view returns(uint){\n        return jobs[_id].arrDatasetOwners.length;\n    }\n\n    function getNumAllow(uint _id) public view returns(uint){\n        return jobs[_id].arrAllowList.length;\n    }\n\n    function getJobRegistered(uint _id) public view returns(address payable [] memory){\n      return jobs[_id].arrDatasetOwners;\n    }\n\n    function getJobAllowed(uint _id) public view returns(address payable [] memory){\n      return jobs[_id].arrAllowList;\n    }\n\n    function getJobDetails(uint _id) public view returns(address, uint, uint){\n        return (jobs[_id].owner, jobs[_id].minClients, jobs[_id].bounty);\n    }\n\n    function getJobStatus(uint _id) public view returns(uint, uint, bool, bool){\n        return (jobs[_id].initTime, jobs[_id].hoursUntilStart, jobs[_id].trainingStarted, jobs[_id].trainingEnded);\n    }\n\n    function getMinClients(uint _id) public view returns(uint) {\n        return jobs[_id].minClients;\n    }\n\n    function startJob(uint _id) public{\n        // Can only be started by owner of job\n        if (jobs[_id].owner != msg.sender){\n            revert(\"Job can only be started by owner\");\n        }\n\n        // Check registration period has ended\n        if (!registrationPeriodOver(_id)){\n            revert(\"Registration period for this job has not yet ended\");\n        }\n\n        // Check grace period not over\n        uint jobStartTime = getJobStartTime(_id);\n        uint deadline = jobStartTime + gracePeriod;\n        if (block.timestamp > deadline){\n            revert(\"Too late to start training model\");\n        }\n\n        if (jobs[_id].arrAllowList.length < jobs[_id].minClients) {\n            revert(\"Minimum number of clients not reached\");\n        }\n\n        // Set training started status as true\n        jobs[_id].trainingStarted = true;\n\n        // List of owners registered for this job\n        address payable[] memory registeredDatasetOwners = jobs[_id].arrDatasetOwners;\n\n        // Check every register data owner, if they are not on allow list, they get their fee back when training starts\n        for (uint i=0; i<registeredDatasetOwners.length; i++) {\n            if (jobs[_id].allowList[registeredDatasetOwners[i]] != true) {\n                address payable payee = registeredDatasetOwners[i];\n                payee.transfer(holdingFee);\n            }\n        }\n\n        // return job fee to client\n        //msg.sender.transfer(jobCreationFee);\n        serverAddress.transfer(jobCreationFee);\n\n    }\n\n    function withdrawFee(uint _id) public{\n        // Check grace period over\n        uint jobStartTime = getJobStartTime(_id);\n        uint deadline = jobStartTime + gracePeriod;\n        if (block.timestamp < deadline){\n            revert(\"Can only withdraw funds after training start deadline\");\n        }\n\n        // To withdraw funds, need training not to have started\n        require(!jobs[_id].trainingStarted, \"Can only withdraw funds if training never started\");\n\n        // Only a data owner registered to job can withdraw funds\n        require(jobs[_id].datasetOwners[msg.sender] == true, \"Only an already registered data owner can withdraw fee\");\n\n        // Send holding fee to job registered user\n        msg.sender.transfer(holdingFee);\n\n        // remove Client from datasetOwners list to prevent withdrawing fee again\n        delete(jobs[_id].datasetOwners[msg.sender]);\n    }\n\n    function endFailedJob(uint _id) public {\n        // Only the owner of the job can end it\n        require(jobs[_id].owner == msg.sender, \"Only job owner can end job\");\n\n        // Check grace period over\n        uint jobStartTime = getJobStartTime(_id);\n        if (block.timestamp < jobStartTime){\n            revert(\"Job can only end without training after the training start deadline\");\n        }\n        \n        // To end job, training should not have started\n        require(!jobs[_id].trainingStarted, \"Can only withdraw funds if training never started\");\n        \n        // To end job, length of the allow list must be smaller than minClients\n        require(getNumAllow(_id) < getMinClients(_id), \"Sufficient number of clients on allow list to start training\") ;\n        \n        // withdraw holding fee to every registered data owner\n        address payable[] memory registeredDatasetOwners = jobs[_id].arrDatasetOwners;\n        for (uint i=0; i<registeredDatasetOwners.length; i++) {\n            address payable payee = registeredDatasetOwners[i];\n            if (jobs[_id].datasetOwners[payee] == true){\n                payee.transfer(holdingFee);\n                delete(jobs[_id].datasetOwners[payee]);\n            }\n        }\n\n        // withdraw bounty to data scientist\n        msg.sender.transfer(jobs[_id].bounty);\n        msg.sender.transfer(jobCreationFee);\n    }\n\n    function isRegistered(uint _id) public view returns(bool){\n        return jobs[_id].datasetOwners[msg.sender];\n    }\n\n    function compensate(uint _id, uint [] memory _compensation, address payable [] memory _clients,\n                        string memory _resultsHash, string memory _weightsHash) public{\n\n        require(msg.sender == serverAddress,\"Only server can end training and initiate compensation\");\n\n        require(_compensation.length == _clients.length,\"Number of clients must match compensation amounts\");\n\n        require(_clients.length == jobs[_id].arrAllowList.length, \"Number of clients must match number of allowed users\");\n\n        if(jobs[_id].trainingEnded == true){\n            revert(\"Training has ended and compensation has already been spent out to participants\");\n        }\n\n        uint compensationSum = 0;\n        for (uint j=0; j<_compensation.length; j++) {\n            compensationSum = compensationSum + _compensation[j];\n        }\n\n        // Check sum of compensation array is less than job bounty\n        require(compensationSum <= jobs[_id].bounty, \"Can't pay out more than bounty amount\");\n\n        for (uint i=0; i<_clients.length; i++) {\n            address payable payee = _clients[i];\n            payee.transfer(_compensation[i]);\n        }\n\n        jobs[_id].trainingEnded = true;\n        jobs[_id].resultsHash = _resultsHash;\n        weightsHashes[_id] = _weightsHash;\n    }\n\n    function getWeights(uint _id) public view returns(string memory){\n        return weightsHashes[_id];\n    }\n}",
  "sourcePath": "/Users/marwanmousa/University/MSc_AI/Group_Project/group-project/reactapp/BlockchainBackend/contracts/Jobs.sol",
  "compiler": {
    "name": "solc",
    "version": "0.5.16+commit.9c3226ce.Emscripten.clang"
  },
  "schemaVersion": "3.3.3",
  "updatedAt": "2021-04-21T14:40:17.365Z",
  "networkType": "ethereum",
  "devdoc": {
    "methods": {}
  },
  "userdoc": {
    "methods": {}
  }
}