{
  "contractName": "Jobs",
  "abi": [
    {
      "inputs": [
        {
          "internalType": "address",
          "name": "_contractAddressDatasets",
          "type": "address"
        },
        {
          "internalType": "address",
          "name": "_contractAddressModels",
          "type": "address"
        }
      ],
      "payable": false,
      "stateMutability": "nonpayable",
      "type": "constructor"
    },
    {
      "constant": true,
      "inputs": [],
      "name": "gracePeriod",
      "outputs": [
        {
          "internalType": "uint256",
          "name": "",
          "type": "uint256"
        }
      ],
      "payable": false,
      "stateMutability": "view",
      "type": "function"
    },
    {
      "constant": true,
      "inputs": [],
      "name": "holdingFee",
      "outputs": [
        {
          "internalType": "uint256",
          "name": "",
          "type": "uint256"
        }
      ],
      "payable": false,
      "stateMutability": "view",
      "type": "function"
    },
    {
      "constant": true,
      "inputs": [],
      "name": "jobCreationFee",
      "outputs": [
        {
          "internalType": "uint256",
          "name": "",
          "type": "uint256"
        }
      ],
      "payable": false,
      "stateMutability": "view",
      "type": "function"
    },
    {
      "constant": true,
      "inputs": [
        {
          "internalType": "uint256",
          "name": "",
          "type": "uint256"
        }
      ],
      "name": "jobResults",
      "outputs": [
        {
          "internalType": "string",
          "name": "resultsHash",
          "type": "string"
        },
        {
          "internalType": "string",
          "name": "weightsHash",
          "type": "string"
        }
      ],
      "payable": false,
      "stateMutability": "view",
      "type": "function"
    },
    {
      "constant": true,
      "inputs": [
        {
          "internalType": "uint256",
          "name": "",
          "type": "uint256"
        }
      ],
      "name": "jobs",
      "outputs": [
        {
          "internalType": "address payable",
          "name": "owner",
          "type": "address"
        },
        {
          "internalType": "string",
          "name": "modelIpfsHash",
          "type": "string"
        },
        {
          "internalType": "string",
          "name": "strategyHash",
          "type": "string"
        },
        {
          "internalType": "string",
          "name": "testDatasetHash",
          "type": "string"
        },
        {
          "internalType": "uint256",
          "name": "minClients",
          "type": "uint256"
        },
        {
          "internalType": "uint256",
          "name": "initTime",
          "type": "uint256"
        },
        {
          "internalType": "uint256",
          "name": "hoursUntilStart",
          "type": "uint256"
        },
        {
          "internalType": "bool",
          "name": "trainingStarted",
          "type": "bool"
        },
        {
          "internalType": "bool",
          "name": "trainingEnded",
          "type": "bool"
        },
        {
          "internalType": "uint256",
          "name": "bounty",
          "type": "uint256"
        }
      ],
      "payable": false,
      "stateMutability": "view",
      "type": "function"
    },
    {
      "constant": true,
      "inputs": [],
      "name": "jobsCreated",
      "outputs": [
        {
          "internalType": "uint256",
          "name": "",
          "type": "uint256"
        }
      ],
      "payable": false,
      "stateMutability": "view",
      "type": "function"
    },
    {
      "constant": true,
      "inputs": [
        {
          "internalType": "string",
          "name": "_modelIpfsHash",
          "type": "string"
        }
      ],
      "name": "isSenderModelOwner",
      "outputs": [
        {
          "internalType": "bool",
          "name": "",
          "type": "bool"
        }
      ],
      "payable": false,
      "stateMutability": "view",
      "type": "function"
    },
    {
      "constant": true,
      "inputs": [
        {
          "internalType": "string",
          "name": "_datasetIpfsHash",
          "type": "string"
        }
      ],
      "name": "isSenderDatasetOwner",
      "outputs": [
        {
          "internalType": "bool",
          "name": "",
          "type": "bool"
        }
      ],
      "payable": false,
      "stateMutability": "view",
      "type": "function"
    },
    {
      "constant": true,
      "inputs": [
        {
          "internalType": "uint256",
          "name": "_id",
          "type": "uint256"
        }
      ],
      "name": "getJobStartTime",
      "outputs": [
        {
          "internalType": "uint256",
          "name": "",
          "type": "uint256"
        }
      ],
      "payable": false,
      "stateMutability": "view",
      "type": "function"
    },
    {
      "constant": true,
      "inputs": [
        {
          "internalType": "uint256",
          "name": "_id",
          "type": "uint256"
        }
      ],
      "name": "registrationPeriodOver",
      "outputs": [
        {
          "internalType": "bool",
          "name": "",
          "type": "bool"
        }
      ],
      "payable": false,
      "stateMutability": "view",
      "type": "function"
    },
    {
      "constant": false,
      "inputs": [
        {
          "internalType": "string",
          "name": "_modelIpfsHash",
          "type": "string"
        },
        {
          "internalType": "string",
          "name": "_strategyHash",
          "type": "string"
        },
        {
          "internalType": "string",
          "name": "_testDatasetHash",
          "type": "string"
        },
        {
          "internalType": "uint256",
          "name": "_minClients",
          "type": "uint256"
        },
        {
          "internalType": "uint256",
          "name": "_hoursUntilStart",
          "type": "uint256"
        },
        {
          "internalType": "uint256",
          "name": "_bounty",
          "type": "uint256"
        }
      ],
      "name": "createJob",
      "outputs": [],
      "payable": true,
      "stateMutability": "payable",
      "type": "function"
    },
    {
      "constant": false,
      "inputs": [
        {
          "internalType": "uint256",
          "name": "_id",
          "type": "uint256"
        },
        {
          "internalType": "string",
          "name": "_datasetIpfsHash",
          "type": "string"
        }
      ],
      "name": "registerDatasetOwner",
      "outputs": [],
      "payable": true,
      "stateMutability": "payable",
      "type": "function"
    },
    {
      "constant": false,
      "inputs": [
        {
          "internalType": "uint256",
          "name": "_id",
          "type": "uint256"
        },
        {
          "internalType": "address payable",
          "name": "_datasetOwner",
          "type": "address"
        }
      ],
      "name": "addToAllowList",
      "outputs": [],
      "payable": false,
      "stateMutability": "nonpayable",
      "type": "function"
    },
    {
      "constant": true,
      "inputs": [
        {
          "internalType": "uint256",
          "name": "_id",
          "type": "uint256"
        }
      ],
      "name": "getNumRegistered",
      "outputs": [
        {
          "internalType": "uint256",
          "name": "",
          "type": "uint256"
        }
      ],
      "payable": false,
      "stateMutability": "view",
      "type": "function"
    },
    {
      "constant": true,
      "inputs": [
        {
          "internalType": "uint256",
          "name": "_id",
          "type": "uint256"
        }
      ],
      "name": "getNumAllow",
      "outputs": [
        {
          "internalType": "uint256",
          "name": "",
          "type": "uint256"
        }
      ],
      "payable": false,
      "stateMutability": "view",
      "type": "function"
    },
    {
      "constant": true,
      "inputs": [
        {
          "internalType": "uint256",
          "name": "_id",
          "type": "uint256"
        }
      ],
      "name": "getJobRegistered",
      "outputs": [
        {
          "internalType": "address payable[]",
          "name": "",
          "type": "address[]"
        }
      ],
      "payable": false,
      "stateMutability": "view",
      "type": "function"
    },
    {
      "constant": true,
      "inputs": [
        {
          "internalType": "uint256",
          "name": "_id",
          "type": "uint256"
        }
      ],
      "name": "getJobAllowed",
      "outputs": [
        {
          "internalType": "address payable[]",
          "name": "",
          "type": "address[]"
        }
      ],
      "payable": false,
      "stateMutability": "view",
      "type": "function"
    },
    {
      "constant": true,
      "inputs": [
        {
          "internalType": "uint256",
          "name": "_id",
          "type": "uint256"
        }
      ],
      "name": "getJobDetails",
      "outputs": [
        {
          "internalType": "address",
          "name": "",
          "type": "address"
        },
        {
          "internalType": "uint256",
          "name": "",
          "type": "uint256"
        },
        {
          "internalType": "uint256",
          "name": "",
          "type": "uint256"
        }
      ],
      "payable": false,
      "stateMutability": "view",
      "type": "function"
    },
    {
      "constant": true,
      "inputs": [
        {
          "internalType": "uint256",
          "name": "_id",
          "type": "uint256"
        }
      ],
      "name": "getJobStatus",
      "outputs": [
        {
          "internalType": "uint256",
          "name": "",
          "type": "uint256"
        },
        {
          "internalType": "uint256",
          "name": "",
          "type": "uint256"
        },
        {
          "internalType": "bool",
          "name": "",
          "type": "bool"
        },
        {
          "internalType": "bool",
          "name": "",
          "type": "bool"
        }
      ],
      "payable": false,
      "stateMutability": "view",
      "type": "function"
    },
    {
      "constant": true,
      "inputs": [
        {
          "internalType": "uint256",
          "name": "_id",
          "type": "uint256"
        }
      ],
      "name": "getMinClients",
      "outputs": [
        {
          "internalType": "uint256",
          "name": "",
          "type": "uint256"
        }
      ],
      "payable": false,
      "stateMutability": "view",
      "type": "function"
    },
    {
      "constant": false,
      "inputs": [
        {
          "internalType": "uint256",
          "name": "_id",
          "type": "uint256"
        }
      ],
      "name": "startJob",
      "outputs": [],
      "payable": false,
      "stateMutability": "nonpayable",
      "type": "function"
    },
    {
      "constant": false,
      "inputs": [
        {
          "internalType": "uint256",
          "name": "_id",
          "type": "uint256"
        }
      ],
      "name": "withdrawFee",
      "outputs": [],
      "payable": false,
      "stateMutability": "nonpayable",
      "type": "function"
    },
    {
      "constant": false,
      "inputs": [
        {
          "internalType": "uint256",
          "name": "_id",
          "type": "uint256"
        }
      ],
      "name": "endFailedJob",
      "outputs": [],
      "payable": false,
      "stateMutability": "nonpayable",
      "type": "function"
    },
    {
      "constant": true,
      "inputs": [
        {
          "internalType": "uint256",
          "name": "_id",
          "type": "uint256"
        }
      ],
      "name": "isRegistered",
      "outputs": [
        {
          "internalType": "bool",
          "name": "",
          "type": "bool"
        }
      ],
      "payable": false,
      "stateMutability": "view",
      "type": "function"
    },
    {
      "constant": false,
      "inputs": [
        {
          "internalType": "uint256",
          "name": "_id",
          "type": "uint256"
        },
        {
          "internalType": "uint256[]",
          "name": "_compensation",
          "type": "uint256[]"
        },
        {
          "internalType": "address payable[]",
          "name": "_clients",
          "type": "address[]"
        },
        {
          "internalType": "string",
          "name": "_resultsHash",
          "type": "string"
        },
        {
          "internalType": "string",
          "name": "_weightsHash",
          "type": "string"
        }
      ],
      "name": "compensate",
      "outputs": [],
      "payable": false,
      "stateMutability": "nonpayable",
      "type": "function"
    },
    {
      "constant": false,
      "inputs": [
        {
          "internalType": "uint256",
          "name": "_id",
          "type": "uint256"
        }
      ],
      "name": "getCompensation",
      "outputs": [],
      "payable": false,
      "stateMutability": "nonpayable",
      "type": "function"
    },
    {
      "constant": true,
      "inputs": [
        {
          "internalType": "uint256",
          "name": "_id",
          "type": "uint256"
        }
      ],
      "name": "getWeights",
      "outputs": [
        {
          "internalType": "string",
          "name": "",
          "type": "string"
        }
      ],
      "payable": false,
      "stateMutability": "view",
      "type": "function"
    },
    {
      "constant": true,
      "inputs": [
        {
          "internalType": "uint256",
          "name": "_id",
          "type": "uint256"
        }
      ],
      "name": "getCompensationResults",
      "outputs": [
        {
          "internalType": "string",
          "name": "",
          "type": "string"
        }
      ],
      "payable": false,
      "stateMutability": "view",
      "type": "function"
    },
    {
      "constant": true,
      "inputs": [
        {
          "internalType": "uint256",
          "name": "_id",
          "type": "uint256"
        }
      ],
      "name": "isCompensated",
      "outputs": [
        {
          "internalType": "bool",
          "name": "",
          "type": "bool"
        }
      ],
      "payable": false,
      "stateMutability": "view",
      "type": "function"
    }
  ],
  "bytecode": "0x608060405260008055610e10600355620f4240600455620f42406005557312f0f455d3e769b247518747dd731e9c61366e97600660006101000a81548173ffffffffffffffffffffffffffffffffffffffff021916908373ffffffffffffffffffffffffffffffffffffffff16021790555034801561007d57600080fd5b50604051620046d1380380620046d1833981810160405260408110156100a257600080fd5b81019080805190602001909291908051906020019092919050505081600160006101000a81548173ffffffffffffffffffffffffffffffffffffffff021916908373ffffffffffffffffffffffffffffffffffffffff16021790555080600260006101000a81548173ffffffffffffffffffffffffffffffffffffffff021916908373ffffffffffffffffffffffffffffffffffffffff160217905550505061458080620001516000396000f3fe6080604052600436106101c25760003560e01c8063808e0e23116100f7578063a6c58b6311610095578063e125529411610064578063e125529414610fc3578063f208a11414610ffe578063f65aaf181461128f578063ffd5832b146112ba576101c2565b8063a6c58b6314610e19578063be35761614610e85578063d5785b7614610ec0578063d9d3074014610f74576101c2565b806387386b74116100d157806387386b7414610b29578063a06db7dc14610c09578063a335e7d514610c34578063a3d6064514610cf9576101c2565b8063808e0e2314610880578063816b2534146108cf578063848cb2ae14610922576101c2565b80634cac35c6116101645780635df199981161013e5780635df199981461073b57806370743fc0146107665780637413715c146107b55780637e1255c5146107f0576101c2565b80634cac35c6146106105780634d26607314610699578063579a6988146106e8576101c2565b80630e671a02116101a05780630e671a02146102a0578063180aedf3146103545780632215bf2214610545578063434d382d146105d5576101c2565b806309e1e911146101c75780630c63429e1461021a5780630d11204914610245575b600080fd5b3480156101d357600080fd5b50610200600480360360208110156101ea57600080fd5b810190808035906020019092919050505061139a565b604051808215151515815260200191505060405180910390f35b34801561022657600080fd5b5061022f6113af565b6040518082815260200191505060405180910390f35b34801561025157600080fd5b5061029e6004803603604081101561026857600080fd5b8101908080359060200190929190803573ffffffffffffffffffffffffffffffffffffffff1690602001909291905050506113b5565b005b3480156102ac57600080fd5b506102d9600480360360208110156102c357600080fd5b8101908080359060200190929190505050611733565b6040518080602001828103825283818151815260200191508051906020019080838360005b838110156103195780820151818401526020810190506102fe565b50505050905090810190601f1680156103465780820380516001836020036101000a031916815260200191505b509250505060405180910390f35b34801561036057600080fd5b5061038d6004803603602081101561037757600080fd5b8101908080359060200190929190505050611914565b604051808b73ffffffffffffffffffffffffffffffffffffffff1673ffffffffffffffffffffffffffffffffffffffff1681526020018060200180602001806020018a8152602001898152602001888152602001871515151581526020018615151515815260200185815260200184810384528d818151815260200191508051906020019080838360005b83811015610433578082015181840152602081019050610418565b50505050905090810190601f1680156104605780820380516001836020036101000a031916815260200191505b5084810383528c818151815260200191508051906020019080838360005b8381101561049957808201518184015260208101905061047e565b50505050905090810190601f1680156104c65780820380516001836020036101000a031916815260200191505b5084810382528b818151815260200191508051906020019080838360005b838110156104ff5780820151818401526020810190506104e4565b50505050905090810190601f16801561052c5780820380516001836020036101000a031916815260200191505b509d505050505050505050505050505060405180910390f35b34801561055157600080fd5b5061057e6004803603602081101561056857600080fd5b8101908080359060200190929190505050611b6a565b6040518080602001828103825283818151815260200191508051906020019060200280838360005b838110156105c15780820151818401526020810190506105a6565b505050509050019250505060405180910390f35b3480156105e157600080fd5b5061060e600480360360208110156105f857600080fd5b8101908080359060200190929190505050611c0e565b005b34801561061c57600080fd5b506106496004803603602081101561063357600080fd5b8101908080359060200190929190505050611f12565b604051808473ffffffffffffffffffffffffffffffffffffffff1673ffffffffffffffffffffffffffffffffffffffff168152602001838152602001828152602001935050505060405180910390f35b3480156106a557600080fd5b506106d2600480360360208110156106bc57600080fd5b8101908080359060200190929190505050611f8c565b6040518082815260200191505060405180910390f35b3480156106f457600080fd5b506107216004803603602081101561070b57600080fd5b8101908080359060200190929190505050611faf565b604051808215151515815260200191505060405180910390f35b34801561074757600080fd5b50610750612019565b6040518082815260200191505060405180910390f35b34801561077257600080fd5b5061079f6004803603602081101561078957600080fd5b810190808035906020019092919050505061201f565b6040518082815260200191505060405180910390f35b3480156107c157600080fd5b506107ee600480360360208110156107d857600080fd5b810190808035906020019092919050505061203f565b005b3480156107fc57600080fd5b506108296004803603602081101561081357600080fd5b81019080803590602001909291905050506124f8565b6040518080602001828103825283818151815260200191508051906020019060200280838360005b8381101561086c578082015181840152602081019050610851565b505050509050019250505060405180910390f35b34801561088c57600080fd5b506108b9600480360360208110156108a357600080fd5b810190808035906020019092919050505061259c565b6040518082815260200191505060405180910390f35b3480156108db57600080fd5b50610908600480360360208110156108f257600080fd5b81019080803590602001909291905050506125bf565b604051808215151515815260200191505060405180910390f35b610b27600480360360c081101561093857600080fd5b810190808035906020019064010000000081111561095557600080fd5b82018360208201111561096757600080fd5b8035906020019184600183028401116401000000008311171561098957600080fd5b91908080601f016020809104026020016040519081016040528093929190818152602001838380828437600081840152601f19601f820116905080830192505050505050509192919290803590602001906401000000008111156109ec57600080fd5b8201836020820111156109fe57600080fd5b80359060200191846001830284011164010000000083111715610a2057600080fd5b91908080601f016020809104026020016040519081016040528093929190818152602001838380828437600081840152601f19601f82011690508083019250505050505050919291929080359060200190640100000000811115610a8357600080fd5b820183602082011115610a9557600080fd5b80359060200191846001830284011164010000000083111715610ab757600080fd5b91908080601f016020809104026020016040519081016040528093929190818152602001838380828437600081840152601f19601f8201169050808301925050505050505091929192908035906020019092919080359060200190929190803590602001909291905050506126e6565b005b348015610b3557600080fd5b50610bef60048036036020811015610b4c57600080fd5b8101908080359060200190640100000000811115610b6957600080fd5b820183602082011115610b7b57600080fd5b80359060200191846001830284011164010000000083111715610b9d57600080fd5b91908080601f016020809104026020016040519081016040528093929190818152602001838380828437600081840152601f19601f820116905080830192505050505050509192919290505050612980565b604051808215151515815260200191505060405180910390f35b348015610c1557600080fd5b50610c1e612acf565b6040518082815260200191505060405180910390f35b610cf760048036036040811015610c4a57600080fd5b810190808035906020019092919080359060200190640100000000811115610c7157600080fd5b820183602082011115610c8357600080fd5b80359060200191846001830284011164010000000083111715610ca557600080fd5b91908080601f016020809104026020016040519081016040528093929190818152602001838380828437600081840152601f19601f820116905080830192505050505050509192919290505050612ad5565b005b348015610d0557600080fd5b50610d3260048036036020811015610d1c57600080fd5b8101908080359060200190929190505050612ef1565b604051808060200180602001838103835285818151815260200191508051906020019080838360005b83811015610d76578082015181840152602081019050610d5b565b50505050905090810190601f168015610da35780820380516001836020036101000a031916815260200191505b50838103825284818151815260200191508051906020019080838360005b83811015610ddc578082015181840152602081019050610dc1565b50505050905090810190601f168015610e095780820380516001836020036101000a031916815260200191505b5094505050505060405180910390f35b348015610e2557600080fd5b50610e5260048036036020811015610e3c57600080fd5b8101908080359060200190929190505050613045565b60405180858152602001848152602001831515151581526020018215151515815260200194505050505060405180910390f35b348015610e9157600080fd5b50610ebe60048036036020811015610ea857600080fd5b81019080803590602001909291905050506130d0565b005b348015610ecc57600080fd5b50610ef960048036036020811015610ee357600080fd5b8101908080359060200190929190505050613327565b6040518080602001828103825283818151815260200191508051906020019080838360005b83811015610f39578082015181840152602081019050610f1e565b50505050905090810190601f168015610f665780820380516001836020036101000a031916815260200191505b509250505060405180910390f35b348015610f8057600080fd5b50610fad60048036036020811015610f9757600080fd5b81019080803590602001909291905050506134b6565b6040518082815260200191505060405180910390f35b348015610fcf57600080fd5b50610ffc60048036036020811015610fe657600080fd5b81019080803590602001909291905050506134f2565b005b34801561100a57600080fd5b5061128d600480360360a081101561102157600080fd5b81019080803590602001909291908035906020019064010000000081111561104857600080fd5b82018360208201111561105a57600080fd5b8035906020019184602083028401116401000000008311171561107c57600080fd5b919080806020026020016040519081016040528093929190818152602001838360200280828437600081840152601f19601f820116905080830192505050505050509192919290803590602001906401000000008111156110dc57600080fd5b8201836020820111156110ee57600080fd5b8035906020019184602083028401116401000000008311171561111057600080fd5b919080806020026020016040519081016040528093929190818152602001838360200280828437600081840152601f19601f8201169050808301925050505050505091929192908035906020019064010000000081111561117057600080fd5b82018360208201111561118257600080fd5b803590602001918460018302840111640100000000831117156111a457600080fd5b91908080601f016020809104026020016040519081016040528093929190818152602001838380828437600081840152601f19601f8201169050808301925050505050505091929192908035906020019064010000000081111561120757600080fd5b82018360208201111561121957600080fd5b8035906020019184600183028401116401000000008311171561123b57600080fd5b91908080601f016020809104026020016040519081016040528093929190818152602001838380828437600081840152601f19601f820116905080830192505050505050509192919290505050613979565b005b34801561129b57600080fd5b506112a4613d43565b6040518082815260200191505060405180910390f35b3480156112c657600080fd5b50611380600480360360208110156112dd57600080fd5b81019080803590602001906401000000008111156112fa57600080fd5b82018360208201111561130c57600080fd5b8035906020019184600183028401116401000000008311171561132e57600080fd5b91908080601f016020809104026020016040519081016040528093929190818152602001838380828437600081840152601f19601f820116905080830192505050505050509192919290505050613d49565b604051808215151515815260200191505060405180910390f35b60006113a5826134b6565b4210159050919050565b60055481565b3373ffffffffffffffffffffffffffffffffffffffff166007600084815260200190815260200160002060000160009054906101000a900473ffffffffffffffffffffffffffffffffffffffff1673ffffffffffffffffffffffffffffffffffffffff161461146f576040517f08c379a00000000000000000000000000000000000000000000000000000000081526004018080602001828103825260268152602001806143166026913960400191505060405180910390fd5b600115156007600084815260200190815260200160002060090160008373ffffffffffffffffffffffffffffffffffffffff1673ffffffffffffffffffffffffffffffffffffffff16815260200190815260200160002060009054906101000a900460ff1615151461152c576040517f08c379a00000000000000000000000000000000000000000000000000000000081526004018080602001828103825260338152602001806142426033913960400191505060405180910390fd5b6115358261139a565b1561158b576040517f08c379a000000000000000000000000000000000000000000000000000000000815260040180806020018281038252602a815260200180614522602a913960400191505060405180910390fd5b6001151560076000848152602001908152602001600020600a0160008373ffffffffffffffffffffffffffffffffffffffff1673ffffffffffffffffffffffffffffffffffffffff16815260200190815260200160002060009054906101000a900460ff1615151415611649576040517f08c379a00000000000000000000000000000000000000000000000000000000081526004018080602001828103825260298152602001806141336029913960400191505060405180910390fd5b600160076000848152602001908152602001600020600a0160008373ffffffffffffffffffffffffffffffffffffffff1673ffffffffffffffffffffffffffffffffffffffff16815260200190815260200160002060006101000a81548160ff02191690831515021790555060076000838152602001908152602001600020600d018190806001815401808255809150509060018203906000526020600020016000909192909190916101000a81548173ffffffffffffffffffffffffffffffffffffffff021916908373ffffffffffffffffffffffffffffffffffffffff160217905550505050565b60606007600083815260200190815260200160002060000160009054906101000a900473ffffffffffffffffffffffffffffffffffffffff1673ffffffffffffffffffffffffffffffffffffffff163373ffffffffffffffffffffffffffffffffffffffff16148061180957506001151560076000848152602001908152602001600020600a0160003373ffffffffffffffffffffffffffffffffffffffff1673ffffffffffffffffffffffffffffffffffffffff16815260200190815260200160002060009054906101000a900460ff161515145b61185e576040517f08c379a00000000000000000000000000000000000000000000000000000000081526004018080602001828103825260298152602001806141e56029913960400191505060405180910390fd5b600860008381526020019081526020016000206000018054600181600116156101000203166002900480601f0160208091040260200160405190810160405280929190818152602001828054600181600116156101000203166002900480156119085780601f106118dd57610100808354040283529160200191611908565b820191906000526020600020905b8154815290600101906020018083116118eb57829003601f168201915b50505050509050919050565b60076020528060005260406000206000915090508060000160009054906101000a900473ffffffffffffffffffffffffffffffffffffffff1690806001018054600181600116156101000203166002900480601f0160208091040260200160405190810160405280929190818152602001828054600181600116156101000203166002900480156119e65780601f106119bb576101008083540402835291602001916119e6565b820191906000526020600020905b8154815290600101906020018083116119c957829003601f168201915b505050505090806002018054600181600116156101000203166002900480601f016020809104026020016040519081016040528092919081815260200182805460018160011615610100020316600290048015611a845780601f10611a5957610100808354040283529160200191611a84565b820191906000526020600020905b815481529060010190602001808311611a6757829003601f168201915b505050505090806003018054600181600116156101000203166002900480601f016020809104026020016040519081016040528092919081815260200182805460018160011615610100020316600290048015611b225780601f10611af757610100808354040283529160200191611b22565b820191906000526020600020905b815481529060010190602001808311611b0557829003601f168201915b5050505050908060040154908060050154908060060154908060070160009054906101000a900460ff16908060070160019054906101000a900460ff1690806008015490508a565b606060076000838152602001908152602001600020600d01805480602002602001604051908101604052809291908181526020018280548015611c0257602002820191906000526020600020905b8160009054906101000a900473ffffffffffffffffffffffffffffffffffffffff1673ffffffffffffffffffffffffffffffffffffffff1681526020019060010190808311611bb8575b50505050509050919050565b600115156007600083815260200190815260200160002060070160019054906101000a900460ff16151514611c8e576040517f08c379a00000000000000000000000000000000000000000000000000000000081526004018080602001828103825260348152602001806143616034913960400191505060405180910390fd5b6001151560076000838152602001908152602001600020600a0160003373ffffffffffffffffffffffffffffffffffffffff1673ffffffffffffffffffffffffffffffffffffffff16815260200190815260200160002060009054906101000a900460ff16151514611d4b576040517f08c379a00000000000000000000000000000000000000000000000000000000081526004018080602001828103825260338152602001806141806033913960400191505060405180910390fd5b600115156008600083815260200190815260200160002060030160003373ffffffffffffffffffffffffffffffffffffffff1673ffffffffffffffffffffffffffffffffffffffff16815260200190815260200160002060009054906101000a900460ff1615151415611e09576040517f08c379a000000000000000000000000000000000000000000000000000000000815260040180806020018281038252602a815260200180614395602a913960400191505060405180910390fd5b3373ffffffffffffffffffffffffffffffffffffffff166108fc6008600084815260200190815260200160002060020160003373ffffffffffffffffffffffffffffffffffffffff1673ffffffffffffffffffffffffffffffffffffffff168152602001908152602001600020549081150290604051600060405180830381858888f19350505050158015611ea2573d6000803e3d6000fd5b5060016008600083815260200190815260200160002060030160003373ffffffffffffffffffffffffffffffffffffffff1673ffffffffffffffffffffffffffffffffffffffff16815260200190815260200160002060006101000a81548160ff02191690831515021790555050565b60008060006007600085815260200190815260200160002060000160009054906101000a900473ffffffffffffffffffffffffffffffffffffffff16600760008681526020019081526020016000206004015460076000878152602001908152602001600020600801548292509250925092509193909250565b600060076000838152602001908152602001600020600d01805490509050919050565b60006007600083815260200190815260200160002060090160003373ffffffffffffffffffffffffffffffffffffffff1673ffffffffffffffffffffffffffffffffffffffff16815260200190815260200160002060009054906101000a900460ff169050919050565b60005481565b600060076000838152602001908152602001600020600401549050919050565b3373ffffffffffffffffffffffffffffffffffffffff166007600083815260200190815260200160002060000160009054906101000a900473ffffffffffffffffffffffffffffffffffffffff1673ffffffffffffffffffffffffffffffffffffffff1614612116576040517f08c379a000000000000000000000000000000000000000000000000000000000815260040180806020018281038252601a8152602001807f4f6e6c79206a6f62206f776e65722063616e20656e64206a6f6200000000000081525060200191505060405180910390fd5b6000612121826134b6565b90508042101561217c576040517f08c379a00000000000000000000000000000000000000000000000000000000081526004018080602001828103825260438152602001806140f06043913960600191505060405180910390fd5b6007600083815260200190815260200160002060070160009054906101000a900460ff16156121f6576040517f08c379a00000000000000000000000000000000000000000000000000000000081526004018080602001828103825260318152602001806142a96031913960400191505060405180910390fd5b6121ff8261201f565b61220883611f8c565b1061225e576040517f08c379a000000000000000000000000000000000000000000000000000000000815260040180806020018281038252603c8152602001806142da603c913960400191505060405180910390fd5b606060076000848152602001908152602001600020600c018054806020026020016040519081016040528092919081815260200182805480156122f657602002820191906000526020600020905b8160009054906101000a900473ffffffffffffffffffffffffffffffffffffffff1673ffffffffffffffffffffffffffffffffffffffff16815260200190600101908083116122ac575b5050505050905060008090505b815181101561244c57600082828151811061231a57fe5b60200260200101519050600115156007600087815260200190815260200160002060090160008373ffffffffffffffffffffffffffffffffffffffff1673ffffffffffffffffffffffffffffffffffffffff16815260200190815260200160002060009054906101000a900460ff161515141561243e578073ffffffffffffffffffffffffffffffffffffffff166108fc6005549081150290604051600060405180830381858888f193505050501580156123d9573d6000803e3d6000fd5b506007600086815260200190815260200160002060090160008273ffffffffffffffffffffffffffffffffffffffff1673ffffffffffffffffffffffffffffffffffffffff16815260200190815260200160002060006101000a81549060ff02191690555b508080600101915050612303565b503373ffffffffffffffffffffffffffffffffffffffff166108fc60076000868152602001908152602001600020600801549081150290604051600060405180830381858888f193505050501580156124a9573d6000803e3d6000fd5b503373ffffffffffffffffffffffffffffffffffffffff166108fc6004549081150290604051600060405180830381858888f193505050501580156124f2573d6000803e3d6000fd5b50505050565b606060076000838152602001908152602001600020600c0180548060200260200160405190810160405280929190818152602001828054801561259057602002820191906000526020600020905b8160009054906101000a900473ffffffffffffffffffffffffffffffffffffffff1673ffffffffffffffffffffffffffffffffffffffff1681526020019060010190808311612546575b50505050509050919050565b600060076000838152602001908152602001600020600c01805490509050919050565b60006001151560076000848152602001908152602001600020600a0160003373ffffffffffffffffffffffffffffffffffffffff1673ffffffffffffffffffffffffffffffffffffffff16815260200190815260200160002060009054906101000a900460ff1615151461267e576040517f08c379a000000000000000000000000000000000000000000000000000000000815260040180806020018281038252602f8152602001806144f3602f913960400191505060405180910390fd5b6008600083815260200190815260200160002060030160003373ffffffffffffffffffffffffffffffffffffffff1673ffffffffffffffffffffffffffffffffffffffff16815260200190815260200160002060009054906101000a900460ff169050919050565b6126ef86612980565b612744576040517f08c379a000000000000000000000000000000000000000000000000000000000815260040180806020018281038252603081526020018061408b6030913960400191505060405180910390fd5b806004540134146127a0576040517f08c379a00000000000000000000000000000000000000000000000000000000081526004018080602001828103825260348152602001806142756034913960400191505060405180910390fd5b60606040518061018001604052803373ffffffffffffffffffffffffffffffffffffffff16815260200188815260200187815260200186815260200185815260200142815260200184815260200160001515815260200160001515815260200183815260200182815260200182815250600760008054815260200190815260200160002060008201518160000160006101000a81548173ffffffffffffffffffffffffffffffffffffffff021916908373ffffffffffffffffffffffffffffffffffffffff1602179055506020820151816001019080519060200190612887929190613e98565b5060408201518160020190805190602001906128a4929190613e98565b5060608201518160030190805190602001906128c1929190613e98565b506080820151816004015560a0820151816005015560c0820151816006015560e08201518160070160006101000a81548160ff0219169083151502179055506101008201518160070160016101000a81548160ff021916908315150217905550610120820151816008015561014082015181600c019080519060200190612949929190613f18565b5061016082015181600d019080519060200190612967929190613f18565b5090505060016000540160008190555050505050505050565b600080600260009054906101000a900473ffffffffffffffffffffffffffffffffffffffff1673ffffffffffffffffffffffffffffffffffffffff166368ebd4e8846040518263ffffffff1660e01b81526004018080602001828103825283818151815260200191508051906020019080838360005b83811015612a115780820151818401526020810190506129f6565b50505050905090810190601f168015612a3e5780820380516001836020036101000a031916815260200191505b509250505060206040518083038186803b158015612a5b57600080fd5b505afa158015612a6f573d6000803e3d6000fd5b505050506040513d6020811015612a8557600080fd5b810190808051906020019092919050505090503373ffffffffffffffffffffffffffffffffffffffff168173ffffffffffffffffffffffffffffffffffffffff1614915050919050565b60035481565b6007600083815260200190815260200160002060000160009054906101000a900473ffffffffffffffffffffffffffffffffffffffff1673ffffffffffffffffffffffffffffffffffffffff163373ffffffffffffffffffffffffffffffffffffffff161415612b90576040517f08c379a00000000000000000000000000000000000000000000000000000000081526004018080602001828103825260248152602001806143bf6024913960400191505060405180910390fd5b612b9981613d49565b612c0b576040517f08c379a00000000000000000000000000000000000000000000000000000000081526004018080602001828103825260208152602001807f4e65656420746f206265206f776e6572206f662074686973206461746173657481525060200191505060405180910390fd5b612c148261139a565b15612c6a576040517f08c379a000000000000000000000000000000000000000000000000000000000815260040180806020018281038252602a815260200180614522602a913960400191505060405180910390fd5b6005543414612cc4576040517f08c379a000000000000000000000000000000000000000000000000000000000815260040180806020018281038252602481526020018061415c6024913960400191505060405180910390fd5b600115156007600084815260200190815260200160002060090160003373ffffffffffffffffffffffffffffffffffffffff1673ffffffffffffffffffffffffffffffffffffffff16815260200190815260200160002060009054906101000a900460ff1615151415612d9f576040517f08c379a000000000000000000000000000000000000000000000000000000000815260040180806020018281038252601f8152602001807f20416c72656164792072656769737465726564206f6e2074686973206a6f620081525060200191505060405180910390fd5b60016007600084815260200190815260200160002060090160003373ffffffffffffffffffffffffffffffffffffffff1673ffffffffffffffffffffffffffffffffffffffff16815260200190815260200160002060006101000a81548160ff0219169083151502179055508060076000848152602001908152602001600020600b0160003373ffffffffffffffffffffffffffffffffffffffff1673ffffffffffffffffffffffffffffffffffffffff1681526020019081526020016000209080519060200190612e72929190613fa2565b5060076000838152602001908152602001600020600c013390806001815401808255809150509060018203906000526020600020016000909192909190916101000a81548173ffffffffffffffffffffffffffffffffffffffff021916908373ffffffffffffffffffffffffffffffffffffffff160217905550505050565b6008602052806000526040600020600091509050806000018054600181600116156101000203166002900480601f016020809104026020016040519081016040528092919081815260200182805460018160011615610100020316600290048015612f9d5780601f10612f7257610100808354040283529160200191612f9d565b820191906000526020600020905b815481529060010190602001808311612f8057829003601f168201915b505050505090806001018054600181600116156101000203166002900480601f01602080910402602001604051908101604052809291908181526020018280546001816001161561010002031660029004801561303b5780601f106130105761010080835404028352916020019161303b565b820191906000526020600020905b81548152906001019060200180831161301e57829003601f168201915b5050505050905082565b600080600080600760008681526020019081526020016000206005015460076000878152602001908152602001600020600601546007600088815260200190815260200160002060070160009054906101000a900460ff166007600089815260200190815260200160002060070160019054906101000a900460ff1693509350935093509193509193565b60006130db826134b6565b90506000600354820190508042101561313f576040517f08c379a00000000000000000000000000000000000000000000000000000000081526004018080602001828103825260358152602001806140bb6035913960400191505060405180910390fd5b6007600084815260200190815260200160002060070160009054906101000a900460ff16156131b9576040517f08c379a00000000000000000000000000000000000000000000000000000000081526004018080602001828103825260318152602001806142a96031913960400191505060405180910390fd5b600115156007600085815260200190815260200160002060090160003373ffffffffffffffffffffffffffffffffffffffff1673ffffffffffffffffffffffffffffffffffffffff16815260200190815260200160002060009054906101000a900460ff16151514613276576040517f08c379a00000000000000000000000000000000000000000000000000000000081526004018080602001828103825260368152602001806144086036913960400191505060405180910390fd5b3373ffffffffffffffffffffffffffffffffffffffff166108fc6005549081150290604051600060405180830381858888f193505050501580156132be573d6000803e3d6000fd5b506007600084815260200190815260200160002060090160003373ffffffffffffffffffffffffffffffffffffffff1673ffffffffffffffffffffffffffffffffffffffff16815260200190815260200160002060006101000a81549060ff0219169055505050565b60606007600083815260200190815260200160002060000160009054906101000a900473ffffffffffffffffffffffffffffffffffffffff1673ffffffffffffffffffffffffffffffffffffffff163373ffffffffffffffffffffffffffffffffffffffff1614613400576040517f08c379a000000000000000000000000000000000000000000000000000000000815260040180806020018281038252601d8152602001807f4f6e6c79206f776e65722063616e20616363657373207765696768747300000081525060200191505060405180910390fd5b600860008381526020019081526020016000206001018054600181600116156101000203166002900480601f0160208091040260200160405190810160405280929190818152602001828054600181600116156101000203166002900480156134aa5780601f1061347f576101008083540402835291602001916134aa565b820191906000526020600020905b81548152906001019060200180831161348d57829003601f168201915b50505050509050919050565b6000610e106007600084815260200190815260200160002060060154026007600084815260200190815260200160002060050154019050919050565b3373ffffffffffffffffffffffffffffffffffffffff166007600083815260200190815260200160002060000160009054906101000a900473ffffffffffffffffffffffffffffffffffffffff1673ffffffffffffffffffffffffffffffffffffffff16146135c9576040517f08c379a00000000000000000000000000000000000000000000000000000000081526004018080602001828103825260208152602001807f4a6f622063616e206f6e6c792062652073746172746564206279206f776e657281525060200191505060405180910390fd5b6135d28161139a565b613627576040517f08c379a00000000000000000000000000000000000000000000000000000000081526004018080602001828103825260328152602001806141b36032913960400191505060405180910390fd5b6000613632826134b6565b9050600060035482019050804211156136b3576040517f08c379a00000000000000000000000000000000000000000000000000000000081526004018080602001828103825260208152602001807f546f6f206c61746520746f20737461727420747261696e696e67206d6f64656c81525060200191505060405180910390fd5b600760008481526020019081526020016000206004015460076000858152602001908152602001600020600d0180549050101561373b576040517f08c379a000000000000000000000000000000000000000000000000000000000815260040180806020018281038252602581526020018061433c6025913960400191505060405180910390fd5b60016007600085815260200190815260200160002060070160006101000a81548160ff021916908315150217905550606060076000858152602001908152602001600020600c0180548060200260200160405190810160405280929190818152602001828054801561380257602002820191906000526020600020905b8160009054906101000a900473ffffffffffffffffffffffffffffffffffffffff1673ffffffffffffffffffffffffffffffffffffffff16815260200190600101908083116137b8575b5050505050905060008090505b8151811015613907576001151560076000878152602001908152602001600020600a01600084848151811061384057fe5b602002602001015173ffffffffffffffffffffffffffffffffffffffff1673ffffffffffffffffffffffffffffffffffffffff16815260200190815260200160002060009054906101000a900460ff161515146138fa5760008282815181106138a557fe5b602002602001015190508073ffffffffffffffffffffffffffffffffffffffff166108fc6005549081150290604051600060405180830381858888f193505050501580156138f7573d6000803e3d6000fd5b50505b808060010191505061380f565b50600660009054906101000a900473ffffffffffffffffffffffffffffffffffffffff1673ffffffffffffffffffffffffffffffffffffffff166108fc6004549081150290604051600060405180830381858888f19350505050158015613972573d6000803e3d6000fd5b5050505050565b600660009054906101000a900473ffffffffffffffffffffffffffffffffffffffff1673ffffffffffffffffffffffffffffffffffffffff163373ffffffffffffffffffffffffffffffffffffffff1614613a1f576040517f08c379a000000000000000000000000000000000000000000000000000000000815260040180806020018281038252603681526020018061446f6036913960400191505060405180910390fd5b8251845114613a79576040517f08c379a000000000000000000000000000000000000000000000000000000000815260040180806020018281038252603181526020018061443e6031913960400191505060405180910390fd5b60076000868152602001908152602001600020600d0180549050835114613aeb576040517f08c379a000000000000000000000000000000000000000000000000000000000815260040180806020018281038252603481526020018061420e6034913960400191505060405180910390fd5b600115156007600087815260200190815260200160002060070160019054906101000a900460ff1615151415613b6c576040517f08c379a000000000000000000000000000000000000000000000000000000000815260040180806020018281038252604e8152602001806144a5604e913960600191505060405180910390fd5b600080905060008090505b8551811015613ba557858181518110613b8c57fe5b6020026020010151820191508080600101915050613b77565b506007600087815260200190815260200160002060080154811115613c15576040517f08c379a00000000000000000000000000000000000000000000000000000000081526004018080602001828103825260258152602001806143e36025913960400191505060405180910390fd5b60008090505b8451811015613cb5576000858281518110613c3257fe5b60200260200101519050868281518110613c4857fe5b6020026020010151600860008a815260200190815260200160002060020160008373ffffffffffffffffffffffffffffffffffffffff1673ffffffffffffffffffffffffffffffffffffffff16815260200190815260200160002081905550508080600101915050613c1b565b5060016007600088815260200190815260200160002060070160016101000a81548160ff02191690831515021790555082600860008881526020019081526020016000206000019080519060200190613d0f929190613fa2565b5081600860008881526020019081526020016000206001019080519060200190613d3a929190613fa2565b50505050505050565b60045481565b600080600160009054906101000a900473ffffffffffffffffffffffffffffffffffffffff1673ffffffffffffffffffffffffffffffffffffffff16635c06c902846040518263ffffffff1660e01b81526004018080602001828103825283818151815260200191508051906020019080838360005b83811015613dda578082015181840152602081019050613dbf565b50505050905090810190601f168015613e075780820380516001836020036101000a031916815260200191505b509250505060206040518083038186803b158015613e2457600080fd5b505afa158015613e38573d6000803e3d6000fd5b505050506040513d6020811015613e4e57600080fd5b810190808051906020019092919050505090503373ffffffffffffffffffffffffffffffffffffffff168173ffffffffffffffffffffffffffffffffffffffff1614915050919050565b828054600181600116156101000203166002900490600052602060002090601f016020900481019282601f10613ed957805160ff1916838001178555613f07565b82800160010185558215613f07579182015b82811115613f06578251825591602001919060010190613eeb565b5b509050613f149190614022565b5090565b828054828255906000526020600020908101928215613f91579160200282015b82811115613f905782518260006101000a81548173ffffffffffffffffffffffffffffffffffffffff021916908373ffffffffffffffffffffffffffffffffffffffff16021790555091602001919060010190613f38565b5b509050613f9e9190614047565b5090565b828054600181600116156101000203166002900490600052602060002090601f016020900481019282601f10613fe357805160ff1916838001178555614011565b82800160010185558215614011579182015b82811115614010578251825591602001919060010190613ff5565b5b50905061401e9190614022565b5090565b61404491905b80821115614040576000816000905550600101614028565b5090565b90565b61408791905b8082111561408357600081816101000a81549073ffffffffffffffffffffffffffffffffffffffff02191690555060010161404d565b5090565b9056fe4f6e6c79206d6f64656c206f776e65722063616e206372656174652061206a6f6220666f722074686973206d6f64656c43616e206f6e6c792077697468647261772066756e647320616674657220747261696e696e6720737461727420646561646c696e654a6f622063616e206f6e6c7920656e6420776974686f757420747261696e696e672061667465722074686520747261696e696e6720737461727420646561646c696e6544617461736574206f776e657220616c726561647920616464656420746f20616c6c6f77206c6973744e65656420746f2073656e642074686520636f727265637420686f6c64696e672066656543616e2774207265636569766520636f6d70656e736174696f6e206966206e6f742061206a6f62207061727469636970616e74526567697374726174696f6e20706572696f6420666f722074686973206a6f6220686173206e6f742079657420656e6465644f6e6c792061206a6f62207061727469636970616e742063616e2061636365737320726573756c74734e756d626572206f6620636c69656e7473206d757374206d61746368206e756d626572206f6620616c6c6f77656420757365727343616e206f6e6c792061646420616e20696e74657265737465642064617461206f776e657220746f20616c6c6f77206c6973744e65656420746f2073656e642074686520636f7272656374206a6f62206372656174696f6e2066656520616e6420626f756e747943616e206f6e6c792077697468647261772066756e647320696620747261696e696e67206e65766572207374617274656453756666696369656e74206e756d626572206f6620636c69656e7473206f6e20616c6c6f77206c69737420746f20737461727420747261696e696e674e65656420746f20626520726567697374657265642061732064617461736574206f776e65724d696e696d756d206e756d626572206f6620636c69656e7473206e6f74207265616368656443616e2774207265636569766520636f6d70656e736174696f6e20756e74696c207375636365737366756c20747261696e696e67416c726561647920726563656976656420636f6d70656e736174696f6e20666f722074686973206a6f624a6f62206f776e65722063616e6e6f74207369676e207570206173206120636c69656e7443616e277420706179206f7574206d6f7265207468616e20626f756e747920616d6f756e744f6e6c7920616e20616c726561647920726567697374657265642064617461206f776e65722063616e207769746864726177206665654e756d626572206f6620636c69656e7473206d757374206d6174636820636f6d70656e736174696f6e20616d6f756e74734f6e6c79207365727665722063616e20656e6420747261696e696e6720616e6420696e69746961746520636f6d70656e736174696f6e547261696e696e672068617320656e64656420616e6420636f6d70656e736174696f6e2068617320616c7265616479206265656e207370656e74206f757420746f207061727469636970616e747355736572206e6f7420656c696769626c6520666f7220636f6d70656e736174696f6e20666f722074686973206a6f62526567697374726174696f6e20706572696f6420666f722074686973206a6f622068617320656e646564a265627a7a72315820ca5007510b5f9164fb809bfba67ff0eef633c2e2785a3c6853c1a5599f9594ae64736f6c63430005100032",
  "source": "pragma solidity >=0.5.16;\n\ncontract ModelDatabase {\n    function getModelOwner(string memory _ipfsHash) public view returns(address) {}\n}\n\ncontract DatasetDatabase {\n    function getDatasetOwner(string memory _ipfsHash) public view returns(address) {}\n}\n\ncontract Jobs {\n\n    uint public jobsCreated = 0;\n\n    DatasetDatabase datasetDatabase;\n    ModelDatabase modelDatabase;\n\n    uint public gracePeriod = 1 hours;\n\n    uint public jobCreationFee = 1e6 wei;\n\n    uint public holdingFee = 1e6 wei;\n\n    address payable private serverAddress = 0x12F0F455D3e769b247518747dd731E9c61366E97;\n\n    struct Job {\n        address payable owner;\n        string modelIpfsHash;\n        string strategyHash;\n        string testDatasetHash;\n        uint minClients;\n        uint initTime;\n        uint hoursUntilStart;\n        bool trainingStarted;\n        bool trainingEnded;\n        uint bounty;\n        mapping(address => bool) datasetOwners;\n        mapping(address => bool)  allowList;\n        mapping(address => string) datasetHash;\n        address payable[] arrDatasetOwners;\n        address payable[] arrAllowList;\n    }\n\n    struct JobResults {\n        string resultsHash;\n        string weightsHash;\n        mapping(address => uint) compensation;\n        mapping(address => bool) isCompensated;\n    }\n\n    mapping(uint => Job) public jobs;\n    mapping(uint => JobResults) public jobResults;\n\n    constructor(address _contractAddressDatasets, address _contractAddressModels) public {\n        datasetDatabase = DatasetDatabase(_contractAddressDatasets);\n        modelDatabase = ModelDatabase(_contractAddressModels);\n    }\n\n    function isSenderModelOwner(string memory _modelIpfsHash) public view returns(bool) {\n        address owner = modelDatabase.getModelOwner(_modelIpfsHash);\n        return (owner == msg.sender);\n    }\n\n    function isSenderDatasetOwner(string memory _datasetIpfsHash) public view returns(bool) {\n        address owner = datasetDatabase.getDatasetOwner(_datasetIpfsHash);\n        return (owner == msg.sender);\n    }\n\n    function getJobStartTime(uint _id) public view returns(uint) {\n        return jobs[_id].initTime + jobs[_id].hoursUntilStart * 1 hours;\n    }\n\n    function registrationPeriodOver(uint _id) public view returns(bool) {\n        return (block.timestamp >= getJobStartTime(_id));\n    }\n\n    function createJob(string memory _modelIpfsHash, string memory _strategyHash, string memory _testDatasetHash, uint _minClients, uint _hoursUntilStart,\n        uint _bounty) public payable {\n\n        // Check the Job creator is model owner\n        require(isSenderModelOwner(_modelIpfsHash),\"Only model owner can create a job for this model\");\n\n        // Check user has paid the correct bounty and job Creation Fee\n        require(msg.value == jobCreationFee + _bounty,\"Need to send the correct job creation fee and bounty\");\n\n        address payable[] memory init;\n\n        jobs[jobsCreated] = Job({owner: msg.sender,\n                                modelIpfsHash: _modelIpfsHash,\n                                strategyHash: _strategyHash,\n                                testDatasetHash: _testDatasetHash,\n                                minClients: _minClients,\n                                initTime: block.timestamp,\n                                hoursUntilStart: _hoursUntilStart,\n                                bounty: _bounty,\n                                trainingStarted: false,\n                                trainingEnded: false,\n                                arrDatasetOwners: init,\n                                arrAllowList: init}\n                                );\n\n        jobsCreated = jobsCreated + 1;\n    }\n\n\n    // Called by dataset owners to register their willingness to join a jobs\n    // Owners registers a particular dataset and\n    function registerDatasetOwner(uint _id, string memory _datasetIpfsHash) public payable {\n        // Check user is not model owner\n        require(msg.sender != jobs[_id].owner, \"Job owner cannot sign up as a client\");\n\n        // Check if user is dataset owner\n        require(isSenderDatasetOwner(_datasetIpfsHash), \"Need to be owner of this dataset\");\n\n\n        // Check job is still in registration period\n        if (registrationPeriodOver(_id)){\n            revert(\"Registration period for this job has ended\");\n        }\n\n        // Check user has paid the correct holding fee\n        require(msg.value == holdingFee,\"Need to send the correct holding fee\");\n\n\n        // Check if already registered\n        if(jobs[_id].datasetOwners[msg.sender] == true){\n            revert(\" Already registered on this job\");\n        }\n\n        // Add dataset owner's address to list of owner addresses comitted to job\n        jobs[_id].datasetOwners[msg.sender] = true;\n        jobs[_id].datasetHash[msg.sender] = _datasetIpfsHash;\n        jobs[_id].arrDatasetOwners.push(msg.sender);\n\n    }\n\n    // Called by Job owner to allow registered Clients to partake in job i.e. download model\n    function addToAllowList(uint _id, address payable _datasetOwner) public {\n        // Check user is job owner\n        require(jobs[_id].owner == msg.sender, \"Need to be registered as dataset owner\");\n\n        // Check address is in registry of interested owners\n        require(jobs[_id].datasetOwners[_datasetOwner] == true, \"Can only add an interested data owner to allow list\");\n\n        // Check job is still in registration period\n        if (registrationPeriodOver(_id)){\n            revert(\"Registration period for this job has ended\");\n        }\n\n        // Check if dataset owner already registered on allowList\n        if (jobs[_id].allowList[_datasetOwner] == true){\n            revert(\"Dataset owner already added to allow list\");\n        }\n\n        jobs[_id].allowList[_datasetOwner] = true;\n        jobs[_id].arrAllowList.push(_datasetOwner);\n    }\n\n    function getNumRegistered(uint _id) public view returns(uint){\n        return jobs[_id].arrDatasetOwners.length;\n    }\n\n    function getNumAllow(uint _id) public view returns(uint){\n        return jobs[_id].arrAllowList.length;\n    }\n\n    function getJobRegistered(uint _id) public view returns(address payable [] memory){\n      return jobs[_id].arrDatasetOwners;\n    }\n\n    function getJobAllowed(uint _id) public view returns(address payable [] memory){\n      return jobs[_id].arrAllowList;\n    }\n\n    function getJobDetails(uint _id) public view returns(address, uint, uint){\n        return (jobs[_id].owner, jobs[_id].minClients, jobs[_id].bounty);\n    }\n\n    function getJobStatus(uint _id) public view returns(uint, uint, bool, bool){\n        return (jobs[_id].initTime, jobs[_id].hoursUntilStart, jobs[_id].trainingStarted, jobs[_id].trainingEnded);\n    }\n\n    function getMinClients(uint _id) public view returns(uint) {\n        return jobs[_id].minClients;\n    }\n\n    function startJob(uint _id) public{\n        // Can only be started by owner of job\n        if (jobs[_id].owner != msg.sender){\n            revert(\"Job can only be started by owner\");\n        }\n\n        // Check registration period has ended\n        if (!registrationPeriodOver(_id)){\n            revert(\"Registration period for this job has not yet ended\");\n        }\n\n        // Check grace period not over\n        uint jobStartTime = getJobStartTime(_id);\n        uint deadline = jobStartTime + gracePeriod;\n        if (block.timestamp > deadline){\n            revert(\"Too late to start training model\");\n        }\n\n        if (jobs[_id].arrAllowList.length < jobs[_id].minClients) {\n            revert(\"Minimum number of clients not reached\");\n        }\n\n        // Set training started status as true\n        jobs[_id].trainingStarted = true;\n\n        // List of owners registered for this job\n        address payable[] memory registeredDatasetOwners = jobs[_id].arrDatasetOwners;\n\n        // Check every register data owner, if they are not on allow list, they get their fee back when training starts\n        for (uint i=0; i<registeredDatasetOwners.length; i++) {\n            if (jobs[_id].allowList[registeredDatasetOwners[i]] != true) {\n                address payable payee = registeredDatasetOwners[i];\n                payee.transfer(holdingFee);\n            }\n        }\n\n        // return job fee to client\n        //msg.sender.transfer(jobCreationFee);\n        serverAddress.transfer(jobCreationFee);\n\n    }\n\n    function withdrawFee(uint _id) public{\n        // Check grace period over\n        uint jobStartTime = getJobStartTime(_id);\n        uint deadline = jobStartTime + gracePeriod;\n        if (block.timestamp < deadline){\n            revert(\"Can only withdraw funds after training start deadline\");\n        }\n\n        // To withdraw funds, need training not to have started\n        require(!jobs[_id].trainingStarted, \"Can only withdraw funds if training never started\");\n\n        // Only a data owner registered to job can withdraw funds\n        require(jobs[_id].datasetOwners[msg.sender] == true, \"Only an already registered data owner can withdraw fee\");\n\n        // Send holding fee to job registered user\n        msg.sender.transfer(holdingFee);\n\n        // remove Client from datasetOwners list to prevent withdrawing fee again\n        delete(jobs[_id].datasetOwners[msg.sender]);\n    }\n\n    function endFailedJob(uint _id) public {\n        // Only the owner of the job can end it\n        require(jobs[_id].owner == msg.sender, \"Only job owner can end job\");\n\n        // Check grace period over\n        uint jobStartTime = getJobStartTime(_id);\n        if (block.timestamp < jobStartTime){\n            revert(\"Job can only end without training after the training start deadline\");\n        }\n        \n        // To end job, training should not have started\n        require(!jobs[_id].trainingStarted, \"Can only withdraw funds if training never started\");\n        \n        // To end job, length of the allow list must be smaller than minClients\n        require(getNumAllow(_id) < getMinClients(_id), \"Sufficient number of clients on allow list to start training\") ;\n        \n        // withdraw holding fee to every registered data owner\n        address payable[] memory registeredDatasetOwners = jobs[_id].arrDatasetOwners;\n        for (uint i=0; i<registeredDatasetOwners.length; i++) {\n            address payable payee = registeredDatasetOwners[i];\n            if (jobs[_id].datasetOwners[payee] == true){\n                payee.transfer(holdingFee);\n                delete(jobs[_id].datasetOwners[payee]);\n            }\n        }\n\n        // withdraw bounty to data scientist\n        msg.sender.transfer(jobs[_id].bounty);\n        msg.sender.transfer(jobCreationFee);\n    }\n\n    function isRegistered(uint _id) public view returns(bool){\n        return jobs[_id].datasetOwners[msg.sender];\n    }\n\n    function compensate(uint _id, uint [] memory _compensation, address payable [] memory _clients,\n                        string memory _resultsHash, string memory _weightsHash) public{\n\n        require(msg.sender == serverAddress,\"Only server can end training and initiate compensation\");\n\n        require(_compensation.length == _clients.length,\"Number of clients must match compensation amounts\");\n\n        require(_clients.length == jobs[_id].arrAllowList.length, \"Number of clients must match number of allowed users\");\n\n        if(jobs[_id].trainingEnded == true){\n            revert(\"Training has ended and compensation has already been spent out to participants\");\n        }\n\n        uint compensationSum = 0;\n        for (uint j=0; j<_compensation.length; j++) {\n            compensationSum = compensationSum + _compensation[j];\n        }\n\n        // Check sum of compensation array is less than job bounty\n        require(compensationSum <= jobs[_id].bounty, \"Can't pay out more than bounty amount\");\n\n        // Assign compensation amount to each client\n        for (uint i=0; i<_clients.length; i++) {\n            address payable payee = _clients[i];\n            jobResults[_id].compensation[payee] = _compensation[i];\n        }\n\n        // Set status of job as ended\n        jobs[_id].trainingEnded = true;\n        // Log results of job\n        jobResults[_id].resultsHash = _resultsHash;\n        jobResults[_id].weightsHash = _weightsHash;\n    }\n\n    function getCompensation(uint _id) public{\n\n        // Check if training for this job has successfully ended\n        require(jobs[_id].trainingEnded == true, \"Can't receive compensation until successful training\");\n\n        // Check if user was on the Allow list of the job\n        require(jobs[_id].allowList[msg.sender] == true, \"Can't receive compensation if not a job participant\");\n\n        // Ensure user is not compensated twice, can only receive compensation for job if not compensated before\n        if (jobResults[_id].isCompensated[msg.sender] == true){\n            revert(\"Already received compensation for this job\");\n        }\n\n        // Transfer to user their compensation amount\n        msg.sender.transfer(jobResults[_id].compensation[msg.sender]);\n\n        // Log that user has been compensated\n        jobResults[_id].isCompensated[msg.sender] = true;\n    }\n\n    function getWeights(uint _id) public view returns(string memory){\n        // Check user is job owner\n        require(msg.sender == jobs[_id].owner,\"Only owner can access weights\");\n\n        return(jobResults[_id].weightsHash);\n    }\n\n    function getCompensationResults(uint _id) public view returns(string memory){\n        // Check user is a job participant\n        require((msg.sender == jobs[_id].owner) || (jobs[_id].allowList[msg.sender] == true) ,\"Only a job participant can access results\");\n\n        return(jobResults[_id].resultsHash);\n    }\n\n    function isCompensated(uint _id) public view returns(bool){\n        // Check if user is a job participant first\n        require(jobs[_id].allowList[msg.sender]==true,\"User not eligible for compensation for this job\");\n\n        //Check if user has been isCompensated\n        return(jobResults[_id].isCompensated[msg.sender]);\n    }\n\n}",
  "sourcePath": "/Users/marwanmousa/University/MSc_AI/Group_Project/group-project/reactapp/BlockchainBackend/contracts/Jobs.sol",
  "compiler": {
    "name": "solc",
    "version": "0.5.16+commit.9c3226ce.Emscripten.clang"
  },
  "schemaVersion": "3.3.3",
  "updatedAt": "2021-04-22T00:11:34.366Z",
  "networkType": "ethereum",
  "devdoc": {
    "methods": {}
  },
  "userdoc": {
    "methods": {}
  }
}