{
  "contractName": "Jobs",
  "abi": [
    {
      "inputs": [
        {
          "internalType": "address",
          "name": "_contractAddressDatasets",
          "type": "address"
        },
        {
          "internalType": "address",
          "name": "_contractAddressModels",
          "type": "address"
        }
      ],
      "payable": false,
      "stateMutability": "nonpayable",
      "type": "constructor"
    },
    {
      "constant": true,
      "inputs": [],
      "name": "gracePeriod",
      "outputs": [
        {
          "internalType": "uint256",
          "name": "",
          "type": "uint256"
        }
      ],
      "payable": false,
      "stateMutability": "view",
      "type": "function"
    },
    {
      "constant": true,
      "inputs": [],
      "name": "holdingFee",
      "outputs": [
        {
          "internalType": "uint256",
          "name": "",
          "type": "uint256"
        }
      ],
      "payable": false,
      "stateMutability": "view",
      "type": "function"
    },
    {
      "constant": true,
      "inputs": [],
      "name": "jobCreationFee",
      "outputs": [
        {
          "internalType": "uint256",
          "name": "",
          "type": "uint256"
        }
      ],
      "payable": false,
      "stateMutability": "view",
      "type": "function"
    },
    {
      "constant": true,
      "inputs": [
        {
          "internalType": "uint256",
          "name": "",
          "type": "uint256"
        }
      ],
      "name": "jobResults",
      "outputs": [
        {
          "internalType": "string",
          "name": "resultsHash",
          "type": "string"
        },
        {
          "internalType": "string",
          "name": "weightsHash",
          "type": "string"
        }
      ],
      "payable": false,
      "stateMutability": "view",
      "type": "function"
    },
    {
      "constant": true,
      "inputs": [
        {
          "internalType": "uint256",
          "name": "",
          "type": "uint256"
        }
      ],
      "name": "jobs",
      "outputs": [
        {
          "internalType": "address payable",
          "name": "owner",
          "type": "address"
        },
        {
          "internalType": "string",
          "name": "modelIpfsHash",
          "type": "string"
        },
        {
          "internalType": "string",
          "name": "strategyHash",
          "type": "string"
        },
        {
          "internalType": "string",
          "name": "testDatasetHash",
          "type": "string"
        },
        {
          "internalType": "uint256",
          "name": "minClients",
          "type": "uint256"
        },
        {
          "internalType": "uint256",
          "name": "initTime",
          "type": "uint256"
        },
        {
          "internalType": "uint256",
          "name": "hoursUntilStart",
          "type": "uint256"
        },
        {
          "internalType": "bool",
          "name": "active",
          "type": "bool"
        },
        {
          "internalType": "bool",
          "name": "trainingStarted",
          "type": "bool"
        },
        {
          "internalType": "bool",
          "name": "trainingEnded",
          "type": "bool"
        },
        {
          "internalType": "uint256",
          "name": "bounty",
          "type": "uint256"
        }
      ],
      "payable": false,
      "stateMutability": "view",
      "type": "function"
    },
    {
      "constant": true,
      "inputs": [],
      "name": "jobsCreated",
      "outputs": [
        {
          "internalType": "uint256",
          "name": "",
          "type": "uint256"
        }
      ],
      "payable": false,
      "stateMutability": "view",
      "type": "function"
    },
    {
      "constant": true,
      "inputs": [
        {
          "internalType": "string",
          "name": "_modelIpfsHash",
          "type": "string"
        }
      ],
      "name": "isSenderModelOwner",
      "outputs": [
        {
          "internalType": "bool",
          "name": "",
          "type": "bool"
        }
      ],
      "payable": false,
      "stateMutability": "view",
      "type": "function"
    },
    {
      "constant": true,
      "inputs": [
        {
          "internalType": "string",
          "name": "_datasetIpfsHash",
          "type": "string"
        }
      ],
      "name": "isSenderDatasetOwner",
      "outputs": [
        {
          "internalType": "bool",
          "name": "",
          "type": "bool"
        }
      ],
      "payable": false,
      "stateMutability": "view",
      "type": "function"
    },
    {
      "constant": true,
      "inputs": [
        {
          "internalType": "uint256",
          "name": "_id",
          "type": "uint256"
        }
      ],
      "name": "getJobStartTime",
      "outputs": [
        {
          "internalType": "uint256",
          "name": "",
          "type": "uint256"
        }
      ],
      "payable": false,
      "stateMutability": "view",
      "type": "function"
    },
    {
      "constant": true,
      "inputs": [
        {
          "internalType": "uint256",
          "name": "_id",
          "type": "uint256"
        }
      ],
      "name": "getGraceDeadline",
      "outputs": [
        {
          "internalType": "uint256",
          "name": "",
          "type": "uint256"
        }
      ],
      "payable": false,
      "stateMutability": "view",
      "type": "function"
    },
    {
      "constant": true,
      "inputs": [
        {
          "internalType": "uint256",
          "name": "_id",
          "type": "uint256"
        }
      ],
      "name": "registrationPeriodOver",
      "outputs": [
        {
          "internalType": "bool",
          "name": "",
          "type": "bool"
        }
      ],
      "payable": false,
      "stateMutability": "view",
      "type": "function"
    },
    {
      "constant": false,
      "inputs": [
        {
          "internalType": "string",
          "name": "_modelIpfsHash",
          "type": "string"
        },
        {
          "internalType": "string",
          "name": "_strategyHash",
          "type": "string"
        },
        {
          "internalType": "string",
          "name": "_testDatasetHash",
          "type": "string"
        },
        {
          "internalType": "uint256",
          "name": "_minClients",
          "type": "uint256"
        },
        {
          "internalType": "uint256",
          "name": "_hoursUntilStart",
          "type": "uint256"
        },
        {
          "internalType": "uint256",
          "name": "_bounty",
          "type": "uint256"
        }
      ],
      "name": "createJob",
      "outputs": [],
      "payable": true,
      "stateMutability": "payable",
      "type": "function"
    },
    {
      "constant": false,
      "inputs": [
        {
          "internalType": "uint256",
          "name": "_id",
          "type": "uint256"
        },
        {
          "internalType": "string",
          "name": "_datasetIpfsHash",
          "type": "string"
        }
      ],
      "name": "registerDatasetOwner",
      "outputs": [],
      "payable": true,
      "stateMutability": "payable",
      "type": "function"
    },
    {
      "constant": false,
      "inputs": [
        {
          "internalType": "uint256",
          "name": "_id",
          "type": "uint256"
        },
        {
          "internalType": "address payable",
          "name": "_datasetOwner",
          "type": "address"
        }
      ],
      "name": "addToAllowList",
      "outputs": [],
      "payable": false,
      "stateMutability": "nonpayable",
      "type": "function"
    },
    {
      "constant": true,
      "inputs": [
        {
          "internalType": "uint256",
          "name": "_id",
          "type": "uint256"
        }
      ],
      "name": "getNumRegistered",
      "outputs": [
        {
          "internalType": "uint256",
          "name": "",
          "type": "uint256"
        }
      ],
      "payable": false,
      "stateMutability": "view",
      "type": "function"
    },
    {
      "constant": true,
      "inputs": [
        {
          "internalType": "uint256",
          "name": "_id",
          "type": "uint256"
        }
      ],
      "name": "getNumAllow",
      "outputs": [
        {
          "internalType": "uint256",
          "name": "",
          "type": "uint256"
        }
      ],
      "payable": false,
      "stateMutability": "view",
      "type": "function"
    },
    {
      "constant": true,
      "inputs": [
        {
          "internalType": "uint256",
          "name": "_id",
          "type": "uint256"
        }
      ],
      "name": "getJobRegistered",
      "outputs": [
        {
          "internalType": "address payable[]",
          "name": "",
          "type": "address[]"
        }
      ],
      "payable": false,
      "stateMutability": "view",
      "type": "function"
    },
    {
      "constant": true,
      "inputs": [
        {
          "internalType": "uint256",
          "name": "_id",
          "type": "uint256"
        }
      ],
      "name": "getJobAllowed",
      "outputs": [
        {
          "internalType": "address payable[]",
          "name": "",
          "type": "address[]"
        }
      ],
      "payable": false,
      "stateMutability": "view",
      "type": "function"
    },
    {
      "constant": true,
      "inputs": [
        {
          "internalType": "uint256",
          "name": "_id",
          "type": "uint256"
        }
      ],
      "name": "getJobDetails",
      "outputs": [
        {
          "internalType": "address",
          "name": "",
          "type": "address"
        },
        {
          "internalType": "uint256",
          "name": "",
          "type": "uint256"
        },
        {
          "internalType": "uint256",
          "name": "",
          "type": "uint256"
        }
      ],
      "payable": false,
      "stateMutability": "view",
      "type": "function"
    },
    {
      "constant": true,
      "inputs": [
        {
          "internalType": "uint256",
          "name": "_id",
          "type": "uint256"
        }
      ],
      "name": "getJobStatus",
      "outputs": [
        {
          "internalType": "uint256",
          "name": "",
          "type": "uint256"
        },
        {
          "internalType": "uint256",
          "name": "",
          "type": "uint256"
        },
        {
          "internalType": "bool",
          "name": "",
          "type": "bool"
        },
        {
          "internalType": "bool",
          "name": "",
          "type": "bool"
        }
      ],
      "payable": false,
      "stateMutability": "view",
      "type": "function"
    },
    {
      "constant": true,
      "inputs": [
        {
          "internalType": "uint256",
          "name": "_id",
          "type": "uint256"
        }
      ],
      "name": "getMinClients",
      "outputs": [
        {
          "internalType": "uint256",
          "name": "",
          "type": "uint256"
        }
      ],
      "payable": false,
      "stateMutability": "view",
      "type": "function"
    },
    {
      "constant": false,
      "inputs": [
        {
          "internalType": "uint256",
          "name": "_id",
          "type": "uint256"
        }
      ],
      "name": "startJob",
      "outputs": [],
      "payable": false,
      "stateMutability": "nonpayable",
      "type": "function"
    },
    {
      "constant": false,
      "inputs": [
        {
          "internalType": "uint256",
          "name": "_id",
          "type": "uint256"
        }
      ],
      "name": "withdrawFee",
      "outputs": [],
      "payable": false,
      "stateMutability": "nonpayable",
      "type": "function"
    },
    {
      "constant": false,
      "inputs": [
        {
          "internalType": "uint256",
          "name": "_id",
          "type": "uint256"
        }
      ],
      "name": "endFailedJob",
      "outputs": [],
      "payable": false,
      "stateMutability": "nonpayable",
      "type": "function"
    },
    {
      "constant": true,
      "inputs": [
        {
          "internalType": "uint256",
          "name": "_id",
          "type": "uint256"
        }
      ],
      "name": "isRegistered",
      "outputs": [
        {
          "internalType": "bool",
          "name": "",
          "type": "bool"
        }
      ],
      "payable": false,
      "stateMutability": "view",
      "type": "function"
    },
    {
      "constant": false,
      "inputs": [
        {
          "internalType": "uint256",
          "name": "_id",
          "type": "uint256"
        },
        {
          "internalType": "uint256[]",
          "name": "_compensation",
          "type": "uint256[]"
        },
        {
          "internalType": "address payable[]",
          "name": "_clients",
          "type": "address[]"
        },
        {
          "internalType": "string",
          "name": "_resultsHash",
          "type": "string"
        },
        {
          "internalType": "string",
          "name": "_weightsHash",
          "type": "string"
        }
      ],
      "name": "compensate",
      "outputs": [],
      "payable": false,
      "stateMutability": "nonpayable",
      "type": "function"
    },
    {
      "constant": false,
      "inputs": [
        {
          "internalType": "uint256",
          "name": "_id",
          "type": "uint256"
        }
      ],
      "name": "getCompensation",
      "outputs": [],
      "payable": false,
      "stateMutability": "nonpayable",
      "type": "function"
    },
    {
      "constant": true,
      "inputs": [
        {
          "internalType": "uint256",
          "name": "_id",
          "type": "uint256"
        }
      ],
      "name": "getWeights",
      "outputs": [
        {
          "internalType": "string",
          "name": "",
          "type": "string"
        }
      ],
      "payable": false,
      "stateMutability": "view",
      "type": "function"
    },
    {
      "constant": true,
      "inputs": [
        {
          "internalType": "uint256",
          "name": "_id",
          "type": "uint256"
        }
      ],
      "name": "getCompensationResults",
      "outputs": [
        {
          "internalType": "string",
          "name": "",
          "type": "string"
        }
      ],
      "payable": false,
      "stateMutability": "view",
      "type": "function"
    },
    {
      "constant": true,
      "inputs": [
        {
          "internalType": "uint256",
          "name": "_id",
          "type": "uint256"
        }
      ],
      "name": "isCompensated",
      "outputs": [
        {
          "internalType": "bool",
          "name": "",
          "type": "bool"
        }
      ],
      "payable": false,
      "stateMutability": "view",
      "type": "function"
    },
    {
      "constant": true,
      "inputs": [
        {
          "internalType": "uint256",
          "name": "_id",
          "type": "uint256"
        },
        {
          "internalType": "address",
          "name": "datasetOwner",
          "type": "address"
        }
      ],
      "name": "getDataset",
      "outputs": [
        {
          "internalType": "string",
          "name": "",
          "type": "string"
        }
      ],
      "payable": false,
      "stateMutability": "view",
      "type": "function"
    }
  ],
  "bytecode": "0x608060405260008055610e10600355620f4240600455620f424060055573c6c3f7d3e6907ea2c3174c06d188eb57c59bf59c600660006101000a81548173ffffffffffffffffffffffffffffffffffffffff021916908373ffffffffffffffffffffffffffffffffffffffff16021790555034801561007d57600080fd5b50604051620048fa380380620048fa833981810160405260408110156100a257600080fd5b81019080805190602001909291908051906020019092919050505081600160006101000a81548173ffffffffffffffffffffffffffffffffffffffff021916908373ffffffffffffffffffffffffffffffffffffffff16021790555080600260006101000a81548173ffffffffffffffffffffffffffffffffffffffff021916908373ffffffffffffffffffffffffffffffffffffffff16021790555050506147a980620001516000396000f3fe6080604052600436106101d85760003560e01c8063816b253411610102578063babd597a11610095578063e125529411610064578063e125529414611107578063f208a11414611142578063f65aaf18146113d3578063ffd5832b146113fe576101d8565b8063babd597a14610ef5578063be35761614610fc9578063d5785b7614611004578063d9d30740146110b8576101d8565b8063a06db7dc116100d1578063a06db7dc14610c79578063a335e7d514610ca4578063a3d6064514610d69578063a6c58b6314610e89576101d8565b8063816b2534146108f0578063848cb2ae1461094357806387386b7414610b4a5780638a425c8a14610c2a576101d8565b80634cac35c61161017a57806370743fc01161014957806370743fc0146107875780637413715c146107d65780637e1255c514610811578063808e0e23146108a1576101d8565b80634cac35c6146106315780634d266073146106ba578063579a6988146107095780635df199981461075c576101d8565b80630e671a02116101b65780630e671a02146102b6578063180aedf31461036a5780632215bf2214610566578063434d382d146105f6576101d8565b806309e1e911146101dd5780630c63429e146102305780630d1120491461025b575b600080fd5b3480156101e957600080fd5b506102166004803603602081101561020057600080fd5b81019080803590602001909291905050506114de565b604051808215151515815260200191505060405180910390f35b34801561023c57600080fd5b506102456114f3565b6040518082815260200191505060405180910390f35b34801561026757600080fd5b506102b46004803603604081101561027e57600080fd5b8101908080359060200190929190803573ffffffffffffffffffffffffffffffffffffffff1690602001909291905050506114f9565b005b3480156102c257600080fd5b506102ef600480360360208110156102d957600080fd5b8101908080359060200190929190505050611877565b6040518080602001828103825283818151815260200191508051906020019080838360005b8381101561032f578082015181840152602081019050610314565b50505050905090810190601f16801561035c5780820380516001836020036101000a031916815260200191505b509250505060405180910390f35b34801561037657600080fd5b506103a36004803603602081101561038d57600080fd5b8101908080359060200190929190505050611a58565b604051808c73ffffffffffffffffffffffffffffffffffffffff1673ffffffffffffffffffffffffffffffffffffffff1681526020018060200180602001806020018b81526020018a815260200189815260200188151515158152602001871515151581526020018615151515815260200185815260200184810384528e818151815260200191508051906020019080838360005b83811015610453578082015181840152602081019050610438565b50505050905090810190601f1680156104805780820380516001836020036101000a031916815260200191505b5084810383528d818151815260200191508051906020019080838360005b838110156104b957808201518184015260208101905061049e565b50505050905090810190601f1680156104e65780820380516001836020036101000a031916815260200191505b5084810382528c818151815260200191508051906020019080838360005b8381101561051f578082015181840152602081019050610504565b50505050905090810190601f16801561054c5780820380516001836020036101000a031916815260200191505b509e50505050505050505050505050505060405180910390f35b34801561057257600080fd5b5061059f6004803603602081101561058957600080fd5b8101908080359060200190929190505050611cc1565b6040518080602001828103825283818151815260200191508051906020019060200280838360005b838110156105e25780820151818401526020810190506105c7565b505050509050019250505060405180910390f35b34801561060257600080fd5b5061062f6004803603602081101561061957600080fd5b8101908080359060200190929190505050611d65565b005b34801561063d57600080fd5b5061066a6004803603602081101561065457600080fd5b81019080803590602001909291905050506120b2565b604051808473ffffffffffffffffffffffffffffffffffffffff1673ffffffffffffffffffffffffffffffffffffffff168152602001838152602001828152602001935050505060405180910390f35b3480156106c657600080fd5b506106f3600480360360208110156106dd57600080fd5b810190808035906020019092919050505061212c565b6040518082815260200191505060405180910390f35b34801561071557600080fd5b506107426004803603602081101561072c57600080fd5b810190808035906020019092919050505061214f565b604051808215151515815260200191505060405180910390f35b34801561076857600080fd5b506107716121b9565b6040518082815260200191505060405180910390f35b34801561079357600080fd5b506107c0600480360360208110156107aa57600080fd5b81019080803590602001909291905050506121bf565b6040518082815260200191505060405180910390f35b3480156107e257600080fd5b5061080f600480360360208110156107f957600080fd5b81019080803590602001909291905050506121df565b005b34801561081d57600080fd5b5061084a6004803603602081101561083457600080fd5b810190808035906020019092919050505061250b565b6040518080602001828103825283818151815260200191508051906020019060200280838360005b8381101561088d578082015181840152602081019050610872565b505050509050019250505060405180910390f35b3480156108ad57600080fd5b506108da600480360360208110156108c457600080fd5b81019080803590602001909291905050506125af565b6040518082815260200191505060405180910390f35b3480156108fc57600080fd5b506109296004803603602081101561091357600080fd5b81019080803590602001909291905050506125d2565b604051808215151515815260200191505060405180910390f35b610b48600480360360c081101561095957600080fd5b810190808035906020019064010000000081111561097657600080fd5b82018360208201111561098857600080fd5b803590602001918460018302840111640100000000831117156109aa57600080fd5b91908080601f016020809104026020016040519081016040528093929190818152602001838380828437600081840152601f19601f82011690508083019250505050505050919291929080359060200190640100000000811115610a0d57600080fd5b820183602082011115610a1f57600080fd5b80359060200191846001830284011164010000000083111715610a4157600080fd5b91908080601f016020809104026020016040519081016040528093929190818152602001838380828437600081840152601f19601f82011690508083019250505050505050919291929080359060200190640100000000811115610aa457600080fd5b820183602082011115610ab657600080fd5b80359060200191846001830284011164010000000083111715610ad857600080fd5b91908080601f016020809104026020016040519081016040528093929190818152602001838380828437600081840152601f19601f8201169050808301925050505050505091929192908035906020019092919080359060200190929190803590602001909291905050506126f9565b005b348015610b5657600080fd5b50610c1060048036036020811015610b6d57600080fd5b8101908080359060200190640100000000811115610b8a57600080fd5b820183602082011115610b9c57600080fd5b80359060200191846001830284011164010000000083111715610bbe57600080fd5b91908080601f016020809104026020016040519081016040528093929190818152602001838380828437600081840152601f19601f8201169050808301925050505050505091929192905050506129bd565b604051808215151515815260200191505060405180910390f35b348015610c3657600080fd5b50610c6360048036036020811015610c4d57600080fd5b8101908080359060200190929190505050612b0c565b6040518082815260200191505060405180910390f35b348015610c8557600080fd5b50610c8e612b22565b6040518082815260200191505060405180910390f35b610d6760048036036040811015610cba57600080fd5b810190808035906020019092919080359060200190640100000000811115610ce157600080fd5b820183602082011115610cf357600080fd5b80359060200191846001830284011164010000000083111715610d1557600080fd5b91908080601f016020809104026020016040519081016040528093929190818152602001838380828437600081840152601f19601f820116905080830192505050505050509192919290505050612b28565b005b348015610d7557600080fd5b50610da260048036036020811015610d8c57600080fd5b8101908080359060200190929190505050612f44565b604051808060200180602001838103835285818151815260200191508051906020019080838360005b83811015610de6578082015181840152602081019050610dcb565b50505050905090810190601f168015610e135780820380516001836020036101000a031916815260200191505b50838103825284818151815260200191508051906020019080838360005b83811015610e4c578082015181840152602081019050610e31565b50505050905090810190601f168015610e795780820380516001836020036101000a031916815260200191505b5094505050505060405180910390f35b348015610e9557600080fd5b50610ec260048036036020811015610eac57600080fd5b8101908080359060200190929190505050613098565b60405180858152602001848152602001831515151581526020018215151515815260200194505050505060405180910390f35b348015610f0157600080fd5b50610f4e60048036036040811015610f1857600080fd5b8101908080359060200190929190803573ffffffffffffffffffffffffffffffffffffffff169060200190929190505050613123565b6040518080602001828103825283818151815260200191508051906020019080838360005b83811015610f8e578082015181840152602081019050610f73565b50505050905090810190601f168015610fbb5780820380516001836020036101000a031916815260200191505b509250505060405180910390f35b348015610fd557600080fd5b5061100260048036036020811015610fec57600080fd5b8101908080359060200190929190505050613219565b005b34801561101057600080fd5b5061103d6004803603602081101561102757600080fd5b8101908080359060200190929190505050613621565b6040518080602001828103825283818151815260200191508051906020019080838360005b8381101561107d578082015181840152602081019050611062565b50505050905090810190601f1680156110aa5780820380516001836020036101000a031916815260200191505b509250505060405180910390f35b3480156110c457600080fd5b506110f1600480360360208110156110db57600080fd5b81019080803590602001909291905050506137b0565b6040518082815260200191505060405180910390f35b34801561111357600080fd5b506111406004803603602081101561112a57600080fd5b81019080803590602001909291905050506137ec565b005b34801561114e57600080fd5b506113d1600480360360a081101561116557600080fd5b81019080803590602001909291908035906020019064010000000081111561118c57600080fd5b82018360208201111561119e57600080fd5b803590602001918460208302840111640100000000831117156111c057600080fd5b919080806020026020016040519081016040528093929190818152602001838360200280828437600081840152601f19601f8201169050808301925050505050505091929192908035906020019064010000000081111561122057600080fd5b82018360208201111561123257600080fd5b8035906020019184602083028401116401000000008311171561125457600080fd5b919080806020026020016040519081016040528093929190818152602001838360200280828437600081840152601f19601f820116905080830192505050505050509192919290803590602001906401000000008111156112b457600080fd5b8201836020820111156112c657600080fd5b803590602001918460018302840111640100000000831117156112e857600080fd5b91908080601f016020809104026020016040519081016040528093929190818152602001838380828437600081840152601f19601f8201169050808301925050505050505091929192908035906020019064010000000081111561134b57600080fd5b82018360208201111561135d57600080fd5b8035906020019184600183028401116401000000008311171561137f57600080fd5b91908080601f016020809104026020016040519081016040528093929190818152602001838380828437600081840152601f19601f820116905080830192505050505050509192919290505050613b48565b005b3480156113df57600080fd5b506113e8613f41565b6040518082815260200191505060405180910390f35b34801561140a57600080fd5b506114c46004803603602081101561142157600080fd5b810190808035906020019064010000000081111561143e57600080fd5b82018360208201111561145057600080fd5b8035906020019184600183028401116401000000008311171561147257600080fd5b91908080601f016020809104026020016040519081016040528093929190818152602001838380828437600081840152601f19601f820116905080830192505050505050509192919290505050613f47565b604051808215151515815260200191505060405180910390f35b60006114e9826137b0565b4210159050919050565b60055481565b3373ffffffffffffffffffffffffffffffffffffffff166007600084815260200190815260200160002060000160009054906101000a900473ffffffffffffffffffffffffffffffffffffffff1673ffffffffffffffffffffffffffffffffffffffff16146115b3576040517f08c379a00000000000000000000000000000000000000000000000000000000081526004018080602001828103825260268152602001806144d16026913960400191505060405180910390fd5b600115156007600084815260200190815260200160002060090160008373ffffffffffffffffffffffffffffffffffffffff1673ffffffffffffffffffffffffffffffffffffffff16815260200190815260200160002060009054906101000a900460ff16151514611670576040517f08c379a00000000000000000000000000000000000000000000000000000000081526004018080602001828103825260338152602001806143fd6033913960400191505060405180910390fd5b611679826114de565b156116cf576040517f08c379a000000000000000000000000000000000000000000000000000000000815260040180806020018281038252602a815260200180614716602a913960400191505060405180910390fd5b6001151560076000848152602001908152602001600020600a0160008373ffffffffffffffffffffffffffffffffffffffff1673ffffffffffffffffffffffffffffffffffffffff16815260200190815260200160002060009054906101000a900460ff161515141561178d576040517f08c379a00000000000000000000000000000000000000000000000000000000081526004018080602001828103825260298152602001806142ee6029913960400191505060405180910390fd5b600160076000848152602001908152602001600020600a0160008373ffffffffffffffffffffffffffffffffffffffff1673ffffffffffffffffffffffffffffffffffffffff16815260200190815260200160002060006101000a81548160ff02191690831515021790555060076000838152602001908152602001600020600d018190806001815401808255809150509060018203906000526020600020016000909192909190916101000a81548173ffffffffffffffffffffffffffffffffffffffff021916908373ffffffffffffffffffffffffffffffffffffffff160217905550505050565b60606007600083815260200190815260200160002060000160009054906101000a900473ffffffffffffffffffffffffffffffffffffffff1673ffffffffffffffffffffffffffffffffffffffff163373ffffffffffffffffffffffffffffffffffffffff16148061194d57506001151560076000848152602001908152602001600020600a0160003373ffffffffffffffffffffffffffffffffffffffff1673ffffffffffffffffffffffffffffffffffffffff16815260200190815260200160002060009054906101000a900460ff161515145b6119a2576040517f08c379a00000000000000000000000000000000000000000000000000000000081526004018080602001828103825260298152602001806143a06029913960400191505060405180910390fd5b600860008381526020019081526020016000206000018054600181600116156101000203166002900480601f016020809104026020016040519081016040528092919081815260200182805460018160011615610100020316600290048015611a4c5780601f10611a2157610100808354040283529160200191611a4c565b820191906000526020600020905b815481529060010190602001808311611a2f57829003601f168201915b50505050509050919050565b60076020528060005260406000206000915090508060000160009054906101000a900473ffffffffffffffffffffffffffffffffffffffff1690806001018054600181600116156101000203166002900480601f016020809104026020016040519081016040528092919081815260200182805460018160011615610100020316600290048015611b2a5780601f10611aff57610100808354040283529160200191611b2a565b820191906000526020600020905b815481529060010190602001808311611b0d57829003601f168201915b505050505090806002018054600181600116156101000203166002900480601f016020809104026020016040519081016040528092919081815260200182805460018160011615610100020316600290048015611bc85780601f10611b9d57610100808354040283529160200191611bc8565b820191906000526020600020905b815481529060010190602001808311611bab57829003601f168201915b505050505090806003018054600181600116156101000203166002900480601f016020809104026020016040519081016040528092919081815260200182805460018160011615610100020316600290048015611c665780601f10611c3b57610100808354040283529160200191611c66565b820191906000526020600020905b815481529060010190602001808311611c4957829003601f168201915b5050505050908060040154908060050154908060060154908060070160009054906101000a900460ff16908060070160019054906101000a900460ff16908060070160029054906101000a900460ff1690806008015490508b565b606060076000838152602001908152602001600020600d01805480602002602001604051908101604052809291908181526020018280548015611d5957602002820191906000526020600020905b8160009054906101000a900473ffffffffffffffffffffffffffffffffffffffff1673ffffffffffffffffffffffffffffffffffffffff1681526020019060010190808311611d0f575b50505050509050919050565b600115156007600083815260200190815260200160002060070160029054906101000a900460ff16151514611de5576040517f08c379a000000000000000000000000000000000000000000000000000000000815260040180806020018281038252603481526020018061451c6034913960400191505060405180910390fd5b6001151560076000838152602001908152602001600020600a0160003373ffffffffffffffffffffffffffffffffffffffff1673ffffffffffffffffffffffffffffffffffffffff16815260200190815260200160002060009054906101000a900460ff16151514611ea2576040517f08c379a000000000000000000000000000000000000000000000000000000000815260040180806020018281038252603381526020018061433b6033913960400191505060405180910390fd5b600115156008600083815260200190815260200160002060030160003373ffffffffffffffffffffffffffffffffffffffff1673ffffffffffffffffffffffffffffffffffffffff16815260200190815260200160002060009054906101000a900460ff1615151415611f60576040517f08c379a000000000000000000000000000000000000000000000000000000000815260040180806020018281038252602a815260200180614550602a913960400191505060405180910390fd5b3373ffffffffffffffffffffffffffffffffffffffff166108fc6008600084815260200190815260200160002060020160003373ffffffffffffffffffffffffffffffffffffffff1673ffffffffffffffffffffffffffffffffffffffff168152602001908152602001600020549081150290604051600060405180830381858888f19350505050158015611ff9573d6000803e3d6000fd5b503373ffffffffffffffffffffffffffffffffffffffff166108fc6005549081150290604051600060405180830381858888f19350505050158015612042573d6000803e3d6000fd5b5060016008600083815260200190815260200160002060030160003373ffffffffffffffffffffffffffffffffffffffff1673ffffffffffffffffffffffffffffffffffffffff16815260200190815260200160002060006101000a81548160ff02191690831515021790555050565b60008060006007600085815260200190815260200160002060000160009054906101000a900473ffffffffffffffffffffffffffffffffffffffff16600760008681526020019081526020016000206004015460076000878152602001908152602001600020600801548292509250925092509193909250565b600060076000838152602001908152602001600020600d01805490509050919050565b60006007600083815260200190815260200160002060090160003373ffffffffffffffffffffffffffffffffffffffff1673ffffffffffffffffffffffffffffffffffffffff16815260200190815260200160002060009054906101000a900460ff169050919050565b60005481565b600060076000838152602001908152602001600020600401549050919050565b3373ffffffffffffffffffffffffffffffffffffffff166007600083815260200190815260200160002060000160009054906101000a900473ffffffffffffffffffffffffffffffffffffffff1673ffffffffffffffffffffffffffffffffffffffff16146122b6576040517f08c379a000000000000000000000000000000000000000000000000000000000815260040180806020018281038252601a8152602001807f4f6e6c79206a6f62206f776e65722063616e20656e64206a6f6200000000000081525060200191505060405180910390fd5b60006122c1826137b0565b90508042101561231c576040517f08c379a000000000000000000000000000000000000000000000000000000000815260040180806020018281038252603981526020018061462a6039913960400191505060405180910390fd5b6007600083815260200190815260200160002060070160019054906101000a900460ff1615612396576040517f08c379a00000000000000000000000000000000000000000000000000000000081526004018080602001828103825260318152602001806144646031913960400191505060405180910390fd5b61239f826121bf565b6123a88361212c565b106123fe576040517f08c379a000000000000000000000000000000000000000000000000000000000815260040180806020018281038252603c815260200180614495603c913960400191505060405180910390fd5b600115156007600084815260200190815260200160002060070160009054906101000a900460ff1615151461243257600080fd5b3373ffffffffffffffffffffffffffffffffffffffff166108fc60076000858152602001908152602001600020600801549081150290604051600060405180830381858888f1935050505015801561248e573d6000803e3d6000fd5b503373ffffffffffffffffffffffffffffffffffffffff166108fc6004549081150290604051600060405180830381858888f193505050501580156124d7573d6000803e3d6000fd5b5060006007600084815260200190815260200160002060070160006101000a81548160ff0219169083151502179055505050565b606060076000838152602001908152602001600020600c018054806020026020016040519081016040528092919081815260200182805480156125a357602002820191906000526020600020905b8160009054906101000a900473ffffffffffffffffffffffffffffffffffffffff1673ffffffffffffffffffffffffffffffffffffffff1681526020019060010190808311612559575b50505050509050919050565b600060076000838152602001908152602001600020600c01805490509050919050565b60006001151560076000848152602001908152602001600020600a0160003373ffffffffffffffffffffffffffffffffffffffff1673ffffffffffffffffffffffffffffffffffffffff16815260200190815260200160002060009054906101000a900460ff16151514612691576040517f08c379a000000000000000000000000000000000000000000000000000000000815260040180806020018281038252602f8152602001806146e7602f913960400191505060405180910390fd5b6008600083815260200190815260200160002060030160003373ffffffffffffffffffffffffffffffffffffffff1673ffffffffffffffffffffffffffffffffffffffff16815260200190815260200160002060009054906101000a900460ff169050919050565b612702866129bd565b612757576040517f08c379a00000000000000000000000000000000000000000000000000000000081526004018080602001828103825260308152602001806142896030913960400191505060405180910390fd5b806004540134146127b3576040517f08c379a00000000000000000000000000000000000000000000000000000000081526004018080602001828103825260348152602001806144306034913960400191505060405180910390fd5b6060604051806101a001604052803373ffffffffffffffffffffffffffffffffffffffff16815260200188815260200187815260200186815260200185815260200142815260200184815260200160011515815260200160001515815260200160001515815260200183815260200182815260200182815250600760008054815260200190815260200160002060008201518160000160006101000a81548173ffffffffffffffffffffffffffffffffffffffff021916908373ffffffffffffffffffffffffffffffffffffffff16021790555060208201518160010190805190602001906128a3929190614096565b5060408201518160020190805190602001906128c0929190614096565b5060608201518160030190805190602001906128dd929190614096565b506080820151816004015560a0820151816005015560c0820151816006015560e08201518160070160006101000a81548160ff0219169083151502179055506101008201518160070160016101000a81548160ff0219169083151502179055506101208201518160070160026101000a81548160ff021916908315150217905550610140820151816008015561016082015181600c019080519060200190612986929190614116565b5061018082015181600d0190805190602001906129a4929190614116565b5090505060016000540160008190555050505050505050565b600080600260009054906101000a900473ffffffffffffffffffffffffffffffffffffffff1673ffffffffffffffffffffffffffffffffffffffff166368ebd4e8846040518263ffffffff1660e01b81526004018080602001828103825283818151815260200191508051906020019080838360005b83811015612a4e578082015181840152602081019050612a33565b50505050905090810190601f168015612a7b5780820380516001836020036101000a031916815260200191505b509250505060206040518083038186803b158015612a9857600080fd5b505afa158015612aac573d6000803e3d6000fd5b505050506040513d6020811015612ac257600080fd5b810190808051906020019092919050505090503373ffffffffffffffffffffffffffffffffffffffff168173ffffffffffffffffffffffffffffffffffffffff1614915050919050565b6000600354612b1a836137b0565b019050919050565b60035481565b6007600083815260200190815260200160002060000160009054906101000a900473ffffffffffffffffffffffffffffffffffffffff1673ffffffffffffffffffffffffffffffffffffffff163373ffffffffffffffffffffffffffffffffffffffff161415612be3576040517f08c379a000000000000000000000000000000000000000000000000000000000815260040180806020018281038252602481526020018061457a6024913960400191505060405180910390fd5b612bec81613f47565b612c5e576040517f08c379a00000000000000000000000000000000000000000000000000000000081526004018080602001828103825260208152602001807f4e65656420746f206265206f776e6572206f662074686973206461746173657481525060200191505060405180910390fd5b612c67826114de565b15612cbd576040517f08c379a000000000000000000000000000000000000000000000000000000000815260040180806020018281038252602a815260200180614716602a913960400191505060405180910390fd5b6005543414612d17576040517f08c379a00000000000000000000000000000000000000000000000000000000081526004018080602001828103825260248152602001806143176024913960400191505060405180910390fd5b600115156007600084815260200190815260200160002060090160003373ffffffffffffffffffffffffffffffffffffffff1673ffffffffffffffffffffffffffffffffffffffff16815260200190815260200160002060009054906101000a900460ff1615151415612df2576040517f08c379a000000000000000000000000000000000000000000000000000000000815260040180806020018281038252601f8152602001807f20416c72656164792072656769737465726564206f6e2074686973206a6f620081525060200191505060405180910390fd5b60016007600084815260200190815260200160002060090160003373ffffffffffffffffffffffffffffffffffffffff1673ffffffffffffffffffffffffffffffffffffffff16815260200190815260200160002060006101000a81548160ff0219169083151502179055508060076000848152602001908152602001600020600b0160003373ffffffffffffffffffffffffffffffffffffffff1673ffffffffffffffffffffffffffffffffffffffff1681526020019081526020016000209080519060200190612ec59291906141a0565b5060076000838152602001908152602001600020600c013390806001815401808255809150509060018203906000526020600020016000909192909190916101000a81548173ffffffffffffffffffffffffffffffffffffffff021916908373ffffffffffffffffffffffffffffffffffffffff160217905550505050565b6008602052806000526040600020600091509050806000018054600181600116156101000203166002900480601f016020809104026020016040519081016040528092919081815260200182805460018160011615610100020316600290048015612ff05780601f10612fc557610100808354040283529160200191612ff0565b820191906000526020600020905b815481529060010190602001808311612fd357829003601f168201915b505050505090806001018054600181600116156101000203166002900480601f01602080910402602001604051908101604052809291908181526020018280546001816001161561010002031660029004801561308e5780601f106130635761010080835404028352916020019161308e565b820191906000526020600020905b81548152906001019060200180831161307157829003601f168201915b5050505050905082565b600080600080600760008681526020019081526020016000206005015460076000878152602001908152602001600020600601546007600088815260200190815260200160002060070160019054906101000a900460ff166007600089815260200190815260200160002060070160029054906101000a900460ff1693509350935093509193509193565b606060076000848152602001908152602001600020600b0160008373ffffffffffffffffffffffffffffffffffffffff1673ffffffffffffffffffffffffffffffffffffffff1681526020019081526020016000208054600181600116156101000203166002900480601f01602080910402602001604051908101604052809291908181526020018280546001816001161561010002031660029004801561320c5780601f106131e15761010080835404028352916020019161320c565b820191906000526020600020905b8154815290600101906020018083116131ef57829003601f168201915b5050505050905092915050565b600115156007600083815260200190815260200160002060090160003373ffffffffffffffffffffffffffffffffffffffff1673ffffffffffffffffffffffffffffffffffffffff16815260200190815260200160002060009054906101000a900460ff161515146132d6576040517f08c379a00000000000000000000000000000000000000000000000000000000081526004018080602001828103825260368152602001806145c36036913960400191505060405180910390fd5b60006132e1826137b0565b905060006132ee83612b0c565b905081421015613349576040517f08c379a00000000000000000000000000000000000000000000000000000000081526004018080602001828103825260358152602001806147406035913960400191505060405180910390fd5b6001151560076000858152602001908152602001600020600a0160003373ffffffffffffffffffffffffffffffffffffffff1673ffffffffffffffffffffffffffffffffffffffff16815260200190815260200160002060009054906101000a900460ff16151514613462573373ffffffffffffffffffffffffffffffffffffffff166108fc6005549081150290604051600060405180830381858888f193505050501580156133fd573d6000803e3d6000fd5b506007600084815260200190815260200160002060090160003373ffffffffffffffffffffffffffffffffffffffff1673ffffffffffffffffffffffffffffffffffffffff16815260200190815260200160002060006101000a81549060ff02191690555b80421080156134a05750600760008481526020019081526020016000206004015460076000858152602001908152602001600020600d018054905010155b156134f6576040517f08c379a00000000000000000000000000000000000000000000000000000000081526004018080602001828103825260358152602001806142b96035913960400191505060405180910390fd5b6007600084815260200190815260200160002060070160019054906101000a900460ff1615613570576040517f08c379a00000000000000000000000000000000000000000000000000000000081526004018080602001828103825260318152602001806144646031913960400191505060405180910390fd5b3373ffffffffffffffffffffffffffffffffffffffff166108fc6005549081150290604051600060405180830381858888f193505050501580156135b8573d6000803e3d6000fd5b506007600084815260200190815260200160002060090160003373ffffffffffffffffffffffffffffffffffffffff1673ffffffffffffffffffffffffffffffffffffffff16815260200190815260200160002060006101000a81549060ff0219169055505050565b60606007600083815260200190815260200160002060000160009054906101000a900473ffffffffffffffffffffffffffffffffffffffff1673ffffffffffffffffffffffffffffffffffffffff163373ffffffffffffffffffffffffffffffffffffffff16146136fa576040517f08c379a000000000000000000000000000000000000000000000000000000000815260040180806020018281038252601d8152602001807f4f6e6c79206f776e65722063616e20616363657373207765696768747300000081525060200191505060405180910390fd5b600860008381526020019081526020016000206001018054600181600116156101000203166002900480601f0160208091040260200160405190810160405280929190818152602001828054600181600116156101000203166002900480156137a45780601f10613779576101008083540402835291602001916137a4565b820191906000526020600020905b81548152906001019060200180831161378757829003601f168201915b50505050509050919050565b6000610e106007600084815260200190815260200160002060060154026007600084815260200190815260200160002060050154019050919050565b3373ffffffffffffffffffffffffffffffffffffffff166007600083815260200190815260200160002060000160009054906101000a900473ffffffffffffffffffffffffffffffffffffffff1673ffffffffffffffffffffffffffffffffffffffff16146138c3576040517f08c379a00000000000000000000000000000000000000000000000000000000081526004018080602001828103825260208152602001807f4a6f622063616e206f6e6c792062652073746172746564206279206f776e657281525060200191505060405180910390fd5b6138cc816114de565b613921576040517f08c379a000000000000000000000000000000000000000000000000000000000815260040180806020018281038252603281526020018061436e6032913960400191505060405180910390fd5b600061392c82612b0c565b9050804211156139a4576040517f08c379a00000000000000000000000000000000000000000000000000000000081526004018080602001828103825260208152602001807f546f6f206c61746520746f20737461727420747261696e696e67206d6f64656c81525060200191505060405180910390fd5b600760008381526020019081526020016000206004015460076000848152602001908152602001600020600d01805490501015613a2c576040517f08c379a00000000000000000000000000000000000000000000000000000000081526004018080602001828103825260258152602001806144f76025913960400191505060405180910390fd5b60016007600084815260200190815260200160002060070160016101000a81548160ff021916908315150217905550606060076000848152602001908152602001600020600c01805480602002602001604051908101604052809291908181526020018280548015613af357602002820191906000526020600020905b8160009054906101000a900473ffffffffffffffffffffffffffffffffffffffff1673ffffffffffffffffffffffffffffffffffffffff1681526020019060010190808311613aa9575b505050505090503373ffffffffffffffffffffffffffffffffffffffff166108fc6004549081150290604051600060405180830381858888f19350505050158015613b42573d6000803e3d6000fd5b50505050565b600660009054906101000a900473ffffffffffffffffffffffffffffffffffffffff1673ffffffffffffffffffffffffffffffffffffffff163373ffffffffffffffffffffffffffffffffffffffff1614613bee576040517f08c379a00000000000000000000000000000000000000000000000000000000081526004018080602001828103825260368152602001806146636036913960400191505060405180910390fd5b8251845114613c48576040517f08c379a00000000000000000000000000000000000000000000000000000000081526004018080602001828103825260318152602001806145f96031913960400191505060405180910390fd5b60076000868152602001908152602001600020600d0180549050835114613cba576040517f08c379a00000000000000000000000000000000000000000000000000000000081526004018080602001828103825260348152602001806143c96034913960400191505060405180910390fd5b600115156007600087815260200190815260200160002060070160029054906101000a900460ff1615151415613d3b576040517f08c379a000000000000000000000000000000000000000000000000000000000815260040180806020018281038252604e815260200180614699604e913960600191505060405180910390fd5b600080905060008090505b8551811015613d7457858181518110613d5b57fe5b6020026020010151820191508080600101915050613d46565b506007600087815260200190815260200160002060080154811115613de4576040517f08c379a000000000000000000000000000000000000000000000000000000000815260040180806020018281038252602581526020018061459e6025913960400191505060405180910390fd5b60008090505b8451811015613e84576000858281518110613e0157fe5b60200260200101519050868281518110613e1757fe5b6020026020010151600860008a815260200190815260200160002060020160008373ffffffffffffffffffffffffffffffffffffffff1673ffffffffffffffffffffffffffffffffffffffff16815260200190815260200160002081905550508080600101915050613dea565b5060016007600088815260200190815260200160002060070160026101000a81548160ff02191690831515021790555060006007600088815260200190815260200160002060070160006101000a81548160ff02191690831515021790555082600860008881526020019081526020016000206000019080519060200190613f0d9291906141a0565b5081600860008881526020019081526020016000206001019080519060200190613f389291906141a0565b50505050505050565b60045481565b600080600160009054906101000a900473ffffffffffffffffffffffffffffffffffffffff1673ffffffffffffffffffffffffffffffffffffffff16635c06c902846040518263ffffffff1660e01b81526004018080602001828103825283818151815260200191508051906020019080838360005b83811015613fd8578082015181840152602081019050613fbd565b50505050905090810190601f1680156140055780820380516001836020036101000a031916815260200191505b509250505060206040518083038186803b15801561402257600080fd5b505afa158015614036573d6000803e3d6000fd5b505050506040513d602081101561404c57600080fd5b810190808051906020019092919050505090503373ffffffffffffffffffffffffffffffffffffffff168173ffffffffffffffffffffffffffffffffffffffff1614915050919050565b828054600181600116156101000203166002900490600052602060002090601f016020900481019282601f106140d757805160ff1916838001178555614105565b82800160010185558215614105579182015b828111156141045782518255916020019190600101906140e9565b5b5090506141129190614220565b5090565b82805482825590600052602060002090810192821561418f579160200282015b8281111561418e5782518260006101000a81548173ffffffffffffffffffffffffffffffffffffffff021916908373ffffffffffffffffffffffffffffffffffffffff16021790555091602001919060010190614136565b5b50905061419c9190614245565b5090565b828054600181600116156101000203166002900490600052602060002090601f016020900481019282601f106141e157805160ff191683800117855561420f565b8280016001018555821561420f579182015b8281111561420e5782518255916020019190600101906141f3565b5b50905061421c9190614220565b5090565b61424291905b8082111561423e576000816000905550600101614226565b5090565b90565b61428591905b8082111561428157600081816101000a81549073ffffffffffffffffffffffffffffffffffffffff02191690555060010161424b565b5090565b9056fe4f6e6c79206d6f64656c206f776e65722063616e206372656174652061206a6f6220666f722074686973206d6f64656c43616e206f6e6c792077697468647261772066756e647320616674657220747261696e696e6720737461727420646561646c696e6544617461736574206f776e657220616c726561647920616464656420746f20616c6c6f77206c6973744e65656420746f2073656e642074686520636f727265637420686f6c64696e672066656543616e2774207265636569766520636f6d70656e736174696f6e206966206e6f742061206a6f62207061727469636970616e74526567697374726174696f6e20706572696f6420666f722074686973206a6f6220686173206e6f742079657420656e6465644f6e6c792061206a6f62207061727469636970616e742063616e2061636365737320726573756c74734e756d626572206f6620636c69656e7473206d757374206d61746368206e756d626572206f6620616c6c6f77656420757365727343616e206f6e6c792061646420616e20696e74657265737465642064617461206f776e657220746f20616c6c6f77206c6973744e65656420746f2073656e642074686520636f7272656374206a6f62206372656174696f6e2066656520616e6420626f756e747943616e206f6e6c792077697468647261772066756e647320696620747261696e696e67206e65766572207374617274656453756666696369656e74206e756d626572206f6620636c69656e7473206f6e20616c6c6f77206c69737420746f20737461727420747261696e696e674e65656420746f20626520726567697374657265642061732064617461736574206f776e65724d696e696d756d206e756d626572206f6620636c69656e7473206e6f74207265616368656443616e2774207265636569766520636f6d70656e736174696f6e20756e74696c207375636365737366756c20747261696e696e67416c726561647920726563656976656420636f6d70656e736174696f6e20666f722074686973206a6f624a6f62206f776e65722063616e6e6f74207369676e207570206173206120636c69656e7443616e277420706179206f7574206d6f7265207468616e20626f756e747920616d6f756e744f6e6c7920616e20616c726561647920726567697374657265642064617461206f776e65722063616e207769746864726177206665654e756d626572206f6620636c69656e7473206d757374206d6174636820636f6d70656e736174696f6e20616d6f756e74734a6f622063616e206f6e6c7920656e6420776974686f757420747261696e696e6720616674657220726567697374726174696f6e20656e64734f6e6c79207365727665722063616e20656e6420747261696e696e6720616e6420696e69746961746520636f6d70656e736174696f6e547261696e696e672068617320656e64656420616e6420636f6d70656e736174696f6e2068617320616c7265616479206265656e207370656e74206f757420746f207061727469636970616e747355736572206e6f7420656c696769626c6520666f7220636f6d70656e736174696f6e20666f722074686973206a6f62526567697374726174696f6e20706572696f6420666f722074686973206a6f622068617320656e64656443616e206f6e6c792077697468647261772066756e647320616674657220726567697374726174696f6e20706572696f6420656e64a265627a7a72315820633dd2f9e663b175e707095efc6cdaa160c3b48f7a07c2ece20de40f1a3f916e64736f6c63430005100032",
  "source": "pragma solidity >=0.5.16;\n\ncontract ModelDatabase {\n    function getModelOwner(string memory _ipfsHash) public view returns(address) {}\n}\n\ncontract DatasetDatabase {\n    function getDatasetOwner(string memory _ipfsHash) public view returns(address) {}\n}\n\ncontract Jobs {\n\n    uint public jobsCreated = 0;\n\n    DatasetDatabase datasetDatabase;\n    ModelDatabase modelDatabase;\n\n    uint public gracePeriod = 1 hours;\n\n    uint public jobCreationFee = 1e6 wei;\n\n    uint public holdingFee = 1e6 wei;\n\n    address payable private serverAddress = 0xc6c3F7d3E6907ea2C3174c06d188Eb57c59BF59c;\n\n    struct Job {\n        address payable owner;\n        string modelIpfsHash;\n        string strategyHash;\n        string testDatasetHash;\n        uint minClients;\n        uint initTime;\n        uint hoursUntilStart;\n        bool active;\n        bool trainingStarted;\n        bool trainingEnded;\n        uint bounty;\n        mapping(address => bool) datasetOwners;\n        mapping(address => bool)  allowList;\n        mapping(address => string) datasetHash;\n        address payable[] arrDatasetOwners;\n        address payable[] arrAllowList;\n    }\n\n    struct JobResults {\n        string resultsHash;\n        string weightsHash;\n        mapping(address => uint) compensation;\n        mapping(address => bool) isCompensated;\n    }\n\n    mapping(uint => Job) public jobs;\n    mapping(uint => JobResults) public jobResults;\n\n    constructor(address _contractAddressDatasets, address _contractAddressModels) public {\n        datasetDatabase = DatasetDatabase(_contractAddressDatasets);\n        modelDatabase = ModelDatabase(_contractAddressModels);\n    }\n\n    function isSenderModelOwner(string memory _modelIpfsHash) public view returns(bool) {\n        address owner = modelDatabase.getModelOwner(_modelIpfsHash);\n        return (owner == msg.sender);\n    }\n\n    function isSenderDatasetOwner(string memory _datasetIpfsHash) public view returns(bool) {\n        address owner = datasetDatabase.getDatasetOwner(_datasetIpfsHash);\n        return (owner == msg.sender);\n    }\n\n    function getJobStartTime(uint _id) public view returns(uint) {\n        return jobs[_id].initTime + jobs[_id].hoursUntilStart * 1 hours;\n    }\n\n    function getGraceDeadline(uint _id) public view returns(uint){\n        return getJobStartTime(_id) + gracePeriod;\n    }\n\n    function registrationPeriodOver(uint _id) public view returns(bool) {\n        return (block.timestamp >= getJobStartTime(_id));\n    }\n\n    function createJob(string memory _modelIpfsHash, string memory _strategyHash, string memory _testDatasetHash, uint _minClients, uint _hoursUntilStart,\n        uint _bounty) public payable {\n\n        // Check the Job creator is model owner\n        require(isSenderModelOwner(_modelIpfsHash),\"Only model owner can create a job for this model\");\n\n        // Check user has paid the correct bounty and job Creation Fee\n        require(msg.value == jobCreationFee + _bounty,\"Need to send the correct job creation fee and bounty\");\n\n        address payable[] memory init;\n\n        jobs[jobsCreated] = Job({owner: msg.sender,\n                                modelIpfsHash: _modelIpfsHash,\n                                strategyHash: _strategyHash,\n                                testDatasetHash: _testDatasetHash,\n                                minClients: _minClients,\n                                initTime: block.timestamp,\n                                hoursUntilStart: _hoursUntilStart,\n                                bounty: _bounty,\n                                active: true,\n                                trainingStarted: false,\n                                trainingEnded: false,\n                                arrDatasetOwners: init,\n                                arrAllowList: init}\n                                );\n\n        jobsCreated = jobsCreated + 1;\n    }\n\n\n    // Called by dataset owners to register their willingness to join a jobs\n    // Owners registers a particular dataset and\n    function registerDatasetOwner(uint _id, string memory _datasetIpfsHash) public payable {\n        // Check user is not model owner\n        require(msg.sender != jobs[_id].owner, \"Job owner cannot sign up as a client\");\n\n        // Check if user is dataset owner\n        require(isSenderDatasetOwner(_datasetIpfsHash), \"Need to be owner of this dataset\");\n\n\n        // Check job is still in registration period\n        if (registrationPeriodOver(_id)){\n            revert(\"Registration period for this job has ended\");\n        }\n\n        // Check user has paid the correct holding fee\n        require(msg.value == holdingFee,\"Need to send the correct holding fee\");\n\n\n        // Check if already registered\n        if(jobs[_id].datasetOwners[msg.sender] == true){\n            revert(\" Already registered on this job\");\n        }\n\n        // Add dataset owner's address to list of owner addresses comitted to job\n        jobs[_id].datasetOwners[msg.sender] = true;\n        jobs[_id].datasetHash[msg.sender] = _datasetIpfsHash;\n        jobs[_id].arrDatasetOwners.push(msg.sender);\n\n    }\n\n    // Called by Job owner to allow registered Clients to partake in job i.e. download model\n    function addToAllowList(uint _id, address payable _datasetOwner) public {\n        // Check user is job owner\n        require(jobs[_id].owner == msg.sender, \"Need to be registered as dataset owner\");\n\n        // Check address is in registry of interested owners\n        require(jobs[_id].datasetOwners[_datasetOwner] == true, \"Can only add an interested data owner to allow list\");\n\n        // Check job is still in registration period\n        if (registrationPeriodOver(_id)){\n            revert(\"Registration period for this job has ended\");\n        }\n\n        // Check if dataset owner already registered on allowList\n        if (jobs[_id].allowList[_datasetOwner] == true){\n            revert(\"Dataset owner already added to allow list\");\n        }\n\n        jobs[_id].allowList[_datasetOwner] = true;\n        jobs[_id].arrAllowList.push(_datasetOwner);\n    }\n\n    function getNumRegistered(uint _id) public view returns(uint){\n        return jobs[_id].arrDatasetOwners.length;\n    }\n\n    function getNumAllow(uint _id) public view returns(uint){\n        return jobs[_id].arrAllowList.length;\n    }\n\n    function getJobRegistered(uint _id) public view returns(address payable [] memory){\n      return jobs[_id].arrDatasetOwners;\n    }\n\n    function getJobAllowed(uint _id) public view returns(address payable [] memory){\n      return jobs[_id].arrAllowList;\n    }\n\n    function getJobDetails(uint _id) public view returns(address, uint, uint){\n        return (jobs[_id].owner, jobs[_id].minClients, jobs[_id].bounty);\n    }\n\n    function getJobStatus(uint _id) public view returns(uint, uint, bool, bool){\n        return (jobs[_id].initTime, jobs[_id].hoursUntilStart, jobs[_id].trainingStarted, jobs[_id].trainingEnded);\n    }\n\n    function getMinClients(uint _id) public view returns(uint) {\n        return jobs[_id].minClients;\n    }\n\n    function startJob(uint _id) public{\n        // Can only be started by owner of job\n        if (jobs[_id].owner != msg.sender){\n            revert(\"Job can only be started by owner\");\n        }\n\n        // Check registration period has ended\n        if (!registrationPeriodOver(_id)){\n            revert(\"Registration period for this job has not yet ended\");\n        }\n\n        // Check grace period not over\n        //uint jobStartTime = getJobStartTime(_id);\n        uint deadline = getGraceDeadline(_id);\n        if (block.timestamp > deadline){\n            revert(\"Too late to start training model\");\n        }\n\n        if (jobs[_id].arrAllowList.length < jobs[_id].minClients) {\n            revert(\"Minimum number of clients not reached\");\n        }\n\n        // Set training started status as true\n        jobs[_id].trainingStarted = true;\n\n        // List of owners registered for this job\n        address payable[] memory registeredDatasetOwners = jobs[_id].arrDatasetOwners;\n\n        // return job fee to client\n        msg.sender.transfer(jobCreationFee);\n        //serverAddress.transfer(jobCreationFee);\n\n    }\n\n\n    function withdrawFee(uint _id) public{\n\n        // Only a data owner registered to job can withdraw funds\n        require(jobs[_id].datasetOwners[msg.sender] == true, \"Only an already registered data owner can withdraw fee\");\n\n        // Check grace period over\n        uint jobStartTime = getJobStartTime(_id);\n        uint deadline = getGraceDeadline(_id);\n        if (block.timestamp < jobStartTime ){\n            revert(\"Can only withdraw funds after registration period end\");\n        }\n\n        // Allow registered users not on the allow list to withdraw fee after registration deadline\n        if (jobs[_id].allowList[msg.sender] != true) {\n                msg.sender.transfer(holdingFee);\n                // remove Client from datasetOwners list to prevent withdrawing fee again\n                delete(jobs[_id].datasetOwners[msg.sender]);\n        }\n\n        // If not a failed job i.e. min clients available, then can only withdraw funds if job owner does not start training\n        // by the grace period deadline\n        if ((block.timestamp < deadline) && (jobs[_id].arrAllowList.length >= jobs[_id].minClients)){\n            revert(\"Can only withdraw funds after training start deadline\");\n        }\n\n        // To withdraw funds for rest of clients i.e. ones on allow list, need training not to have started\n        require(!jobs[_id].trainingStarted, \"Can only withdraw funds if training never started\");\n\n        // Send holding fee to job registered user\n        msg.sender.transfer(holdingFee);\n\n        // remove Client from datasetOwners list to prevent withdrawing fee again\n        delete(jobs[_id].datasetOwners[msg.sender]);\n    }\n\n    function endFailedJob(uint _id) public {\n        // Only the owner of the job can end it\n        require(jobs[_id].owner == msg.sender, \"Only job owner can end job\");\n\n        // Check grace period over\n        uint jobStartTime = getJobStartTime(_id);\n        if (block.timestamp < jobStartTime){\n            revert(\"Job can only end without training after registration ends\");\n        }\n        \n        // To end job, training should not have started\n        require(!jobs[_id].trainingStarted, \"Can only withdraw funds if training never started\");\n        \n        // To end job, length of the allow list must be smaller than minClients\n        require(getNumAllow(_id) < getMinClients(_id), \"Sufficient number of clients on allow list to start training\");\n\n        // Can only end an active job, to prevent spamming function\n        require(jobs[_id].active == true);\n\n        // withdraw bounty to data scientist\n        msg.sender.transfer(jobs[_id].bounty);\n        msg.sender.transfer(jobCreationFee);\n\n        jobs[_id].active = false;\n    }\n\n    function isRegistered(uint _id) public view returns(bool){\n        return jobs[_id].datasetOwners[msg.sender];\n    }\n\n    function compensate(uint _id, uint [] memory _compensation, address payable [] memory _clients,\n                        string memory _resultsHash, string memory _weightsHash) public{\n\n        require(msg.sender == serverAddress,\"Only server can end training and initiate compensation\");\n\n        require(_compensation.length == _clients.length,\"Number of clients must match compensation amounts\");\n\n        require(_clients.length == jobs[_id].arrAllowList.length, \"Number of clients must match number of allowed users\");\n\n        if(jobs[_id].trainingEnded == true){\n            revert(\"Training has ended and compensation has already been spent out to participants\");\n        }\n\n        uint compensationSum = 0;\n        for (uint j=0; j<_compensation.length; j++) {\n            compensationSum = compensationSum + _compensation[j];\n        }\n\n        // Check sum of compensation array is less than job bounty\n        require(compensationSum <= jobs[_id].bounty, \"Can't pay out more than bounty amount\");\n\n        // Assign compensation amount to each client\n        for (uint i=0; i<_clients.length; i++) {\n            address payable payee = _clients[i];\n            jobResults[_id].compensation[payee] = _compensation[i];\n        }\n\n        // Set status of job as ended\n        jobs[_id].trainingEnded = true;\n        jobs[_id].active = false;\n        // Log results of job\n        jobResults[_id].resultsHash = _resultsHash;\n        jobResults[_id].weightsHash = _weightsHash;\n    }\n\n    function getCompensation(uint _id) public{\n\n        // Check if training for this job has successfully ended\n        require(jobs[_id].trainingEnded == true, \"Can't receive compensation until successful training\");\n\n        // Check if user was on the Allow list of the job\n        require(jobs[_id].allowList[msg.sender] == true, \"Can't receive compensation if not a job participant\");\n\n        // Ensure user is not compensated twice, can only receive compensation for job if not compensated before\n        if (jobResults[_id].isCompensated[msg.sender] == true){\n            revert(\"Already received compensation for this job\");\n        }\n\n        // Transfer to user their compensation amount\n        msg.sender.transfer(jobResults[_id].compensation[msg.sender]);\n        msg.sender.transfer(holdingFee);\n\n        // Log that user has been compensated\n        jobResults[_id].isCompensated[msg.sender] = true;\n    }\n\n    function getWeights(uint _id) public view returns(string memory){\n        // Check user is job owner\n        require(msg.sender == jobs[_id].owner,\"Only owner can access weights\");\n\n        return(jobResults[_id].weightsHash);\n    }\n\n    function getCompensationResults(uint _id) public view returns(string memory){\n        // Check user is a job participant\n        require((msg.sender == jobs[_id].owner) || (jobs[_id].allowList[msg.sender] == true) ,\"Only a job participant can access results\");\n\n        return(jobResults[_id].resultsHash);\n    }\n\n    function isCompensated(uint _id) public view returns(bool){\n        // Check if user is a job participant first\n        require(jobs[_id].allowList[msg.sender]==true,\"User not eligible for compensation for this job\");\n\n        //Check if user has been isCompensated\n        return(jobResults[_id].isCompensated[msg.sender]);\n    }\n\n    function getDataset(uint _id, address datasetOwner) public view returns(string memory){\n        return jobs[_id].datasetHash[datasetOwner];\n    }\n\n}",
  "sourcePath": "/Users/marwanmousa/University/MSc_AI/Group_Project/group-project/reactapp/BlockchainBackend/contracts/Jobs.sol",
  "compiler": {
    "name": "solc",
    "version": "0.5.16+commit.9c3226ce.Emscripten.clang"
  },
  "schemaVersion": "3.3.3",
  "updatedAt": "2021-04-23T14:00:57.521Z",
  "networkType": "ethereum",
  "devdoc": {
    "methods": {}
  },
  "userdoc": {
    "methods": {}
  }
}