{
  "contractName": "ModelDatabase",
  "abi": [
    {
      "inputs": [
        {
          "internalType": "address",
          "name": "_contractAddressRegistry",
          "type": "address"
        }
      ],
      "payable": false,
      "stateMutability": "nonpayable",
      "type": "constructor"
    },
    {
      "constant": true,
      "inputs": [
        {
          "internalType": "uint256",
          "name": "",
          "type": "uint256"
        }
      ],
      "name": "arrNames",
      "outputs": [
        {
          "internalType": "string",
          "name": "",
          "type": "string"
        }
      ],
      "payable": false,
      "stateMutability": "view",
      "type": "function"
    },
    {
      "constant": true,
      "inputs": [
        {
          "internalType": "uint256",
          "name": "",
          "type": "uint256"
        }
      ],
      "name": "hashes",
      "outputs": [
        {
          "internalType": "string",
          "name": "",
          "type": "string"
        }
      ],
      "payable": false,
      "stateMutability": "view",
      "type": "function"
    },
    {
      "constant": true,
      "inputs": [
        {
          "internalType": "string",
          "name": "",
          "type": "string"
        }
      ],
      "name": "models",
      "outputs": [
        {
          "internalType": "address",
          "name": "owner",
          "type": "address"
        },
        {
          "internalType": "string",
          "name": "name",
          "type": "string"
        },
        {
          "internalType": "string",
          "name": "objective",
          "type": "string"
        },
        {
          "internalType": "string",
          "name": "description",
          "type": "string"
        },
        {
          "internalType": "string",
          "name": "dataRequirements",
          "type": "string"
        },
        {
          "internalType": "uint256",
          "name": "interest",
          "type": "uint256"
        },
        {
          "internalType": "uint256",
          "name": "time",
          "type": "uint256"
        },
        {
          "internalType": "bool",
          "name": "registered",
          "type": "bool"
        }
      ],
      "payable": false,
      "stateMutability": "view",
      "type": "function"
    },
    {
      "constant": true,
      "inputs": [
        {
          "internalType": "string",
          "name": "",
          "type": "string"
        }
      ],
      "name": "names",
      "outputs": [
        {
          "internalType": "bool",
          "name": "",
          "type": "bool"
        }
      ],
      "payable": false,
      "stateMutability": "view",
      "type": "function"
    },
    {
      "constant": false,
      "inputs": [
        {
          "internalType": "string",
          "name": "_ipfsHash",
          "type": "string"
        },
        {
          "internalType": "string",
          "name": "_name",
          "type": "string"
        },
        {
          "internalType": "string",
          "name": "_objective",
          "type": "string"
        },
        {
          "internalType": "string",
          "name": "_description",
          "type": "string"
        },
        {
          "internalType": "string",
          "name": "_dataRequirements",
          "type": "string"
        }
      ],
      "name": "registerModel",
      "outputs": [],
      "payable": false,
      "stateMutability": "nonpayable",
      "type": "function"
    },
    {
      "constant": true,
      "inputs": [],
      "name": "getNumberOfModels",
      "outputs": [
        {
          "internalType": "uint256",
          "name": "",
          "type": "uint256"
        }
      ],
      "payable": false,
      "stateMutability": "view",
      "type": "function"
    },
    {
      "constant": false,
      "inputs": [
        {
          "internalType": "string",
          "name": "_ipfsHash",
          "type": "string"
        },
        {
          "internalType": "string",
          "name": "_description",
          "type": "string"
        },
        {
          "internalType": "string",
          "name": "_objective",
          "type": "string"
        }
      ],
      "name": "modifyModel",
      "outputs": [],
      "payable": false,
      "stateMutability": "nonpayable",
      "type": "function"
    },
    {
      "constant": false,
      "inputs": [
        {
          "internalType": "string",
          "name": "_ipfsHash",
          "type": "string"
        }
      ],
      "name": "deleteModel",
      "outputs": [],
      "payable": false,
      "stateMutability": "nonpayable",
      "type": "function"
    },
    {
      "constant": true,
      "inputs": [
        {
          "internalType": "string",
          "name": "_ipfsHash",
          "type": "string"
        }
      ],
      "name": "getModelOwner",
      "outputs": [
        {
          "internalType": "address",
          "name": "",
          "type": "address"
        }
      ],
      "payable": false,
      "stateMutability": "view",
      "type": "function"
    },
    {
      "constant": true,
      "inputs": [
        {
          "internalType": "string",
          "name": "_ipfsHash",
          "type": "string"
        }
      ],
      "name": "getModelName",
      "outputs": [
        {
          "internalType": "string",
          "name": "",
          "type": "string"
        }
      ],
      "payable": false,
      "stateMutability": "view",
      "type": "function"
    },
    {
      "constant": false,
      "inputs": [
        {
          "internalType": "string",
          "name": "_ipfsHash",
          "type": "string"
        }
      ],
      "name": "registerInterest",
      "outputs": [],
      "payable": false,
      "stateMutability": "nonpayable",
      "type": "function"
    },
    {
      "constant": true,
      "inputs": [
        {
          "internalType": "string",
          "name": "_ipfsHash",
          "type": "string"
        }
      ],
      "name": "getModelInterested",
      "outputs": [
        {
          "internalType": "address[]",
          "name": "",
          "type": "address[]"
        }
      ],
      "payable": false,
      "stateMutability": "view",
      "type": "function"
    }
  ],
  "bytecode": "0x608060405234801561001057600080fd5b506040516129a83803806129a88339818101604052602081101561003357600080fd5b810190808051906020019092919050505080600560006101000a81548173ffffffffffffffffffffffffffffffffffffffff021916908373ffffffffffffffffffffffffffffffffffffffff16021790555050612913806100956000396000f3fe608060405234801561001057600080fd5b50600436106100b45760003560e01c8063a3c1e97c11610071578063a3c1e97c146105dc578063bbf8a02614610697578063cd1e05c01461095b578063e480872414610a8f578063f14cbe7d14610b4a578063f583dc9214610e61576100b4565b806316dd5432146100b9578063501895ae14610160578063665584a81461020757806368ebd4e8146102255780637f63d3ef14610320578063822fbf5814610509575b600080fd5b6100e5600480360360208110156100cf57600080fd5b8101908080359060200190929190505050610f71565b6040518080602001828103825283818151815260200191508051906020019080838360005b8381101561012557808201518184015260208101905061010a565b50505050905090810190601f1680156101525780820380516001836020036101000a031916815260200191505b509250505060405180910390f35b61018c6004803603602081101561017657600080fd5b810190808035906020019092919050505061102a565b6040518080602001828103825283818151815260200191508051906020019080838360005b838110156101cc5780820151818401526020810190506101b1565b50505050905090810190601f1680156101f95780820380516001836020036101000a031916815260200191505b509250505060405180910390f35b61020f6110e3565b6040518082815260200191505060405180910390f35b6102de6004803603602081101561023b57600080fd5b810190808035906020019064010000000081111561025857600080fd5b82018360208201111561026a57600080fd5b8035906020019184600183028401116401000000008311171561028c57600080fd5b91908080601f016020809104026020016040519081016040528093929190818152602001838380828437600081840152601f19601f8201169050808301925050505050505091929192905050506110f0565b604051808273ffffffffffffffffffffffffffffffffffffffff1673ffffffffffffffffffffffffffffffffffffffff16815260200191505060405180910390f35b6105076004803603606081101561033657600080fd5b810190808035906020019064010000000081111561035357600080fd5b82018360208201111561036557600080fd5b8035906020019184600183028401116401000000008311171561038757600080fd5b91908080601f016020809104026020016040519081016040528093929190818152602001838380828437600081840152601f19601f820116905080830192505050505050509192919290803590602001906401000000008111156103ea57600080fd5b8201836020820111156103fc57600080fd5b8035906020019184600183028401116401000000008311171561041e57600080fd5b91908080601f016020809104026020016040519081016040528093929190818152602001838380828437600081840152601f19601f8201169050808301925050505050505091929192908035906020019064010000000081111561048157600080fd5b82018360208201111561049357600080fd5b803590602001918460018302840111640100000000831117156104b557600080fd5b91908080601f016020809104026020016040519081016040528093929190818152602001838380828437600081840152601f19601f820116905080830192505050505050509192919290505050611186565b005b6105c26004803603602081101561051f57600080fd5b810190808035906020019064010000000081111561053c57600080fd5b82018360208201111561054e57600080fd5b8035906020019184600183028401116401000000008311171561057057600080fd5b91908080601f016020809104026020016040519081016040528093929190818152602001838380828437600081840152601f19601f820116905080830192505050505050509192919290505050611351565b604051808215151515815260200191505060405180910390f35b610695600480360360208110156105f257600080fd5b810190808035906020019064010000000081111561060f57600080fd5b82018360208201111561062157600080fd5b8035906020019184600183028401116401000000008311171561064357600080fd5b91908080601f016020809104026020016040519081016040528093929190818152602001838380828437600081840152601f19601f820116905080830192505050505050509192919290505050611387565b005b610750600480360360208110156106ad57600080fd5b81019080803590602001906401000000008111156106ca57600080fd5b8201836020820111156106dc57600080fd5b803590602001918460018302840111640100000000831117156106fe57600080fd5b91908080601f016020809104026020016040519081016040528093929190818152602001838380828437600081840152601f19601f820116905080830192505050505050509192919290505050611555565b604051808973ffffffffffffffffffffffffffffffffffffffff1673ffffffffffffffffffffffffffffffffffffffff168152602001806020018060200180602001806020018881526020018781526020018615151515815260200185810385528c818151815260200191508051906020019080838360005b838110156107e45780820151818401526020810190506107c9565b50505050905090810190601f1680156108115780820380516001836020036101000a031916815260200191505b5085810384528b818151815260200191508051906020019080838360005b8381101561084a57808201518184015260208101905061082f565b50505050905090810190601f1680156108775780820380516001836020036101000a031916815260200191505b5085810383528a818151815260200191508051906020019080838360005b838110156108b0578082015181840152602081019050610895565b50505050905090810190601f1680156108dd5780820380516001836020036101000a031916815260200191505b50858103825289818151815260200191508051906020019080838360005b838110156109165780820151818401526020810190506108fb565b50505050905090810190601f1680156109435780820380516001836020036101000a031916815260200191505b509c5050505050505050505050505060405180910390f35b610a146004803603602081101561097157600080fd5b810190808035906020019064010000000081111561098e57600080fd5b8201836020820111156109a057600080fd5b803590602001918460018302840111640100000000831117156109c257600080fd5b91908080601f016020809104026020016040519081016040528093929190818152602001838380828437600081840152601f19601f820116905080830192505050505050509192919290505050611840565b6040518080602001828103825283818151815260200191508051906020019080838360005b83811015610a54578082015181840152602081019050610a39565b50505050905090810190601f168015610a815780820380516001836020036101000a031916815260200191505b509250505060405180910390f35b610b4860048036036020811015610aa557600080fd5b8101908080359060200190640100000000811115610ac257600080fd5b820183602082011115610ad457600080fd5b80359060200191846001830284011164010000000083111715610af657600080fd5b91908080601f016020809104026020016040519081016040528093929190818152602001838380828437600081840152601f19601f82011690508083019250505050505050919291929050505061194e565b005b610e5f600480360360a0811015610b6057600080fd5b8101908080359060200190640100000000811115610b7d57600080fd5b820183602082011115610b8f57600080fd5b80359060200191846001830284011164010000000083111715610bb157600080fd5b91908080601f016020809104026020016040519081016040528093929190818152602001838380828437600081840152601f19601f82011690508083019250505050505050919291929080359060200190640100000000811115610c1457600080fd5b820183602082011115610c2657600080fd5b80359060200191846001830284011164010000000083111715610c4857600080fd5b91908080601f016020809104026020016040519081016040528093929190818152602001838380828437600081840152601f19601f82011690508083019250505050505050919291929080359060200190640100000000811115610cab57600080fd5b820183602082011115610cbd57600080fd5b80359060200191846001830284011164010000000083111715610cdf57600080fd5b91908080601f016020809104026020016040519081016040528093929190818152602001838380828437600081840152601f19601f82011690508083019250505050505050919291929080359060200190640100000000811115610d4257600080fd5b820183602082011115610d5457600080fd5b80359060200191846001830284011164010000000083111715610d7657600080fd5b91908080601f016020809104026020016040519081016040528093929190818152602001838380828437600081840152601f19601f82011690508083019250505050505050919291929080359060200190640100000000811115610dd957600080fd5b820183602082011115610deb57600080fd5b80359060200191846001830284011164010000000083111715610e0d57600080fd5b91908080601f016020809104026020016040519081016040528093929190818152602001838380828437600081840152601f19601f820116905080830192505050505050509192919290505050611f32565b005b610f1a60048036036020811015610e7757600080fd5b8101908080359060200190640100000000811115610e9457600080fd5b820183602082011115610ea657600080fd5b80359060200191846001830284011164010000000083111715610ec857600080fd5b91908080601f016020809104026020016040519081016040528093929190818152602001838380828437600081840152601f19601f82011690508083019250505050505050919291929050505061251c565b6040518080602001828103825283818151815260200191508051906020019060200280838360005b83811015610f5d578082015181840152602081019050610f42565b505050509050019250505060405180910390f35b60048181548110610f7e57fe5b906000526020600020016000915090508054600181600116156101000203166002900480601f0160208091040260200160405190810160405280929190818152602001828054600181600116156101000203166002900480156110225780601f10610ff757610100808354040283529160200191611022565b820191906000526020600020905b81548152906001019060200180831161100557829003601f168201915b505050505081565b6002818154811061103757fe5b906000526020600020016000915090508054600181600116156101000203166002900480601f0160208091040260200160405190810160405280929190818152602001828054600181600116156101000203166002900480156110db5780601f106110b0576101008083540402835291602001916110db565b820191906000526020600020905b8154815290600101906020018083116110be57829003601f168201915b505050505081565b6000600280549050905090565b60006001826040518082805190602001908083835b602083106111285780518252602082019150602081019050602083039250611105565b6001836020036101000a038019825116818451168082178552505050505050905001915050908152602001604051809103902060000160009054906101000a900473ffffffffffffffffffffffffffffffffffffffff169050919050565b3373ffffffffffffffffffffffffffffffffffffffff166001846040518082805190602001908083835b602083106111d357805182526020820191506020810190506020830392506111b0565b6001836020036101000a038019825116818451168082178552505050505050905001915050908152602001604051809103902060000160009054906101000a900473ffffffffffffffffffffffffffffffffffffffff1673ffffffffffffffffffffffffffffffffffffffff161461124a57600080fd5b816001846040518082805190602001908083835b60208310611281578051825260208201915060208101905060208303925061125e565b6001836020036101000a038019825116818451168082178552505050505050905001915050908152602001604051809103902060030190805190602001906112ca929190612616565b50806001846040518082805190602001908083835b6020831061130257805182526020820191506020810190506020830392506112df565b6001836020036101000a0380198251168184511680821785525050505050509050019150509081526020016040518091039020600201908051906020019061134b929190612616565b50505050565b6003818051602081018201805184825260208301602085012081835280955050505050506000915054906101000a900460ff1681565b3373ffffffffffffffffffffffffffffffffffffffff166001826040518082805190602001908083835b602083106113d457805182526020820191506020810190506020830392506113b1565b6001836020036101000a038019825116818451168082178552505050505050905001915050908152602001604051809103902060000160009054906101000a900473ffffffffffffffffffffffffffffffffffffffff1673ffffffffffffffffffffffffffffffffffffffff161461144b57600080fd5b6001816040518082805190602001908083835b60208310611481578051825260208201915060208101905060208303925061145e565b6001836020036101000a0380198251168184511680821785525050505050509050019150509081526020016040518091039020600080820160006101000a81549073ffffffffffffffffffffffffffffffffffffffff02191690556001820160006114ec9190612696565b6002820160006114fc9190612696565b60038201600061150c9190612696565b60048201600061151c9190612696565b600582016000905560078201600061153491906126de565b60088201600090556009820160006101000a81549060ff0219169055505050565b6001818051602081018201805184825260208301602085012081835280955050505050506000915090508060000160009054906101000a900473ffffffffffffffffffffffffffffffffffffffff1690806001018054600181600116156101000203166002900480601f01602080910402602001604051908101604052809291908181526020018280546001816001161561010002031660029004801561163d5780601f106116125761010080835404028352916020019161163d565b820191906000526020600020905b81548152906001019060200180831161162057829003601f168201915b505050505090806002018054600181600116156101000203166002900480601f0160208091040260200160405190810160405280929190818152602001828054600181600116156101000203166002900480156116db5780601f106116b0576101008083540402835291602001916116db565b820191906000526020600020905b8154815290600101906020018083116116be57829003601f168201915b505050505090806003018054600181600116156101000203166002900480601f0160208091040260200160405190810160405280929190818152602001828054600181600116156101000203166002900480156117795780601f1061174e57610100808354040283529160200191611779565b820191906000526020600020905b81548152906001019060200180831161175c57829003601f168201915b505050505090806004018054600181600116156101000203166002900480601f0160208091040260200160405190810160405280929190818152602001828054600181600116156101000203166002900480156118175780601f106117ec57610100808354040283529160200191611817565b820191906000526020600020905b8154815290600101906020018083116117fa57829003601f168201915b5050505050908060050154908060080154908060090160009054906101000a900460ff16905088565b60606001826040518082805190602001908083835b602083106118785780518252602082019150602081019050602083039250611855565b6001836020036101000a03801982511681845116808217855250505050505090500191505090815260200160405180910390206001018054600181600116156101000203166002900480601f0160208091040260200160405190810160405280929190818152602001828054600181600116156101000203166002900480156119425780601f1061191757610100808354040283529160200191611942565b820191906000526020600020905b81548152906001019060200180831161192557829003601f168201915b50505050509050919050565b600560009054906101000a900473ffffffffffffffffffffffffffffffffffffffff1673ffffffffffffffffffffffffffffffffffffffff166346efdc33336040518263ffffffff1660e01b8152600401808273ffffffffffffffffffffffffffffffffffffffff1673ffffffffffffffffffffffffffffffffffffffff16815260200191505060206040518083038186803b1580156119ed57600080fd5b505afa158015611a01573d6000803e3d6000fd5b505050506040513d6020811015611a1757600080fd5b8101908080519060200190929190505050611a7d576040517f08c379a00000000000000000000000000000000000000000000000000000000081526004018080602001828103825260268152602001806128936026913960400191505060405180910390fd5b600115156001826040518082805190602001908083835b60208310611ab75780518252602082019150602081019050602083039250611a94565b6001836020036101000a038019825116818451168082178552505050505050905001915050908152602001604051809103902060060160003373ffffffffffffffffffffffffffffffffffffffff1673ffffffffffffffffffffffffffffffffffffffff16815260200190815260200160002060009054906101000a900460ff1615151415611bae576040517f08c379a00000000000000000000000000000000000000000000000000000000081526004018080602001828103825260208152602001807f5573657220616c7265616479207265676973746572656420696e74657265737481525060200191505060405180910390fd5b6001816040518082805190602001908083835b60208310611be45780518252602082019150602081019050602083039250611bc1565b6001836020036101000a038019825116818451168082178552505050505050905001915050908152602001604051809103902060000160009054906101000a900473ffffffffffffffffffffffffffffffffffffffff1673ffffffffffffffffffffffffffffffffffffffff163373ffffffffffffffffffffffffffffffffffffffff161415611cbf576040517f08c379a00000000000000000000000000000000000000000000000000000000081526004018080602001828103825260218152602001806128726021913960400191505060405180910390fd5b600180826040518082805190602001908083835b60208310611cf65780518252602082019150602081019050602083039250611cd3565b6001836020036101000a038019825116818451168082178552505050505050905001915050908152602001604051809103902060050154016001826040518082805190602001908083835b60208310611d645780518252602082019150602081019050602083039250611d41565b6001836020036101000a038019825116818451168082178552505050505050905001915050908152602001604051809103902060050181905550600180826040518082805190602001908083835b60208310611dd55780518252602082019150602081019050602083039250611db2565b6001836020036101000a038019825116818451168082178552505050505050905001915050908152602001604051809103902060060160003373ffffffffffffffffffffffffffffffffffffffff1673ffffffffffffffffffffffffffffffffffffffff16815260200190815260200160002060006101000a81548160ff0219169083151502179055506001816040518082805190602001908083835b60208310611e955780518252602082019150602081019050602083039250611e72565b6001836020036101000a03801982511681845116808217855250505050505090500191505090815260200160405180910390206007013390806001815401808255809150509060018203906000526020600020016000909192909190916101000a81548173ffffffffffffffffffffffffffffffffffffffff021916908373ffffffffffffffffffffffffffffffffffffffff1602179055505050565b600560009054906101000a900473ffffffffffffffffffffffffffffffffffffffff1673ffffffffffffffffffffffffffffffffffffffff1663b3599234336040518263ffffffff1660e01b8152600401808273ffffffffffffffffffffffffffffffffffffffff1673ffffffffffffffffffffffffffffffffffffffff16815260200191505060206040518083038186803b158015611fd157600080fd5b505afa158015611fe5573d6000803e3d6000fd5b505050506040513d6020811015611ffb57600080fd5b8101908080519060200190929190505050612061576040517f08c379a00000000000000000000000000000000000000000000000000000000081526004018080602001828103825260268152602001806128b96026913960400191505060405180910390fd5b6001856040518082805190602001908083835b602083106120975780518252602082019150602081019050602083039250612074565b6001836020036101000a038019825116818451168082178552505050505050905001915050908152602001604051809103902060090160009054906101000a900460ff161561214e576040517f08c379a00000000000000000000000000000000000000000000000000000000081526004018080602001828103825260208152602001807f54686973204d6f64656c20697320616c7265616479207265676973746572656481525060200191505060405180910390fd5b600115156003856040518082805190602001908083835b602083106121885780518252602082019150602081019050602083039250612165565b6001836020036101000a038019825116818451168082178552505050505050905001915050908152602001604051809103902060009054906101000a900460ff161515141561223f576040517f08c379a00000000000000000000000000000000000000000000000000000000081526004018080602001828103825260158152602001807f4d6f64656c206e616d65206e6f7420756e69717565000000000000000000000081525060200191505060405180910390fd5b60606040518061012001604052803373ffffffffffffffffffffffffffffffffffffffff16815260200186815260200185815260200184815260200183815260200160008152602001828152602001428152602001600115158152506001876040518082805190602001908083835b602083106122d157805182526020820191506020810190506020830392506122ae565b6001836020036101000a038019825116818451168082178552505050505050905001915050908152602001604051809103902060008201518160000160006101000a81548173ffffffffffffffffffffffffffffffffffffffff021916908373ffffffffffffffffffffffffffffffffffffffff16021790555060208201518160010190805190602001906123679291906126ff565b5060408201518160020190805190602001906123849291906126ff565b5060608201518160030190805190602001906123a19291906126ff565b5060808201518160040190805190602001906123be9291906126ff565b5060a0820151816005015560c08201518160070190805190602001906123e592919061277f565b5060e082015181600801556101008201518160090160006101000a81548160ff0219169083151502179055509050506002869080600181540180825580915050906001820390600052602060002001600090919290919091509080519060200190612451929190612616565b505060016003866040518082805190602001908083835b6020831061248b5780518252602082019150602081019050602083039250612468565b6001836020036101000a038019825116818451168082178552505050505050905001915050908152602001604051809103902060006101000a81548160ff0219169083151502179055506004859080600181540180825580915050906001820390600052602060002001600090919290919091509080519060200190612512929190612616565b5050505050505050565b60606001826040518082805190602001908083835b602083106125545780518252602082019150602081019050602083039250612531565b6001836020036101000a038019825116818451168082178552505050505050905001915050908152602001604051809103902060070180548060200260200160405190810160405280929190818152602001828054801561260a57602002820191906000526020600020905b8160009054906101000a900473ffffffffffffffffffffffffffffffffffffffff1673ffffffffffffffffffffffffffffffffffffffff16815260200190600101908083116125c0575b50505050509050919050565b828054600181600116156101000203166002900490600052602060002090601f016020900481019282601f1061265757805160ff1916838001178555612685565b82800160010185558215612685579182015b82811115612684578251825591602001919060010190612669565b5b5090506126929190612809565b5090565b50805460018160011615610100020316600290046000825580601f106126bc57506126db565b601f0160209004906000526020600020908101906126da9190612809565b5b50565b50805460008255906000526020600020908101906126fc9190612809565b50565b828054600181600116156101000203166002900490600052602060002090601f016020900481019282601f1061274057805160ff191683800117855561276e565b8280016001018555821561276e579182015b8281111561276d578251825591602001919060010190612752565b5b50905061277b9190612809565b5090565b8280548282559060005260206000209081019282156127f8579160200282015b828111156127f75782518260006101000a81548173ffffffffffffffffffffffffffffffffffffffff021916908373ffffffffffffffffffffffffffffffffffffffff1602179055509160200191906001019061279f565b5b509050612805919061282e565b5090565b61282b91905b8082111561282757600081600090555060010161280f565b5090565b90565b61286e91905b8082111561286a57600081816101000a81549073ffffffffffffffffffffffffffffffffffffffff021916905550600101612834565b5090565b9056fe43616e20726567697374657220696e74657265737420696e206f776e206d6f64654f6e6c792064617461206f776e6572732063616e20726567697374657220696e7465726573744d75737420626520726567697374657265642061732061206461746120736369656e74697374a265627a7a7231582098b778592235b52a725de5386a139d536c145686af48408d8cb3d64882416c1d64736f6c63430005100032",
  "source": "pragma solidity >=0.5.16;\n\ncontract Registry {\n  function isDataScientist(address userAddress) public view returns(bool isIndeed) {}\n  function isDataOwner(address userAddress) public view returns(bool isIndeed) {}\n}\n\ncontract ModelDatabase {\n\n    uint number;\n\n    struct Model {\n        address owner;\n        string name;\n        string objective;\n        string description;\n        string dataRequirements;\n        uint interest;\n        mapping(address => bool) datasetOwnersInterest;\n        address [] arrDatasetOwnersInterest;\n        uint time;\n        bool registered;\n    }\n\n    mapping(string => Model) public models;\n    string[] public hashes;\n    mapping (string => bool) public names;\n    string [] public arrNames;\n\n    Registry registry;\n\n    constructor(address _contractAddressRegistry) public {\n        registry = Registry(_contractAddressRegistry);\n    }\n\n    // function to register a Model\n    function registerModel(string memory _ipfsHash,\n                            string memory _name,\n                            string memory _objective,\n                            string memory _description,\n                            string memory _dataRequirements) public {\n        if (!registry.isDataScientist(msg.sender)){\n            revert(\"Must be registered as a data scientist\");\n        }\n\n        if (models[_ipfsHash].registered) {\n            revert(\"This Model is already registered\");\n        }\n\n        // If name was used before, revert\n        if (names[_name] == true){\n            revert(\"Model name not unique\");\n        }\n\n        address [] memory init;\n\n        models[_ipfsHash] = Model({owner: msg.sender,\n                                name: _name,\n                                description: _description,\n                                objective: _objective,\n                                dataRequirements: _dataRequirements,\n                                interest: 0,\n                                arrDatasetOwnersInterest: init,\n                                time: block.timestamp,\n                                registered: true});\n        hashes.push(_ipfsHash);\n\n        // Mapping to ensure model name uniqueness\n        names[_name] = true;\n        arrNames.push(_name);\n    }\n\n    function getNumberOfModels() public view returns(uint) {\n        return hashes.length;\n    }\n\n    // function to modify model\n    function modifyModel(string memory _ipfsHash, string memory _description, string memory _objective) public {\n        require(models[_ipfsHash].owner == msg.sender);\n        models[_ipfsHash].description = _description;\n        models[_ipfsHash].objective = _objective;\n    }\n\n\n    // Allow owner to remove their Model from database\n    function deleteModel(string memory _ipfsHash) public {\n        require(models[_ipfsHash].owner == msg.sender);\n        delete(models[_ipfsHash]);\n    }\n\n    function getModelOwner(string memory _ipfsHash) public view returns(address) {\n        return models[_ipfsHash].owner;\n    }\n\n    function getModelName(string memory _ipfsHash) public view returns(string memory){\n        return models[_ipfsHash].name;\n    }\n\n    // Allow Data owners to register interest in a model\n    function registerInterest(string memory _ipfsHash) public {\n        // Ensure only data owners can register interest\n        if (!registry.isDataOwner(msg.sender)){\n            revert(\"Only data owners can register interest\");\n        }\n        // Ensures data-owners can register interest in model only once\n        if (models[_ipfsHash].datasetOwnersInterest[msg.sender] == true){\n            revert(\"User already registered interest\");\n        }\n\n        // Ensure model owner does not register interest in their own model\n        if(msg.sender == models[_ipfsHash].owner){\n            revert(\"Can register interest in own mode\");\n        }\n\n        models[_ipfsHash].interest = models[_ipfsHash].interest + 1;\n        models[_ipfsHash].datasetOwnersInterest[msg.sender] = true;\n        models[_ipfsHash].arrDatasetOwnersInterest.push(msg.sender);\n    }\n\n    // Get array of interested users\n    function getModelInterested(string memory _ipfsHash) public view returns(address [] memory){\n      return models[_ipfsHash].arrDatasetOwnersInterest;\n    }\n\n}",
  "sourcePath": "/Users/marwanmousa/University/MSc_AI/Group_Project/group-project/reactapp/BlockchainBackend/contracts/ModelDatabase.sol",
  "compiler": {
    "name": "solc",
    "version": "0.5.16+commit.9c3226ce.Emscripten.clang"
  },
  "schemaVersion": "3.3.3",
  "updatedAt": "2021-04-22T00:08:07.732Z",
  "networkType": "ethereum",
  "devdoc": {
    "methods": {}
  },
  "userdoc": {
    "methods": {}
  }
}