{
  "contractName": "ModelDatabase",
  "abi": [
    {
      "inputs": [
        {
          "internalType": "address",
          "name": "_contractAddressRegistry",
          "type": "address"
        }
      ],
      "payable": false,
      "stateMutability": "nonpayable",
      "type": "constructor"
    },
    {
      "constant": true,
      "inputs": [
        {
          "internalType": "uint256",
          "name": "",
          "type": "uint256"
        }
      ],
      "name": "hashes",
      "outputs": [
        {
          "internalType": "string",
          "name": "",
          "type": "string"
        }
      ],
      "payable": false,
      "stateMutability": "view",
      "type": "function"
    },
    {
      "constant": true,
      "inputs": [
        {
          "internalType": "string",
          "name": "",
          "type": "string"
        }
      ],
      "name": "models",
      "outputs": [
        {
          "internalType": "address",
          "name": "owner",
          "type": "address"
        },
        {
          "internalType": "string",
          "name": "name",
          "type": "string"
        },
        {
          "internalType": "string",
          "name": "objective",
          "type": "string"
        },
        {
          "internalType": "string",
          "name": "description",
          "type": "string"
        },
        {
          "internalType": "string",
          "name": "dataRequirements",
          "type": "string"
        },
        {
          "internalType": "uint256",
          "name": "interest",
          "type": "uint256"
        },
        {
          "internalType": "uint256",
          "name": "time",
          "type": "uint256"
        },
        {
          "internalType": "bool",
          "name": "registered",
          "type": "bool"
        }
      ],
      "payable": false,
      "stateMutability": "view",
      "type": "function"
    },
    {
      "constant": true,
      "inputs": [
        {
          "internalType": "string",
          "name": "",
          "type": "string"
        }
      ],
      "name": "names",
      "outputs": [
        {
          "internalType": "bool",
          "name": "",
          "type": "bool"
        }
      ],
      "payable": false,
      "stateMutability": "view",
      "type": "function"
    },
    {
      "constant": false,
      "inputs": [
        {
          "internalType": "string",
          "name": "_ipfsHash",
          "type": "string"
        },
        {
          "internalType": "string",
          "name": "_name",
          "type": "string"
        },
        {
          "internalType": "string",
          "name": "_objective",
          "type": "string"
        },
        {
          "internalType": "string",
          "name": "_description",
          "type": "string"
        },
        {
          "internalType": "string",
          "name": "_dataRequirements",
          "type": "string"
        }
      ],
      "name": "registerModel",
      "outputs": [],
      "payable": false,
      "stateMutability": "nonpayable",
      "type": "function"
    },
    {
      "constant": true,
      "inputs": [],
      "name": "getNumberOfModels",
      "outputs": [
        {
          "internalType": "uint256",
          "name": "",
          "type": "uint256"
        }
      ],
      "payable": false,
      "stateMutability": "view",
      "type": "function"
    },
    {
      "constant": false,
      "inputs": [
        {
          "internalType": "string",
          "name": "_ipfsHash",
          "type": "string"
        },
        {
          "internalType": "string",
          "name": "_description",
          "type": "string"
        },
        {
          "internalType": "string",
          "name": "_objective",
          "type": "string"
        }
      ],
      "name": "modifyModel",
      "outputs": [],
      "payable": false,
      "stateMutability": "nonpayable",
      "type": "function"
    },
    {
      "constant": false,
      "inputs": [
        {
          "internalType": "string",
          "name": "_ipfsHash",
          "type": "string"
        }
      ],
      "name": "deleteModel",
      "outputs": [],
      "payable": false,
      "stateMutability": "nonpayable",
      "type": "function"
    },
    {
      "constant": true,
      "inputs": [
        {
          "internalType": "string",
          "name": "_ipfsHash",
          "type": "string"
        }
      ],
      "name": "getModelOwner",
      "outputs": [
        {
          "internalType": "address",
          "name": "",
          "type": "address"
        }
      ],
      "payable": false,
      "stateMutability": "view",
      "type": "function"
    },
    {
      "constant": true,
      "inputs": [
        {
          "internalType": "string",
          "name": "_ipfsHash",
          "type": "string"
        }
      ],
      "name": "getModelName",
      "outputs": [
        {
          "internalType": "string",
          "name": "",
          "type": "string"
        }
      ],
      "payable": false,
      "stateMutability": "view",
      "type": "function"
    },
    {
      "constant": false,
      "inputs": [
        {
          "internalType": "string",
          "name": "_ipfsHash",
          "type": "string"
        }
      ],
      "name": "registerInterest",
      "outputs": [],
      "payable": false,
      "stateMutability": "nonpayable",
      "type": "function"
    },
    {
      "constant": true,
      "inputs": [
        {
          "internalType": "string",
          "name": "_ipfsHash",
          "type": "string"
        }
      ],
      "name": "getModelInterested",
      "outputs": [
        {
          "internalType": "address[]",
          "name": "",
          "type": "address[]"
        }
      ],
      "payable": false,
      "stateMutability": "view",
      "type": "function"
    }
  ],
  "bytecode": "0x608060405234801561001057600080fd5b5060405161270b38038061270b8339818101604052602081101561003357600080fd5b810190808051906020019092919050505080600560006101000a81548173ffffffffffffffffffffffffffffffffffffffff021916908373ffffffffffffffffffffffffffffffffffffffff16021790555050612676806100956000396000f3fe608060405234801561001057600080fd5b50600436106100a95760003560e01c8063a3c1e97c11610071578063a3c1e97c1461052a578063bbf8a026146105e5578063cd1e05c0146108a9578063e4808724146109dd578063f14cbe7d14610a98578063f583dc9214610daf576100a9565b8063501895ae146100ae578063665584a81461015557806368ebd4e8146101735780637f63d3ef1461026e578063822fbf5814610457575b600080fd5b6100da600480360360208110156100c457600080fd5b8101908080359060200190929190505050610ebf565b6040518080602001828103825283818151815260200191508051906020019080838360005b8381101561011a5780820151818401526020810190506100ff565b50505050905090810190601f1680156101475780820380516001836020036101000a031916815260200191505b509250505060405180910390f35b61015d610f78565b6040518082815260200191505060405180910390f35b61022c6004803603602081101561018957600080fd5b81019080803590602001906401000000008111156101a657600080fd5b8201836020820111156101b857600080fd5b803590602001918460018302840111640100000000831117156101da57600080fd5b91908080601f016020809104026020016040519081016040528093929190818152602001838380828437600081840152601f19601f820116905080830192505050505050509192919290505050610f85565b604051808273ffffffffffffffffffffffffffffffffffffffff1673ffffffffffffffffffffffffffffffffffffffff16815260200191505060405180910390f35b6104556004803603606081101561028457600080fd5b81019080803590602001906401000000008111156102a157600080fd5b8201836020820111156102b357600080fd5b803590602001918460018302840111640100000000831117156102d557600080fd5b91908080601f016020809104026020016040519081016040528093929190818152602001838380828437600081840152601f19601f8201169050808301925050505050505091929192908035906020019064010000000081111561033857600080fd5b82018360208201111561034a57600080fd5b8035906020019184600183028401116401000000008311171561036c57600080fd5b91908080601f016020809104026020016040519081016040528093929190818152602001838380828437600081840152601f19601f820116905080830192505050505050509192919290803590602001906401000000008111156103cf57600080fd5b8201836020820111156103e157600080fd5b8035906020019184600183028401116401000000008311171561040357600080fd5b91908080601f016020809104026020016040519081016040528093929190818152602001838380828437600081840152601f19601f82011690508083019250505050505050919291929050505061101b565b005b6105106004803603602081101561046d57600080fd5b810190808035906020019064010000000081111561048a57600080fd5b82018360208201111561049c57600080fd5b803590602001918460018302840111640100000000831117156104be57600080fd5b91908080601f016020809104026020016040519081016040528093929190818152602001838380828437600081840152601f19601f8201169050808301925050505050505091929192905050506111e6565b604051808215151515815260200191505060405180910390f35b6105e36004803603602081101561054057600080fd5b810190808035906020019064010000000081111561055d57600080fd5b82018360208201111561056f57600080fd5b8035906020019184600183028401116401000000008311171561059157600080fd5b91908080601f016020809104026020016040519081016040528093929190818152602001838380828437600081840152601f19601f82011690508083019250505050505050919291929050505061121c565b005b61069e600480360360208110156105fb57600080fd5b810190808035906020019064010000000081111561061857600080fd5b82018360208201111561062a57600080fd5b8035906020019184600183028401116401000000008311171561064c57600080fd5b91908080601f016020809104026020016040519081016040528093929190818152602001838380828437600081840152601f19601f8201169050808301925050505050505091929192905050506113ea565b604051808973ffffffffffffffffffffffffffffffffffffffff1673ffffffffffffffffffffffffffffffffffffffff168152602001806020018060200180602001806020018881526020018781526020018615151515815260200185810385528c818151815260200191508051906020019080838360005b83811015610732578082015181840152602081019050610717565b50505050905090810190601f16801561075f5780820380516001836020036101000a031916815260200191505b5085810384528b818151815260200191508051906020019080838360005b8381101561079857808201518184015260208101905061077d565b50505050905090810190601f1680156107c55780820380516001836020036101000a031916815260200191505b5085810383528a818151815260200191508051906020019080838360005b838110156107fe5780820151818401526020810190506107e3565b50505050905090810190601f16801561082b5780820380516001836020036101000a031916815260200191505b50858103825289818151815260200191508051906020019080838360005b83811015610864578082015181840152602081019050610849565b50505050905090810190601f1680156108915780820380516001836020036101000a031916815260200191505b509c5050505050505050505050505060405180910390f35b610962600480360360208110156108bf57600080fd5b81019080803590602001906401000000008111156108dc57600080fd5b8201836020820111156108ee57600080fd5b8035906020019184600183028401116401000000008311171561091057600080fd5b91908080601f016020809104026020016040519081016040528093929190818152602001838380828437600081840152601f19601f8201169050808301925050505050505091929192905050506116d5565b6040518080602001828103825283818151815260200191508051906020019080838360005b838110156109a2578082015181840152602081019050610987565b50505050905090810190601f1680156109cf5780820380516001836020036101000a031916815260200191505b509250505060405180910390f35b610a96600480360360208110156109f357600080fd5b8101908080359060200190640100000000811115610a1057600080fd5b820183602082011115610a2257600080fd5b80359060200191846001830284011164010000000083111715610a4457600080fd5b91908080601f016020809104026020016040519081016040528093929190818152602001838380828437600081840152601f19601f8201169050808301925050505050505091929192905050506117e3565b005b610dad600480360360a0811015610aae57600080fd5b8101908080359060200190640100000000811115610acb57600080fd5b820183602082011115610add57600080fd5b80359060200191846001830284011164010000000083111715610aff57600080fd5b91908080601f016020809104026020016040519081016040528093929190818152602001838380828437600081840152601f19601f82011690508083019250505050505050919291929080359060200190640100000000811115610b6257600080fd5b820183602082011115610b7457600080fd5b80359060200191846001830284011164010000000083111715610b9657600080fd5b91908080601f016020809104026020016040519081016040528093929190818152602001838380828437600081840152601f19601f82011690508083019250505050505050919291929080359060200190640100000000811115610bf957600080fd5b820183602082011115610c0b57600080fd5b80359060200191846001830284011164010000000083111715610c2d57600080fd5b91908080601f016020809104026020016040519081016040528093929190818152602001838380828437600081840152601f19601f82011690508083019250505050505050919291929080359060200190640100000000811115610c9057600080fd5b820183602082011115610ca257600080fd5b80359060200191846001830284011164010000000083111715610cc457600080fd5b91908080601f016020809104026020016040519081016040528093929190818152602001838380828437600081840152601f19601f82011690508083019250505050505050919291929080359060200190640100000000811115610d2757600080fd5b820183602082011115610d3957600080fd5b80359060200191846001830284011164010000000083111715610d5b57600080fd5b91908080601f016020809104026020016040519081016040528093929190818152602001838380828437600081840152601f19601f820116905080830192505050505050509192919290505050611cb6565b005b610e6860048036036020811015610dc557600080fd5b8101908080359060200190640100000000811115610de257600080fd5b820183602082011115610df457600080fd5b80359060200191846001830284011164010000000083111715610e1657600080fd5b91908080601f016020809104026020016040519081016040528093929190818152602001838380828437600081840152601f19601f8201169050808301925050505050505091929192905050506122a0565b6040518080602001828103825283818151815260200191508051906020019060200280838360005b83811015610eab578082015181840152602081019050610e90565b505050509050019250505060405180910390f35b60028181548110610ecc57fe5b906000526020600020016000915090508054600181600116156101000203166002900480601f016020809104026020016040519081016040528092919081815260200182805460018160011615610100020316600290048015610f705780601f10610f4557610100808354040283529160200191610f70565b820191906000526020600020905b815481529060010190602001808311610f5357829003601f168201915b505050505081565b6000600280549050905090565b60006001826040518082805190602001908083835b60208310610fbd5780518252602082019150602081019050602083039250610f9a565b6001836020036101000a038019825116818451168082178552505050505050905001915050908152602001604051809103902060000160009054906101000a900473ffffffffffffffffffffffffffffffffffffffff169050919050565b3373ffffffffffffffffffffffffffffffffffffffff166001846040518082805190602001908083835b602083106110685780518252602082019150602081019050602083039250611045565b6001836020036101000a038019825116818451168082178552505050505050905001915050908152602001604051809103902060000160009054906101000a900473ffffffffffffffffffffffffffffffffffffffff1673ffffffffffffffffffffffffffffffffffffffff16146110df57600080fd5b816001846040518082805190602001908083835b6020831061111657805182526020820191506020810190506020830392506110f3565b6001836020036101000a0380198251168184511680821785525050505050509050019150509081526020016040518091039020600301908051906020019061115f92919061239a565b50806001846040518082805190602001908083835b602083106111975780518252602082019150602081019050602083039250611174565b6001836020036101000a038019825116818451168082178552505050505050905001915050908152602001604051809103902060020190805190602001906111e092919061239a565b50505050565b6003818051602081018201805184825260208301602085012081835280955050505050506000915054906101000a900460ff1681565b3373ffffffffffffffffffffffffffffffffffffffff166001826040518082805190602001908083835b602083106112695780518252602082019150602081019050602083039250611246565b6001836020036101000a038019825116818451168082178552505050505050905001915050908152602001604051809103902060000160009054906101000a900473ffffffffffffffffffffffffffffffffffffffff1673ffffffffffffffffffffffffffffffffffffffff16146112e057600080fd5b6001816040518082805190602001908083835b6020831061131657805182526020820191506020810190506020830392506112f3565b6001836020036101000a0380198251168184511680821785525050505050509050019150509081526020016040518091039020600080820160006101000a81549073ffffffffffffffffffffffffffffffffffffffff0219169055600182016000611381919061241a565b600282016000611391919061241a565b6003820160006113a1919061241a565b6004820160006113b1919061241a565b60058201600090556007820160006113c99190612462565b60088201600090556009820160006101000a81549060ff0219169055505050565b6001818051602081018201805184825260208301602085012081835280955050505050506000915090508060000160009054906101000a900473ffffffffffffffffffffffffffffffffffffffff1690806001018054600181600116156101000203166002900480601f0160208091040260200160405190810160405280929190818152602001828054600181600116156101000203166002900480156114d25780601f106114a7576101008083540402835291602001916114d2565b820191906000526020600020905b8154815290600101906020018083116114b557829003601f168201915b505050505090806002018054600181600116156101000203166002900480601f0160208091040260200160405190810160405280929190818152602001828054600181600116156101000203166002900480156115705780601f1061154557610100808354040283529160200191611570565b820191906000526020600020905b81548152906001019060200180831161155357829003601f168201915b505050505090806003018054600181600116156101000203166002900480601f01602080910402602001604051908101604052809291908181526020018280546001816001161561010002031660029004801561160e5780601f106115e35761010080835404028352916020019161160e565b820191906000526020600020905b8154815290600101906020018083116115f157829003601f168201915b505050505090806004018054600181600116156101000203166002900480601f0160208091040260200160405190810160405280929190818152602001828054600181600116156101000203166002900480156116ac5780601f10611681576101008083540402835291602001916116ac565b820191906000526020600020905b81548152906001019060200180831161168f57829003601f168201915b5050505050908060050154908060080154908060090160009054906101000a900460ff16905088565b60606001826040518082805190602001908083835b6020831061170d57805182526020820191506020810190506020830392506116ea565b6001836020036101000a03801982511681845116808217855250505050505090500191505090815260200160405180910390206001018054600181600116156101000203166002900480601f0160208091040260200160405190810160405280929190818152602001828054600181600116156101000203166002900480156117d75780601f106117ac576101008083540402835291602001916117d7565b820191906000526020600020905b8154815290600101906020018083116117ba57829003601f168201915b50505050509050919050565b600560009054906101000a900473ffffffffffffffffffffffffffffffffffffffff1673ffffffffffffffffffffffffffffffffffffffff166346efdc33336040518263ffffffff1660e01b8152600401808273ffffffffffffffffffffffffffffffffffffffff1673ffffffffffffffffffffffffffffffffffffffff16815260200191505060206040518083038186803b15801561188257600080fd5b505afa158015611896573d6000803e3d6000fd5b505050506040513d60208110156118ac57600080fd5b8101908080519060200190929190505050611912576040517f08c379a00000000000000000000000000000000000000000000000000000000081526004018080602001828103825260268152602001806125f66026913960400191505060405180910390fd5b600115156001826040518082805190602001908083835b6020831061194c5780518252602082019150602081019050602083039250611929565b6001836020036101000a038019825116818451168082178552505050505050905001915050908152602001604051809103902060060160003373ffffffffffffffffffffffffffffffffffffffff1673ffffffffffffffffffffffffffffffffffffffff16815260200190815260200160002060009054906101000a900460ff1615151415611a43576040517f08c379a00000000000000000000000000000000000000000000000000000000081526004018080602001828103825260208152602001807f5573657220616c7265616479207265676973746572656420696e74657265737481525060200191505060405180910390fd5b600180826040518082805190602001908083835b60208310611a7a5780518252602082019150602081019050602083039250611a57565b6001836020036101000a038019825116818451168082178552505050505050905001915050908152602001604051809103902060050154016001826040518082805190602001908083835b60208310611ae85780518252602082019150602081019050602083039250611ac5565b6001836020036101000a038019825116818451168082178552505050505050905001915050908152602001604051809103902060050181905550600180826040518082805190602001908083835b60208310611b595780518252602082019150602081019050602083039250611b36565b6001836020036101000a038019825116818451168082178552505050505050905001915050908152602001604051809103902060060160003373ffffffffffffffffffffffffffffffffffffffff1673ffffffffffffffffffffffffffffffffffffffff16815260200190815260200160002060006101000a81548160ff0219169083151502179055506001816040518082805190602001908083835b60208310611c195780518252602082019150602081019050602083039250611bf6565b6001836020036101000a03801982511681845116808217855250505050505090500191505090815260200160405180910390206007013390806001815401808255809150509060018203906000526020600020016000909192909190916101000a81548173ffffffffffffffffffffffffffffffffffffffff021916908373ffffffffffffffffffffffffffffffffffffffff1602179055505050565b600560009054906101000a900473ffffffffffffffffffffffffffffffffffffffff1673ffffffffffffffffffffffffffffffffffffffff1663b3599234336040518263ffffffff1660e01b8152600401808273ffffffffffffffffffffffffffffffffffffffff1673ffffffffffffffffffffffffffffffffffffffff16815260200191505060206040518083038186803b158015611d5557600080fd5b505afa158015611d69573d6000803e3d6000fd5b505050506040513d6020811015611d7f57600080fd5b8101908080519060200190929190505050611de5576040517f08c379a000000000000000000000000000000000000000000000000000000000815260040180806020018281038252602681526020018061261c6026913960400191505060405180910390fd5b6001856040518082805190602001908083835b60208310611e1b5780518252602082019150602081019050602083039250611df8565b6001836020036101000a038019825116818451168082178552505050505050905001915050908152602001604051809103902060090160009054906101000a900460ff1615611ed2576040517f08c379a00000000000000000000000000000000000000000000000000000000081526004018080602001828103825260208152602001807f54686973204d6f64656c20697320616c7265616479207265676973746572656481525060200191505060405180910390fd5b600115156003856040518082805190602001908083835b60208310611f0c5780518252602082019150602081019050602083039250611ee9565b6001836020036101000a038019825116818451168082178552505050505050905001915050908152602001604051809103902060009054906101000a900460ff1615151415611fc3576040517f08c379a00000000000000000000000000000000000000000000000000000000081526004018080602001828103825260158152602001807f4d6f64656c206e616d65206e6f7420756e69717565000000000000000000000081525060200191505060405180910390fd5b60606040518061012001604052803373ffffffffffffffffffffffffffffffffffffffff16815260200186815260200185815260200184815260200183815260200160008152602001828152602001428152602001600115158152506001876040518082805190602001908083835b602083106120555780518252602082019150602081019050602083039250612032565b6001836020036101000a038019825116818451168082178552505050505050905001915050908152602001604051809103902060008201518160000160006101000a81548173ffffffffffffffffffffffffffffffffffffffff021916908373ffffffffffffffffffffffffffffffffffffffff16021790555060208201518160010190805190602001906120eb929190612483565b506040820151816002019080519060200190612108929190612483565b506060820151816003019080519060200190612125929190612483565b506080820151816004019080519060200190612142929190612483565b5060a0820151816005015560c0820151816007019080519060200190612169929190612503565b5060e082015181600801556101008201518160090160006101000a81548160ff02191690831515021790555090505060028690806001815401808255809150509060018203906000526020600020016000909192909190915090805190602001906121d592919061239a565b505060016003866040518082805190602001908083835b6020831061220f57805182526020820191506020810190506020830392506121ec565b6001836020036101000a038019825116818451168082178552505050505050905001915050908152602001604051809103902060006101000a81548160ff021916908315150217905550600485908060018154018082558091505090600182039060005260206000200160009091929091909150908051906020019061229692919061239a565b5050505050505050565b60606001826040518082805190602001908083835b602083106122d857805182526020820191506020810190506020830392506122b5565b6001836020036101000a038019825116818451168082178552505050505050905001915050908152602001604051809103902060070180548060200260200160405190810160405280929190818152602001828054801561238e57602002820191906000526020600020905b8160009054906101000a900473ffffffffffffffffffffffffffffffffffffffff1673ffffffffffffffffffffffffffffffffffffffff1681526020019060010190808311612344575b50505050509050919050565b828054600181600116156101000203166002900490600052602060002090601f016020900481019282601f106123db57805160ff1916838001178555612409565b82800160010185558215612409579182015b828111156124085782518255916020019190600101906123ed565b5b509050612416919061258d565b5090565b50805460018160011615610100020316600290046000825580601f10612440575061245f565b601f01602090049060005260206000209081019061245e919061258d565b5b50565b5080546000825590600052602060002090810190612480919061258d565b50565b828054600181600116156101000203166002900490600052602060002090601f016020900481019282601f106124c457805160ff19168380011785556124f2565b828001600101855582156124f2579182015b828111156124f15782518255916020019190600101906124d6565b5b5090506124ff919061258d565b5090565b82805482825590600052602060002090810192821561257c579160200282015b8281111561257b5782518260006101000a81548173ffffffffffffffffffffffffffffffffffffffff021916908373ffffffffffffffffffffffffffffffffffffffff16021790555091602001919060010190612523565b5b50905061258991906125b2565b5090565b6125af91905b808211156125ab576000816000905550600101612593565b5090565b90565b6125f291905b808211156125ee57600081816101000a81549073ffffffffffffffffffffffffffffffffffffffff0219169055506001016125b8565b5090565b9056fe4f6e6c792064617461206f776e6572732063616e20726567697374657220696e7465726573744d75737420626520726567697374657265642061732061206461746120736369656e74697374a265627a7a72315820b9d6197695683a9ff75b68048fe0392fb426a68592e4f183dd1842ad8e41941b64736f6c63430005100032",
  "source": "pragma solidity >=0.5.16;\n\ncontract Registry {\n  function isDataScientist(address userAddress) public view returns(bool isIndeed) {}\n  function isDataOwner(address userAddress) public view returns(bool isIndeed) {}\n}\n\ncontract ModelDatabase {\n\n    uint number;\n\n    struct Model {\n        address owner;\n        string name;\n        string objective;\n        string description;\n        string dataRequirements;\n        uint interest;\n        mapping(address => bool) datasetOwnersInterest;\n        address [] arrDatasetOwnersInterest;\n        uint time;\n        bool registered;\n    }\n\n    mapping(string => Model) public models;\n    string[] public hashes;\n    mapping (string => bool) public names;\n    string [] arrNames;\n\n    Registry registry;\n\n    constructor(address _contractAddressRegistry) public {\n        registry = Registry(_contractAddressRegistry);\n    }\n\n    // function to register a Model\n    function registerModel(string memory _ipfsHash,\n                            string memory _name,\n                            string memory _objective,\n                            string memory _description,\n                            string memory _dataRequirements) public {\n        if (!registry.isDataScientist(msg.sender)){\n            revert(\"Must be registered as a data scientist\");\n        }\n\n        if (models[_ipfsHash].registered) {\n            revert(\"This Model is already registered\");\n        }\n\n        // If name was used before, revert\n        if (names[_name] == true){\n            revert(\"Model name not unique\");\n        }\n\n        address [] memory init;\n\n        models[_ipfsHash] = Model({owner: msg.sender,\n                                name: _name,\n                                description: _description,\n                                objective: _objective,\n                                dataRequirements: _dataRequirements,\n                                interest: 0,\n                                arrDatasetOwnersInterest: init,\n                                time: block.timestamp,\n                                registered: true});\n        hashes.push(_ipfsHash);\n\n        // Mapping to ensure model name uniqueness\n        names[_name] = true;\n        arrNames.push(_name);\n    }\n\n    function getNumberOfModels() public view returns(uint) {\n        return hashes.length;\n    }\n\n    // function to modify model\n    function modifyModel(string memory _ipfsHash, string memory _description, string memory _objective) public {\n        require(models[_ipfsHash].owner == msg.sender);\n        models[_ipfsHash].description = _description;\n        models[_ipfsHash].objective = _objective;\n    }\n\n\n    // Allow owner to remove their Model from database\n    function deleteModel(string memory _ipfsHash) public {\n        require(models[_ipfsHash].owner == msg.sender);\n        delete(models[_ipfsHash]);\n    }\n\n    function getModelOwner(string memory _ipfsHash) public view returns(address) {\n        return models[_ipfsHash].owner;\n    }\n\n    function getModelName(string memory _ipfsHash) public view returns(string memory){\n        return models[_ipfsHash].name;\n    }\n\n    // Allow Data owners to register interest in a model\n    function registerInterest(string memory _ipfsHash) public {\n        // Ensure only data owners can register interest\n        if (!registry.isDataOwner(msg.sender)){\n            revert(\"Only data owners can register interest\");\n        }\n        // Ensures data-owners can register interest in model only once\n        if (models[_ipfsHash].datasetOwnersInterest[msg.sender] == true){\n            revert(\"User already registered interest\");\n        }\n\n        models[_ipfsHash].interest = models[_ipfsHash].interest + 1;\n        models[_ipfsHash].datasetOwnersInterest[msg.sender] = true;\n        models[_ipfsHash].arrDatasetOwnersInterest.push(msg.sender);\n    }\n\n    // Get array of interested users\n    function getModelInterested(string memory _ipfsHash) public view returns(address [] memory){\n      return models[_ipfsHash].arrDatasetOwnersInterest;\n    }\n\n}",
  "sourcePath": "/Users/marwanmousa/University/MSc_AI/Group_Project/group-project/reactapp/BlockchainBackend/contracts/ModelDatabase.sol",
  "compiler": {
    "name": "solc",
    "version": "0.5.16+commit.9c3226ce.Emscripten.clang"
  },
  "schemaVersion": "3.3.3",
  "updatedAt": "2021-04-19T19:19:34.235Z",
  "networkType": "ethereum",
  "devdoc": {
    "methods": {}
  },
  "userdoc": {
    "methods": {}
  }
}