{
  "contractName": "ModelDatabase",
  "abi": [
    {
      "constant": true,
      "inputs": [
        {
          "internalType": "uint256",
          "name": "",
          "type": "uint256"
        }
      ],
      "name": "hashes",
      "outputs": [
        {
          "internalType": "string",
          "name": "",
          "type": "string"
        }
      ],
      "payable": false,
      "stateMutability": "view",
      "type": "function"
    },
    {
      "constant": true,
      "inputs": [
        {
          "internalType": "string",
          "name": "",
          "type": "string"
        }
      ],
      "name": "models",
      "outputs": [
        {
          "internalType": "address",
          "name": "owner",
          "type": "address"
        },
        {
          "internalType": "string",
          "name": "description",
          "type": "string"
        },
        {
          "internalType": "string",
          "name": "objective",
          "type": "string"
        },
        {
          "internalType": "uint256",
          "name": "time",
          "type": "uint256"
        },
        {
          "internalType": "bool",
          "name": "registered",
          "type": "bool"
        }
      ],
      "payable": false,
      "stateMutability": "view",
      "type": "function"
    },
    {
      "constant": false,
      "inputs": [
        {
          "internalType": "string",
          "name": "_ipfsHash",
          "type": "string"
        },
        {
          "internalType": "string",
          "name": "_description",
          "type": "string"
        },
        {
          "internalType": "string",
          "name": "_objective",
          "type": "string"
        }
      ],
      "name": "register_model",
      "outputs": [],
      "payable": false,
      "stateMutability": "nonpayable",
      "type": "function"
    },
    {
      "constant": true,
      "inputs": [],
      "name": "getNumberOfModels",
      "outputs": [
        {
          "internalType": "uint256",
          "name": "",
          "type": "uint256"
        }
      ],
      "payable": false,
      "stateMutability": "view",
      "type": "function"
    },
    {
      "constant": false,
      "inputs": [
        {
          "internalType": "string",
          "name": "_ipfsHash",
          "type": "string"
        },
        {
          "internalType": "string",
          "name": "_description",
          "type": "string"
        },
        {
          "internalType": "string",
          "name": "_objective",
          "type": "string"
        }
      ],
      "name": "modify_model",
      "outputs": [],
      "payable": false,
      "stateMutability": "nonpayable",
      "type": "function"
    },
    {
      "constant": false,
      "inputs": [
        {
          "internalType": "string",
          "name": "_ipfsHash",
          "type": "string"
        }
      ],
      "name": "delete_model",
      "outputs": [],
      "payable": false,
      "stateMutability": "nonpayable",
      "type": "function"
    }
  ],
  "bytecode": "0x608060405234801561001057600080fd5b50611198806100206000396000f3fe608060405234801561001057600080fd5b50600436106100625760003560e01c80630cefa304146100675780632ab60d0c14610250578063501895ae1461030b578063665584a8146103b2578063bbf8a026146103d0578063d2c5f03b146105b5575b600080fd5b61024e6004803603606081101561007d57600080fd5b810190808035906020019064010000000081111561009a57600080fd5b8201836020820111156100ac57600080fd5b803590602001918460018302840111640100000000831117156100ce57600080fd5b91908080601f016020809104026020016040519081016040528093929190818152602001838380828437600081840152601f19601f8201169050808301925050505050505091929192908035906020019064010000000081111561013157600080fd5b82018360208201111561014357600080fd5b8035906020019184600183028401116401000000008311171561016557600080fd5b91908080601f016020809104026020016040519081016040528093929190818152602001838380828437600081840152601f19601f820116905080830192505050505050509192919290803590602001906401000000008111156101c857600080fd5b8201836020820111156101da57600080fd5b803590602001918460018302840111640100000000831117156101fc57600080fd5b91908080601f016020809104026020016040519081016040528093929190818152602001838380828437600081840152601f19601f82011690508083019250505050505050919291929050505061079e565b005b6103096004803603602081101561026657600080fd5b810190808035906020019064010000000081111561028357600080fd5b82018360208201111561029557600080fd5b803590602001918460018302840111640100000000831117156102b757600080fd5b91908080601f016020809104026020016040519081016040528093929190818152602001838380828437600081840152601f19601f820116905080830192505050505050509192919290505050610a26565b005b6103376004803603602081101561032157600080fd5b8101908080359060200190929190505050610bbc565b6040518080602001828103825283818151815260200191508051906020019080838360005b8381101561037757808201518184015260208101905061035c565b50505050905090810190601f1680156103a45780820380516001836020036101000a031916815260200191505b509250505060405180910390f35b6103ba610c75565b6040518082815260200191505060405180910390f35b610489600480360360208110156103e657600080fd5b810190808035906020019064010000000081111561040357600080fd5b82018360208201111561041557600080fd5b8035906020019184600183028401116401000000008311171561043757600080fd5b91908080601f016020809104026020016040519081016040528093929190818152602001838380828437600081840152601f19601f820116905080830192505050505050509192919290505050610c82565b604051808673ffffffffffffffffffffffffffffffffffffffff1673ffffffffffffffffffffffffffffffffffffffff168152602001806020018060200185815260200184151515158152602001838103835287818151815260200191508051906020019080838360005b8381101561050f5780820151818401526020810190506104f4565b50505050905090810190601f16801561053c5780820380516001836020036101000a031916815260200191505b50838103825286818151815260200191508051906020019080838360005b8381101561057557808201518184015260208101905061055a565b50505050905090810190601f1680156105a25780820380516001836020036101000a031916815260200191505b5097505050505050505060405180910390f35b61079c600480360360608110156105cb57600080fd5b81019080803590602001906401000000008111156105e857600080fd5b8201836020820111156105fa57600080fd5b8035906020019184600183028401116401000000008311171561061c57600080fd5b91908080601f016020809104026020016040519081016040528093929190818152602001838380828437600081840152601f19601f8201169050808301925050505050505091929192908035906020019064010000000081111561067f57600080fd5b82018360208201111561069157600080fd5b803590602001918460018302840111640100000000831117156106b357600080fd5b91908080601f016020809104026020016040519081016040528093929190818152602001838380828437600081840152601f19601f8201169050808301925050505050505091929192908035906020019064010000000081111561071657600080fd5b82018360208201111561072857600080fd5b8035906020019184600183028401116401000000008311171561074a57600080fd5b91908080601f016020809104026020016040519081016040528093929190818152602001838380828437600081840152601f19601f820116905080830192505050505050509192919290505050610e2b565b005b6001836040518082805190602001908083835b602083106107d457805182526020820191506020810190506020830392506107b1565b6001836020036101000a038019825116818451168082178552505050505050905001915050908152602001604051809103902060040160009054906101000a900460ff161561088b576040517f08c379a00000000000000000000000000000000000000000000000000000000081526004018080602001828103825260208152602001807f54686973204d6f64656c20697320616c7265616479207265676973746572656481525060200191505060405180910390fd5b6040518060a001604052803373ffffffffffffffffffffffffffffffffffffffff168152602001838152602001828152602001428152602001600115158152506001846040518082805190602001908083835b6020831061090157805182526020820191506020810190506020830392506108de565b6001836020036101000a038019825116818451168082178552505050505050905001915050908152602001604051809103902060008201518160000160006101000a81548173ffffffffffffffffffffffffffffffffffffffff021916908373ffffffffffffffffffffffffffffffffffffffff1602179055506020820151816001019080519060200190610997929190610ff6565b5060408201518160020190805190602001906109b4929190610ff6565b506060820151816003015560808201518160040160006101000a81548160ff0219169083151502179055509050506002839080600181540180825580915050906001820390600052602060002001600090919290919091509080519060200190610a1f929190611076565b5050505050565b3373ffffffffffffffffffffffffffffffffffffffff166001826040518082805190602001908083835b60208310610a735780518252602082019150602081019050602083039250610a50565b6001836020036101000a038019825116818451168082178552505050505050905001915050908152602001604051809103902060000160009054906101000a900473ffffffffffffffffffffffffffffffffffffffff1673ffffffffffffffffffffffffffffffffffffffff1614610aea57600080fd5b6001816040518082805190602001908083835b60208310610b205780518252602082019150602081019050602083039250610afd565b6001836020036101000a0380198251168184511680821785525050505050509050019150509081526020016040518091039020600080820160006101000a81549073ffffffffffffffffffffffffffffffffffffffff0219169055600182016000610b8b91906110f6565b600282016000610b9b91906110f6565b60038201600090556004820160006101000a81549060ff0219169055505050565b60028181548110610bc957fe5b906000526020600020016000915090508054600181600116156101000203166002900480601f016020809104026020016040519081016040528092919081815260200182805460018160011615610100020316600290048015610c6d5780601f10610c4257610100808354040283529160200191610c6d565b820191906000526020600020905b815481529060010190602001808311610c5057829003601f168201915b505050505081565b6000600280549050905090565b6001818051602081018201805184825260208301602085012081835280955050505050506000915090508060000160009054906101000a900473ffffffffffffffffffffffffffffffffffffffff1690806001018054600181600116156101000203166002900480601f016020809104026020016040519081016040528092919081815260200182805460018160011615610100020316600290048015610d6a5780601f10610d3f57610100808354040283529160200191610d6a565b820191906000526020600020905b815481529060010190602001808311610d4d57829003601f168201915b505050505090806002018054600181600116156101000203166002900480601f016020809104026020016040519081016040528092919081815260200182805460018160011615610100020316600290048015610e085780601f10610ddd57610100808354040283529160200191610e08565b820191906000526020600020905b815481529060010190602001808311610deb57829003601f168201915b5050505050908060030154908060040160009054906101000a900460ff16905085565b3373ffffffffffffffffffffffffffffffffffffffff166001846040518082805190602001908083835b60208310610e785780518252602082019150602081019050602083039250610e55565b6001836020036101000a038019825116818451168082178552505050505050905001915050908152602001604051809103902060000160009054906101000a900473ffffffffffffffffffffffffffffffffffffffff1673ffffffffffffffffffffffffffffffffffffffff1614610eef57600080fd5b816001846040518082805190602001908083835b60208310610f265780518252602082019150602081019050602083039250610f03565b6001836020036101000a03801982511681845116808217855250505050505090500191505090815260200160405180910390206001019080519060200190610f6f929190611076565b50806001846040518082805190602001908083835b60208310610fa75780518252602082019150602081019050602083039250610f84565b6001836020036101000a03801982511681845116808217855250505050505090500191505090815260200160405180910390206002019080519060200190610ff0929190611076565b50505050565b828054600181600116156101000203166002900490600052602060002090601f016020900481019282601f1061103757805160ff1916838001178555611065565b82800160010185558215611065579182015b82811115611064578251825591602001919060010190611049565b5b509050611072919061113e565b5090565b828054600181600116156101000203166002900490600052602060002090601f016020900481019282601f106110b757805160ff19168380011785556110e5565b828001600101855582156110e5579182015b828111156110e45782518255916020019190600101906110c9565b5b5090506110f2919061113e565b5090565b50805460018160011615610100020316600290046000825580601f1061111c575061113b565b601f01602090049060005260206000209081019061113a919061113e565b5b50565b61116091905b8082111561115c576000816000905550600101611144565b5090565b9056fea265627a7a72315820d3e6f3f74a7aca0e199d671f2fa21cb9887bdbb3d827c3e7862dfaa464159ea264736f6c63430005100032",
  "source": "pragma solidity >=0.5.16;\r\n\r\ncontract ModelDatabase {\r\n\r\n    uint number;\r\n\r\n    struct Model {\r\n        address owner;\r\n        string description;\r\n        string objective;\r\n        uint time;\r\n        bool registered;\r\n    }\r\n\r\n    mapping(string => Model) public models;\r\n    string[] public hashes;\r\n\r\n    // function to register a Model\r\n    function register_model(string memory _ipfsHash, string memory _description, string memory _objective) public {\r\n        if (models[_ipfsHash].registered) {\r\n            revert(\"This Model is already registered\");\r\n        }\r\n        models[_ipfsHash] = Model({owner: msg.sender, description: _description, objective: _objective, time: block.timestamp, registered: true});\r\n        hashes.push(_ipfsHash);\r\n    }\r\n\r\n    function getNumberOfModels() public view returns(uint) {\r\n        return hashes.length;\r\n    }\r\n\r\n    // function to modify model\r\n    function modify_model(string memory _ipfsHash, string memory _description, string memory _objective) public {\r\n        require(models[_ipfsHash].owner == msg.sender);\r\n        models[_ipfsHash].description = _description;\r\n        models[_ipfsHash].objective = _objective;\r\n    }\r\n\r\n\r\n    // Allow owner to remove their Model from database\r\n    function delete_model(string memory _ipfsHash) public {\r\n        require(models[_ipfsHash].owner == msg.sender);\r\n        delete(models[_ipfsHash]);\r\n    }\r\n\r\n}",
  "sourcePath": "C:/Users/PC/Dapp/group-project/reactapp/BlockchainBackend/contracts/ModelDatabase.sol",
  "compiler": {
    "name": "solc",
    "version": "0.5.16+commit.9c3226ce.Emscripten.clang"
  },
  "schemaVersion": "3.3.4",
  "updatedAt": "2021-04-15T17:07:58.799Z",
  "networkType": "ethereum",
  "devdoc": {
    "methods": {}
  },
  "userdoc": {
    "methods": {}
  }
}