{
  "contractName": "ModelDatabase",
  "abi": [
    {
      "constant": true,
      "inputs": [
        {
          "internalType": "uint256",
          "name": "",
          "type": "uint256"
        }
      ],
      "name": "hashes",
      "outputs": [
        {
          "internalType": "string",
          "name": "",
          "type": "string"
        }
      ],
      "payable": false,
      "stateMutability": "view",
      "type": "function"
    },
    {
      "constant": true,
      "inputs": [
        {
          "internalType": "string",
          "name": "",
          "type": "string"
        }
      ],
      "name": "models",
      "outputs": [
        {
          "internalType": "address",
          "name": "owner",
          "type": "address"
        },
        {
          "internalType": "string",
          "name": "description",
          "type": "string"
        },
        {
          "internalType": "string",
          "name": "objective",
          "type": "string"
        },
        {
          "internalType": "uint256",
          "name": "time",
          "type": "uint256"
        },
        {
          "internalType": "bool",
          "name": "registered",
          "type": "bool"
        }
      ],
      "payable": false,
      "stateMutability": "view",
      "type": "function"
    },
    {
      "constant": false,
      "inputs": [
        {
          "internalType": "string",
          "name": "_ipfsHash",
          "type": "string"
        },
        {
          "internalType": "string",
          "name": "_description",
          "type": "string"
        },
        {
          "internalType": "string",
          "name": "_objective",
          "type": "string"
        }
      ],
      "name": "register_model",
      "outputs": [],
      "payable": false,
      "stateMutability": "nonpayable",
      "type": "function"
    },
    {
      "constant": true,
      "inputs": [],
      "name": "get_hashes",
      "outputs": [
        {
          "internalType": "string[]",
          "name": "",
          "type": "string[]"
        }
      ],
      "payable": false,
      "stateMutability": "view",
      "type": "function"
    },
    {
      "constant": false,
      "inputs": [
        {
          "internalType": "string",
          "name": "_ipfsHash",
          "type": "string"
        },
        {
          "internalType": "string",
          "name": "_description",
          "type": "string"
        },
        {
          "internalType": "string",
          "name": "_objective",
          "type": "string"
        }
      ],
      "name": "modify_model",
      "outputs": [],
      "payable": false,
      "stateMutability": "nonpayable",
      "type": "function"
    },
    {
      "constant": false,
      "inputs": [
        {
          "internalType": "string",
          "name": "_ipfsHash",
          "type": "string"
        }
      ],
      "name": "delete_model",
      "outputs": [],
      "payable": false,
      "stateMutability": "nonpayable",
      "type": "function"
    }
  ],
  "bytecode": "0x608060405234801561001057600080fd5b50611008806100206000396000f3fe608060405234801561001057600080fd5b50600436106100625760003560e01c80630cefa304146100675780632ab60d0c14610083578063501895ae1461009f578063bbf8a026146100cf578063d2c5f03b14610103578063fc3554981461011f575b600080fd5b610081600480360361007c9190810190610add565b61013d565b005b61009d60048036036100989190810190610a9c565b6102fc565b005b6100b960048036036100b49190810190610b74565b6103fc565b6040516100c69190610dd0565b60405180910390f35b6100e960048036036100e49190810190610a5b565b6104b5565b6040516100fa959493929190610d4d565b60405180910390f35b61011d60048036036101189190810190610add565b61065e565b005b610127610748565b6040516101349190610dae565b60405180910390f35b60018360405161014d9190610d36565b908152602001604051809103902060040160009054906101000a900460ff16156101ac576040517f08c379a00000000000000000000000000000000000000000000000000000000081526004016101a390610df2565b60405180910390fd5b6040518060a001604052803373ffffffffffffffffffffffffffffffffffffffff168152602001838152602001828152602001428152602001600115158152506001846040516101fc9190610d36565b908152602001604051809103902060008201518160000160006101000a81548173ffffffffffffffffffffffffffffffffffffffff021916908373ffffffffffffffffffffffffffffffffffffffff160217905550602082015181600101908051906020019061026d929190610831565b50604082015181600201908051906020019061028a929190610831565b506060820151816003015560808201518160040160006101000a81548160ff02191690831515021790555090505060028390806001815401808255809150509060018203906000526020600020016000909192909190915090805190602001906102f59291906108b1565b5050505050565b3373ffffffffffffffffffffffffffffffffffffffff166001826040516103239190610d36565b908152602001604051809103902060000160009054906101000a900473ffffffffffffffffffffffffffffffffffffffff1673ffffffffffffffffffffffffffffffffffffffff161461037557600080fd5b6001816040516103859190610d36565b9081526020016040518091039020600080820160006101000a81549073ffffffffffffffffffffffffffffffffffffffff02191690556001820160006103cb9190610931565b6002820160006103db9190610931565b60038201600090556004820160006101000a81549060ff0219169055505050565b6002818154811061040957fe5b906000526020600020016000915090508054600181600116156101000203166002900480601f0160208091040260200160405190810160405280929190818152602001828054600181600116156101000203166002900480156104ad5780601f10610482576101008083540402835291602001916104ad565b820191906000526020600020905b81548152906001019060200180831161049057829003601f168201915b505050505081565b6001818051602081018201805184825260208301602085012081835280955050505050506000915090508060000160009054906101000a900473ffffffffffffffffffffffffffffffffffffffff1690806001018054600181600116156101000203166002900480601f01602080910402602001604051908101604052809291908181526020018280546001816001161561010002031660029004801561059d5780601f106105725761010080835404028352916020019161059d565b820191906000526020600020905b81548152906001019060200180831161058057829003601f168201915b505050505090806002018054600181600116156101000203166002900480601f01602080910402602001604051908101604052809291908181526020018280546001816001161561010002031660029004801561063b5780601f106106105761010080835404028352916020019161063b565b820191906000526020600020905b81548152906001019060200180831161061e57829003601f168201915b5050505050908060030154908060040160009054906101000a900460ff16905085565b3373ffffffffffffffffffffffffffffffffffffffff166001846040516106859190610d36565b908152602001604051809103902060000160009054906101000a900473ffffffffffffffffffffffffffffffffffffffff1673ffffffffffffffffffffffffffffffffffffffff16146106d757600080fd5b816001846040516106e89190610d36565b9081526020016040518091039020600101908051906020019061070c9291906108b1565b508060018460405161071e9190610d36565b908152602001604051809103902060020190805190602001906107429291906108b1565b50505050565b60606002805480602002602001604051908101604052809291908181526020016000905b82821015610828578382906000526020600020018054600181600116156101000203166002900480601f0160208091040260200160405190810160405280929190818152602001828054600181600116156101000203166002900480156108145780601f106107e957610100808354040283529160200191610814565b820191906000526020600020905b8154815290600101906020018083116107f757829003601f168201915b50505050508152602001906001019061076c565b50505050905090565b828054600181600116156101000203166002900490600052602060002090601f016020900481019282601f1061087257805160ff19168380011785556108a0565b828001600101855582156108a0579182015b8281111561089f578251825591602001919060010190610884565b5b5090506108ad9190610979565b5090565b828054600181600116156101000203166002900490600052602060002090601f016020900481019282601f106108f257805160ff1916838001178555610920565b82800160010185558215610920579182015b8281111561091f578251825591602001919060010190610904565b5b50905061092d9190610979565b5090565b50805460018160011615610100020316600290046000825580601f106109575750610976565b601f0160209004906000526020600020908101906109759190610979565b5b50565b61099b91905b8082111561099757600081600090555060010161097f565b5090565b90565b600082601f8301126109af57600080fd5b81356109c26109bd82610e3f565b610e12565b915080825260208301602083018583830111156109de57600080fd5b6109e9838284610f5b565b50505092915050565b600082601f830112610a0357600080fd5b8135610a16610a1182610e6b565b610e12565b91508082526020830160208301858383011115610a3257600080fd5b610a3d838284610f5b565b50505092915050565b600081359050610a5581610fae565b92915050565b600060208284031215610a6d57600080fd5b600082013567ffffffffffffffff811115610a8757600080fd5b610a938482850161099e565b91505092915050565b600060208284031215610aae57600080fd5b600082013567ffffffffffffffff811115610ac857600080fd5b610ad4848285016109f2565b91505092915050565b600080600060608486031215610af257600080fd5b600084013567ffffffffffffffff811115610b0c57600080fd5b610b18868287016109f2565b935050602084013567ffffffffffffffff811115610b3557600080fd5b610b41868287016109f2565b925050604084013567ffffffffffffffff811115610b5e57600080fd5b610b6a868287016109f2565b9150509250925092565b600060208284031215610b8657600080fd5b6000610b9484828501610a46565b91505092915050565b6000610ba98383610c75565b905092915050565b610bba81610f13565b82525050565b6000610bcb82610ea7565b610bd58185610ed5565b935083602082028501610be785610e97565b8060005b85811015610c235784840389528151610c048582610b9d565b9450610c0f83610ec8565b925060208a01995050600181019050610beb565b50829750879550505050505092915050565b610c3e81610f25565b82525050565b6000610c4f82610ebd565b610c598185610f08565b9350610c69818560208601610f6a565b80840191505092915050565b6000610c8082610eb2565b610c8a8185610ee6565b9350610c9a818560208601610f6a565b610ca381610f9d565b840191505092915050565b6000610cb982610eb2565b610cc38185610ef7565b9350610cd3818560208601610f6a565b610cdc81610f9d565b840191505092915050565b6000610cf4602083610ef7565b91507f54686973204d6f64656c20697320616c726561647920726567697374657265646000830152602082019050919050565b610d3081610f51565b82525050565b6000610d428284610c44565b915081905092915050565b600060a082019050610d626000830188610bb1565b8181036020830152610d748187610cae565b90508181036040830152610d888186610cae565b9050610d976060830185610d27565b610da46080830184610c35565b9695505050505050565b60006020820190508181036000830152610dc88184610bc0565b905092915050565b60006020820190508181036000830152610dea8184610cae565b905092915050565b60006020820190508181036000830152610e0b81610ce7565b9050919050565b6000604051905081810181811067ffffffffffffffff82111715610e3557600080fd5b8060405250919050565b600067ffffffffffffffff821115610e5657600080fd5b601f19601f8301169050602081019050919050565b600067ffffffffffffffff821115610e8257600080fd5b601f19601f8301169050602081019050919050565b6000819050602082019050919050565b600081519050919050565b600081519050919050565b600081519050919050565b6000602082019050919050565b600082825260208201905092915050565b600082825260208201905092915050565b600082825260208201905092915050565b600081905092915050565b6000610f1e82610f31565b9050919050565b60008115159050919050565b600073ffffffffffffffffffffffffffffffffffffffff82169050919050565b6000819050919050565b82818337600083830152505050565b60005b83811015610f88578082015181840152602081019050610f6d565b83811115610f97576000848401525b50505050565b6000601f19601f8301169050919050565b610fb781610f51565b8114610fc257600080fd5b5056fea365627a7a72315820f865dfa55efa618957d1e75290e2d4d7449cd927570be78b286e9964a0480a926c6578706572696d656e74616cf564736f6c63430005100040",
  "source": "pragma solidity >=0.5.16;\npragma experimental ABIEncoderV2;\n\ncontract ModelDatabase {\n\n    uint number;\n\n    struct Model {\n        address owner;\n        string description;\n        string objective;\n        uint time;\n        bool registered;\n    }\n\n    mapping(string => Model) public models;\n    string[] public hashes;\n\n    // function to register a Model\n    function register_model(string memory _ipfsHash, string memory _description, string memory _objective) public {\n        if (models[_ipfsHash].registered) {\n            revert(\"This Model is already registered\");\n        }\n        models[_ipfsHash] = Model({owner: msg.sender, description: _description, objective: _objective, time: block.timestamp, registered: true});\n        hashes.push(_ipfsHash);\n    }\n\n    // function to retrieve the models' keys\n    function get_hashes() external view returns(string[] memory) {\n        return hashes;\n    }\n\n    // function to modify model\n    function modify_model(string memory _ipfsHash, string memory _description, string memory _objective) public {\n        require(models[_ipfsHash].owner == msg.sender);\n        models[_ipfsHash].description = _description;\n        models[_ipfsHash].objective = _objective;\n    }\n\n\n    // Allow owner to remove their Model from database\n    function delete_model(string memory _ipfsHash) public {\n        require(models[_ipfsHash].owner == msg.sender);\n        delete(models[_ipfsHash]);\n    }\n\n}",
  "sourcePath": "/Users/mac/Imperial/Software_engineering_project/economic-incentives-and-privacy-preserving-ml/reactapp/BlockchainBackend/contracts/ModelDatabase.sol",
  "compiler": {
    "name": "solc",
    "version": "0.5.16+commit.9c3226ce.Emscripten.clang"
  },
  "schemaVersion": "3.3.3",
  "updatedAt": "2021-04-06T23:31:52.581Z",
  "devdoc": {
    "methods": {}
  },
  "userdoc": {
    "methods": {}
  }
}