{
  "contractName": "ModelDatabase",
  "abi": [
    {
      "inputs": [
        {
          "internalType": "address",
          "name": "_contractAddressRegistry",
          "type": "address"
        }
      ],
      "payable": false,
      "stateMutability": "nonpayable",
      "type": "constructor"
    },
    {
      "constant": true,
      "inputs": [
        {
          "internalType": "uint256",
          "name": "",
          "type": "uint256"
        }
      ],
      "name": "hashes",
      "outputs": [
        {
          "internalType": "string",
          "name": "",
          "type": "string"
        }
      ],
      "payable": false,
      "stateMutability": "view",
      "type": "function"
    },
    {
      "constant": true,
      "inputs": [
        {
          "internalType": "string",
          "name": "",
          "type": "string"
        }
      ],
      "name": "models",
      "outputs": [
        {
          "internalType": "address",
          "name": "owner",
          "type": "address"
        },
        {
          "internalType": "string",
          "name": "name",
          "type": "string"
        },
        {
          "internalType": "string",
          "name": "objective",
          "type": "string"
        },
        {
          "internalType": "string",
          "name": "description",
          "type": "string"
        },
        {
          "internalType": "string",
          "name": "dataRequirements",
          "type": "string"
        },
        {
          "internalType": "uint256",
          "name": "interest",
          "type": "uint256"
        },
        {
          "internalType": "uint256",
          "name": "time",
          "type": "uint256"
        },
        {
          "internalType": "bool",
          "name": "registered",
          "type": "bool"
        }
      ],
      "payable": false,
      "stateMutability": "view",
      "type": "function"
    },
    {
      "constant": false,
      "inputs": [
        {
          "internalType": "string",
          "name": "_ipfsHash",
          "type": "string"
        },
        {
          "internalType": "string",
          "name": "_name",
          "type": "string"
        },
        {
          "internalType": "string",
          "name": "_objective",
          "type": "string"
        },
        {
          "internalType": "string",
          "name": "_description",
          "type": "string"
        },
        {
          "internalType": "string",
          "name": "_dataRequirements",
          "type": "string"
        }
      ],
      "name": "registerModel",
      "outputs": [],
      "payable": false,
      "stateMutability": "nonpayable",
      "type": "function"
    },
    {
      "constant": true,
      "inputs": [],
      "name": "getNumberOfModels",
      "outputs": [
        {
          "internalType": "uint256",
          "name": "",
          "type": "uint256"
        }
      ],
      "payable": false,
      "stateMutability": "view",
      "type": "function"
    },
    {
      "constant": false,
      "inputs": [
        {
          "internalType": "string",
          "name": "_ipfsHash",
          "type": "string"
        },
        {
          "internalType": "string",
          "name": "_description",
          "type": "string"
        },
        {
          "internalType": "string",
          "name": "_objective",
          "type": "string"
        }
      ],
      "name": "modifyModel",
      "outputs": [],
      "payable": false,
      "stateMutability": "nonpayable",
      "type": "function"
    },
    {
      "constant": false,
      "inputs": [
        {
          "internalType": "string",
          "name": "_ipfsHash",
          "type": "string"
        }
      ],
      "name": "deleteModel",
      "outputs": [],
      "payable": false,
      "stateMutability": "nonpayable",
      "type": "function"
    },
    {
      "constant": true,
      "inputs": [
        {
          "internalType": "string",
          "name": "_ipfsHash",
          "type": "string"
        }
      ],
      "name": "getModelOwner",
      "outputs": [
        {
          "internalType": "address",
          "name": "",
          "type": "address"
        }
      ],
      "payable": false,
      "stateMutability": "view",
      "type": "function"
    },
    {
      "constant": true,
      "inputs": [
        {
          "internalType": "string",
          "name": "_ipfsHash",
          "type": "string"
        }
      ],
      "name": "getModelName",
      "outputs": [
        {
          "internalType": "string",
          "name": "",
          "type": "string"
        }
      ],
      "payable": false,
      "stateMutability": "view",
      "type": "function"
    },
    {
      "constant": false,
      "inputs": [
        {
          "internalType": "string",
          "name": "_ipfsHash",
          "type": "string"
        }
      ],
      "name": "registerInterest",
      "outputs": [],
      "payable": false,
      "stateMutability": "nonpayable",
      "type": "function"
    },
    {
      "constant": true,
      "inputs": [
        {
          "internalType": "string",
          "name": "_ipfsHash",
          "type": "string"
        }
      ],
      "name": "getModelInterested",
      "outputs": [
        {
          "internalType": "address[]",
          "name": "",
          "type": "address[]"
        }
      ],
      "payable": false,
      "stateMutability": "view",
      "type": "function"
    }
  ],
  "bytecode": "0x608060405234801561001057600080fd5b506040516124453803806124458339818101604052602081101561003357600080fd5b810190808051906020019092919050505080600360006101000a81548173ffffffffffffffffffffffffffffffffffffffff021916908373ffffffffffffffffffffffffffffffffffffffff160217905550506123b0806100956000396000f3fe608060405234801561001057600080fd5b506004361061009e5760003560e01c8063bbf8a02611610066578063bbf8a02614610507578063cd1e05c0146107cb578063e4808724146108ff578063f14cbe7d146109ba578063f583dc9214610cd15761009e565b8063501895ae146100a3578063665584a81461014a57806368ebd4e8146101685780637f63d3ef14610263578063a3c1e97c1461044c575b600080fd5b6100cf600480360360208110156100b957600080fd5b8101908080359060200190929190505050610de1565b6040518080602001828103825283818151815260200191508051906020019080838360005b8381101561010f5780820151818401526020810190506100f4565b50505050905090810190601f16801561013c5780820380516001836020036101000a031916815260200191505b509250505060405180910390f35b610152610e9a565b6040518082815260200191505060405180910390f35b6102216004803603602081101561017e57600080fd5b810190808035906020019064010000000081111561019b57600080fd5b8201836020820111156101ad57600080fd5b803590602001918460018302840111640100000000831117156101cf57600080fd5b91908080601f016020809104026020016040519081016040528093929190818152602001838380828437600081840152601f19601f820116905080830192505050505050509192919290505050610ea7565b604051808273ffffffffffffffffffffffffffffffffffffffff1673ffffffffffffffffffffffffffffffffffffffff16815260200191505060405180910390f35b61044a6004803603606081101561027957600080fd5b810190808035906020019064010000000081111561029657600080fd5b8201836020820111156102a857600080fd5b803590602001918460018302840111640100000000831117156102ca57600080fd5b91908080601f016020809104026020016040519081016040528093929190818152602001838380828437600081840152601f19601f8201169050808301925050505050505091929192908035906020019064010000000081111561032d57600080fd5b82018360208201111561033f57600080fd5b8035906020019184600183028401116401000000008311171561036157600080fd5b91908080601f016020809104026020016040519081016040528093929190818152602001838380828437600081840152601f19601f820116905080830192505050505050509192919290803590602001906401000000008111156103c457600080fd5b8201836020820111156103d657600080fd5b803590602001918460018302840111640100000000831117156103f857600080fd5b91908080601f016020809104026020016040519081016040528093929190818152602001838380828437600081840152601f19601f820116905080830192505050505050509192919290505050610f3d565b005b6105056004803603602081101561046257600080fd5b810190808035906020019064010000000081111561047f57600080fd5b82018360208201111561049157600080fd5b803590602001918460018302840111640100000000831117156104b357600080fd5b91908080601f016020809104026020016040519081016040528093929190818152602001838380828437600081840152601f19601f820116905080830192505050505050509192919290505050611108565b005b6105c06004803603602081101561051d57600080fd5b810190808035906020019064010000000081111561053a57600080fd5b82018360208201111561054c57600080fd5b8035906020019184600183028401116401000000008311171561056e57600080fd5b91908080601f016020809104026020016040519081016040528093929190818152602001838380828437600081840152601f19601f8201169050808301925050505050505091929192905050506112d6565b604051808973ffffffffffffffffffffffffffffffffffffffff1673ffffffffffffffffffffffffffffffffffffffff168152602001806020018060200180602001806020018881526020018781526020018615151515815260200185810385528c818151815260200191508051906020019080838360005b83811015610654578082015181840152602081019050610639565b50505050905090810190601f1680156106815780820380516001836020036101000a031916815260200191505b5085810384528b818151815260200191508051906020019080838360005b838110156106ba57808201518184015260208101905061069f565b50505050905090810190601f1680156106e75780820380516001836020036101000a031916815260200191505b5085810383528a818151815260200191508051906020019080838360005b83811015610720578082015181840152602081019050610705565b50505050905090810190601f16801561074d5780820380516001836020036101000a031916815260200191505b50858103825289818151815260200191508051906020019080838360005b8381101561078657808201518184015260208101905061076b565b50505050905090810190601f1680156107b35780820380516001836020036101000a031916815260200191505b509c5050505050505050505050505060405180910390f35b610884600480360360208110156107e157600080fd5b81019080803590602001906401000000008111156107fe57600080fd5b82018360208201111561081057600080fd5b8035906020019184600183028401116401000000008311171561083257600080fd5b91908080601f016020809104026020016040519081016040528093929190818152602001838380828437600081840152601f19601f8201169050808301925050505050505091929192905050506115c1565b6040518080602001828103825283818151815260200191508051906020019080838360005b838110156108c45780820151818401526020810190506108a9565b50505050905090810190601f1680156108f15780820380516001836020036101000a031916815260200191505b509250505060405180910390f35b6109b86004803603602081101561091557600080fd5b810190808035906020019064010000000081111561093257600080fd5b82018360208201111561094457600080fd5b8035906020019184600183028401116401000000008311171561096657600080fd5b91908080601f016020809104026020016040519081016040528093929190818152602001838380828437600081840152601f19601f8201169050808301925050505050505091929192905050506116cf565b005b610ccf600480360360a08110156109d057600080fd5b81019080803590602001906401000000008111156109ed57600080fd5b8201836020820111156109ff57600080fd5b80359060200191846001830284011164010000000083111715610a2157600080fd5b91908080601f016020809104026020016040519081016040528093929190818152602001838380828437600081840152601f19601f82011690508083019250505050505050919291929080359060200190640100000000811115610a8457600080fd5b820183602082011115610a9657600080fd5b80359060200191846001830284011164010000000083111715610ab857600080fd5b91908080601f016020809104026020016040519081016040528093929190818152602001838380828437600081840152601f19601f82011690508083019250505050505050919291929080359060200190640100000000811115610b1b57600080fd5b820183602082011115610b2d57600080fd5b80359060200191846001830284011164010000000083111715610b4f57600080fd5b91908080601f016020809104026020016040519081016040528093929190818152602001838380828437600081840152601f19601f82011690508083019250505050505050919291929080359060200190640100000000811115610bb257600080fd5b820183602082011115610bc457600080fd5b80359060200191846001830284011164010000000083111715610be657600080fd5b91908080601f016020809104026020016040519081016040528093929190818152602001838380828437600081840152601f19601f82011690508083019250505050505050919291929080359060200190640100000000811115610c4957600080fd5b820183602082011115610c5b57600080fd5b80359060200191846001830284011164010000000083111715610c7d57600080fd5b91908080601f016020809104026020016040519081016040528093929190818152602001838380828437600081840152601f19601f820116905080830192505050505050509192919290505050611ba2565b005b610d8a60048036036020811015610ce757600080fd5b8101908080359060200190640100000000811115610d0457600080fd5b820183602082011115610d1657600080fd5b80359060200191846001830284011164010000000083111715610d3857600080fd5b91908080601f016020809104026020016040519081016040528093929190818152602001838380828437600081840152601f19601f820116905080830192505050505050509192919290505050611fda565b6040518080602001828103825283818151815260200191508051906020019060200280838360005b83811015610dcd578082015181840152602081019050610db2565b505050509050019250505060405180910390f35b60028181548110610dee57fe5b906000526020600020016000915090508054600181600116156101000203166002900480601f016020809104026020016040519081016040528092919081815260200182805460018160011615610100020316600290048015610e925780601f10610e6757610100808354040283529160200191610e92565b820191906000526020600020905b815481529060010190602001808311610e7557829003601f168201915b505050505081565b6000600280549050905090565b60006001826040518082805190602001908083835b60208310610edf5780518252602082019150602081019050602083039250610ebc565b6001836020036101000a038019825116818451168082178552505050505050905001915050908152602001604051809103902060000160009054906101000a900473ffffffffffffffffffffffffffffffffffffffff169050919050565b3373ffffffffffffffffffffffffffffffffffffffff166001846040518082805190602001908083835b60208310610f8a5780518252602082019150602081019050602083039250610f67565b6001836020036101000a038019825116818451168082178552505050505050905001915050908152602001604051809103902060000160009054906101000a900473ffffffffffffffffffffffffffffffffffffffff1673ffffffffffffffffffffffffffffffffffffffff161461100157600080fd5b816001846040518082805190602001908083835b602083106110385780518252602082019150602081019050602083039250611015565b6001836020036101000a038019825116818451168082178552505050505050905001915050908152602001604051809103902060030190805190602001906110819291906120d4565b50806001846040518082805190602001908083835b602083106110b95780518252602082019150602081019050602083039250611096565b6001836020036101000a038019825116818451168082178552505050505050905001915050908152602001604051809103902060020190805190602001906111029291906120d4565b50505050565b3373ffffffffffffffffffffffffffffffffffffffff166001826040518082805190602001908083835b602083106111555780518252602082019150602081019050602083039250611132565b6001836020036101000a038019825116818451168082178552505050505050905001915050908152602001604051809103902060000160009054906101000a900473ffffffffffffffffffffffffffffffffffffffff1673ffffffffffffffffffffffffffffffffffffffff16146111cc57600080fd5b6001816040518082805190602001908083835b6020831061120257805182526020820191506020810190506020830392506111df565b6001836020036101000a0380198251168184511680821785525050505050509050019150509081526020016040518091039020600080820160006101000a81549073ffffffffffffffffffffffffffffffffffffffff021916905560018201600061126d9190612154565b60028201600061127d9190612154565b60038201600061128d9190612154565b60048201600061129d9190612154565b60058201600090556007820160006112b5919061219c565b60088201600090556009820160006101000a81549060ff0219169055505050565b6001818051602081018201805184825260208301602085012081835280955050505050506000915090508060000160009054906101000a900473ffffffffffffffffffffffffffffffffffffffff1690806001018054600181600116156101000203166002900480601f0160208091040260200160405190810160405280929190818152602001828054600181600116156101000203166002900480156113be5780601f10611393576101008083540402835291602001916113be565b820191906000526020600020905b8154815290600101906020018083116113a157829003601f168201915b505050505090806002018054600181600116156101000203166002900480601f01602080910402602001604051908101604052809291908181526020018280546001816001161561010002031660029004801561145c5780601f106114315761010080835404028352916020019161145c565b820191906000526020600020905b81548152906001019060200180831161143f57829003601f168201915b505050505090806003018054600181600116156101000203166002900480601f0160208091040260200160405190810160405280929190818152602001828054600181600116156101000203166002900480156114fa5780601f106114cf576101008083540402835291602001916114fa565b820191906000526020600020905b8154815290600101906020018083116114dd57829003601f168201915b505050505090806004018054600181600116156101000203166002900480601f0160208091040260200160405190810160405280929190818152602001828054600181600116156101000203166002900480156115985780601f1061156d57610100808354040283529160200191611598565b820191906000526020600020905b81548152906001019060200180831161157b57829003601f168201915b5050505050908060050154908060080154908060090160009054906101000a900460ff16905088565b60606001826040518082805190602001908083835b602083106115f957805182526020820191506020810190506020830392506115d6565b6001836020036101000a03801982511681845116808217855250505050505090500191505090815260200160405180910390206001018054600181600116156101000203166002900480601f0160208091040260200160405190810160405280929190818152602001828054600181600116156101000203166002900480156116c35780601f10611698576101008083540402835291602001916116c3565b820191906000526020600020905b8154815290600101906020018083116116a657829003601f168201915b50505050509050919050565b600360009054906101000a900473ffffffffffffffffffffffffffffffffffffffff1673ffffffffffffffffffffffffffffffffffffffff166346efdc33336040518263ffffffff1660e01b8152600401808273ffffffffffffffffffffffffffffffffffffffff1673ffffffffffffffffffffffffffffffffffffffff16815260200191505060206040518083038186803b15801561176e57600080fd5b505afa158015611782573d6000803e3d6000fd5b505050506040513d602081101561179857600080fd5b81019080805190602001909291905050506117fe576040517f08c379a00000000000000000000000000000000000000000000000000000000081526004018080602001828103825260268152602001806123306026913960400191505060405180910390fd5b600115156001826040518082805190602001908083835b602083106118385780518252602082019150602081019050602083039250611815565b6001836020036101000a038019825116818451168082178552505050505050905001915050908152602001604051809103902060060160003373ffffffffffffffffffffffffffffffffffffffff1673ffffffffffffffffffffffffffffffffffffffff16815260200190815260200160002060009054906101000a900460ff161515141561192f576040517f08c379a00000000000000000000000000000000000000000000000000000000081526004018080602001828103825260208152602001807f5573657220616c7265616479207265676973746572656420696e74657265737481525060200191505060405180910390fd5b600180826040518082805190602001908083835b602083106119665780518252602082019150602081019050602083039250611943565b6001836020036101000a038019825116818451168082178552505050505050905001915050908152602001604051809103902060050154016001826040518082805190602001908083835b602083106119d457805182526020820191506020810190506020830392506119b1565b6001836020036101000a038019825116818451168082178552505050505050905001915050908152602001604051809103902060050181905550600180826040518082805190602001908083835b60208310611a455780518252602082019150602081019050602083039250611a22565b6001836020036101000a038019825116818451168082178552505050505050905001915050908152602001604051809103902060060160003373ffffffffffffffffffffffffffffffffffffffff1673ffffffffffffffffffffffffffffffffffffffff16815260200190815260200160002060006101000a81548160ff0219169083151502179055506001816040518082805190602001908083835b60208310611b055780518252602082019150602081019050602083039250611ae2565b6001836020036101000a03801982511681845116808217855250505050505090500191505090815260200160405180910390206007013390806001815401808255809150509060018203906000526020600020016000909192909190916101000a81548173ffffffffffffffffffffffffffffffffffffffff021916908373ffffffffffffffffffffffffffffffffffffffff1602179055505050565b600360009054906101000a900473ffffffffffffffffffffffffffffffffffffffff1673ffffffffffffffffffffffffffffffffffffffff1663b3599234336040518263ffffffff1660e01b8152600401808273ffffffffffffffffffffffffffffffffffffffff1673ffffffffffffffffffffffffffffffffffffffff16815260200191505060206040518083038186803b158015611c4157600080fd5b505afa158015611c55573d6000803e3d6000fd5b505050506040513d6020811015611c6b57600080fd5b8101908080519060200190929190505050611cd1576040517f08c379a00000000000000000000000000000000000000000000000000000000081526004018080602001828103825260268152602001806123566026913960400191505060405180910390fd5b6001856040518082805190602001908083835b60208310611d075780518252602082019150602081019050602083039250611ce4565b6001836020036101000a038019825116818451168082178552505050505050905001915050908152602001604051809103902060090160009054906101000a900460ff1615611dbe576040517f08c379a00000000000000000000000000000000000000000000000000000000081526004018080602001828103825260208152602001807f54686973204d6f64656c20697320616c7265616479207265676973746572656481525060200191505060405180910390fd5b60606040518061012001604052803373ffffffffffffffffffffffffffffffffffffffff16815260200186815260200185815260200184815260200183815260200160008152602001828152602001428152602001600115158152506001876040518082805190602001908083835b60208310611e505780518252602082019150602081019050602083039250611e2d565b6001836020036101000a038019825116818451168082178552505050505050905001915050908152602001604051809103902060008201518160000160006101000a81548173ffffffffffffffffffffffffffffffffffffffff021916908373ffffffffffffffffffffffffffffffffffffffff1602179055506020820151816001019080519060200190611ee69291906121bd565b506040820151816002019080519060200190611f039291906121bd565b506060820151816003019080519060200190611f209291906121bd565b506080820151816004019080519060200190611f3d9291906121bd565b5060a0820151816005015560c0820151816007019080519060200190611f6492919061223d565b5060e082015181600801556101008201518160090160006101000a81548160ff0219169083151502179055509050506002869080600181540180825580915050906001820390600052602060002001600090919290919091509080519060200190611fd09291906120d4565b5050505050505050565b60606001826040518082805190602001908083835b602083106120125780518252602082019150602081019050602083039250611fef565b6001836020036101000a03801982511681845116808217855250505050505090500191505090815260200160405180910390206007018054806020026020016040519081016040528092919081815260200182805480156120c857602002820191906000526020600020905b8160009054906101000a900473ffffffffffffffffffffffffffffffffffffffff1673ffffffffffffffffffffffffffffffffffffffff168152602001906001019080831161207e575b50505050509050919050565b828054600181600116156101000203166002900490600052602060002090601f016020900481019282601f1061211557805160ff1916838001178555612143565b82800160010185558215612143579182015b82811115612142578251825591602001919060010190612127565b5b50905061215091906122c7565b5090565b50805460018160011615610100020316600290046000825580601f1061217a5750612199565b601f01602090049060005260206000209081019061219891906122c7565b5b50565b50805460008255906000526020600020908101906121ba91906122c7565b50565b828054600181600116156101000203166002900490600052602060002090601f016020900481019282601f106121fe57805160ff191683800117855561222c565b8280016001018555821561222c579182015b8281111561222b578251825591602001919060010190612210565b5b50905061223991906122c7565b5090565b8280548282559060005260206000209081019282156122b6579160200282015b828111156122b55782518260006101000a81548173ffffffffffffffffffffffffffffffffffffffff021916908373ffffffffffffffffffffffffffffffffffffffff1602179055509160200191906001019061225d565b5b5090506122c391906122ec565b5090565b6122e991905b808211156122e55760008160009055506001016122cd565b5090565b90565b61232c91905b8082111561232857600081816101000a81549073ffffffffffffffffffffffffffffffffffffffff0219169055506001016122f2565b5090565b9056fe4f6e6c792064617461206f776e6572732063616e20726567697374657220696e7465726573744d75737420626520726567697374657265642061732061206461746120736369656e74697374a265627a7a7231582030438d5070306dc6667dbc2ca57a1c13e0edf66be7671b4a0a2a92c078dbf44064736f6c63430005100032",
  "source": "pragma solidity >=0.5.16;\r\n\r\ncontract Registry {\r\n  function isDataScientist(address userAddress) public view returns(bool isIndeed) {}\r\n  function isDataOwner(address userAddress) public view returns(bool isIndeed) {}\r\n}\r\n\r\ncontract ModelDatabase {\r\n\r\n    uint number;\r\n\r\n    struct Model {\r\n        address owner;\r\n        string name;\r\n        string objective;\r\n        string description;\r\n        string dataRequirements;\r\n        uint interest;\r\n        mapping(address => bool) datasetOwnersInterest;\r\n        address [] arrDatasetOwnersInterest;\r\n        uint time;\r\n        bool registered;\r\n    }\r\n\r\n    mapping(string => Model) public models;\r\n    string[] public hashes;\r\n\r\n    Registry registry;\r\n\r\n    constructor(address _contractAddressRegistry) public {\r\n        registry = Registry(_contractAddressRegistry);\r\n    }\r\n\r\n    // function to register a Model\r\n    function registerModel(string memory _ipfsHash,\r\n                            string memory _name,\r\n                            string memory _objective,\r\n                            string memory _description,\r\n                            string memory _dataRequirements) public {\r\n        if (!registry.isDataScientist(msg.sender)){\r\n            revert(\"Must be registered as a data scientist\");\r\n        }\r\n\r\n        if (models[_ipfsHash].registered) {\r\n            revert(\"This Model is already registered\");\r\n        }\r\n\r\n        address [] memory init;\r\n\r\n        models[_ipfsHash] = Model({owner: msg.sender,\r\n                                name: _name,\r\n                                description: _description,\r\n                                objective: _objective,\r\n                                dataRequirements: _dataRequirements,\r\n                                interest: 0,\r\n                                arrDatasetOwnersInterest: init,\r\n                                time: block.timestamp,\r\n                                registered: true});\r\n        hashes.push(_ipfsHash);\r\n    }\r\n\r\n    function getNumberOfModels() public view returns(uint) {\r\n        return hashes.length;\r\n    }\r\n\r\n    // function to modify model\r\n    function modifyModel(string memory _ipfsHash, string memory _description, string memory _objective) public {\r\n        require(models[_ipfsHash].owner == msg.sender);\r\n        models[_ipfsHash].description = _description;\r\n        models[_ipfsHash].objective = _objective;\r\n    }\r\n\r\n\r\n    // Allow owner to remove their Model from database\r\n    function deleteModel(string memory _ipfsHash) public {\r\n        require(models[_ipfsHash].owner == msg.sender);\r\n        delete(models[_ipfsHash]);\r\n    }\r\n\r\n    function getModelOwner(string memory _ipfsHash) public view returns(address) {\r\n        return models[_ipfsHash].owner;\r\n    }\r\n\r\n    function getModelName(string memory _ipfsHash) public view returns(string memory){\r\n        return models[_ipfsHash].name;\r\n    }\r\n\r\n    // Allow Data owners to register interest in a model\r\n    function registerInterest(string memory _ipfsHash) public {\r\n        // Ensure only data owners can register interest\r\n        if (!registry.isDataOwner(msg.sender)){\r\n            revert(\"Only data owners can register interest\");\r\n        }\r\n        // Ensures data-owners can register interest in model only once\r\n        if (models[_ipfsHash].datasetOwnersInterest[msg.sender] == true){\r\n            revert(\"User already registered interest\");\r\n        }\r\n\r\n        models[_ipfsHash].interest = models[_ipfsHash].interest + 1;\r\n        models[_ipfsHash].datasetOwnersInterest[msg.sender] = true;\r\n        models[_ipfsHash].arrDatasetOwnersInterest.push(msg.sender);\r\n    }\r\n\r\n    // Get array of interested users\r\n    function getModelInterested(string memory _ipfsHash) public view returns(address [] memory){\r\n      return models[_ipfsHash].arrDatasetOwnersInterest;\r\n    }\r\n\r\n}",
  "sourcePath": "C:/Users/PC/Dapp/group-project/reactapp/BlockchainBackend/contracts/ModelDatabase.sol",
  "compiler": {
    "name": "solc",
    "version": "0.5.16+commit.9c3226ce.Emscripten.clang"
  },
  "schemaVersion": "3.3.4",
  "updatedAt": "2021-04-19T19:01:53.138Z",
  "networkType": "ethereum",
  "devdoc": {
    "methods": {}
  },
  "userdoc": {
    "methods": {}
  }
}