{
  "contractName": "ModelDatabase",
  "abi": [
    {
      "inputs": [
        {
          "internalType": "address",
          "name": "_contractAddressRegistry",
          "type": "address"
        }
      ],
      "payable": false,
      "stateMutability": "nonpayable",
      "type": "constructor"
    },
    {
      "constant": true,
      "inputs": [
        {
          "internalType": "uint256",
          "name": "",
          "type": "uint256"
        }
      ],
      "name": "hashes",
      "outputs": [
        {
          "internalType": "string",
          "name": "",
          "type": "string"
        }
      ],
      "payable": false,
      "stateMutability": "view",
      "type": "function"
    },
    {
      "constant": true,
      "inputs": [
        {
          "internalType": "string",
          "name": "",
          "type": "string"
        }
      ],
      "name": "models",
      "outputs": [
        {
          "internalType": "address",
          "name": "owner",
          "type": "address"
        },
        {
          "internalType": "string",
          "name": "name",
          "type": "string"
        },
        {
          "internalType": "string",
          "name": "objective",
          "type": "string"
        },
        {
          "internalType": "string",
          "name": "description",
          "type": "string"
        },
        {
          "internalType": "string",
          "name": "dataRequirements",
          "type": "string"
        },
        {
          "internalType": "uint256",
          "name": "time",
          "type": "uint256"
        },
        {
          "internalType": "bool",
          "name": "registered",
          "type": "bool"
        }
      ],
      "payable": false,
      "stateMutability": "view",
      "type": "function"
    },
    {
      "constant": false,
      "inputs": [
        {
          "internalType": "string",
          "name": "_ipfsHash",
          "type": "string"
        },
        {
          "internalType": "string",
          "name": "_name",
          "type": "string"
        },
        {
          "internalType": "string",
          "name": "_objective",
          "type": "string"
        },
        {
          "internalType": "string",
          "name": "_description",
          "type": "string"
        },
        {
          "internalType": "string",
          "name": "_dataRequirements",
          "type": "string"
        }
      ],
      "name": "registerModel",
      "outputs": [],
      "payable": false,
      "stateMutability": "nonpayable",
      "type": "function"
    },
    {
      "constant": true,
      "inputs": [],
      "name": "getNumberOfModels",
      "outputs": [
        {
          "internalType": "uint256",
          "name": "",
          "type": "uint256"
        }
      ],
      "payable": false,
      "stateMutability": "view",
      "type": "function"
    },
    {
      "constant": false,
      "inputs": [
        {
          "internalType": "string",
          "name": "_ipfsHash",
          "type": "string"
        },
        {
          "internalType": "string",
          "name": "_description",
          "type": "string"
        },
        {
          "internalType": "string",
          "name": "_objective",
          "type": "string"
        }
      ],
      "name": "modifyModel",
      "outputs": [],
      "payable": false,
      "stateMutability": "nonpayable",
      "type": "function"
    },
    {
      "constant": false,
      "inputs": [
        {
          "internalType": "string",
          "name": "_ipfsHash",
          "type": "string"
        }
      ],
      "name": "deleteModel",
      "outputs": [],
      "payable": false,
      "stateMutability": "nonpayable",
      "type": "function"
    },
    {
      "constant": true,
      "inputs": [
        {
          "internalType": "string",
          "name": "_ipfsHash",
          "type": "string"
        }
      ],
      "name": "getModelOwner",
      "outputs": [
        {
          "internalType": "address",
          "name": "",
          "type": "address"
        }
      ],
      "payable": false,
      "stateMutability": "view",
      "type": "function"
    }
  ],
  "bytecode": "0x608060405234801561001057600080fd5b506040516118d83803806118d88339818101604052602081101561003357600080fd5b810190808051906020019092919050505080600360006101000a81548173ffffffffffffffffffffffffffffffffffffffff021916908373ffffffffffffffffffffffffffffffffffffffff16021790555050611843806100956000396000f3fe608060405234801561001057600080fd5b506004361061007d5760003560e01c80637f63d3ef1161005b5780637f63d3ef14610242578063a3c1e97c1461042b578063bbf8a026146104e6578063f14cbe7d146107a35761007d565b8063501895ae14610082578063665584a81461012957806368ebd4e814610147575b600080fd5b6100ae6004803603602081101561009857600080fd5b8101908080359060200190929190505050610aba565b6040518080602001828103825283818151815260200191508051906020019080838360005b838110156100ee5780820151818401526020810190506100d3565b50505050905090810190601f16801561011b5780820380516001836020036101000a031916815260200191505b509250505060405180910390f35b610131610b73565b6040518082815260200191505060405180910390f35b6102006004803603602081101561015d57600080fd5b810190808035906020019064010000000081111561017a57600080fd5b82018360208201111561018c57600080fd5b803590602001918460018302840111640100000000831117156101ae57600080fd5b91908080601f016020809104026020016040519081016040528093929190818152602001838380828437600081840152601f19601f820116905080830192505050505050509192919290505050610b80565b604051808273ffffffffffffffffffffffffffffffffffffffff1673ffffffffffffffffffffffffffffffffffffffff16815260200191505060405180910390f35b6104296004803603606081101561025857600080fd5b810190808035906020019064010000000081111561027557600080fd5b82018360208201111561028757600080fd5b803590602001918460018302840111640100000000831117156102a957600080fd5b91908080601f016020809104026020016040519081016040528093929190818152602001838380828437600081840152601f19601f8201169050808301925050505050505091929192908035906020019064010000000081111561030c57600080fd5b82018360208201111561031e57600080fd5b8035906020019184600183028401116401000000008311171561034057600080fd5b91908080601f016020809104026020016040519081016040528093929190818152602001838380828437600081840152601f19601f820116905080830192505050505050509192919290803590602001906401000000008111156103a357600080fd5b8201836020820111156103b557600080fd5b803590602001918460018302840111640100000000831117156103d757600080fd5b91908080601f016020809104026020016040519081016040528093929190818152602001838380828437600081840152601f19601f820116905080830192505050505050509192919290505050610c16565b005b6104e46004803603602081101561044157600080fd5b810190808035906020019064010000000081111561045e57600080fd5b82018360208201111561047057600080fd5b8035906020019184600183028401116401000000008311171561049257600080fd5b91908080601f016020809104026020016040519081016040528093929190818152602001838380828437600081840152601f19601f820116905080830192505050505050509192919290505050610de1565b005b61059f600480360360208110156104fc57600080fd5b810190808035906020019064010000000081111561051957600080fd5b82018360208201111561052b57600080fd5b8035906020019184600183028401116401000000008311171561054d57600080fd5b91908080601f016020809104026020016040519081016040528093929190818152602001838380828437600081840152601f19601f820116905080830192505050505050509192919290505050610f97565b604051808873ffffffffffffffffffffffffffffffffffffffff1673ffffffffffffffffffffffffffffffffffffffff168152602001806020018060200180602001806020018781526020018615151515815260200185810385528b818151815260200191508051906020019080838360005b8381101561062d578082015181840152602081019050610612565b50505050905090810190601f16801561065a5780820380516001836020036101000a031916815260200191505b5085810384528a818151815260200191508051906020019080838360005b83811015610693578082015181840152602081019050610678565b50505050905090810190601f1680156106c05780820380516001836020036101000a031916815260200191505b50858103835289818151815260200191508051906020019080838360005b838110156106f95780820151818401526020810190506106de565b50505050905090810190601f1680156107265780820380516001836020036101000a031916815260200191505b50858103825288818151815260200191508051906020019080838360005b8381101561075f578082015181840152602081019050610744565b50505050905090810190601f16801561078c5780820380516001836020036101000a031916815260200191505b509b50505050505050505050505060405180910390f35b610ab8600480360360a08110156107b957600080fd5b81019080803590602001906401000000008111156107d657600080fd5b8201836020820111156107e857600080fd5b8035906020019184600183028401116401000000008311171561080a57600080fd5b91908080601f016020809104026020016040519081016040528093929190818152602001838380828437600081840152601f19601f8201169050808301925050505050505091929192908035906020019064010000000081111561086d57600080fd5b82018360208201111561087f57600080fd5b803590602001918460018302840111640100000000831117156108a157600080fd5b91908080601f016020809104026020016040519081016040528093929190818152602001838380828437600081840152601f19601f8201169050808301925050505050505091929192908035906020019064010000000081111561090457600080fd5b82018360208201111561091657600080fd5b8035906020019184600183028401116401000000008311171561093857600080fd5b91908080601f016020809104026020016040519081016040528093929190818152602001838380828437600081840152601f19601f8201169050808301925050505050505091929192908035906020019064010000000081111561099b57600080fd5b8201836020820111156109ad57600080fd5b803590602001918460018302840111640100000000831117156109cf57600080fd5b91908080601f016020809104026020016040519081016040528093929190818152602001838380828437600081840152601f19601f82011690508083019250505050505050919291929080359060200190640100000000811115610a3257600080fd5b820183602082011115610a4457600080fd5b80359060200191846001830284011164010000000083111715610a6657600080fd5b91908080601f016020809104026020016040519081016040528093929190818152602001838380828437600081840152601f19601f82011690508083019250505050505050919291929050505061127c565b005b60028181548110610ac757fe5b906000526020600020016000915090508054600181600116156101000203166002900480601f016020809104026020016040519081016040528092919081815260200182805460018160011615610100020316600290048015610b6b5780601f10610b4057610100808354040283529160200191610b6b565b820191906000526020600020905b815481529060010190602001808311610b4e57829003601f168201915b505050505081565b6000600280549050905090565b60006001826040518082805190602001908083835b60208310610bb85780518252602082019150602081019050602083039250610b95565b6001836020036101000a038019825116818451168082178552505050505050905001915050908152602001604051809103902060000160009054906101000a900473ffffffffffffffffffffffffffffffffffffffff169050919050565b3373ffffffffffffffffffffffffffffffffffffffff166001846040518082805190602001908083835b60208310610c635780518252602082019150602081019050602083039250610c40565b6001836020036101000a038019825116818451168082178552505050505050905001915050908152602001604051809103902060000160009054906101000a900473ffffffffffffffffffffffffffffffffffffffff1673ffffffffffffffffffffffffffffffffffffffff1614610cda57600080fd5b816001846040518082805190602001908083835b60208310610d115780518252602082019150602081019050602083039250610cee565b6001836020036101000a03801982511681845116808217855250505050505090500191505090815260200160405180910390206003019080519060200190610d5a92919061167b565b50806001846040518082805190602001908083835b60208310610d925780518252602082019150602081019050602083039250610d6f565b6001836020036101000a03801982511681845116808217855250505050505090500191505090815260200160405180910390206002019080519060200190610ddb92919061167b565b50505050565b3373ffffffffffffffffffffffffffffffffffffffff166001826040518082805190602001908083835b60208310610e2e5780518252602082019150602081019050602083039250610e0b565b6001836020036101000a038019825116818451168082178552505050505050905001915050908152602001604051809103902060000160009054906101000a900473ffffffffffffffffffffffffffffffffffffffff1673ffffffffffffffffffffffffffffffffffffffff1614610ea557600080fd5b6001816040518082805190602001908083835b60208310610edb5780518252602082019150602081019050602083039250610eb8565b6001836020036101000a0380198251168184511680821785525050505050509050019150509081526020016040518091039020600080820160006101000a81549073ffffffffffffffffffffffffffffffffffffffff0219169055600182016000610f4691906116fb565b600282016000610f5691906116fb565b600382016000610f6691906116fb565b600482016000610f7691906116fb565b60058201600090556006820160006101000a81549060ff0219169055505050565b6001818051602081018201805184825260208301602085012081835280955050505050506000915090508060000160009054906101000a900473ffffffffffffffffffffffffffffffffffffffff1690806001018054600181600116156101000203166002900480601f01602080910402602001604051908101604052809291908181526020018280546001816001161561010002031660029004801561107f5780601f106110545761010080835404028352916020019161107f565b820191906000526020600020905b81548152906001019060200180831161106257829003601f168201915b505050505090806002018054600181600116156101000203166002900480601f01602080910402602001604051908101604052809291908181526020018280546001816001161561010002031660029004801561111d5780601f106110f25761010080835404028352916020019161111d565b820191906000526020600020905b81548152906001019060200180831161110057829003601f168201915b505050505090806003018054600181600116156101000203166002900480601f0160208091040260200160405190810160405280929190818152602001828054600181600116156101000203166002900480156111bb5780601f10611190576101008083540402835291602001916111bb565b820191906000526020600020905b81548152906001019060200180831161119e57829003601f168201915b505050505090806004018054600181600116156101000203166002900480601f0160208091040260200160405190810160405280929190818152602001828054600181600116156101000203166002900480156112595780601f1061122e57610100808354040283529160200191611259565b820191906000526020600020905b81548152906001019060200180831161123c57829003601f168201915b5050505050908060050154908060060160009054906101000a900460ff16905087565b600360009054906101000a900473ffffffffffffffffffffffffffffffffffffffff1673ffffffffffffffffffffffffffffffffffffffff1663b3599234336040518263ffffffff1660e01b8152600401808273ffffffffffffffffffffffffffffffffffffffff1673ffffffffffffffffffffffffffffffffffffffff16815260200191505060206040518083038186803b15801561131b57600080fd5b505afa15801561132f573d6000803e3d6000fd5b505050506040513d602081101561134557600080fd5b81019080805190602001909291905050506113ab576040517f08c379a00000000000000000000000000000000000000000000000000000000081526004018080602001828103825260268152602001806117e96026913960400191505060405180910390fd5b6001856040518082805190602001908083835b602083106113e157805182526020820191506020810190506020830392506113be565b6001836020036101000a038019825116818451168082178552505050505050905001915050908152602001604051809103902060060160009054906101000a900460ff1615611498576040517f08c379a00000000000000000000000000000000000000000000000000000000081526004018080602001828103825260208152602001807f54686973204d6f64656c20697320616c7265616479207265676973746572656481525060200191505060405180910390fd5b6040518060e001604052803373ffffffffffffffffffffffffffffffffffffffff168152602001858152602001848152602001838152602001828152602001428152602001600115158152506001866040518082805190602001908083835b6020831061151a57805182526020820191506020810190506020830392506114f7565b6001836020036101000a038019825116818451168082178552505050505050905001915050908152602001604051809103902060008201518160000160006101000a81548173ffffffffffffffffffffffffffffffffffffffff021916908373ffffffffffffffffffffffffffffffffffffffff16021790555060208201518160010190805190602001906115b0929190611743565b5060408201518160020190805190602001906115cd929190611743565b5060608201518160030190805190602001906115ea929190611743565b506080820151816004019080519060200190611607929190611743565b5060a0820151816005015560c08201518160060160006101000a81548160ff021916908315150217905550905050600285908060018154018082558091505090600182039060005260206000200160009091929091909150908051906020019061167292919061167b565b50505050505050565b828054600181600116156101000203166002900490600052602060002090601f016020900481019282601f106116bc57805160ff19168380011785556116ea565b828001600101855582156116ea579182015b828111156116e95782518255916020019190600101906116ce565b5b5090506116f791906117c3565b5090565b50805460018160011615610100020316600290046000825580601f106117215750611740565b601f01602090049060005260206000209081019061173f91906117c3565b5b50565b828054600181600116156101000203166002900490600052602060002090601f016020900481019282601f1061178457805160ff19168380011785556117b2565b828001600101855582156117b2579182015b828111156117b1578251825591602001919060010190611796565b5b5090506117bf91906117c3565b5090565b6117e591905b808211156117e15760008160009055506001016117c9565b5090565b9056fe4d75737420626520726567697374657265642061732061206461746120736369656e74697374a265627a7a72315820c7bf49c2054af5701c90a01f4d188f6d72af2d240b202ad605488516e518ed0464736f6c63430005100032",
  "source": "pragma solidity >=0.5.16;\n\ncontract Registry {\n  function isDataScientist(address userAddress) public view returns(bool isIndeed) {}\n}\n\ncontract ModelDatabase {\n\n    uint number;\n\n    struct Model {\n        address owner;\n        string name;\n        string objective;\n        string description;\n        string dataRequirements;\n        uint time;\n        bool registered;\n    }\n\n    mapping(string => Model) public models;\n    string[] public hashes;\n\n    Registry registry;\n\n    constructor(address _contractAddressRegistry) public {\n        registry = Registry(_contractAddressRegistry);\n    }\n\n    // function to register a Model\n    function registerModel(string memory _ipfsHash,\n                            string memory _name,\n                            string memory _objective,\n                            string memory _description,\n                            string memory _dataRequirements) public {\n        if (!registry.isDataScientist(msg.sender)){\n            revert(\"Must be registered as a data scientist\");\n        }\n\n        if (models[_ipfsHash].registered) {\n            revert(\"This Model is already registered\");\n        }\n        models[_ipfsHash] = Model({owner: msg.sender,\n                                name: _name,\n                                description: _description,\n                                objective: _objective,\n                                dataRequirements: _dataRequirements,\n                                time: block.timestamp,\n                                registered: true});\n        hashes.push(_ipfsHash);\n    }\n\n    function getNumberOfModels() public view returns(uint) {\n        return hashes.length;\n    }\n\n    // function to modify model\n    function modifyModel(string memory _ipfsHash, string memory _description, string memory _objective) public {\n        require(models[_ipfsHash].owner == msg.sender);\n        models[_ipfsHash].description = _description;\n        models[_ipfsHash].objective = _objective;\n    }\n\n\n    // Allow owner to remove their Model from database\n    function deleteModel(string memory _ipfsHash) public {\n        require(models[_ipfsHash].owner == msg.sender);\n        delete(models[_ipfsHash]);\n    }\n\n    function getModelOwner(string memory _ipfsHash) public view returns(address) {\n        return models[_ipfsHash].owner;\n    }\n\n}",
  "sourcePath": "/Users/mac/Imperial/Software_engineering_project/group-project/reactapp/BlockchainBackend/contracts/ModelDatabase.sol",
  "compiler": {
    "name": "solc",
    "version": "0.5.16+commit.9c3226ce.Emscripten.clang"
  },
  "schemaVersion": "3.3.3",
  "updatedAt": "2021-04-18T22:06:30.057Z",
  "devdoc": {
    "methods": {}
  },
  "userdoc": {
    "methods": {}
  }
}