{
  "contractName": "Registry",
  "abi": [
    {
      "anonymous": false,
      "inputs": [
        {
          "indexed": true,
          "internalType": "address",
          "name": "userAddress",
          "type": "address"
        },
        {
          "indexed": false,
          "internalType": "string",
          "name": "user_name",
          "type": "string"
        },
        {
          "indexed": false,
          "internalType": "bool",
          "name": "data_scientist",
          "type": "bool"
        },
        {
          "indexed": false,
          "internalType": "bool",
          "name": "aggregator",
          "type": "bool"
        },
        {
          "indexed": false,
          "internalType": "bool",
          "name": "hospital",
          "type": "bool"
        }
      ],
      "name": "LogNewUser",
      "type": "event"
    },
    {
      "anonymous": false,
      "inputs": [
        {
          "indexed": true,
          "internalType": "address",
          "name": "userAddress",
          "type": "address"
        },
        {
          "indexed": false,
          "internalType": "string",
          "name": "user_name",
          "type": "string"
        },
        {
          "indexed": false,
          "internalType": "bool",
          "name": "data_scientist",
          "type": "bool"
        },
        {
          "indexed": false,
          "internalType": "bool",
          "name": "aggregator",
          "type": "bool"
        },
        {
          "indexed": false,
          "internalType": "bool",
          "name": "hospital",
          "type": "bool"
        }
      ],
      "name": "LogUpdateUser",
      "type": "event"
    },
    {
      "constant": true,
      "inputs": [
        {
          "internalType": "address",
          "name": "",
          "type": "address"
        }
      ],
      "name": "registrations",
      "outputs": [
        {
          "internalType": "string",
          "name": "user_name",
          "type": "string"
        },
        {
          "internalType": "bool",
          "name": "data_scientist",
          "type": "bool"
        },
        {
          "internalType": "bool",
          "name": "aggregator",
          "type": "bool"
        },
        {
          "internalType": "bool",
          "name": "hospital",
          "type": "bool"
        },
        {
          "internalType": "bool",
          "name": "registered",
          "type": "bool"
        }
      ],
      "payable": false,
      "stateMutability": "view",
      "type": "function"
    },
    {
      "constant": true,
      "inputs": [
        {
          "internalType": "uint256",
          "name": "",
          "type": "uint256"
        }
      ],
      "name": "userHash",
      "outputs": [
        {
          "internalType": "address",
          "name": "",
          "type": "address"
        }
      ],
      "payable": false,
      "stateMutability": "view",
      "type": "function"
    },
    {
      "constant": true,
      "inputs": [
        {
          "internalType": "address",
          "name": "userAddress",
          "type": "address"
        }
      ],
      "name": "isUser",
      "outputs": [
        {
          "internalType": "bool",
          "name": "isIndeed",
          "type": "bool"
        }
      ],
      "payable": false,
      "stateMutability": "view",
      "type": "function"
    },
    {
      "constant": false,
      "inputs": [
        {
          "internalType": "string",
          "name": "user_name",
          "type": "string"
        },
        {
          "internalType": "bool",
          "name": "data_scientist",
          "type": "bool"
        },
        {
          "internalType": "bool",
          "name": "aggregator",
          "type": "bool"
        },
        {
          "internalType": "bool",
          "name": "hospital",
          "type": "bool"
        }
      ],
      "name": "insertUser",
      "outputs": [
        {
          "internalType": "uint256",
          "name": "index",
          "type": "uint256"
        }
      ],
      "payable": false,
      "stateMutability": "nonpayable",
      "type": "function"
    },
    {
      "constant": true,
      "inputs": [
        {
          "internalType": "address",
          "name": "userAddress",
          "type": "address"
        }
      ],
      "name": "getUser",
      "outputs": [
        {
          "internalType": "string",
          "name": "user_name",
          "type": "string"
        },
        {
          "internalType": "bool",
          "name": "data_scientist",
          "type": "bool"
        },
        {
          "internalType": "bool",
          "name": "aggregator",
          "type": "bool"
        },
        {
          "internalType": "bool",
          "name": "hospital",
          "type": "bool"
        }
      ],
      "payable": false,
      "stateMutability": "view",
      "type": "function"
    },
    {
      "constant": false,
      "inputs": [
        {
          "internalType": "address",
          "name": "userAddress",
          "type": "address"
        },
        {
          "internalType": "bool",
          "name": "data_scientist",
          "type": "bool"
        },
        {
          "internalType": "bool",
          "name": "aggregator",
          "type": "bool"
        },
        {
          "internalType": "bool",
          "name": "hospital",
          "type": "bool"
        }
      ],
      "name": "updateUserType",
      "outputs": [
        {
          "internalType": "bool",
          "name": "success",
          "type": "bool"
        }
      ],
      "payable": false,
      "stateMutability": "nonpayable",
      "type": "function"
    },
    {
      "constant": true,
      "inputs": [],
      "name": "getUserCount",
      "outputs": [
        {
          "internalType": "uint256",
          "name": "count",
          "type": "uint256"
        }
      ],
      "payable": false,
      "stateMutability": "view",
      "type": "function"
    },
    {
      "constant": true,
      "inputs": [
        {
          "internalType": "uint256",
          "name": "index",
          "type": "uint256"
        }
      ],
      "name": "getUserAtIndex",
      "outputs": [
        {
          "internalType": "address",
          "name": "userAddress",
          "type": "address"
        }
      ],
      "payable": false,
      "stateMutability": "view",
      "type": "function"
    },
    {
      "constant": false,
      "inputs": [
        {
          "internalType": "address",
          "name": "userAddress",
          "type": "address"
        }
      ],
      "name": "deleteUser",
      "outputs": [],
      "payable": false,
      "stateMutability": "nonpayable",
      "type": "function"
    }
  ],
  "bytecode": "0x608060405234801561001057600080fd5b50611245806100206000396000f3fe608060405234801561001057600080fd5b50600436106100935760003560e01c80636f77926b116100665780636f77926b14610226578063942e6bcf14610304578063b5cb15f7146103ed578063ed15ac3b1461040b578063ffcc7bbf146104fe57610093565b80630a7490cd146100985780631bfffc4c146101185780634209fff1146101865780635c60f226146101e2575b600080fd5b6100fe600480360360808110156100ae57600080fd5b81019080803573ffffffffffffffffffffffffffffffffffffffff16906020019092919080351515906020019092919080351515906020019092919080351515906020019092919050505061056c565b604051808215151515815260200191505060405180910390f35b6101446004803603602081101561012e57600080fd5b810190808035906020019092919050505061086c565b604051808273ffffffffffffffffffffffffffffffffffffffff1673ffffffffffffffffffffffffffffffffffffffff16815260200191505060405180910390f35b6101c86004803603602081101561019c57600080fd5b81019080803573ffffffffffffffffffffffffffffffffffffffff1690602001909291905050506108a8565b604051808215151515815260200191505060405180910390f35b610224600480360360208110156101f857600080fd5b81019080803573ffffffffffffffffffffffffffffffffffffffff169060200190929190505050610914565b005b6102686004803603602081101561023c57600080fd5b81019080803573ffffffffffffffffffffffffffffffffffffffff1690602001909291905050506109f0565b6040518080602001851515151581526020018415151515815260200183151515158152602001828103825286818151815260200191508051906020019080838360005b838110156102c65780820151818401526020810190506102ab565b50505050905090810190601f1680156102f35780820380516001836020036101000a031916815260200191505b509550505050505060405180910390f35b6103466004803603602081101561031a57600080fd5b81019080803573ffffffffffffffffffffffffffffffffffffffff169060200190929190505050610c4b565b604051808060200186151515158152602001851515151581526020018415151515815260200183151515158152602001828103825287818151815260200191508051906020019080838360005b838110156103ae578082015181840152602081019050610393565b50505050905090810190601f1680156103db5780820380516001836020036101000a031916815260200191505b50965050505050505060405180910390f35b6103f5610d4d565b6040518082815260200191505060405180910390f35b6104e86004803603608081101561042157600080fd5b810190808035906020019064010000000081111561043e57600080fd5b82018360208201111561045057600080fd5b8035906020019184600183028401116401000000008311171561047257600080fd5b91908080601f016020809104026020016040519081016040528093929190818152602001838380828437600081840152601f19601f820116905080830192505050505050509192919290803515159060200190929190803515159060200190929190803515159060200190929190505050610d5a565b6040518082815260200191505060405180910390f35b61052a6004803603602081101561051457600080fd5b81019080803590602001909291905050506110e2565b604051808273ffffffffffffffffffffffffffffffffffffffff1673ffffffffffffffffffffffffffffffffffffffff16815260200191505060405180910390f35b6000610577856108a8565b6105e9576040517f08c379a000000000000000000000000000000000000000000000000000000000815260040180806020018281038252601e8152602001807f54686973206163636f756e74206973206e6f742072656769737465726564000081525060200191505060405180910390fd5b3373ffffffffffffffffffffffffffffffffffffffff168573ffffffffffffffffffffffffffffffffffffffff161461062157600080fd5b836000808773ffffffffffffffffffffffffffffffffffffffff1673ffffffffffffffffffffffffffffffffffffffff16815260200190815260200160002060010160006101000a81548160ff021916908315150217905550826000808773ffffffffffffffffffffffffffffffffffffffff1673ffffffffffffffffffffffffffffffffffffffff16815260200190815260200160002060010160016101000a81548160ff021916908315150217905550816000808773ffffffffffffffffffffffffffffffffffffffff1673ffffffffffffffffffffffffffffffffffffffff16815260200190815260200160002060010160026101000a81548160ff0219169083151502179055508473ffffffffffffffffffffffffffffffffffffffff167fa68fd60ddf3b5ed0ac35557e5ed7d23c223c2e10787a88ba58fbdc1f2fb197f46000808873ffffffffffffffffffffffffffffffffffffffff1673ffffffffffffffffffffffffffffffffffffffff168152602001908152602001600020600001868686604051808060200185151515158152602001841515151581526020018315151515815260200182810382528681815460018160011615610100020316600290048152602001915080546001816001161561010002031660029004801561084f5780601f106108245761010080835404028352916020019161084f565b820191906000526020600020905b81548152906001019060200180831161083257829003601f168201915b50509550505050505060405180910390a260019050949350505050565b6001818154811061087957fe5b906000526020600020016000915054906101000a900473ffffffffffffffffffffffffffffffffffffffff1681565b60008060008373ffffffffffffffffffffffffffffffffffffffff1673ffffffffffffffffffffffffffffffffffffffff16815260200190815260200160002060010160039054906101000a900460ff1615610907576001905061090c565b600090505b809050919050565b3373ffffffffffffffffffffffffffffffffffffffff168173ffffffffffffffffffffffffffffffffffffffff161461094c57600080fd5b6000808273ffffffffffffffffffffffffffffffffffffffff1673ffffffffffffffffffffffffffffffffffffffff1681526020019081526020016000206000808201600061099b9190611123565b6001820160006101000a81549060ff02191690556001820160016101000a81549060ff02191690556001820160026101000a81549060ff02191690556001820160036101000a81549060ff0219169055505050565b60606000806000610a00856108a8565b610a72576040517f08c379a000000000000000000000000000000000000000000000000000000000815260040180806020018281038252601e8152602001807f54686973206163636f756e74206973206e6f742072656769737465726564000081525060200191505060405180910390fd5b6000808673ffffffffffffffffffffffffffffffffffffffff1673ffffffffffffffffffffffffffffffffffffffff1681526020019081526020016000206000016000808773ffffffffffffffffffffffffffffffffffffffff1673ffffffffffffffffffffffffffffffffffffffff16815260200190815260200160002060010160009054906101000a900460ff166000808873ffffffffffffffffffffffffffffffffffffffff1673ffffffffffffffffffffffffffffffffffffffff16815260200190815260200160002060010160019054906101000a900460ff166000808973ffffffffffffffffffffffffffffffffffffffff1673ffffffffffffffffffffffffffffffffffffffff16815260200190815260200160002060010160029054906101000a900460ff16838054600181600116156101000203166002900480601f016020809104026020016040519081016040528092919081815260200182805460018160011615610100020316600290048015610c355780601f10610c0a57610100808354040283529160200191610c35565b820191906000526020600020905b815481529060010190602001808311610c1857829003601f168201915b5050505050935093509350935093509193509193565b6000602052806000526040600020600091509050806000018054600181600116156101000203166002900480601f016020809104026020016040519081016040528092919081815260200182805460018160011615610100020316600290048015610cf75780601f10610ccc57610100808354040283529160200191610cf7565b820191906000526020600020905b815481529060010190602001808311610cda57829003601f168201915b5050505050908060010160009054906101000a900460ff16908060010160019054906101000a900460ff16908060010160029054906101000a900460ff16908060010160039054906101000a900460ff16905085565b6000600180549050905090565b6000610d65336108a8565b15610dd8576040517f08c379a000000000000000000000000000000000000000000000000000000000815260040180806020018281038252601b8152602001807f596f75206861766520616c72656164792072656769737465726564000000000081525060200191505060405180910390fd5b60016000803373ffffffffffffffffffffffffffffffffffffffff1673ffffffffffffffffffffffffffffffffffffffff16815260200190815260200160002060010160036101000a81548160ff021916908315150217905550846000803373ffffffffffffffffffffffffffffffffffffffff1673ffffffffffffffffffffffffffffffffffffffff1681526020019081526020016000206000019080519060200190610e8792919061116b565b50836000803373ffffffffffffffffffffffffffffffffffffffff1673ffffffffffffffffffffffffffffffffffffffff16815260200190815260200160002060010160006101000a81548160ff021916908315150217905550826000803373ffffffffffffffffffffffffffffffffffffffff1673ffffffffffffffffffffffffffffffffffffffff16815260200190815260200160002060010160016101000a81548160ff021916908315150217905550816000803373ffffffffffffffffffffffffffffffffffffffff1673ffffffffffffffffffffffffffffffffffffffff16815260200190815260200160002060010160026101000a81548160ff02191690831515021790555060013390806001815401808255809150509060018203906000526020600020016000909192909190916101000a81548173ffffffffffffffffffffffffffffffffffffffff021916908373ffffffffffffffffffffffffffffffffffffffff160217905550503373ffffffffffffffffffffffffffffffffffffffff167f751ce6dbb04ed9d983952f2950db8a41188715809eb956cfbc3d4096d0a173de868686866040518080602001851515151581526020018415151515815260200183151515158152602001828103825286818151815260200191508051906020019080838360005b83811015611093578082015181840152602081019050611078565b50505050905090810190601f1680156110c05780820380516001836020036101000a031916815260200191505b509550505050505060405180910390a260018080549050039050949350505050565b6000600182815481106110f157fe5b9060005260206000200160009054906101000a900473ffffffffffffffffffffffffffffffffffffffff169050919050565b50805460018160011615610100020316600290046000825580601f106111495750611168565b601f01602090049060005260206000209081019061116791906111eb565b5b50565b828054600181600116156101000203166002900490600052602060002090601f016020900481019282601f106111ac57805160ff19168380011785556111da565b828001600101855582156111da579182015b828111156111d95782518255916020019190600101906111be565b5b5090506111e791906111eb565b5090565b61120d91905b808211156112095760008160009055506001016111f1565b5090565b9056fea265627a7a7231582036b551c38e0d096778f85823c57366d360ac0bf1d7bd50d9d1dc5995d45d62cc64736f6c63430005100032",
  "source": "// SPDX-License-Identifier: MIT\npragma solidity >=0.5.16;\n\n\ncontract Registry {\n\n  struct Registration {\n        string user_name;\n        bool data_scientist;\n        bool aggregator;\n        bool hospital;\n        bool registered;\n  }\n\n  mapping(address => Registration) public registrations;\n  address[] public userHash;\n\n  event LogNewUser (address indexed userAddress,  string user_name, bool data_scientist, bool aggregator, bool hospital);\n  event LogUpdateUser(address indexed userAddress, string user_name, bool data_scientist, bool aggregator, bool hospital);\n\n// Checks if it is a User\n  function isUser(address userAddress) public view returns(bool isIndeed) {\n      if(registrations[userAddress].registered) {\n         isIndeed = true;\n      } else {\n         isIndeed = false;\n      }\n      return (isIndeed);\n  }\n// Inserts a User if he hasnt been registered\n  function insertUser(string memory user_name, bool data_scientist, bool aggregator, bool hospital) public returns(uint index) {\n      if(isUser(msg.sender)) revert(\"You have already registered\");\n      registrations[msg.sender].registered = true;\n      registrations[msg.sender].user_name = user_name;\n      registrations[msg.sender].data_scientist = data_scientist;\n      registrations[msg.sender].aggregator = aggregator;\n      registrations[msg.sender].hospital = hospital;\n      userHash.push(msg.sender);\n      emit LogNewUser(msg.sender, user_name, data_scientist,aggregator,hospital);\n      return userHash.length-1;\n  }\n// Retreives the User\n  function getUser(address  userAddress) public view returns(string memory user_name, bool data_scientist, bool aggregator, bool hospital){\n    if(!isUser(userAddress)) revert(\"This account is not registered\");\n    return(registrations[userAddress].user_name, registrations[userAddress].data_scientist,registrations[userAddress].aggregator,registrations[userAddress].hospital);\n  }\n// Allows to change UserType\n  function updateUserType(address userAddress, bool data_scientist, bool aggregator, bool hospital) public returns(bool success) {\n    if(!isUser(userAddress)) revert(\"This account is not registered\");\n    require(userAddress == msg.sender);\n    registrations[userAddress].data_scientist = data_scientist;\n    registrations[userAddress].aggregator = aggregator;\n    registrations[userAddress].hospital = hospital;\n    emit LogUpdateUser(userAddress, registrations[userAddress].user_name, data_scientist,aggregator,hospital);\n    return true;\n  }\n// Returns count of Registered Users\n  function getUserCount() public view returns(uint count) {\n    return userHash.length;\n  }\n\n  function getUserAtIndex(uint index) public view returns(address userAddress) {\n    return userHash[index];\n  }\n\n   function deleteUser(address userAddress) public {\n    require(userAddress == msg.sender);\n    delete(registrations[userAddress]);\n  }\n\n}",
  "sourcePath": "/Users/Anna/Desktop/Repo/economic-incentives-and-privacy-preserving-ml/reactapp/BlockchainBackend/contracts/Registry.sol",
  "compiler": {
    "name": "solc",
    "version": "0.5.16+commit.9c3226ce.Emscripten.clang"
  },
  "schemaVersion": "3.3.3",
  "updatedAt": "2021-04-12T13:27:56.442Z",
  "networkType": "ethereum",
  "devdoc": {
    "methods": {}
  },
  "userdoc": {
    "methods": {}
  }
}