{
  "contractName": "Registry",
  "abi": [
    {
      "constant": true,
      "inputs": [
        {
          "internalType": "uint256",
          "name": "",
          "type": "uint256"
        }
      ],
      "name": "arrNames",
      "outputs": [
        {
          "internalType": "string",
          "name": "",
          "type": "string"
        }
      ],
      "payable": false,
      "stateMutability": "view",
      "type": "function"
    },
    {
      "constant": true,
      "inputs": [
        {
          "internalType": "string",
          "name": "",
          "type": "string"
        }
      ],
      "name": "names",
      "outputs": [
        {
          "internalType": "bool",
          "name": "",
          "type": "bool"
        }
      ],
      "payable": false,
      "stateMutability": "view",
      "type": "function"
    },
    {
      "constant": true,
      "inputs": [
        {
          "internalType": "address",
          "name": "",
          "type": "address"
        }
      ],
      "name": "registrations",
      "outputs": [
        {
          "internalType": "string",
          "name": "userName",
          "type": "string"
        },
        {
          "internalType": "bool",
          "name": "dataScientist",
          "type": "bool"
        },
        {
          "internalType": "bool",
          "name": "hospital",
          "type": "bool"
        },
        {
          "internalType": "bool",
          "name": "registered",
          "type": "bool"
        }
      ],
      "payable": false,
      "stateMutability": "view",
      "type": "function"
    },
    {
      "constant": true,
      "inputs": [
        {
          "internalType": "uint256",
          "name": "",
          "type": "uint256"
        }
      ],
      "name": "userHash",
      "outputs": [
        {
          "internalType": "address",
          "name": "",
          "type": "address"
        }
      ],
      "payable": false,
      "stateMutability": "view",
      "type": "function"
    },
    {
      "constant": true,
      "inputs": [
        {
          "internalType": "address",
          "name": "userAddress",
          "type": "address"
        }
      ],
      "name": "isUser",
      "outputs": [
        {
          "internalType": "bool",
          "name": "isIndeed",
          "type": "bool"
        }
      ],
      "payable": false,
      "stateMutability": "view",
      "type": "function"
    },
    {
      "constant": true,
      "inputs": [
        {
          "internalType": "address",
          "name": "userAddress",
          "type": "address"
        }
      ],
      "name": "isDataScientist",
      "outputs": [
        {
          "internalType": "bool",
          "name": "isIndeed",
          "type": "bool"
        }
      ],
      "payable": false,
      "stateMutability": "view",
      "type": "function"
    },
    {
      "constant": true,
      "inputs": [
        {
          "internalType": "address",
          "name": "userAddress",
          "type": "address"
        }
      ],
      "name": "isDataOwner",
      "outputs": [
        {
          "internalType": "bool",
          "name": "isIndeed",
          "type": "bool"
        }
      ],
      "payable": false,
      "stateMutability": "view",
      "type": "function"
    },
    {
      "constant": false,
      "inputs": [
        {
          "internalType": "string",
          "name": "_userName",
          "type": "string"
        },
        {
          "internalType": "bool",
          "name": "_dataScientist",
          "type": "bool"
        },
        {
          "internalType": "bool",
          "name": "_hospital",
          "type": "bool"
        }
      ],
      "name": "insertUser",
      "outputs": [],
      "payable": false,
      "stateMutability": "nonpayable",
      "type": "function"
    },
    {
      "constant": true,
      "inputs": [
        {
          "internalType": "address",
          "name": "_userAddress",
          "type": "address"
        }
      ],
      "name": "getUser",
      "outputs": [
        {
          "internalType": "string",
          "name": "userName",
          "type": "string"
        },
        {
          "internalType": "bool",
          "name": "dataScientist",
          "type": "bool"
        },
        {
          "internalType": "bool",
          "name": "hospital",
          "type": "bool"
        }
      ],
      "payable": false,
      "stateMutability": "view",
      "type": "function"
    },
    {
      "constant": false,
      "inputs": [
        {
          "internalType": "address",
          "name": "_userAddress",
          "type": "address"
        },
        {
          "internalType": "bool",
          "name": "_dataScientist",
          "type": "bool"
        },
        {
          "internalType": "bool",
          "name": "_hospital",
          "type": "bool"
        }
      ],
      "name": "updateUserType",
      "outputs": [],
      "payable": false,
      "stateMutability": "nonpayable",
      "type": "function"
    },
    {
      "constant": true,
      "inputs": [],
      "name": "getUserCount",
      "outputs": [
        {
          "internalType": "uint256",
          "name": "count",
          "type": "uint256"
        }
      ],
      "payable": false,
      "stateMutability": "view",
      "type": "function"
    },
    {
      "constant": true,
      "inputs": [
        {
          "internalType": "uint256",
          "name": "index",
          "type": "uint256"
        }
      ],
      "name": "getUserAtIndex",
      "outputs": [
        {
          "internalType": "address",
          "name": "userAddress",
          "type": "address"
        }
      ],
      "payable": false,
      "stateMutability": "view",
      "type": "function"
    },
    {
      "constant": false,
      "inputs": [
        {
          "internalType": "address",
          "name": "userAddress",
          "type": "address"
        }
      ],
      "name": "deleteUser",
      "outputs": [],
      "payable": false,
      "stateMutability": "nonpayable",
      "type": "function"
    },
    {
      "constant": true,
      "inputs": [
        {
          "internalType": "address",
          "name": "userAddress",
          "type": "address"
        }
      ],
      "name": "getUsername",
      "outputs": [
        {
          "internalType": "string",
          "name": "",
          "type": "string"
        }
      ],
      "payable": false,
      "stateMutability": "view",
      "type": "function"
    }
  ],
  "bytecode": "0x608060405234801561001057600080fd5b506116ba806100206000396000f3fe608060405234801561001057600080fd5b50600436106100ea5760003560e01c8063822fbf581161008c578063b359923411610066578063b3599234146106b3578063b5cb15f71461070f578063ce43c0321461072d578063ffcc7bbf146107ea576100ea565b8063822fbf581461042f57806382ce8d3114610502578063942e6bcf146105d5576100ea565b806346efdc33116100c857806346efdc33146102605780635c60f226146102bc57806360328991146103005780636f77926b1461035c576100ea565b806316dd5432146100ef5780631bfffc4c146101965780634209fff114610204575b600080fd5b61011b6004803603602081101561010557600080fd5b8101908080359060200190929190505050610858565b6040518080602001828103825283818151815260200191508051906020019080838360005b8381101561015b578082015181840152602081019050610140565b50505050905090810190601f1680156101885780820380516001836020036101000a031916815260200191505b509250505060405180910390f35b6101c2600480360360208110156101ac57600080fd5b8101908080359060200190929190505050610911565b604051808273ffffffffffffffffffffffffffffffffffffffff1673ffffffffffffffffffffffffffffffffffffffff16815260200191505060405180910390f35b6102466004803603602081101561021a57600080fd5b81019080803573ffffffffffffffffffffffffffffffffffffffff16906020019092919050505061094d565b604051808215151515815260200191505060405180910390f35b6102a26004803603602081101561027657600080fd5b81019080803573ffffffffffffffffffffffffffffffffffffffff1690602001909291905050506109b9565b604051808215151515815260200191505060405180910390f35b6102fe600480360360208110156102d257600080fd5b81019080803573ffffffffffffffffffffffffffffffffffffffff169060200190929190505050610a2c565b005b61035a6004803603606081101561031657600080fd5b81019080803573ffffffffffffffffffffffffffffffffffffffff169060200190929190803515159060200190929190803515159060200190929190505050610af4565b005b61039e6004803603602081101561037257600080fd5b81019080803573ffffffffffffffffffffffffffffffffffffffff169060200190929190505050610caa565b60405180806020018415151515815260200183151515158152602001828103825285818151815260200191508051906020019080838360005b838110156103f25780820151818401526020810190506103d7565b50505050905090810190601f16801561041f5780820380516001836020036101000a031916815260200191505b5094505050505060405180910390f35b6104e86004803603602081101561044557600080fd5b810190808035906020019064010000000081111561046257600080fd5b82018360208201111561047457600080fd5b8035906020019184600183028401116401000000008311171561049657600080fd5b91908080601f016020809104026020016040519081016040528093929190818152602001838380828437600081840152601f19601f820116905080830192505050505050509192919290505050610eb2565b604051808215151515815260200191505060405180910390f35b6105d36004803603606081101561051857600080fd5b810190808035906020019064010000000081111561053557600080fd5b82018360208201111561054757600080fd5b8035906020019184600183028401116401000000008311171561056957600080fd5b91908080601f016020809104026020016040519081016040528093929190818152602001838380828437600081840152601f19601f820116905080830192505050505050509192919290803515159060200190929190803515159060200190929190505050610ee8565b005b610617600480360360208110156105eb57600080fd5b81019080803573ffffffffffffffffffffffffffffffffffffffff1690602001909291905050506112e3565b6040518080602001851515151581526020018415151515815260200183151515158152602001828103825286818151815260200191508051906020019080838360005b8381101561067557808201518184015260208101905061065a565b50505050905090810190601f1680156106a25780820380516001836020036101000a031916815260200191505b509550505050505060405180910390f35b6106f5600480360360208110156106c957600080fd5b81019080803573ffffffffffffffffffffffffffffffffffffffff1690602001909291905050506113d2565b604051808215151515815260200191505060405180910390f35b610717611445565b6040518082815260200191505060405180910390f35b61076f6004803603602081101561074357600080fd5b81019080803573ffffffffffffffffffffffffffffffffffffffff169060200190929190505050611452565b6040518080602001828103825283818151815260200191508051906020019080838360005b838110156107af578082015181840152602081019050610794565b50505050905090810190601f1680156107dc5780820380516001836020036101000a031916815260200191505b509250505060405180910390f35b6108166004803603602081101561080057600080fd5b8101908080359060200190929190505050611535565b604051808273ffffffffffffffffffffffffffffffffffffffff1673ffffffffffffffffffffffffffffffffffffffff16815260200191505060405180910390f35b6003818154811061086557fe5b906000526020600020016000915090508054600181600116156101000203166002900480601f0160208091040260200160405190810160405280929190818152602001828054600181600116156101000203166002900480156109095780601f106108de57610100808354040283529160200191610909565b820191906000526020600020905b8154815290600101906020018083116108ec57829003601f168201915b505050505081565b6001818154811061091e57fe5b906000526020600020016000915054906101000a900473ffffffffffffffffffffffffffffffffffffffff1681565b60008060008373ffffffffffffffffffffffffffffffffffffffff1673ffffffffffffffffffffffffffffffffffffffff16815260200190815260200160002060010160029054906101000a900460ff16156109ac57600190506109b1565b600090505b809050919050565b6000600115156000808473ffffffffffffffffffffffffffffffffffffffff1673ffffffffffffffffffffffffffffffffffffffff16815260200190815260200160002060010160019054906101000a900460ff1615151415610a1f5760019050610a24565b600090505b809050919050565b3373ffffffffffffffffffffffffffffffffffffffff168173ffffffffffffffffffffffffffffffffffffffff1614610a6457600080fd5b6000808273ffffffffffffffffffffffffffffffffffffffff1673ffffffffffffffffffffffffffffffffffffffff16815260200190815260200160002060008082016000610ab39190611576565b6001820160006101000a81549060ff02191690556001820160016101000a81549060ff02191690556001820160026101000a81549060ff0219169055505050565b610afd8361094d565b610b6f576040517f08c379a000000000000000000000000000000000000000000000000000000000815260040180806020018281038252601e8152602001807f54686973206163636f756e74206973206e6f742072656769737465726564000081525060200191505060405180910390fd5b3373ffffffffffffffffffffffffffffffffffffffff168373ffffffffffffffffffffffffffffffffffffffff1614610bf3576040517f08c379a00000000000000000000000000000000000000000000000000000000081526004018080602001828103825260228152602001806116646022913960400191505060405180910390fd5b816000808573ffffffffffffffffffffffffffffffffffffffff1673ffffffffffffffffffffffffffffffffffffffff16815260200190815260200160002060010160006101000a81548160ff021916908315150217905550806000808573ffffffffffffffffffffffffffffffffffffffff1673ffffffffffffffffffffffffffffffffffffffff16815260200190815260200160002060010160016101000a81548160ff021916908315150217905550505050565b6060600080610cb88461094d565b610d2a576040517f08c379a000000000000000000000000000000000000000000000000000000000815260040180806020018281038252601e8152602001807f54686973206163636f756e74206973206e6f742072656769737465726564000081525060200191505060405180910390fd5b6000808573ffffffffffffffffffffffffffffffffffffffff1673ffffffffffffffffffffffffffffffffffffffff1681526020019081526020016000206000016000808673ffffffffffffffffffffffffffffffffffffffff1673ffffffffffffffffffffffffffffffffffffffff16815260200190815260200160002060010160009054906101000a900460ff166000808773ffffffffffffffffffffffffffffffffffffffff1673ffffffffffffffffffffffffffffffffffffffff16815260200190815260200160002060010160019054906101000a900460ff16828054600181600116156101000203166002900480601f016020809104026020016040519081016040528092919081815260200182805460018160011615610100020316600290048015610e9e5780601f10610e7357610100808354040283529160200191610e9e565b820191906000526020600020905b815481529060010190602001808311610e8157829003601f168201915b505050505092509250925092509193909250565b6002818051602081018201805184825260208301602085012081835280955050505050506000915054906101000a900460ff1681565b610ef13361094d565b15610f64576040517f08c379a000000000000000000000000000000000000000000000000000000000815260040180806020018281038252601b8152602001807f596f75206861766520616c72656164792072656769737465726564000000000081525060200191505060405180910390fd5b600115156002846040518082805190602001908083835b60208310610f9e5780518252602082019150602081019050602083039250610f7b565b6001836020036101000a038019825116818451168082178552505050505050905001915050908152602001604051809103902060009054906101000a900460ff1615151415611055576040517f08c379a00000000000000000000000000000000000000000000000000000000081526004018080602001828103825260148152602001807f55736572206e616d65206e6f7420756e6971756500000000000000000000000081525060200191505060405180910390fd5b60016000803373ffffffffffffffffffffffffffffffffffffffff1673ffffffffffffffffffffffffffffffffffffffff16815260200190815260200160002060010160026101000a81548160ff021916908315150217905550826000803373ffffffffffffffffffffffffffffffffffffffff1673ffffffffffffffffffffffffffffffffffffffff16815260200190815260200160002060000190805190602001906111049291906115be565b50816000803373ffffffffffffffffffffffffffffffffffffffff1673ffffffffffffffffffffffffffffffffffffffff16815260200190815260200160002060010160006101000a81548160ff021916908315150217905550806000803373ffffffffffffffffffffffffffffffffffffffff1673ffffffffffffffffffffffffffffffffffffffff16815260200190815260200160002060010160016101000a81548160ff02191690831515021790555060013390806001815401808255809150509060018203906000526020600020016000909192909190916101000a81548173ffffffffffffffffffffffffffffffffffffffff021916908373ffffffffffffffffffffffffffffffffffffffff1602179055505060016002846040518082805190602001908083835b602083106112555780518252602082019150602081019050602083039250611232565b6001836020036101000a038019825116818451168082178552505050505050905001915050908152602001604051809103902060006101000a81548160ff02191690831515021790555060038390806001815401808255809150509060018203906000526020600020016000909192909190915090805190602001906112dc9291906115be565b5050505050565b6000602052806000526040600020600091509050806000018054600181600116156101000203166002900480601f01602080910402602001604051908101604052809291908181526020018280546001816001161561010002031660029004801561138f5780601f106113645761010080835404028352916020019161138f565b820191906000526020600020905b81548152906001019060200180831161137257829003601f168201915b5050505050908060010160009054906101000a900460ff16908060010160019054906101000a900460ff16908060010160029054906101000a900460ff16905084565b6000600115156000808473ffffffffffffffffffffffffffffffffffffffff1673ffffffffffffffffffffffffffffffffffffffff16815260200190815260200160002060010160009054906101000a900460ff1615151415611438576001905061143d565b600090505b809050919050565b6000600180549050905090565b60606000808373ffffffffffffffffffffffffffffffffffffffff1673ffffffffffffffffffffffffffffffffffffffff1681526020019081526020016000206000018054600181600116156101000203166002900480601f0160208091040260200160405190810160405280929190818152602001828054600181600116156101000203166002900480156115295780601f106114fe57610100808354040283529160200191611529565b820191906000526020600020905b81548152906001019060200180831161150c57829003601f168201915b50505050509050919050565b60006001828154811061154457fe5b9060005260206000200160009054906101000a900473ffffffffffffffffffffffffffffffffffffffff169050919050565b50805460018160011615610100020316600290046000825580601f1061159c57506115bb565b601f0160209004906000526020600020908101906115ba919061163e565b5b50565b828054600181600116156101000203166002900490600052602060002090601f016020900481019282601f106115ff57805160ff191683800117855561162d565b8280016001018555821561162d579182015b8281111561162c578251825591602001919060010190611611565b5b50905061163a919061163e565b5090565b61166091905b8082111561165c576000816000905550600101611644565b5090565b9056fe4f6e6c7920757365722063616e20757064617465207468656972206163636f756e74a265627a7a723158200ef5ee0dd8090d03fa323a3264bcd5a4b043a48c6efdbd144781219a32450fc864736f6c63430005100032",
  "source": "pragma solidity >=0.5.16;\r\n\r\ncontract Registry {\r\n\r\n  struct Registration {\r\n        string userName;\r\n        bool dataScientist;\r\n        bool hospital;\r\n        bool registered;\r\n  }\r\n\r\n  mapping(address => Registration) public registrations;\r\n  address[] public userHash;\r\n\r\n  mapping (string => bool) public names;\r\n  string [] public arrNames;\r\n\r\n\r\n// Checks if it is a User\r\n  function isUser(address userAddress) public view returns(bool isIndeed) {\r\n      if(registrations[userAddress].registered) {\r\n         isIndeed = true;\r\n      } else {\r\n         isIndeed = false;\r\n      }\r\n      return (isIndeed);\r\n  }\r\n\r\n  // Check if user is a data scientist\r\n  function isDataScientist(address userAddress) public view returns(bool isIndeed) {\r\n      if(registrations[userAddress].dataScientist == true){\r\n          isIndeed = true;\r\n      } else {\r\n          isIndeed = false;\r\n      }\r\n      return (isIndeed);\r\n    }\r\n\r\n  // Check is user is a data owner\r\n  function isDataOwner(address userAddress) public view returns(bool isIndeed) {\r\n      if(registrations[userAddress].hospital == true){\r\n          isIndeed = true;\r\n      } else {\r\n          isIndeed = false;\r\n      }\r\n      return (isIndeed);\r\n    }\r\n\r\n// Inserts a User if he hasnt been registered\r\n  function insertUser(string memory _userName, bool _dataScientist, bool _hospital) public {\r\n      // Check if user already registered\r\n      if(isUser(msg.sender)){\r\n          revert(\"You have already registered\");\r\n      }\r\n\r\n      // Check if userName is unique\r\n      if (names[_userName] == true){\r\n          revert(\"User name not unique\");\r\n      }\r\n\r\n      registrations[msg.sender].registered = true;\r\n      registrations[msg.sender].userName = _userName;\r\n      registrations[msg.sender].dataScientist = _dataScientist;\r\n      registrations[msg.sender].hospital = _hospital;\r\n      userHash.push(msg.sender);\r\n      names[_userName] = true;\r\n      arrNames.push(_userName);\r\n  }\r\n// Retrieves the User\r\n  function getUser(address _userAddress) public view returns(string memory userName, bool dataScientist, bool hospital){\r\n\r\n    if(!isUser(_userAddress)){\r\n        revert(\"This account is not registered\");\r\n    }\r\n\r\n    return(registrations[_userAddress].userName, registrations[_userAddress].dataScientist, registrations[_userAddress].hospital);\r\n  }\r\n// Allows to change UserType\r\n  function updateUserType(address _userAddress, bool _dataScientist, bool _hospital) public {\r\n\r\n    if(!isUser(_userAddress)) {\r\n        revert(\"This account is not registered\");\r\n    }\r\n\r\n    require(_userAddress == msg.sender,\"Only user can update their account\");\r\n\r\n    registrations[_userAddress].dataScientist = _dataScientist;\r\n    registrations[_userAddress].hospital = _hospital;\r\n\r\n  }\r\n// Returns count of Registered Users\r\n  function getUserCount() public view returns(uint count) {\r\n    return userHash.length;\r\n  }\r\n\r\n  function getUserAtIndex(uint index) public view returns(address userAddress) {\r\n    return userHash[index];\r\n  }\r\n\r\n   function deleteUser(address userAddress) public {\r\n    require(userAddress == msg.sender);\r\n    delete(registrations[userAddress]);\r\n  }\r\n\r\n   function getUsername(address userAddress) public view returns(string memory){\r\n     return registrations[userAddress].userName;\r\n  }\r\n\r\n}",
  "sourcePath": "C:/Users/PC/Dapp/group-project/reactapp/BlockchainBackend/contracts/Registry.sol",
  "compiler": {
    "name": "solc",
    "version": "0.5.16+commit.9c3226ce.Emscripten.clang"
  },
  "schemaVersion": "3.3.4",
  "updatedAt": "2021-04-23T10:33:20.507Z",
  "networkType": "ethereum",
  "devdoc": {
    "methods": {}
  },
  "userdoc": {
    "methods": {}
  }
}