{
  "contractName": "Registry",
  "abi": [
    {
      "anonymous": false,
      "inputs": [
        {
          "indexed": true,
          "internalType": "address",
          "name": "userAddress",
          "type": "address"
        },
        {
          "indexed": false,
          "internalType": "string",
          "name": "user_name",
          "type": "string"
        },
        {
          "indexed": false,
          "internalType": "bool",
          "name": "data_scientist",
          "type": "bool"
        },
        {
          "indexed": false,
          "internalType": "bool",
          "name": "aggregator",
          "type": "bool"
        },
        {
          "indexed": false,
          "internalType": "bool",
          "name": "hospital",
          "type": "bool"
        }
      ],
      "name": "LogNewUser",
      "type": "event"
    },
    {
      "anonymous": false,
      "inputs": [
        {
          "indexed": true,
          "internalType": "address",
          "name": "userAddress",
          "type": "address"
        },
        {
          "indexed": false,
          "internalType": "string",
          "name": "user_name",
          "type": "string"
        },
        {
          "indexed": false,
          "internalType": "bool",
          "name": "data_scientist",
          "type": "bool"
        },
        {
          "indexed": false,
          "internalType": "bool",
          "name": "aggregator",
          "type": "bool"
        },
        {
          "indexed": false,
          "internalType": "bool",
          "name": "hospital",
          "type": "bool"
        }
      ],
      "name": "LogUpdateUser",
      "type": "event"
    },
    {
      "constant": true,
      "inputs": [
        {
          "internalType": "address",
          "name": "userAddress",
          "type": "address"
        }
      ],
      "name": "isUser",
      "outputs": [
        {
          "internalType": "bool",
          "name": "isIndeed",
          "type": "bool"
        }
      ],
      "payable": false,
      "stateMutability": "view",
      "type": "function"
    },
    {
      "constant": false,
      "inputs": [
        {
          "internalType": "string",
          "name": "user_name",
          "type": "string"
        },
        {
          "internalType": "bool",
          "name": "data_scientist",
          "type": "bool"
        },
        {
          "internalType": "bool",
          "name": "aggregator",
          "type": "bool"
        },
        {
          "internalType": "bool",
          "name": "hospital",
          "type": "bool"
        }
      ],
      "name": "insertUser",
      "outputs": [
        {
          "internalType": "uint256",
          "name": "index",
          "type": "uint256"
        }
      ],
      "payable": false,
      "stateMutability": "nonpayable",
      "type": "function"
    },
    {
      "constant": true,
      "inputs": [
        {
          "internalType": "address",
          "name": "userAddress",
          "type": "address"
        }
      ],
      "name": "getUser",
      "outputs": [
        {
          "internalType": "string",
          "name": "user_name",
          "type": "string"
        },
        {
          "internalType": "bool",
          "name": "data_scientist",
          "type": "bool"
        },
        {
          "internalType": "bool",
          "name": "aggregator",
          "type": "bool"
        },
        {
          "internalType": "bool",
          "name": "hospital",
          "type": "bool"
        }
      ],
      "payable": false,
      "stateMutability": "view",
      "type": "function"
    },
    {
      "constant": false,
      "inputs": [
        {
          "internalType": "address",
          "name": "userAddress",
          "type": "address"
        },
        {
          "internalType": "bool",
          "name": "data_scientist",
          "type": "bool"
        },
        {
          "internalType": "bool",
          "name": "aggregator",
          "type": "bool"
        },
        {
          "internalType": "bool",
          "name": "hospital",
          "type": "bool"
        }
      ],
      "name": "updateUserType",
      "outputs": [
        {
          "internalType": "bool",
          "name": "success",
          "type": "bool"
        }
      ],
      "payable": false,
      "stateMutability": "nonpayable",
      "type": "function"
    },
    {
      "constant": true,
      "inputs": [],
      "name": "getUserCount",
      "outputs": [
        {
          "internalType": "uint256",
          "name": "count",
          "type": "uint256"
        }
      ],
      "payable": false,
      "stateMutability": "view",
      "type": "function"
    },
    {
      "constant": true,
      "inputs": [
        {
          "internalType": "uint256",
          "name": "index",
          "type": "uint256"
        }
      ],
      "name": "getUserAtIndex",
      "outputs": [
        {
          "internalType": "address",
          "name": "userAddress",
          "type": "address"
        }
      ],
      "payable": false,
      "stateMutability": "view",
      "type": "function"
    },
    {
      "constant": false,
      "inputs": [
        {
          "internalType": "address",
          "name": "userAddress",
          "type": "address"
        }
      ],
      "name": "deleteUser",
      "outputs": [],
      "payable": false,
      "stateMutability": "nonpayable",
      "type": "function"
    }
  ],
  "bytecode": "0x608060405234801561001057600080fd5b50610f9a806100206000396000f3fe608060405234801561001057600080fd5b506004361061007d5760003560e01c80636f77926b1161005b5780636f77926b146101a2578063b5cb15f714610280578063ed15ac3b1461029e578063ffcc7bbf146103915761007d565b80630a7490cd146100825780634209fff1146101025780635c60f2261461015e575b600080fd5b6100e86004803603608081101561009857600080fd5b81019080803573ffffffffffffffffffffffffffffffffffffffff1690602001909291908035151590602001909291908035151590602001909291908035151590602001909291905050506103ff565b604051808215151515815260200191505060405180910390f35b6101446004803603602081101561011857600080fd5b81019080803573ffffffffffffffffffffffffffffffffffffffff1690602001909291905050506106ff565b604051808215151515815260200191505060405180910390f35b6101a06004803603602081101561017457600080fd5b81019080803573ffffffffffffffffffffffffffffffffffffffff16906020019092919050505061076b565b005b6101e4600480360360208110156101b857600080fd5b81019080803573ffffffffffffffffffffffffffffffffffffffff169060200190929190505050610847565b6040518080602001851515151581526020018415151515815260200183151515158152602001828103825286818151815260200191508051906020019080838360005b83811015610242578082015181840152602081019050610227565b50505050905090810190601f16801561026f5780820380516001836020036101000a031916815260200191505b509550505050505060405180910390f35b610288610aa2565b6040518082815260200191505060405180910390f35b61037b600480360360808110156102b457600080fd5b81019080803590602001906401000000008111156102d157600080fd5b8201836020820111156102e357600080fd5b8035906020019184600183028401116401000000008311171561030557600080fd5b91908080601f016020809104026020016040519081016040528093929190818152602001838380828437600081840152601f19601f820116905080830192505050505050509192919290803515159060200190929190803515159060200190929190803515159060200190929190505050610aaf565b6040518082815260200191505060405180910390f35b6103bd600480360360208110156103a757600080fd5b8101908080359060200190929190505050610e37565b604051808273ffffffffffffffffffffffffffffffffffffffff1673ffffffffffffffffffffffffffffffffffffffff16815260200191505060405180910390f35b600061040a856106ff565b61047c576040517f08c379a000000000000000000000000000000000000000000000000000000000815260040180806020018281038252601e8152602001807f54686973206163636f756e74206973206e6f742072656769737465726564000081525060200191505060405180910390fd5b3373ffffffffffffffffffffffffffffffffffffffff168573ffffffffffffffffffffffffffffffffffffffff16146104b457600080fd5b836000808773ffffffffffffffffffffffffffffffffffffffff1673ffffffffffffffffffffffffffffffffffffffff16815260200190815260200160002060010160006101000a81548160ff021916908315150217905550826000808773ffffffffffffffffffffffffffffffffffffffff1673ffffffffffffffffffffffffffffffffffffffff16815260200190815260200160002060010160016101000a81548160ff021916908315150217905550816000808773ffffffffffffffffffffffffffffffffffffffff1673ffffffffffffffffffffffffffffffffffffffff16815260200190815260200160002060010160026101000a81548160ff0219169083151502179055508473ffffffffffffffffffffffffffffffffffffffff167fa68fd60ddf3b5ed0ac35557e5ed7d23c223c2e10787a88ba58fbdc1f2fb197f46000808873ffffffffffffffffffffffffffffffffffffffff1673ffffffffffffffffffffffffffffffffffffffff16815260200190815260200160002060000186868660405180806020018515151515815260200184151515158152602001831515151581526020018281038252868181546001816001161561010002031660029004815260200191508054600181600116156101000203166002900480156106e25780601f106106b7576101008083540402835291602001916106e2565b820191906000526020600020905b8154815290600101906020018083116106c557829003601f168201915b50509550505050505060405180910390a260019050949350505050565b60008060008373ffffffffffffffffffffffffffffffffffffffff1673ffffffffffffffffffffffffffffffffffffffff16815260200190815260200160002060010160039054906101000a900460ff161561075e5760019050610763565b600090505b809050919050565b3373ffffffffffffffffffffffffffffffffffffffff168173ffffffffffffffffffffffffffffffffffffffff16146107a357600080fd5b6000808273ffffffffffffffffffffffffffffffffffffffff1673ffffffffffffffffffffffffffffffffffffffff168152602001908152602001600020600080820160006107f29190610e78565b6001820160006101000a81549060ff02191690556001820160016101000a81549060ff02191690556001820160026101000a81549060ff02191690556001820160036101000a81549060ff0219169055505050565b60606000806000610857856106ff565b6108c9576040517f08c379a000000000000000000000000000000000000000000000000000000000815260040180806020018281038252601e8152602001807f54686973206163636f756e74206973206e6f742072656769737465726564000081525060200191505060405180910390fd5b6000808673ffffffffffffffffffffffffffffffffffffffff1673ffffffffffffffffffffffffffffffffffffffff1681526020019081526020016000206000016000808773ffffffffffffffffffffffffffffffffffffffff1673ffffffffffffffffffffffffffffffffffffffff16815260200190815260200160002060010160009054906101000a900460ff166000808873ffffffffffffffffffffffffffffffffffffffff1673ffffffffffffffffffffffffffffffffffffffff16815260200190815260200160002060010160019054906101000a900460ff166000808973ffffffffffffffffffffffffffffffffffffffff1673ffffffffffffffffffffffffffffffffffffffff16815260200190815260200160002060010160029054906101000a900460ff16838054600181600116156101000203166002900480601f016020809104026020016040519081016040528092919081815260200182805460018160011615610100020316600290048015610a8c5780601f10610a6157610100808354040283529160200191610a8c565b820191906000526020600020905b815481529060010190602001808311610a6f57829003601f168201915b5050505050935093509350935093509193509193565b6000600180549050905090565b6000610aba336106ff565b15610b2d576040517f08c379a000000000000000000000000000000000000000000000000000000000815260040180806020018281038252601b8152602001807f596f75206861766520616c72656164792072656769737465726564000000000081525060200191505060405180910390fd5b60016000803373ffffffffffffffffffffffffffffffffffffffff1673ffffffffffffffffffffffffffffffffffffffff16815260200190815260200160002060010160036101000a81548160ff021916908315150217905550846000803373ffffffffffffffffffffffffffffffffffffffff1673ffffffffffffffffffffffffffffffffffffffff1681526020019081526020016000206000019080519060200190610bdc929190610ec0565b50836000803373ffffffffffffffffffffffffffffffffffffffff1673ffffffffffffffffffffffffffffffffffffffff16815260200190815260200160002060010160006101000a81548160ff021916908315150217905550826000803373ffffffffffffffffffffffffffffffffffffffff1673ffffffffffffffffffffffffffffffffffffffff16815260200190815260200160002060010160016101000a81548160ff021916908315150217905550816000803373ffffffffffffffffffffffffffffffffffffffff1673ffffffffffffffffffffffffffffffffffffffff16815260200190815260200160002060010160026101000a81548160ff02191690831515021790555060013390806001815401808255809150509060018203906000526020600020016000909192909190916101000a81548173ffffffffffffffffffffffffffffffffffffffff021916908373ffffffffffffffffffffffffffffffffffffffff160217905550503373ffffffffffffffffffffffffffffffffffffffff167f751ce6dbb04ed9d983952f2950db8a41188715809eb956cfbc3d4096d0a173de868686866040518080602001851515151581526020018415151515815260200183151515158152602001828103825286818151815260200191508051906020019080838360005b83811015610de8578082015181840152602081019050610dcd565b50505050905090810190601f168015610e155780820380516001836020036101000a031916815260200191505b509550505050505060405180910390a260018080549050039050949350505050565b600060018281548110610e4657fe5b9060005260206000200160009054906101000a900473ffffffffffffffffffffffffffffffffffffffff169050919050565b50805460018160011615610100020316600290046000825580601f10610e9e5750610ebd565b601f016020900490600052602060002090810190610ebc9190610f40565b5b50565b828054600181600116156101000203166002900490600052602060002090601f016020900481019282601f10610f0157805160ff1916838001178555610f2f565b82800160010185558215610f2f579182015b82811115610f2e578251825591602001919060010190610f13565b5b509050610f3c9190610f40565b5090565b610f6291905b80821115610f5e576000816000905550600101610f46565b5090565b9056fea265627a7a72315820578b9666cac13db1476babbc68e5a21c070d80caea16b0a7d017bfc57eaa35ad64736f6c63430005100032",
  "source": "// SPDX-License-Identifier: MIT\r\npragma solidity >=0.5.16;\r\n\r\n\r\ncontract Registry {\r\n\r\n  struct Registration {\r\n        string user_name;\r\n        bool data_scientist;\r\n        bool aggregator;\r\n        bool hospital;\r\n        bool registered;\r\n  }\r\n\r\n  mapping(address => Registration) private registrations;\r\n  address[] private userHash;\r\n\r\n  event LogNewUser (address indexed userAddress,  string user_name, bool data_scientist, bool aggregator, bool hospital);\r\n  event LogUpdateUser(address indexed userAddress, string user_name, bool data_scientist, bool aggregator, bool hospital);\r\n\r\n// Checks if it is a User\r\n  function isUser(address userAddress) public view returns(bool isIndeed) {\r\n      if(registrations[userAddress].registered) {\r\n         isIndeed = true;\r\n      } else {\r\n         isIndeed = false;\r\n      }\r\n      return (isIndeed);\r\n  }\r\n// Inserts a User if he hasnt been registered\r\n  function insertUser(string memory user_name, bool data_scientist, bool aggregator, bool hospital) public returns(uint index) {\r\n      if(isUser(msg.sender)) revert(\"You have already registered\");\r\n      registrations[msg.sender].registered = true;\r\n      registrations[msg.sender].user_name = user_name;\r\n      registrations[msg.sender].data_scientist = data_scientist;\r\n      registrations[msg.sender].aggregator = aggregator;\r\n      registrations[msg.sender].hospital = hospital;\r\n      userHash.push(msg.sender);\r\n      emit LogNewUser(msg.sender, user_name, data_scientist,aggregator,hospital);\r\n      return userHash.length-1;\r\n  }\r\n// Retreives the User\r\n  function getUser(address  userAddress) public view returns(string memory user_name, bool data_scientist, bool aggregator, bool hospital){\r\n    if(!isUser(userAddress)) revert(\"This account is not registered\");\r\n    return(registrations[userAddress].user_name, registrations[userAddress].data_scientist,registrations[userAddress].aggregator,registrations[userAddress].hospital);\r\n  }\r\n// Allows to change UserType\r\n  function updateUserType(address userAddress, bool data_scientist, bool aggregator, bool hospital) public returns(bool success) {\r\n    if(!isUser(userAddress)) revert(\"This account is not registered\");\r\n    require(userAddress == msg.sender);\r\n    registrations[userAddress].data_scientist = data_scientist;\r\n    registrations[userAddress].aggregator = aggregator;\r\n    registrations[userAddress].hospital = hospital;\r\n    emit LogUpdateUser(userAddress, registrations[userAddress].user_name, data_scientist,aggregator,hospital);\r\n    return true;\r\n  }\r\n// Returns count of Registered Users\r\n  function getUserCount() public view returns(uint count) {\r\n    return userHash.length;\r\n  }\r\n\r\n  function getUserAtIndex(uint index) public view returns(address userAddress) {\r\n    return userHash[index];\r\n  }\r\n\r\n   function deleteUser(address userAddress) public {\r\n    require(userAddress == msg.sender);\r\n    delete(registrations[userAddress]);\r\n  }\r\n\r\n}",
  "sourcePath": "C:/Users/PC/economic-incentives-and-privacy-preserving-ml/economic-incentives-and-privacy-preserving-ml/reactapp/BlockchainBackend/contracts/Registry.sol",
  "compiler": {
    "name": "solc",
    "version": "0.5.16+commit.9c3226ce.Emscripten.clang"
  },
  "schemaVersion": "3.3.4",
  "updatedAt": "2021-04-12T14:13:50.146Z",
  "networkType": "ethereum",
  "devdoc": {
    "methods": {}
  },
  "userdoc": {
    "methods": {}
  }
}