{
  "contractName": "Registry",
  "abi": [
    {
      "anonymous": false,
      "inputs": [
        {
          "indexed": true,
          "internalType": "address",
          "name": "userAddress",
          "type": "address"
        },
        {
          "indexed": false,
          "internalType": "string",
          "name": "user_name",
          "type": "string"
        },
        {
          "indexed": false,
          "internalType": "bool",
          "name": "data_scientist",
          "type": "bool"
        },
        {
          "indexed": false,
          "internalType": "bool",
          "name": "aggregator",
          "type": "bool"
        },
        {
          "indexed": false,
          "internalType": "bool",
          "name": "hospital",
          "type": "bool"
        }
      ],
      "name": "LogNewUser",
      "type": "event"
    },
    {
      "anonymous": false,
      "inputs": [
        {
          "indexed": true,
          "internalType": "address",
          "name": "userAddress",
          "type": "address"
        },
        {
          "indexed": false,
          "internalType": "string",
          "name": "user_name",
          "type": "string"
        },
        {
          "indexed": false,
          "internalType": "bool",
          "name": "data_scientist",
          "type": "bool"
        },
        {
          "indexed": false,
          "internalType": "bool",
          "name": "aggregator",
          "type": "bool"
        },
        {
          "indexed": false,
          "internalType": "bool",
          "name": "hospital",
          "type": "bool"
        }
      ],
      "name": "LogUpdateUser",
      "type": "event"
    },
    {
      "constant": true,
      "inputs": [
        {
          "internalType": "address",
          "name": "",
          "type": "address"
        }
      ],
      "name": "registrations",
      "outputs": [
        {
          "internalType": "string",
          "name": "user_name",
          "type": "string"
        },
        {
          "internalType": "bool",
          "name": "data_scientist",
          "type": "bool"
        },
        {
          "internalType": "bool",
          "name": "aggregator",
          "type": "bool"
        },
        {
          "internalType": "bool",
          "name": "hospital",
          "type": "bool"
        },
        {
          "internalType": "bool",
          "name": "registered",
          "type": "bool"
        }
      ],
      "payable": false,
      "stateMutability": "view",
      "type": "function"
    },
    {
      "constant": true,
      "inputs": [
        {
          "internalType": "uint256",
          "name": "",
          "type": "uint256"
        }
      ],
      "name": "userHash",
      "outputs": [
        {
          "internalType": "address",
          "name": "",
          "type": "address"
        }
      ],
      "payable": false,
      "stateMutability": "view",
      "type": "function"
    },
    {
      "constant": true,
      "inputs": [
        {
          "internalType": "address",
          "name": "userAddress",
          "type": "address"
        }
      ],
      "name": "isUser",
      "outputs": [
        {
          "internalType": "bool",
          "name": "isIndeed",
          "type": "bool"
        }
      ],
      "payable": false,
      "stateMutability": "view",
      "type": "function"
    },
    {
      "constant": true,
      "inputs": [
        {
          "internalType": "address",
          "name": "userAddress",
          "type": "address"
        }
      ],
      "name": "isDataScientist",
      "outputs": [
        {
          "internalType": "bool",
          "name": "isIndeed",
          "type": "bool"
        }
      ],
      "payable": false,
      "stateMutability": "view",
      "type": "function"
    },
    {
      "constant": true,
      "inputs": [
        {
          "internalType": "address",
          "name": "userAddress",
          "type": "address"
        }
      ],
      "name": "isDataOwner",
      "outputs": [
        {
          "internalType": "bool",
          "name": "isIndeed",
          "type": "bool"
        }
      ],
      "payable": false,
      "stateMutability": "view",
      "type": "function"
    },
    {
      "constant": false,
      "inputs": [
        {
          "internalType": "string",
          "name": "user_name",
          "type": "string"
        },
        {
          "internalType": "bool",
          "name": "data_scientist",
          "type": "bool"
        },
        {
          "internalType": "bool",
          "name": "aggregator",
          "type": "bool"
        },
        {
          "internalType": "bool",
          "name": "hospital",
          "type": "bool"
        }
      ],
      "name": "insertUser",
      "outputs": [
        {
          "internalType": "uint256",
          "name": "index",
          "type": "uint256"
        }
      ],
      "payable": false,
      "stateMutability": "nonpayable",
      "type": "function"
    },
    {
      "constant": true,
      "inputs": [
        {
          "internalType": "address",
          "name": "userAddress",
          "type": "address"
        }
      ],
      "name": "getUser",
      "outputs": [
        {
          "internalType": "string",
          "name": "user_name",
          "type": "string"
        },
        {
          "internalType": "bool",
          "name": "data_scientist",
          "type": "bool"
        },
        {
          "internalType": "bool",
          "name": "aggregator",
          "type": "bool"
        },
        {
          "internalType": "bool",
          "name": "hospital",
          "type": "bool"
        }
      ],
      "payable": false,
      "stateMutability": "view",
      "type": "function"
    },
    {
      "constant": false,
      "inputs": [
        {
          "internalType": "address",
          "name": "userAddress",
          "type": "address"
        },
        {
          "internalType": "bool",
          "name": "data_scientist",
          "type": "bool"
        },
        {
          "internalType": "bool",
          "name": "aggregator",
          "type": "bool"
        },
        {
          "internalType": "bool",
          "name": "hospital",
          "type": "bool"
        }
      ],
      "name": "updateUserType",
      "outputs": [
        {
          "internalType": "bool",
          "name": "success",
          "type": "bool"
        }
      ],
      "payable": false,
      "stateMutability": "nonpayable",
      "type": "function"
    },
    {
      "constant": true,
      "inputs": [],
      "name": "getUserCount",
      "outputs": [
        {
          "internalType": "uint256",
          "name": "count",
          "type": "uint256"
        }
      ],
      "payable": false,
      "stateMutability": "view",
      "type": "function"
    },
    {
      "constant": true,
      "inputs": [
        {
          "internalType": "uint256",
          "name": "index",
          "type": "uint256"
        }
      ],
      "name": "getUserAtIndex",
      "outputs": [
        {
          "internalType": "address",
          "name": "userAddress",
          "type": "address"
        }
      ],
      "payable": false,
      "stateMutability": "view",
      "type": "function"
    },
    {
      "constant": false,
      "inputs": [
        {
          "internalType": "address",
          "name": "userAddress",
          "type": "address"
        }
      ],
      "name": "deleteUser",
      "outputs": [],
      "payable": false,
      "stateMutability": "nonpayable",
      "type": "function"
    }
  ],
  "bytecode": "0x608060405234801561001057600080fd5b506113f9806100206000396000f3fe608060405234801561001057600080fd5b50600436106100a95760003560e01c80636f77926b116100715780636f77926b14610298578063942e6bcf14610376578063b35992341461045f578063b5cb15f7146104bb578063ed15ac3b146104d9578063ffcc7bbf146105cc576100a9565b80630a7490cd146100ae5780631bfffc4c1461012e5780634209fff11461019c57806346efdc33146101f85780635c60f22614610254575b600080fd5b610114600480360360808110156100c457600080fd5b81019080803573ffffffffffffffffffffffffffffffffffffffff16906020019092919080351515906020019092919080351515906020019092919080351515906020019092919050505061063a565b604051808215151515815260200191505060405180910390f35b61015a6004803603602081101561014457600080fd5b810190808035906020019092919050505061093a565b604051808273ffffffffffffffffffffffffffffffffffffffff1673ffffffffffffffffffffffffffffffffffffffff16815260200191505060405180910390f35b6101de600480360360208110156101b257600080fd5b81019080803573ffffffffffffffffffffffffffffffffffffffff169060200190929190505050610976565b604051808215151515815260200191505060405180910390f35b61023a6004803603602081101561020e57600080fd5b81019080803573ffffffffffffffffffffffffffffffffffffffff1690602001909291905050506109e2565b604051808215151515815260200191505060405180910390f35b6102966004803603602081101561026a57600080fd5b81019080803573ffffffffffffffffffffffffffffffffffffffff169060200190929190505050610a55565b005b6102da600480360360208110156102ae57600080fd5b81019080803573ffffffffffffffffffffffffffffffffffffffff169060200190929190505050610b31565b6040518080602001851515151581526020018415151515815260200183151515158152602001828103825286818151815260200191508051906020019080838360005b8381101561033857808201518184015260208101905061031d565b50505050905090810190601f1680156103655780820380516001836020036101000a031916815260200191505b509550505050505060405180910390f35b6103b86004803603602081101561038c57600080fd5b81019080803573ffffffffffffffffffffffffffffffffffffffff169060200190929190505050610d8c565b604051808060200186151515158152602001851515151581526020018415151515815260200183151515158152602001828103825287818151815260200191508051906020019080838360005b83811015610420578082015181840152602081019050610405565b50505050905090810190601f16801561044d5780820380516001836020036101000a031916815260200191505b50965050505050505060405180910390f35b6104a16004803603602081101561047557600080fd5b81019080803573ffffffffffffffffffffffffffffffffffffffff169060200190929190505050610e8e565b604051808215151515815260200191505060405180910390f35b6104c3610f01565b6040518082815260200191505060405180910390f35b6105b6600480360360808110156104ef57600080fd5b810190808035906020019064010000000081111561050c57600080fd5b82018360208201111561051e57600080fd5b8035906020019184600183028401116401000000008311171561054057600080fd5b91908080601f016020809104026020016040519081016040528093929190818152602001838380828437600081840152601f19601f820116905080830192505050505050509192919290803515159060200190929190803515159060200190929190803515159060200190929190505050610f0e565b6040518082815260200191505060405180910390f35b6105f8600480360360208110156105e257600080fd5b8101908080359060200190929190505050611296565b604051808273ffffffffffffffffffffffffffffffffffffffff1673ffffffffffffffffffffffffffffffffffffffff16815260200191505060405180910390f35b600061064585610976565b6106b7576040517f08c379a000000000000000000000000000000000000000000000000000000000815260040180806020018281038252601e8152602001807f54686973206163636f756e74206973206e6f742072656769737465726564000081525060200191505060405180910390fd5b3373ffffffffffffffffffffffffffffffffffffffff168573ffffffffffffffffffffffffffffffffffffffff16146106ef57600080fd5b836000808773ffffffffffffffffffffffffffffffffffffffff1673ffffffffffffffffffffffffffffffffffffffff16815260200190815260200160002060010160006101000a81548160ff021916908315150217905550826000808773ffffffffffffffffffffffffffffffffffffffff1673ffffffffffffffffffffffffffffffffffffffff16815260200190815260200160002060010160016101000a81548160ff021916908315150217905550816000808773ffffffffffffffffffffffffffffffffffffffff1673ffffffffffffffffffffffffffffffffffffffff16815260200190815260200160002060010160026101000a81548160ff0219169083151502179055508473ffffffffffffffffffffffffffffffffffffffff167fa68fd60ddf3b5ed0ac35557e5ed7d23c223c2e10787a88ba58fbdc1f2fb197f46000808873ffffffffffffffffffffffffffffffffffffffff1673ffffffffffffffffffffffffffffffffffffffff168152602001908152602001600020600001868686604051808060200185151515158152602001841515151581526020018315151515815260200182810382528681815460018160011615610100020316600290048152602001915080546001816001161561010002031660029004801561091d5780601f106108f25761010080835404028352916020019161091d565b820191906000526020600020905b81548152906001019060200180831161090057829003601f168201915b50509550505050505060405180910390a260019050949350505050565b6001818154811061094757fe5b906000526020600020016000915054906101000a900473ffffffffffffffffffffffffffffffffffffffff1681565b60008060008373ffffffffffffffffffffffffffffffffffffffff1673ffffffffffffffffffffffffffffffffffffffff16815260200190815260200160002060010160039054906101000a900460ff16156109d557600190506109da565b600090505b809050919050565b6000600115156000808473ffffffffffffffffffffffffffffffffffffffff1673ffffffffffffffffffffffffffffffffffffffff16815260200190815260200160002060010160029054906101000a900460ff1615151415610a485760019050610a4d565b600090505b809050919050565b3373ffffffffffffffffffffffffffffffffffffffff168173ffffffffffffffffffffffffffffffffffffffff1614610a8d57600080fd5b6000808273ffffffffffffffffffffffffffffffffffffffff1673ffffffffffffffffffffffffffffffffffffffff16815260200190815260200160002060008082016000610adc91906112d7565b6001820160006101000a81549060ff02191690556001820160016101000a81549060ff02191690556001820160026101000a81549060ff02191690556001820160036101000a81549060ff0219169055505050565b60606000806000610b4185610976565b610bb3576040517f08c379a000000000000000000000000000000000000000000000000000000000815260040180806020018281038252601e8152602001807f54686973206163636f756e74206973206e6f742072656769737465726564000081525060200191505060405180910390fd5b6000808673ffffffffffffffffffffffffffffffffffffffff1673ffffffffffffffffffffffffffffffffffffffff1681526020019081526020016000206000016000808773ffffffffffffffffffffffffffffffffffffffff1673ffffffffffffffffffffffffffffffffffffffff16815260200190815260200160002060010160009054906101000a900460ff166000808873ffffffffffffffffffffffffffffffffffffffff1673ffffffffffffffffffffffffffffffffffffffff16815260200190815260200160002060010160019054906101000a900460ff166000808973ffffffffffffffffffffffffffffffffffffffff1673ffffffffffffffffffffffffffffffffffffffff16815260200190815260200160002060010160029054906101000a900460ff16838054600181600116156101000203166002900480601f016020809104026020016040519081016040528092919081815260200182805460018160011615610100020316600290048015610d765780601f10610d4b57610100808354040283529160200191610d76565b820191906000526020600020905b815481529060010190602001808311610d5957829003601f168201915b5050505050935093509350935093509193509193565b6000602052806000526040600020600091509050806000018054600181600116156101000203166002900480601f016020809104026020016040519081016040528092919081815260200182805460018160011615610100020316600290048015610e385780601f10610e0d57610100808354040283529160200191610e38565b820191906000526020600020905b815481529060010190602001808311610e1b57829003601f168201915b5050505050908060010160009054906101000a900460ff16908060010160019054906101000a900460ff16908060010160029054906101000a900460ff16908060010160039054906101000a900460ff16905085565b6000600115156000808473ffffffffffffffffffffffffffffffffffffffff1673ffffffffffffffffffffffffffffffffffffffff16815260200190815260200160002060010160009054906101000a900460ff1615151415610ef45760019050610ef9565b600090505b809050919050565b6000600180549050905090565b6000610f1933610976565b15610f8c576040517f08c379a000000000000000000000000000000000000000000000000000000000815260040180806020018281038252601b8152602001807f596f75206861766520616c72656164792072656769737465726564000000000081525060200191505060405180910390fd5b60016000803373ffffffffffffffffffffffffffffffffffffffff1673ffffffffffffffffffffffffffffffffffffffff16815260200190815260200160002060010160036101000a81548160ff021916908315150217905550846000803373ffffffffffffffffffffffffffffffffffffffff1673ffffffffffffffffffffffffffffffffffffffff168152602001908152602001600020600001908051906020019061103b92919061131f565b50836000803373ffffffffffffffffffffffffffffffffffffffff1673ffffffffffffffffffffffffffffffffffffffff16815260200190815260200160002060010160006101000a81548160ff021916908315150217905550826000803373ffffffffffffffffffffffffffffffffffffffff1673ffffffffffffffffffffffffffffffffffffffff16815260200190815260200160002060010160016101000a81548160ff021916908315150217905550816000803373ffffffffffffffffffffffffffffffffffffffff1673ffffffffffffffffffffffffffffffffffffffff16815260200190815260200160002060010160026101000a81548160ff02191690831515021790555060013390806001815401808255809150509060018203906000526020600020016000909192909190916101000a81548173ffffffffffffffffffffffffffffffffffffffff021916908373ffffffffffffffffffffffffffffffffffffffff160217905550503373ffffffffffffffffffffffffffffffffffffffff167f751ce6dbb04ed9d983952f2950db8a41188715809eb956cfbc3d4096d0a173de868686866040518080602001851515151581526020018415151515815260200183151515158152602001828103825286818151815260200191508051906020019080838360005b8381101561124757808201518184015260208101905061122c565b50505050905090810190601f1680156112745780820380516001836020036101000a031916815260200191505b509550505050505060405180910390a260018080549050039050949350505050565b6000600182815481106112a557fe5b9060005260206000200160009054906101000a900473ffffffffffffffffffffffffffffffffffffffff169050919050565b50805460018160011615610100020316600290046000825580601f106112fd575061131c565b601f01602090049060005260206000209081019061131b919061139f565b5b50565b828054600181600116156101000203166002900490600052602060002090601f016020900481019282601f1061136057805160ff191683800117855561138e565b8280016001018555821561138e579182015b8281111561138d578251825591602001919060010190611372565b5b50905061139b919061139f565b5090565b6113c191905b808211156113bd5760008160009055506001016113a5565b5090565b9056fea265627a7a72315820370ca697d5f4e954a0ac50721f6b0be8cf72082d2498be5dd111504de4c7e7ac64736f6c63430005100032",
  "source": "// SPDX-License-Identifier: MIT\npragma solidity >=0.5.16;\n\ncontract Registry {\n\n  struct Registration {\n        string user_name;\n        bool data_scientist;\n        bool aggregator;\n        bool hospital;\n        bool registered;\n  }\n\n  mapping(address => Registration) public registrations;\n  address[] public userHash;\n\n  event LogNewUser (address indexed userAddress,  string user_name, bool data_scientist, bool aggregator, bool hospital);\n  event LogUpdateUser(address indexed userAddress, string user_name, bool data_scientist, bool aggregator, bool hospital);\n\n// Checks if it is a User\n  function isUser(address userAddress) public view returns(bool isIndeed) {\n      if(registrations[userAddress].registered) {\n         isIndeed = true;\n      } else {\n         isIndeed = false;\n      }\n      return (isIndeed);\n  }\n\n  // Check if user is a data scientist\n  function isDataScientist(address userAddress) public view returns(bool isIndeed) {\n      if(registrations[userAddress].data_scientist == true){\n          isIndeed = true;\n      } else {\n          isIndeed = false;\n      }\n      return (isIndeed);\n    }\n\n  // Check is user is a data owner\n  function isDataOwner(address userAddress) public view returns(bool isIndeed) {\n      if(registrations[userAddress].hospital == true){\n          isIndeed = true;\n      } else {\n          isIndeed = false;\n      }\n      return (isIndeed);\n    }\n\n// Inserts a User if he hasnt been registered\n  function insertUser(string memory user_name, bool data_scientist, bool aggregator, bool hospital) public returns(uint index) {\n      if(isUser(msg.sender)) revert(\"You have already registered\");\n      registrations[msg.sender].registered = true;\n      registrations[msg.sender].user_name = user_name;\n      registrations[msg.sender].data_scientist = data_scientist;\n      registrations[msg.sender].aggregator = aggregator;\n      registrations[msg.sender].hospital = hospital;\n      userHash.push(msg.sender);\n      emit LogNewUser(msg.sender, user_name, data_scientist,aggregator,hospital);\n      return userHash.length-1;\n  }\n// Retrieves the User\n  function getUser(address  userAddress) public view returns(string memory user_name, bool data_scientist, bool aggregator, bool hospital){\n    if(!isUser(userAddress)) revert(\"This account is not registered\");\n    return(registrations[userAddress].user_name, registrations[userAddress].data_scientist,registrations[userAddress].aggregator,registrations[userAddress].hospital);\n  }\n// Allows to change UserType\n  function updateUserType(address userAddress, bool data_scientist, bool aggregator, bool hospital) public returns(bool success) {\n    if(!isUser(userAddress)) revert(\"This account is not registered\");\n    require(userAddress == msg.sender);\n    registrations[userAddress].data_scientist = data_scientist;\n    registrations[userAddress].aggregator = aggregator;\n    registrations[userAddress].hospital = hospital;\n    emit LogUpdateUser(userAddress, registrations[userAddress].user_name, data_scientist,aggregator,hospital);\n    return true;\n  }\n// Returns count of Registered Users\n  function getUserCount() public view returns(uint count) {\n    return userHash.length;\n  }\n\n  function getUserAtIndex(uint index) public view returns(address userAddress) {\n    return userHash[index];\n  }\n\n   function deleteUser(address userAddress) public {\n    require(userAddress == msg.sender);\n    delete(registrations[userAddress]);\n  }\n\n}",
  "sourcePath": "/Users/mac/Imperial/Software_engineering_project/group-project/reactapp/BlockchainBackend/contracts/Registry.sol",
  "compiler": {
    "name": "solc",
    "version": "0.5.16+commit.9c3226ce.Emscripten.clang"
  },
  "schemaVersion": "3.3.3",
  "updatedAt": "2021-04-18T22:06:30.053Z",
  "devdoc": {
    "methods": {}
  },
  "userdoc": {
    "methods": {}
  }
}